:020000040800F2
:10000000A8090020390200080B170008D1140008C5
:10001000091700085D040008ED1900080000000041
:100020000000000000000000000000004B0200087B
:1000300091040008000000004F020008510200086F
:10004000530200085302000853020008530200083C
:10005000530200085302000853020008530200082C
:10006000530200085302000853020008530200081C
:10007000530200085302000853020008530200080C
:100080005302000853020008530200080000000059
:100090000000000000000000000000005302000803
:1000A0005302000853020008E11700085302000839
:1000B00053020008530200085302000853020008CC
:1000C00053020008530200085302000853020008BC
:1000D0005302000853020008530200080000000009
:1000E00053020008530200085302000800000000F9
:1000F00000000000000000000000000053020008A3
:1001000000000000530200085302000853020008D8
:1001100000000000000000000000000000000000DF
:10012000530200085302000853020008530200085B
:100130005302000800000000000000000000000062
:100140000000000000000000000000005302000852
:10015000530200085302000853020008530200082B
:1001600053020008530200080000000000000000D5
:10017000000000000000000000000000000000007F
:100180000000000053020008000000000000000012
:10019000530200085302000800F002F800F03CF897
:1001A0000AA090E8000C82448344AAF10107DA45D2
:1001B00001D100F031F8AFF2090EBAE80F0013F0E8
:1001C000010F18BFFB1A43F0010318473419000050
:1001D00054190000103A24BF78C878C1FAD85207E1
:1001E00024BF30C830C144BF04680C6070470000B1
:1001F0000023002400250026103A28BF78C1FBD830
:10020000520728BF30C148BF0B6070471FB501F0CF
:100210005DFC1FBD10B510BD00F0CFF81146FFF713
:10022000F5FF00F004F900F0EDF803B4FFF7F2FF7A
:1002300003BC00F0F5F80000094880470948004772
:10024000FEE7FEE7FEE7FEE7FEE7FEE7FEE7FEE786
:10025000FEE7FEE704480549054A064B70470000E3
:100260009517000899010008A8030020A80900209C
:10027000A8050020A805002053EA020C00F06980C0
:100280002DE9F04B4FF00006002B1FBFB3FA83F5AA
:1002900003FA05F424FA05F65E4012BF1643B2FADB
:1002A00082F502FA05F4C5F120051EBF22FA05FC0D
:1002B00044EA0C04203556EA044C4FEA144418BFB3
:1002C000641C4FF000084FF00009904271EB030CE2
:1002D00039D3002919BFB1FA81F701FA07F6B0FA4C
:1002E00080F700FA07F6C7F120071EBF20FA07FCC7
:1002F00046EA0C062037B6FBF4FCA7EB0507103FD7
:1003000007F01F0BCBF120062CFA06F60CFA0BFBBC
:1003100044BFB3460026202FA4BF5E464FF0000B1B
:100320005BEA060C08BF4FF0010B19EB0B0948EB19
:100330000608ABFB027C06FB02CC0BFB03CCC01B0C
:1003400071EB0C01C1E70B46024641464846BDE849
:10035000F08B13B54FF000004FF00001AFF30080B9
:10036000BDE81C4070474FF0000200B513469446AC
:100370009646203922BFA0E80C50A0E80C50B1F1FD
:100380002001BFF4F7AF090728BFA0E80C5048BF11
:100390000CC05DF804EB890028BF40F8042B08BFAF
:1003A000704748BF20F8022B11F0804F18BF00F8AB
:1003B000012B7047704770477047754600F02CF866
:1003C000AE4605006946534620F00700854618B042
:1003D00020B5FFF73FFFBDE820404FF000064FF08B
:1003E00000074FF000084FF0000BAC46ACE8C00926
:1003F000ACE8C009ACE8C009ACE8C00921F00701CD
:100400008D46704710B50446AFF300802046BDE826
:100410001040FFF70ABF0000004870474800002066
:1004200001491820ABBEFEE726000200704780B5E8
:1004300000F0CEFA01F06AF901F096F801F05CF8EC
:1004400001F02AF901F0E6F801F042F901F002F9B1
:1004500001F040F8BDE8804001F030BBFEE700004D
:1004600001686FF00F0240F2FF3352FA81F29943B4
:1004700018235F2AB2FBF3F203A388BF043181651E
:100480009A5CC265084670470006101600061016F2
:100490007047704770B110B50446407920B900200C
:1004A0002071204600F008F8022060710120607180
:1004B000002010BD0120704701680A48A0F50362C2
:1004C000914218BF704781B000210091016841F44A
:1004D00080510160006800F480500090009801B0E5
:1004E000704700BF303802402DE9F041044600F06B
:1004F0006FF9002C4FD00546022084F8350000200B
:1005000084F834002168086820F00100086005E0E4
:1005100000F05EF9401B052840D821680868C00734
:10052000F6D10868394AD4E9013504F10C0800EA2B
:10053000020C98E8C101D4E9072E43EA0C032B43CF
:100540001843636A30433843042B40EA080040EA0A
:10055000020040EA0E0225D1D4E90BE042EA0E0285
:10056000BEF1000F40EA0200086051F8140FA26AC1
:1005700020F0030040EA020040F0040C19D0B8F566
:10058000005F28D0B8F1000F35D1022A36D0012AF9
:100590002BD09AB30DE00120BDE8F0810325202384
:1005A000032013E00A6051F8140F20F0070040EA1E
:1005B000030C2046C1F800C0FFF752FFE16D3F2257
:1005C0000023012502FA01F181600020636584F8AF
:1005D0003550BDE8F081032AEBD8012540230120E6
:1005E000DFE802F0020C0203F0E7AEF1C070B0FAEF
:1005F00080F0400904E0032A04D3DAD1CEF300608E
:100600000028D6D0012540230120DFE73F8010F0ED
:10061000B0B5044600F0DCF80546EB48611C0078F4
:1006200018BF044400F0D4F8401BA042FAD3B0BD78
:100630002DE9F84F5B4A4FF0070A4FF0010B4FF0DE
:1006400000084FF0000E9042574A08BF4FF0040ACE
:1006500002444FEAB223042B38BF4FEAB22A0022E9
:10066000102A08BFBDE8F88F0B680BFA02F6334278
:1006700000F091804B6843F01004122C13D16FF0FE
:1006800003040EF01C030F2704EA520507FA03FCCB
:1006900005442C6A24EA0C0C0C6904FA03F343EABF
:1006A0000C032B624B68032703F00305122B07FA98
:1006B00008F4076805FA08F56FEA040C27EA04074E
:1006C00047EA0507076013D80BFA03F414F0061F76
:1006D0000ED08468CD6804EA0C0405FA08F52C43B2
:1006E0008460C3F3001445689440B5432C434460D0
:1006F000C4688D68DB0004EA0C0705FA08F547EAD0
:100700000507C76047D50023284C0EF00C05009361
:10071000D64BA4461F461B6843F480433B603B68AE
:1007200003F48043009322F003032344214C009FF1
:10073000A1461F590F24AC400AFA05F5A7432F43E1
:1007400043F80970DCF800304D6843EA0607EC0313
:1007500058BF23EA0607CCF80070AC03DCF804307D
:1007600043EA060758BF23EA0607CCF80470EC02F8
:10077000DCF8083043EA060758BF23EA06070C4BAB
:10078000CCF80870AD021C461B6843EA060758BF48
:1007900023EA0607276008F102080EF1040E013271
:1007A0005EE700BF001002400000FEBF003C0140B9
:1007B0000C3C014008FCFFFF42690A408A4208BF26
:1007C000090481617047002A08BF090481617047EC
:1007D0007E480068704700BFB0B520B3044690F86B
:1007E0003D0028B9002084F83C00204600F0ACF819
:1007F000242084F83D002068016821F00101016097
:1008000000F040FA4C494D4B00224D4D88424FF0CC
:10081000000138BF0121984238BF01226368AB4212
:1008200038BF0A460AB10120B0BD9349B0FBF1F2CE
:1008300021684D6825F03F0515434D600D6A25F090
:100840003F0C404DAB4213D80132013842EA0C0252
:100850000A625A004CF6FF73B0FBF2F001306FF3FE
:100860001F30042898BF0420CA6922EA030C3AE02A
:100870004FF49675A0F1010E6A434FF47A75B2FBFE
:10088000F5F24CF6FF75013242EA0C020A62CA69BF
:1008900022EA050CA26842B1192004255843BEFB88
:1008A000F0F0013065F31F3006E003EB4300BEFBC0
:1008B000F0F001306FF31F30000509D052B119205C
:1008C00004225843BEFBF0F0013062F31F3008E011
:1008D000012008E003EB4300BEFBF0F001306FF3B2
:1008E0001F3040F4004040EA0C00C8610868D4E9B9
:1008F000072320F0C000104348F2FF32184308607D
:1009000088689043D4E90323184310438860C8687B
:10091000D4E9052320F0FF0010431843C86008689D
:1009200040F00100086000202021206484F83D1080
:10093000206384F83E00B0BD80841E0000093D00A5
:10094000A1860100A0860100B0B586B0044601A8CA
:100950001421FFF708FD21681548814225D10025A3
:10096000144C00F5D8300095216841F00201216057
:10097000216801F0020100910099042105910321F1
:10098000049101210391122102914FF440710191D0
:1009900001A9FFF74DFE0095206940F40010206189
:1009A000206900F400100090009806B0B0BD00BFB0
:1009B00000540040303802400348044900780A6877
:1009C00010440860704700BF00000020A40300200E
:1009D00080B50B48016841F400710160016841F481
:1009E00080610160016841F480710160032000F0C2
:1009F0008DF8002000F006F800F040F8002080BDDF
:100A0000003C0240B0B586B001461A200022002406
:100A100000F05EF81A2000F04DF8144801940168C7
:100A200041F4802101606946006800F48020019053
:100A3000019801A800F00AF900F02EF90E4D0C49BA
:100A40000C4B40F2E732B0FBF5F00138C1E9003061
:100A50000846C1E902420C6100F040FB08B10120E8
:100A600002E0034800F055FB06B0B0BD4438024038
:100A7000E00200200048014040420F0082B0002008
:100A80000B4901904A6842F480424A604A6802F485
:100A900080420192019A0090086840F080500860FE
:100AA000086800F080500090009802B0704700BFC6
:100AB00040380240002808DB00F01F0101224009F5
:100AC00002FA01F1014A42F82010704700E100E00B
:100AD00080B5144B1B68C3F3022CBCF1030E8CF0E1
:100AE00007034FF0FF3C38BF4FF0000E042B28BF28
:100AF00004230CFA03F399430CFA0EF301FA0EF1F6
:100B00009A431143BDE8804000F072BF05494FF69B
:100B1000FF030A681A4060F30A2203481043086082
:100B2000704700BF0CED00E00000FA052DE9F04130
:100B3000002800F08380434B04468846D3F8000425
:100B400000F00F00884207D283F80084D3F8000435
:100B500000F00F00404571D12068810711D5410791
:100B600042BF996841F4E0519960010742BF99681A
:100B700041F4604199609968A26821F0F001114345
:100B80009960C0072AD06068811E022903D21968C3
:100B9000890109D452E0012803D11968890303D4DB
:100BA0004CE01968890749D599681D4621F0030171
:100BB00008439860FFF70CFE064641F28837A868A4
:100BC00061682B4600F00C00B0EB810F06D0FFF7F8
:100BD000FFFD801BB842F2D9032430E0D3F80004B3
:100BE00000F00F00404507D983F80084D3F80004D3
:100BF00000F00F00404521D12068410705D59968D4
:100C0000E26821F4E05111439960000706D5986825
:100C1000216920F4604040EAC10098601C4600F061
:100C20004BF8A168084A0024C1F30311515CC84085
:100C30001E4908600020FFF7E5FE00E00124204681
:100C4000BDE8F08100380240E61A00080F22026079
:100C5000174A136803F003034360136803F0F003BB
:100C60008360136803F4E053C3604FF4E053D2F899
:100C700000C003EADC030361D2F8F80300F00F00C0
:100C80000860704709480A490A4A00680968C1F3C0
:100C90008221515CC840704704480549054A0068F4
:100CA0000968C1F34231515CC84070470800002018
:100CB00008380240F61A000810B5134C606800F0BE
:100CC0000C00082804D0042814BF1048104810BD98
:100CD000226820680023400202F03F020C485CBFFB
:100CE00042F20040C0F2F4002168C1F38811A0FB79
:100CF0000101FFF7C1FA21680222C1F3014102EBB1
:100D00004101B0FBF1F010BD043802400024F400B2
:100D100040787D012DE9FC41002800F00581044662
:100D20000078AF4EC0072FD0B06800F00C00042848
:100D300023D0B06800F00C00082802D1706840028F
:100D40001BD46768B7F5803F07D03068B7F5A02F90
:100D500040F00B8140F480203060306840F48030F7
:100D60003060FFF735FD0546306880030CD4FFF78F
:100D70002FFD401B6428F7D99DE03068800303D520
:100D80006068002800F0D080207880072BD5B068FC
:100D900010F00C0F07D0B06800F00C00082809D143
:100DA0007068400206D43068800715D5E0680128D5
:100DB00012D0B9E0E1688B4800297ED001210160A2
:100DC000FFF706FD05463068800705D4FFF700FDF4
:100DD000401B0228F7D96EE03068216920F0F80046
:100DE00040EAC10030602078000721D5606978B101
:100DF0007C480121C0F8801EFFF7EAFC0546706FB1
:100E0000800715D4FFF7E4FC401B0228F7D952E015
:100E100074480021C0F8801EFFF7DAFC0546706FA9
:100E2000800705D5FFF7D4FC401B0228F7D942E024
:100E30002078400770D5306C4FF00008C0000CD40B
:100E4000CDF804804FF00108306C40F080503064E1
:100E5000306C00F0805001900198634F3868C005F5
:100E60000FD4386840F480703860FFF7B1FC054655
:100E70003868C00505D4FFF7ABFC401B0228F7D942
:100E800019E0A768012F05D0306F052F25D140F05C
:100E900004003067306F40F001003067FFF798FCC6
:100EA000054641F28837306F80072ED4FFF790FC5B
:100EB000401BB842F7D9032037E000210160FFF75B
:100EC00087FC0546306880077FF58DAFFFF780FC13
:100ED000411B03200229F5D927E020F001003067EB
:100EE000306F20F004003067FFF772FC0546002FDA
:100EF000D7D141F28837306F800706D5FFF768FCFD
:100F0000411B0320B942F6D90FE0B8F1000F1EBF14
:100F1000306C20F080503064A769002F5DD0B0683D
:100F200000F00C00082803D1012002B0BDE8F081D8
:100F30002C49002088460866FFF74AFC0546022F28
:100F400009D13068800128D5FFF742FC411B0320FE
:100F50000229F6D9E9E7306880013ED5FFF738FC71
:100F6000411B03200329F6D3DFE720F480303060F3
:100F7000306820F480203060FFF72AFC0546002FFF
:100F80007FF4F2AE306880037FF5FEAEFFF720FC01
:100F9000411B03206429F5D9C7E704F11C078FCF53
:100FA0000843D90340EA82104FF6FF72914340EAAA
:100FB0000760A1F58031084370600120C8F8600027
:100FC000FFF706FC04463068800106D4FFF700FCFA
:100FD000011B03200229F6D9A7E70020A5E700BFDF
:100FE00000380240000047420070004070B5C8B3AE
:100FF000002605464FF0000C866290F8510030B98B
:10100000284685F8506000F031F8D5F828C0022154
:1010100085F8511029680A6822F040020A60D5E973
:101020000123D5E903041A4310436A69204310439E
:10103000AA6902F400731843EB6918432B6A18433A
:1010400040EA0C000860042000EA12406A6A10437B
:101050004860C86920F40060C86101206E6585F8A9
:10106000510000E00126304670BD000010B586B08A
:10107000044601A81421FFF776F92168144881423B
:1010800024D10021134A00F5E6300091136943F49E
:1010900080431361136903F480430093009B009124
:1010A000136843F002031360126802F00202009218
:1010B000009A052205920322CDE903120221029132
:1010C0004FF46041019101A9FFF7B2FA06B010BDDB
:1010D000003800403038024070477047B0B110B55A
:1010E000044690F83D0028B9002084F83C002046D2
:1010F00000F00EF80220211D84F83D00206800F069
:1011000075FB012084F83D00002010BD01207047D0
:1011100070470068C16841F00101C160816801F059
:10112000070106291EBF016841F00101016000208E
:101130007047704710B5044600680169890744BFCD
:10114000C1685FEA817138D40169490744BFC16849
:101150005FEA41713DD40169090744BFC1685FEA94
:10116000017143D40169C90644BFC1685FEAC16126
:1011700048D40169C9071CBFC1685FEAC1714ED17B
:101180000169090644BFC1685FEA01614FD4016982
:10119000490644BFC1685FEA416150D401698906CC
:1011A00046BFC1685FEA816110BD6FF02001016137
:1011B0002046BDE81040FFF790BF6FF002010161CB
:1011C000012121778069800741D02046FFF7B1FFD8
:1011D00043E06FF00401016102212177806910F47E
:1011E000407F3ED02046FFF7A4FF40E06FF00801AB
:1011F000016104212177C06980073CD02046FFF7B8
:1012000098FF3EE06FF01001016108212177C0696D
:1012100010F4407F39D02046FFF78BFF3BE06FF0A2
:1012200001010161204600F03DF82068A8E76FF059
:10123000800101612046FFF74FFF2068A7E76FF0AC
:1012400040010161204600F037F82068A6E72046FB
:1012500000F025F8204600F023F8002020772068D1
:1012600072E7204600F01BF8204600F019F8002035
:10127000207720686FE7204600F011F8204600F044
:101280000FF80020207720686CE7204600F007F870
:10129000204600F005F800202077206869E77047B5
:1012A0007047000000680349884208BFFFF784BB0D
:1012B000704700BF00480140704750B310B5044666
:1012C00090F8390028B9002084F83800204600F052
:1012D00023F8242084F839002068C16821F40051E3
:1012E000C160204600F0C4FA2068016921F49041F1
:1012F0000161416921F02A014161C16841F4005155
:10130000C16000202021E06384F8391084F83A108D
:1013100010BD0120704700002DE9F04786B004465B
:1013200001A81421FFF71FF82068F649884263D00E
:10133000E649884240F0BC800027B34800974169E5
:1013400041F010014161416901F0100100910099E3
:101350000097016841F00201016001A9006800F0F6
:1013600002000090009807200590032004900120BF
:10137000039002200290C02001904F4800F5806049
:10138000FFF756F94E49504D4FF0006940204FF499
:1013900080688A4601F58661C5E9001905F10801F2
:1013A00081E8810105F114001421FEF7DCFF2846D5
:1013B000FFF79AF808B1FFF76CF8444E0AF56E7023
:1013C00025631421C6E9000906F11400C6E9027775
:1013D000C6F81080AC63FEF7C6FF3046FFF784F80E
:1013E00008B1FFF756F82520002100226663B46398
:1013F000FFF76EFB252059E000278348009701691D
:1014000041F400310161016901F40031009100995A
:101410000097016841F00101016001A9006800F036
:1014200001000090009807200590032004900120FF
:101430000390022002900C2001901F48FFF7F8F85B
:101440001F491E4D4FF0006940204FF480688A46C6
:101450001831C5E9001905F1080181E8810105F19C
:1014600014001421FEF77FFF2846FFF73DF808B16E
:10147000FFF70FF8134E1421256306F11400C6E997
:1014800000A9C6E90277C6F81080AC63FEF76BFFCF
:101490003046FFF729F808B1FEF7FBFF26200021B0
:1014A00000226663B463FFF713FB2620FFF702FBFD
:1014B00006B0BDE8F08700BF00000240D401002064
:1014C000886002407401002014010020B400002054
:1014D000FEE7000080B5064806490160FEF7DAFF26
:1014E000002814BFBDE8804080BDFEF7D2BF00BF1A
:1014F000AC00002000300240BCB500204249184C2E
:1015000001900A6842F480020A600A6802F48002CC
:101510000192019A00900868002240F400100860CF
:101520000868002100F40010009000981020A047E7
:101530000C4D1020A847112000210022A0471120A7
:10154000A8473A2000210022A0473A20A847462079
:1015500000210022A04746202946BDE8BC4008479C
:10156000D10A0008B50A00082DE9F04387B000272A
:101570002548264C264E002249F602480697019738
:101580000168A4F5806541F080010160016801F007
:101590008001019101990197016841F00101016009
:1015A000016801F00101019101990197016841F081
:1015B0000201016049F60241006800F0020001905A
:1015C00001982846B04720464FF4805101224FF041
:1015D0000109B047204608210022B04702AE284644
:1015E000CDE90477CDE902893146FFF721F841F2D0
:1015F00008000597CDE90397314602902046FFF792
:1016000017F807B0BDE8F08330380240000402400C
:10161000C707000810B50C480C4B0D4C00224FF4C6
:1016200080410262C0E90043C0E90222C0E904121D
:10163000C0E90622FFF7D0F8002814BFBDE810402B
:1016400010BDFEF726BF00BF34020020801A06003E
:101650000054004080B50E480E4A4FF482710023BA
:101660004FF4007CC0E900210A21C0E90233C0E93F
:101670000433C0E906C3C0E90833C0E90A31FFF703
:10168000B5FC002814BFBDE8804080BDFEF701BF57
:10169000880200200038004010B50B480B4C4FF476
:1016A000E13300210C22C0E90043C0E90211C0E986
:1016B0000412C0E90611FFF700FE002814BFBDE8C0
:1016C000104010BDFEF7E5BE2003002000100140D1
:1016D00010B50B480B4C4FF4E13300210C22C0E94C
:1016E0000043C0E90211C0E90412C0E90611FFF786
:1016F000E4FD002814BFBDE8104010BDFEF7C9BED0
:101700006003002000440040FEE77047B0B592B08F
:1017100000241E480225CDE90A44CDE9084401947D
:10172000016841F080510160006800F08050019034
:10173000019801941648016841F440410160006835
:1017400000F4404001900198042011906020109511
:101750000F900C200E904FF48000CDE90C504FF408
:10176000A02007900120069006A8FFF7D3FA4FF4B7
:1017700080500594032104900F20CDE9025401907C
:1017800001A8FFF7D3F912B0B0BD00BF4038024046
:101790000070004010B50E480F4CD0F8801041F496
:1017A0007001C0F880100B490A6842F001020A601B
:1017B00000228A600B6823400B60084B4B600B686B
:1017C00023F480230B60CA604FF00061016010BDFC
:1017D00008ED00E000380240FFFFF6FE1030002464
:1017E0000148FFF7A7BC00BFE002002010B5036866
:1017F000184AB0F1804F13D0174CA04210D0174CAC
:10180000A0420DD0164CA0420AD0164CA0420BD0DC
:10181000154CA04208D0154CA04205D0904207D1EB
:101820004C6823F070032343CC6823F440732343B4
:101830004C6923F08003904243EA040303608B6801
:10184000C3620B68836204BF0969116301214161AE
:1018500010BD00BF0000014000040040000800402F
:10186000000C00400048014000400140004401409D
:101870002DE9F0470446006849F20C650169E26809
:1018800021F4405111430161A168D4E90423E769BF
:10189000C6681143AE43B7F5004F41EA030141EA80
:1018A000070141EA0601C1604169A26921F4407162
:1018B00041EA020141614A4940F480603FD18842D7
:1018C0000CBFDFF820A1DFF820A1D047D4F80490A6
:1018D0008046D04767680646D047616819257F0073
:1018E000684306FB05F34900B3FBF7F3B0FBF1F0E7
:1018F0006421B0FBF1F202FB1102181A4FEA49030E
:101900001044322202EBC0004FF4F872B0FBF1F049
:1019100002EA400008FB05F2B2FBF3F2B2FBF1F180
:1019200000EB0116D047616868434900B0FBF1F74E
:10193000D047616868430722032349003CE088429E
:1019400014BFDFF8A4A0DFF89CA0D047D4F804901F
:101950008046D04767680646D04761681925BF00B2
:10196000684306FB05F38900B3FBF7F3B0FBF1F026
:101970006421B0FBF1F202FB1102181A4FEA89034D
:101980001044322202EB001008FB05F2B0FBF1F02C
:10199000B2FBF3F200F0F000B2FBF1F100EB011644
:1019A000D047616868438900B0FBF1F7D0476168B0
:1019B00068430F2204238900B0FBF1F0391A642731
:1019C000B0FBF7F505FB170008442168984032305A
:1019D000B0FBF7F0104030438860BDE8F08700BFEF
:1019E00000140140990C0008850C0008FEE7000077
:1019F00010B5074C00F00F03044AB0F1FF3F234439
:101A0000C8BF83180801187010BD00BF00E400E0D3
:101A100014ED00E070B50B4E0C46274A05463188A0
:101A200052F8310002EBC1018988FEF7C5FE30880B
:101A30002988411A18BF411C31802046BDE87040FA
:101A4000FEF7E6BDA003002070B5104E05460C461B
:101A50003078012801D1708804E028880121317094
:101A600001387080144A81B252F8310002EBC10192
:101A70008988FEF7A1FE708800B928880138708037
:101A80002046BDE87040FEF7C3BD00BFA80000209F
:101A9000094800EBC10030F8041C50F8080CFEF7B0
:101AA00092BE00BF044800EBC10030F8041C50F89F
:101AB000080CFEF781BE00BF24000020024801216F
:101AC000012283689847FEE70C000020F1EE100A1F
:101AD0004FF6FF71C0F2C03120EA010040F04070C3
:101AE000E1EE100A70470000000000000000010253
:101AF00003040607080900000000010203040000B7
:101B0000201B00080000002048000000D40100084D
:101B1000681B00084800002060090000F001000870
:101B200001000000100000000024F4000400000088
:101B300024000020911A0008A51A0008151A0008B0
:101B4000491A000800000240008000000000024026
:101B500002000000000002400008000000000240F7
:081B6000000400000000000079
:040000050800019955
:00000001FF
