:020000040800F2
:10000000902301200D0300083D350008F52E00085F
:1000100079340008B5190008F93C00080000000018
:100020000000000000000000000000004D03000878
:10003000E919000800000000E5030008F5030008C6
:1000400027030008270300082703000827030008E8
:1000500027030008270300082703000827030008D8
:1000600027030008270300082703000827030008C8
:1000700027030008270300082703000827030008B8
:1000800027030008270300082703000800000000DA
:10009000000000000000000000000000270300082E
:1000A0002703000827030008ED390008270300088C
:1000B0002703000827030008270300082703000878
:1000C0002703000827030008270300082703000868
:1000D000270300082703000827030008000000008A
:1000E000270300082703000827030008000000007A
:1000F00000000000000000000000000027030008CE
:100100000000000027030008270300082703000859
:1001100000000000000000000000000000000000DF
:100120002703000827030008270300082703000807
:10013000270300080000000000000000000000008D
:10014000000000000000000000000000270300087D
:1001500027030008270300082703000827030008D7
:10016000270300082703000800000000000000002B
:10017000000000000000000000000000000000007F
:10018000000000002703000800000000000000003D
:10019000270300082703000800F002F800F0A2F887
:1001A0000AA090E8000C82448344AAF10107DA45D2
:1001B00001D100F097F8AFF2090EBAE80F0013F082
:1001C000010F18BFFB1A43F00103184738C30000A2
:1001D00058C300000A4410F8014B14F00F0508BF83
:1001E00010F8015B240908BF10F8014B6D1E05D003
:1001F00010F8013B6D1E01F8013BF9D1641E03D0DC
:10020000641E01F8015BFBD19142E4D3704700000A
:100210000023002400250026103A28BF78C1FBD80F
:10022000520728BF30C148BF0B6070476E2900F0ED
:100230009784702900F0EF8766290AF0E387652923
:100240000AF0E08767290AF0DD8761290AF0DC8778
:1002500003681B0A28BF41F08001692900F044842B
:10026000642900F04184752900F03E846F2900F074
:100270007D87782900F0BB87E92900F01787E429FA
:1002800000F01487F52900F01187EF2900F07A8734
:10029000F82900F0BA870368DB0928BF41F0800124
:1002A000632901F06B82732901F07082E32901F068
:1002B0007B82F32901F08082002070471FB50AF08D
:1002C00094FF00F0F0FF0400002000210AF000FF7E
:1002D000401C6060002000210AF0E4FEE0601FBDC9
:1002E00010B510BD01F006FB114603B404F0F5FA99
:1002F00003BCFFF7E3FF01F03CFB01F029FB03B473
:10030000FFF7EEFF03BC01F02DFB0000094880471A
:1003100009480047FEE7FEE7FEE7FEE7FEE7FEE7E7
:10032000FEE7FEE7FEE7FEE704480549054A064BFF
:1003300070470000A139000899010008901D0120B4
:1003400090230120901F0120901F01201EF0040F18
:100350000CBFEFF30880EFF30980816911F8021CEC
:1003600091BB01B590E80F10E047BDE800508CE864
:100370000300244B93E80600914208BF704741B93F
:100380001EF0100F10D12049086820F0010008600D
:100390000AE02CE9F00F1EF0100F08BF2CED108AB8
:1003A000C1F838C081F822E01A6092F82210906BF0
:1003B00061F0FF0E1EF0100F08BFB0EC108AB0E81D
:1003C000F00F80F309887047104A13689942FAD8F1
:1003D00001B552F821C00FC8E047BDE80050CCF885
:1003E0000000704701B504F04FFFBDE80140EFF396
:1003F000098CBEE701B505F0E7F9BDE80140EFF370
:10040000098CB6E7C801002034EF00E020C30008E3
:1004100053EA020C00F069802DE9F04B4FF0000622
:10042000002B1FBFB3FA83F503FA05F424FA05F68F
:100430005E4012BF1643B2FA82F502FA05F4C5F126
:1004400020051EBF22FA05FC44EA0C04203556EABA
:10045000044C4FEA144418BF641C4FF000084FF0DE
:100460000009904271EB030C39D3002919BFB1FA8E
:1004700081F701FA07F6B0FA80F700FA07F6C7F13C
:1004800020071EBF20FA07FC46EA0C062037B6FB01
:10049000F4FCA7EB0507103F07F01F0BCBF120067C
:1004A0002CFA06F60CFA0BFB44BFB3460026202FAD
:1004B000A4BF5E464FF0000B5BEA060C08BF4FF08E
:1004C000010B19EB0B0948EB0608ABFB027C06FBA2
:1004D00002CC0BFB03CCC01B71EB0C01C1E70B463C
:1004E000024641464846BDE8F08B13B54FF0000088
:1004F0004FF00001AFF30080BDE81C4070470000E2
:100500007CB51D4616460C00009001D02044401ECC
:10051000074B7B442A4669460190304600F047FD70
:1005200005461CB10020694600F054FD28467CBDFC
:10053000C90A00000FB41CB5084B06AA7B446946E3
:100540000090059800F033FD04460020694600F055
:1005500041FD20461CBC5DF814FB0000950A00001C
:100560002DE9F05F894604464FF0000ADFF874B1C8
:10057000FB44C0F820A02046E1688847002874D0DA
:10058000252806D0D4E901219047206A401C20622A
:10059000F1E700265F462046E168884720280546A7
:1005A00007DB312D05D2781910F8200C08B106436D
:1005B000F1E7B00701D526F00406C4F81CA0002717
:1005C000C4F818A02A2D09D028460AF063FD38B3D4
:1005D00004EB8708303DC8F8185019E059F8041B9F
:1005E000204604EB87029161E1688847012F0546A8
:1005F00018D1E069002820DA26F020061DE0D8F89E
:10060000180000EB800005EB40003038C8F81800F7
:100610002046E168884705460AF03CFD0028EED1F7
:10062000012F0AD02E2D08D12046E16888477F1C73
:100630000546022F46F02006C4DBA069002803DA35
:10064000404246F00106A061F00701D026F01006F6
:100650006C2D0BD0682D09D04C2D39D06A2D35D09A
:10066000742D35D07A2D33D016E038E0E1682F466E
:1006700020468847B842054609D16C2F26D04FF452
:100680008060E168064320468847054604E06C2FF9
:100690001AD04FF4807006430DB3A5F1410019281C
:1006A00002D8203546F400664A4629462046266090
:1006B0004E46FFF7BBFD80B101280BD0F61D26F09A
:1006C000070000F1080956E74020E4E78020D8E75A
:1006D0000020D6E706F104094DE7284652E7206AD4
:1006E000BDE8F09FB0BB000040EA0103024630B510
:1006F0009B0710D14FF0013400E008C208C91D1B50
:100700009D4315EAC41FF8D013F0FF0102F8011B46
:100710000DD01B0AF8E711F8013B002B02F8013B52
:1007200005D011F8013B002B02F8013BF3D130BD9D
:1007300010B5431C02E010F8011B71B18107FAD11A
:100740004FF0013202C88C1A8C4314EAC211F9D05E
:10075000C01A0A0603D0C01E10BDC01A10BD0A047C
:1007600001D0801E10BD0902FCD0401E10BD032A1E
:1007700040F2308010F0030C00F0158011F8013BBE
:10078000BCF1020F624498BF11F801CB00F8013BA5
:1007900038BF11F8013BA2F1040298BF00F801CB69
:1007A00038BF00F8013B11F0030300F06B80083AFA
:1007B000C0F0088051F8043B083A51F804CBA0E897
:1007C0000810F5E7121D5CBF51F8043B40F8043BEC
:1007D000AFF30080D20724BF11F8013B11F801CB21
:1007E00048BF11F8012B24BF00F8013B00F801CBF2
:1007F00048BF00F8012B7047431A28BF9A427FF682
:10080000B6AF10441144032A40F2268010F0030FC3
:100810001EBF11F8013D521E00F8013D10F0030FFC
:100820007FF4F6AF11F0030300F01385083AC0F02F
:100830000B8051F8043D083A51F804CD40F8043DCE
:1008400040F804CDFFF7F3BF121D5CBF51F8043D23
:1008500040F8043DAFF30080D20724BF11F8013DFA
:1008600011F801CD48BF11F8012C24BF00F8013D5B
:1008700000F801CD48BF00F8012C704701B5FFF723
:1008800076FF01BD10B5203AC0F00B80B1E81850DA
:10089000A0E81850B1E81850A0E81850203ABFF46A
:1008A000F5AF5FEA027C24BFB1E81850A0E8185009
:1008B00044BF18C918C0BDE810405FEA827C24BF5D
:1008C00051F8043B40F8043B08BF7047D20728BFEB
:1008D00031F8023B48BF11F8012B28BF20F8023B3A
:1008E00048BF00F8012B704701B501F0FF03114626
:1008F00043EA032242EA024200F00BF801BD02F093
:10090000FF0343EA032242EA024200F002B84FF03A
:1009100000020429C0F0128010F0030C00F01B80CC
:10092000CCF1040CBCF1020F18BF00F8012BA8BFDA
:1009300020F8022BA1EB0C0100F00DB85FEAC17C9E
:1009400024BF00F8012B00F8012B48BF00F8012B51
:1009500070474FF0000200B5134694469646203982
:1009600022BFA0E80C50A0E80C50B1F12001BFF468
:10097000F7AF090728BFA0E80C5048BF0CC05DF8CE
:1009800004EB890028BF40F8042B08BF704748BF1C
:1009900020F8022B11F0804F18BF00F8012B704790
:1009A00030B44FF0013C50F8042B51F8043BCCFA22
:1009B00052F4D51A20D1FCB950F8042B51F8043B5D
:1009C000CCFA52F4D51A17D1B4B950F8042B51F817
:1009D000043BCCFA52F4D51A0ED16CB950F8042B62
:1009E00051F8043BCCFA52F4D51A05D1002CDAD0D8
:1009F00030BC4FF00000704729BAB1FA81F111F014
:100A00001801D1F120008440F2D1CA40CB4012F04D
:100A1000FF0213F0FF0330BCD01A704770477047D5
:100A2000704770B5044685690068C10601D5302657
:100A300000E02026C00707D070BDD4E90121304670
:100A40009047206A401C20626D1EF6D570BD70B5BF
:100A5000044685690078C00707D170BDD4E901213B
:100A600020209047206A401C20626D1EF6D570BD84
:100A700009684A0501D540B27047C905FCD500B2E6
:100A8000704709684A0501D5C0B27047C905FCD551
:100A900080B2704770B50C460546012A05D028780B
:100AA000800600D5EA69002302E0012305E05B1C13
:100AB000934202D2E05C0028F9D1A869E618C01A76
:100AC000A861286A184428622846FFF7AAFF04E0B4
:100AD000D5E9012114F8010B9047B442F8D3284618
:100AE000FFF7B5FF70BD00002DE9F0410646002478
:100AF00010687529314616A510D0FFF7B9FF0028F8
:100B000002DA404213A507E031688A0701D512A531
:100B100002E0490704D511A5012401E0FFF7B1FF68
:100B200000210A2206F1240709E0B0FBF2FCB0FB29
:100B3000F2F302FB1C00303078541846491C0028A0
:100B4000F3D123462A463046BDE8F04100F0F5BB1C
:100B5000000000002D0000002B000000200000001D
:100B600011680268006A530501D508700AE0D305D0
:100B700001D5088006E0130603D5C217C1E90002BB
:100B800000E00860012070472DE9FF4F0C461E462B
:100B90004FF0FF378BB0D2E90001DDF860800A909A
:100BA0008A46C1F30A5505B93D46002108464FF073
:100BB0000000BAF1000F00F4400005DA00EB8000FD
:100BC0004FF4400101EA50004FEA9059B9F1010F8A
:100BD00000DDB9460A9850EA4A000ED044F610509B
:100BE000A5F2FF3545432F14B8F1000F1ED0754212
:100BF000291E1EDDC9F100021CE0B8F1010F4FF003
:100C0000000001D0302103E0F24305E02154401CF4
:100C1000B042FBDB30460022002121540B99C1F881
:100C20000880C1E900200FB0BDE8F08FBD1B6D1C2E
:100C3000DEE74A4600DA694206A800F0C1FD06ABCD
:100C400093E8070003AB83E8070050460A9905F0D4
:100C50009BFC8DE80700A0F500501F38009003981A
:100C6000002D0ADD42F21F014A460844002303A971
:100C70000390684605F004FF09E0A0F500504A46DD
:100C80001F38002303A90390684605F00EFF8DE886
:100C900007000004000C03D04FF0FF30410800E0D3
:100CA0001046B8F1000F03D00022009215461EE056
:100CB000751E05D400F0FCFA303262556D1EF9D570
:100CC000B3460122084302D000227F1C04E02078B2
:100CD000302801D100227F1E002A099784D01DE010
:100CE000112D07DA00F0E4FA303262556D1C50EA3B
:100CF0000102F5D1084302D00098C8B10EE00021EE
:100D0000681E05E0235C625C63542254401E491C4B
:100D10008142F7DBAB46A81B401E0990002004F877
:100D20000B000B98099AC0F80880C0E9002B7AE7FD
:100D300011264FF0000857E72DE9F04F884604468A
:100D4000D21D22F0070191B0D1E90001CDE90A01DD
:100D50000AF060F902460B98C00F01D02D2007E081
:100D60002068810701D52B2002E0202101EAC00084
:100D7000032A099001D0072A05DB03464146204695
:100D800000F0B2FC0BE12078800601D5E06900E0BC
:100D90000620B8F1650F814606D0B8F1660F18D06D
:100DA000B8F1670F70D131E00020B9F1110F009058
:100DB00001DB112301E009F101030AAA01A90CA832
:100DC000FFF7E2FEDDE90C70002609F1010583461C
:100DD00047E001204B4600904FF000470AAA01A9C6
:100DE0000CA8FFF7D1FEDDE90DB00C995D46002699
:100DF00010B909F101000D18B9EB050003D4C0F1D9
:100E0000FF3609F10105A5EB09002BE0B9F1010F4F
:100E100001DA4FF001090020B9F1110F00904846A6
:100E200001DD112300E003460AAA01A90CA8FFF77F
:100E3000ABFEDDE90C704D460026834620780007A6
:100E40000AD4AB4500DA5D4601A8012D04DD411945
:100E500011F8011C302907D04F4502DA17F1040FB1
:100E600004DA012082460FE06D1EEEE7002F02DC5F
:100E7000ED1B3E4403E0781CA84200DD7D1CB81B3E
:100E800000F1010A4FF000472078000703D4AA457B
:100E900001DB4FF0FF3A0021B7F1004F0DF143089D
:100EA0008DF8431024D002202B23002F01DA7F423B
:100EB0002D230A21021EA0F1010000DC5FB197FB87
:100EC000F1FC97FBF1F201FB1C7C17460CF1300C96
:100ED00008F801CDEEE7A8F10100037021880905AB
:100EE00001D5452100E06521A0F1010800F8011CB1
:100EF00009980FA9A1EB0807FF1D00B101204119B6
:100F000001EBEA70A1693844081A401EA0612078FC
:100F1000C00602D42046FFF784FD099828B1D4E921
:100F200001219047206A401C20622078C00622D50B
:100F30002046FFF776FD1EE0002E04DBB34502DD00
:100F400001A8805D00E03020D4E901219047206AAB
:100F5000401C2062761CAAF101005FEA000A0AD157
:100F600000F0A1F9C0680168405CD4E90121904714
:100F7000206A401C2062281EA5F10105DCDC07E088
:100F8000D4E9012118F8010B9047206A401C206227
:100F9000381EA7F10107F3DC2046FFF758FD0320B8
:100FA00011B041E601694A1C02610878704700B53A
:100FB0008FB0CDE901310021059105497944CDE992
:100FC000031011466846FFF7CBFA0FB000BD0000D2
:100FD000E5FFFFFF0A6802F8010B0A607047D1E9DC
:100FE00000239A4202D2531C0B601070704700001D
:100FF0002DE9FF5F15468A460446DFF8AC80F844C9
:101000000027D8E900103E46CDE9001010E03AF87C
:1010100016106A4602A800F045FC411C07D0217852
:10102000890603D5E269391891420DD80744761C28
:101030002078800602D5E069B84205DDAE42E6DBE5
:101040003AF816000028E2D1A069C01BA061204632
:10105000FFF7E7FCD8E90010CDE90010002017E009
:101060003AF818106A4602A800F01CFCB0F1FF3FE5
:1010700081460BD000250DF1080B05E0D4E90121D4
:101080001BF8050090476D1C4D45F7D308F1010092
:10109000B0428046E4DB206A384420622046FFF7F5
:1010A000D6FCBDE8FF9F000036B100002DE9F041FD
:1010B0008046D21D22F007020025D2E90002F52960
:1010C00015A614D0011E72F1000106DA0023D0EB40
:1010D000030063EB020211A608E0D8F800108B07AA
:1010E00001D50FA602E0490701D50EA6012511463C
:1010F000002408F1240704E000F0DAF830323A5511
:10110000641C50EA0102F7D12B4632462146404684
:10111000BDE8F04100F011B9000000002D00000012
:101120002B0000002000000030B4002100F1240456
:1011300008E002F00705D208303542EA4372DB08C6
:101140006554491C52EA0305F3D10468002310A238
:10115000250708D504F020040C4304D0C4690123FA
:101160000CA2641EC46130BC00F0E7B810B50446A0
:1011700021461068FFF785FC02462046BDE8104076
:101180000023D1E7D21D22F00701D1E90023CBE7EC
:101190000000000030000000F0B40D460188090591
:1011A00002D5214C7C4402E01F4C7C440E340021CB
:1011B00000F1240608E002F00F071209E75D42EA99
:1011C00003721B097754491C52EA0307F3D10278D2
:1011D0000023120704D5702D06D009B10223113463
:1011E0002246F0BC00F0A9B801231034F8E770B52E
:1011F00004460D4621461068FFF743FC0246294687
:101200002046BDE870400023C6E7D21D22F0070348
:10121000D3E90023C0E70368126843F020030360AA
:101220000823C3610023B7E798AF0000431A28BF23
:101230009A427FF627AB1044114410F0030F1EBFF3
:1012400011F8013D521E00F8013D10F0030F7FF42C
:10125000F6AF103AC0F00A8010B531E9185020E915
:101260001850103ABFF4F9AFBDE81040530724BF3F
:1012700031E9081020E9081044BF51F8043D40F856
:10128000043D12F0030F08BF7047D20728BF31F8A2
:10129000023D48BF11F8012C28BF20F8023D48BF8D
:1012A00000F8012C704710B500F020FB203010BD75
:1012B00030B5B0F10A0271F100034FEA900E4EEA28
:1012C000817EB0EB0E0061EB91014FEA101E4EEAF9
:1012D000017E10EB0E0041EB11114FEA102E4EEA89
:1012E000016E10EB0E0041EB11214FEA104E4EEA59
:1012F000014E10EB0E0041EB1141401841F100018D
:101300004FEAD00040EA41704FEAD1014FEA810430
:1013100044EA907410EB800544EB01046D1944EB32
:101320000404521BA3414FF0000348BF0A3200D50A
:1013300030BD401C41F1000130BD2DE9F0470D46A4
:1013400099469246044600F124080168880604D5AF
:10135000E06921F01001216000E00120A84201DDD8
:10136000471B00E00027A1697A1902EB0900081A5F
:10137000A0612078C00602D42046FFF752FB002669
:1013800008E0D4E901211AF806009047206A401CC1
:10139000761C20624E45F4DB2078C0060AD5204634
:1013A000FFF73FFB06E0D4E9012130209047206A97
:1013B000401C2062381EA7F10107F4DC07E0D4E9E5
:1013C000012118F805009047206A401C2062281E61
:1013D000A5F10105F3DC2046FFF739FB2078000674
:1013E00002D50220BDE8F0870120FBE72DE9F04F90
:1013F00004460D46D21D22F0070089B0D0E90097BF
:101400004846394609F006FE0246F80F01D02D2362
:1014100007E02068810701D52B2302E0202101EAA3
:10142000C0038DF820300BB1012000E00020032A1A
:10143000824601D0072A04DB2946204600F054F9F1
:101440003FE12078800601D40D2500E0E569C7F36F
:101450000A560D2D49DA00214FEA175B08464FF076
:101460000000002F00F4400007DA00EB80004FF48A
:10147000400100EBD07001EA60008115012901DD17
:101480004FF0FF3100224FEA850CBCF1180F06D354
:101490001346ACF118004FF08052C24003E04FF405
:1014A000801323FA0CF30CF10C0CBCF1200F04D3C5
:1014B000ACF1200C09FA0CF001E007FA0CF000295D
:1014C0004FF0004801DD18B90FE00ED140450CD3B4
:1014D00019EB02095F4121B9404502D19F4329EA36
:1014E0000209BBEB175F00D0761C2088000502D5EF
:1014F0007B48784402E07A487844193808AA3023B7
:1015000002F80A30037C0AF10101002E0AF1020AF6
:1015100053546A4602DC4FF0300101E04FF03101D4
:101520004FF001088DF8001002D0A6F2FF3603E05C
:1015300059EA470100D06B4E002D02DC21780907E3
:1015400004D54FF002082E218DF80110C446002169
:101550000BE0C7F303433F01C35C491C6D1E02F857
:101560000830052908F1010801DA002DF1DC00211D
:101570000CE000EB1973491C1B786D1E082902F85A
:1015800008304FEA091908F1010801DA002DF0DCF2
:1015900021688B0602D516E0A8F10108E04505DDBB
:1015A00002EB080313F8013C302BF5D0B8F1000F23
:1015B00009DD02EB080313F8013C2E2B03D10907C8
:1015C00001D4A8F10108002D05DD3E2102F8081024
:1015D0006D1E08F10108407C002E02F8080008F199
:1015E000010804DA2D20764202F8080002E02B20E0
:1015F00002F808000A214FF47A70864208F10108C7
:101600000BDB96FBF0F3303302F8083096FBF0F377
:1016100008F1010800FB136601E0642E0CDB642076
:1016200096FBF0F3303302F8083096FBF0F308F144
:10163000010800FB136601E00A2E06DB96FBF1F0C1
:10164000303002F8080008F1010896FBF1F001FBC8
:101650001060303002F80800A16908F1010808EBB9
:10166000050202EB0A00081AA0612078C00602D425
:101670002046FFF7D6F9216A08AE01EB0A00206286
:1016800004E0D4E9012116F8010B9047BAF1010AF0
:10169000F7D22078C00602D52046FFF7C2F96E4681
:1016A00009E016F8010B3E280FD0D4E9012190473C
:1016B000206A401C2062B8F10108F2D22046FFF7F0
:1016C000C6F909B00320BDE8F08F206A28442062E3
:1016D00003E0D4E90121302090476D1EEBD3F8E7F9
:1016E00085AC000002FCFFFF2DE9F0411F460446D7
:1016F00003260168072A01F4006004DB08B116A57F
:1017000005E016A503E008B115A500E015A521F038
:1017100010002060A069C01EA0610FB1401EA06132
:101720002046FFF77EF94FB1D4E9012138469047B2
:10173000206A401C2062C01C206206E0206AFAE792
:10174000D4E9012115F8010B9047761EF8D2204606
:10175000FFF77DF9BDE8F0814E414E006E616E00ED
:10176000494E4600696E660010B5436913B1AFF388
:10177000008001E0FFF78EF9012010BD127800F122
:1017800024010A7000224A700122EDE711684FF02F
:10179000FF32E9E710B5436913B1AFF3008001E010
:1017A000FFF726FC012010BD128800F1240182847D
:1017B0000022C2840122EDE711684FF0FF32E9E711
:1017C0002DE9F047814616468AB0354878440DC861
:1017D0008DE80D0032487844801C03AC0DC884E8C5
:1017E0000D0041F69B300844372190FBF1F290FB4D
:1017F000F1F5A5F1800501FB12041B3C02D5644202
:10180000012000E00020DFF898A080460027FA447D
:10181000AAF1BE0A0EE0E0070AD03246684607EB9E
:10182000470101230AEB810105F03FF98DE807002C
:1018300064107F1C002CEED1194F7F44AE3F19E09D
:10184000E80715D007EB04100DF1180A90E80E0018
:101850008AE80E00C068F04201D19819089032461B
:10186000012306A903A805F020F903AB83E80700CC
:101870006D10641C002DE3D14FF001033246694620
:10188000B8F1000F03A802D005F0FAF801E005F066
:101890000CF9C9E90001C9F808200AB0BDE8F087D1
:1018A0003CAA00002DE9F04116460C46054600F022
:1018B00047F8036893F80101012807D0FF2C12D8DC
:1018C000185D80B101202C70BDE8F081D3F80701CC
:1018D0003246214603F20713C7182846BC46BDE826
:1018E000F041002360474FF0FF30EDE700487047BC
:1018F0004C0400207546FFF7F9FFAE460500694627
:10190000534620F00700854618B020B5FEF70CFDC1
:10191000BDE820404FF000064FF000074FF00008F0
:101920004FF0000BAC46ACE8C009ACE8C009ACE82D
:10193000C009ACE8C00921F007018D4670470000DE
:1019400010B5FFF7B0FC001D10BD00BF859700006B
:1019500010B50446AFF300802046BDE81040FEF706
:10196000CEBC000001491820ABBEFEE726000200F5
:10197000704780B500F038FC01F098FF01F080FC62
:1019800001F046FC01F020FD01F038FD01F0DAFC29
:1019900001F050FD01F0F6FC01F028FC01F066FDBD
:1019A00001F0FEFD01F0CBFD01F058FEBDE88040E6
:1019B00003F0C2B8FEE7000001686FF00F0240F2CA
:1019C000FF3352FA81F2994318235F2AB2FBF3F2F4
:1019D00003A388BF043181659A5CC26508467047DD
:1019E0000006101600061016704700000E4900226F
:1019F00009684A620A6842F001020A6064225043A0
:101A00004A6A8242FCD3086A41F21112104200D0A5
:101A10007047086A40F24442104218BF7047086895
:101A200020F001000860704700070120704710B5E2
:101A3000930712D400F10C03D00718D153E8000F1C
:101A4000084203D1BFF32F8F002005E020EA0102F6
:101A500043E8002404B1F1E710BDC068D20700EAF2
:101A6000010315D1002B18BF10BD002010BD53E895
:101A7000000F00EA01028A4203D0BFF32F8F00203B
:101A800005E020EA010243E8002404B1EFE710BDBD
:101A90008B4218BF002010BD7047704770477047D9
:101AA000704770477047704770477047704770477E
:101AB000704770477047704770477047704770476E
:101AC000704770477047704770477047704770475E
:101AD000704770477047704770477047704770474E
:101AE000704770477047704770477047704770473E
:101AF000704770477047704770477047704770472E
:101B0000704770477047704770477047704770471D
:101B1000704770477047000080B505484FF400419A
:101B200005F0E8FA0348BDE8804005F0A1BF00BF1A
:101B3000C404002020B90008012003F029B803F0F4
:101B4000D9BE704710B5002003F09AF9084C206008
:101B5000002003F039F8606010BD00BF04484FF06A
:101B6000FF31006803F052B90148006803F0A6B9DC
:101B7000BC04002070B110B50446407920B90020A3
:101B80002071204600F008F8022060710120607189
:101B9000002010BD0120704701680A48A0F50362CB
:101BA000914218BF704781B000210091016841F453
:101BB00080510160006800F480500090009801B0EE
:101BC000704700BF303802402DE9F041044600F074
:101BD00079F9002C4FD00546022084F8350000200A
:101BE00084F834002168086820F00100086005E0EE
:101BF00000F068F9401B052840D821680868C00734
:101C0000F6D10868394AD4E9013504F10C0800EA34
:101C1000020C98E8C101D4E9072E43EA0C032B43D8
:101C20001843636A30433843042B40EA080040EA13
:101C3000020040EA0E0225D1D4E90BE042EA0E028E
:101C4000BEF1000F40EA0200086051F8140FA26ACA
:101C500020F0030040EA020040F0040C19D0B8F56F
:101C6000005F28D0B8F1000F35D1022A36D0012A02
:101C70002BD09AB30DE00120BDE8F081032520238D
:101C8000032013E00A6051F8140F20F0070040EA27
:101C9000030C2046C1F800C0FFF78EFEE16D3F2225
:101CA0000023012502FA01F181600020636584F8B8
:101CB0003550BDE8F081032AEBD8012540230120EF
:101CC000DFE802F0020C0203F0E7AEF1C070B0FAF8
:101CD00080F0400904E0032A04D3DAD1CEF3006097
:101CE0000028D6D0012540230120DFE73F8010F0F7
:101CF000B0B5044600F0E6F805460548611C0078DA
:101D000018BF044400F0DEF8401BA042FAD3B0BD77
:101D1000640100202DE9F84F5B4A4FF0070A4FF0AD
:101D2000010B4FF000084FF0000E9042574A08BFD9
:101D30004FF0040A02444FEAB223042B38BF4FEAA3
:101D4000B22A0022102A08BFBDE8F88F0B680BFAF0
:101D500002F6334200F091804B6843F01004122CDD
:101D600013D16FF003040EF01C030F2704EA520591
:101D700007FA03FC05442C6A24EA0C0C0C6904FAEB
:101D800003F343EA0C032B624B68032703F00305BC
:101D9000122B07FA08F4076805FA08F56FEA040C35
:101DA00027EA040747EA0507076013D80BFA03F48C
:101DB00014F0061F0ED08468CD6804EA0C0405FAFE
:101DC00008F52C438460C3F3001445689440B54380
:101DD0002C434460C4688D68DB0004EA0C0705FAF4
:101DE00008F547EA0507C76047D50023284C0EF0E1
:101DF0000C050093284BA4461F461B6843F4804300
:101E00003B603B6803F48043009322F003032344C8
:101E1000224C009FA1461F590F24AC400AFA05F539
:101E2000A7432F4343F80970DCF800304D6843EABC
:101E30000607EC0358BF23EA0607CCF80070AC0392
:101E4000DCF8043043EA060758BF23EA0607CCF85B
:101E50000470EC02DCF8083043EA060758BF23EAB6
:101E600006070C4BCCF80870AD021C461B6843EA11
:101E7000060758BF23EA0607276008F102080EF19B
:101E8000040E01325EE700BF001002400000FEBFFA
:101E9000003C01400C3C01404438024008FCFFFF7C
:101EA0000069084018BF0120704742690A408A4211
:101EB00008BF090481617047002A08BF09048161D5
:101EC00070470000C7480068704700BFB0B520B336
:101ED000044690F83D0028B9002084F83C002046D4
:101EE00000F03EF9242084F83D002068016821F0CC
:101EF0000101016000F0D2FA4C494D4B00224D4DDA
:101F000088424FF0000138BF0121984238BF0122BA
:101F10006368AB4238BF0A460AB10120B0BDDC4954
:101F2000B0FBF1F221684D6825F03F0515434D6087
:101F30000D6A25F03F0C404DAB4213D801320138F9
:101F400042EA0C020A625A004CF6FF73B0FBF2F050
:101F500001306FF31F30042898BF0420CA6922EAB9
:101F6000030C3AE04FF49675A0F1010E6A434FF46A
:101F70007A75B2FBF5F24CF6FF75013242EA0C02BB
:101F80000A62CA6922EA050CA26842B11920042536
:101F90005843BEFBF0F0013065F31F3006E003EB61
:101FA0004300BEFBF0F001306FF31F30000509D095
:101FB00052B1192004225843BEFBF0F0013062F305
:101FC0001F3008E0012008E003EB4300BEFBF0F007
:101FD00001306FF31F3040F4004040EA0C00C8614C
:101FE0000868D4E9072320F0C000104348F2FF320C
:101FF0001843086088689043D4E9032318431043CA
:102000008860C868D4E9052320F0FF001043184316
:10201000C860086840F001000860002020212064AA
:1020200084F83D10206384F83E00B0BD80841E001B
:1020300000093D00A1860100A08601002DE9FE43B4
:10204000994616460F460446FFF73CFF054694F8AE
:102050003D0020280BD1404920460122192300953C
:1020600000F0DBFF18B994F83C00012803D10220EE
:1020700003B0BDE8F0830DF12808012298E80301C0
:1020800084F83C2022681368DB0702BF136843F022
:1020900001031360136823F40063136021224B468D
:1020A00084F83D20402284F83E200022226461858D
:1020B00060622A493246608DE162394620852046B9
:1020C000CDE9008500F030FF08B10120D0E7208D78
:1020D00022E0204641462A4601F025F820BB616AED
:1020E0002268084610F8013B13616062238D581E78
:1020F00020850604678DA7F101076785576918BF1A
:1021000017F0040708D0487802311061981E208526
:102110006162618D013961850004DAD12046414652
:102120002A4600F053FF40B1206C0428CDD120682E
:10213000016841F400710160C7E72068016841F45B
:1021400000710160202084F83D00002084F83C00EC
:1021500084F83E008CE700BF020010000000FFFF83
:10216000B0B586B0044601A81421FEF7F2FB216841
:102170001548814225D10025144C00F5D830009532
:10218000216841F002012160216801F00201009103
:102190000099042105910321049101210391122149
:1021A00002914FF44071019101A9FFF7B3FD009531
:1021B000206940F400102061206900F400100090B4
:1021C000009806B0B0BD00BF005400403038024057
:1021D0000348044900780A6810440860704700BF4B
:1021E00064010020601D012080B50B48016841F4A6
:1021F00000710160016841F480610160016841F48F
:1022000080710160032000F08DF8002000F006F8D6
:1022100000F040F8002080BD003C0240B0B586B020
:1022200001461A200022002400F05EF81A2000F077
:102230004DF814480194016841F480210160694619
:10224000006800F480200190019801A800F00AF9CC
:1022500000F02EF90E4D0C490C4B40F2E732B0FB6A
:10226000F5F00138C1E900300846C1E902420C61CD
:1022700000F02AFC08B1012002E0034800F056FCFF
:1022800006B0B0BD4438024040070120004801407C
:1022900040420F0082B000200B4901904A6842F48E
:1022A00080424A604A6802F480420192019A00909A
:1022B000086840F080500860086800F08050009086
:1022C000009802B0704700BF40380240002808DB89
:1022D00000F01F010122400902FA01F1014A42F80F
:1022E0002010704700E100E080B5144B1B68C3F379
:1022F000022CBCF1030E8CF007034FF0FF3C38BFFB
:102300004FF0000E042B28BF04230CFA03F399436B
:102310000CFA0EF301FA0EF19A431143BDE8804026
:1023200002F09EBA05494FF6FF030A681A4060F3AF
:102330000A22034810430860704700BF0CED00E01C
:102340000000FA052DE9F041002800F08380434B9E
:1023500004468846D3F8000400F00F00884207D2F4
:1023600083F80084D3F8000400F00F00404571D1D9
:102370002068810711D5410742BF996841F4E051B7
:102380009960010742BF996841F46041996099687A
:10239000A26821F0F00111439960C0072AD060685B
:1023A000811E022903D21968890109D452E001284B
:1023B00003D11968890303D44CE01968890749D50A
:1023C00099681D4621F0030108439860FFF77AFDE4
:1023D000064641F28837A86861682B4600F00C0079
:1023E000B0EB810F06D0FFF76DFD801BB842F2D92C
:1023F000032430E0D3F8000400F00F00404507D973
:1024000083F80084D3F8000400F00F00404521D188
:102410002068410705D59968E26821F4E05111432D
:102420009960000706D59868216920F4604040EA69
:10243000C10098601C4600F04BF8A168084A0024CF
:10244000C1F30311515CC8401E4908600020FFF72A
:10245000E5FE00E001242046BDE8F081003802409E
:10246000C4C200080F220260174A136803F0030376
:102470004360136803F0F0038360136803F4E053D0
:10248000C3604FF4E053D2F800C003EADC030361F9
:10249000D2F8F80300F00F000860704709480A49B5
:1024A0000A4A00680968C1F38221515CC84070473C
:1024B00004480549054A00680968C1F34231515C86
:1024C000C84070476C01002008380240D4C20008A0
:1024D00010B5134C606800F00C00082804D00428E4
:1024E00014BF1048104810BD226820680023400225
:1024F00002F03F020C485CBF42F20040C0F2F40020
:102500002168C1F38811A0FB0101FDF781FF21685B
:102510000222C1F3014102EB4101B0FBF1F010BD19
:10252000043802400024F40040787D012DE9FC418C
:10253000002800F0058104460078AF4EC0072FD078
:10254000B06800F00C00042823D0B06800F00C0044
:10255000082802D1706840021BD46768B7F5803F35
:1025600007D03068B7F5A02F40F00B8140F48020F1
:102570003060306840F480303060FFF7A3FC0546DF
:10258000306880030CD4FFF79DFC401B6428F7D90A
:102590009DE03068800303D56068002800F0D0809B
:1025A000207880072BD5B06810F00C0F07D0B068EA
:1025B00000F00C00082809D17068400206D4306889
:1025C000800715D5E068012812D0B9E0E1688B4892
:1025D00000297ED001210160FFF774FC05463068B8
:1025E000800705D4FFF76EFC401B0228F7D96EE088
:1025F0003068216920F0F80040EAC100306020789E
:10260000000721D5606978B17C480121C0F8801E9F
:10261000FFF758FC0546706F800715D4FFF752FC92
:10262000401B0228F7D952E074480021C0F8801EF0
:10263000FFF748FC0546706F800705D5FFF742FCA1
:10264000401B0228F7D942E02078400770D5306C53
:102650004FF00008C0000CD4CDF804804FF0010802
:10266000306C40F080503064306C00F0805001904D
:102670000198634F3868C0050FD4386840F4807003
:102680003860FFF71FFC05463868C00505D4FFF722
:1026900019FC401B0228F7D919E0A768012F05D0C3
:1026A000306F052F25D140F004003067306F40F0C7
:1026B00001003067FFF706FC054641F28837306FAE
:1026C00080072ED4FFF7FEFB401BB842F7D903204A
:1026D00037E000210160FFF7F5FB05463068800711
:1026E0007FF58DAFFFF7EEFB411B03200229F5D9E3
:1026F00027E020F001003067306F20F004003067E1
:10270000FFF7E0FB0546002FD7D141F28837306F45
:10271000800706D5FFF7D6FB411B0320B942F6D947
:102720000FE0B8F1000F1EBF306C20F08050306415
:10273000A769002F5DD0B06800F00C00082803D115
:10274000012002B0BDE8F0812C49002088460866CF
:10275000FFF7B8FB0546022F09D13068800128D564
:10276000FFF7B0FB411B03200229F6D9E9E73068E7
:1027700080013ED5FFF7A6FB411B03200329F6D3BA
:10278000DFE720F480303060306820F48020306053
:10279000FFF798FB0546002F7FF4F2AE3068800308
:1027A0007FF5FEAEFFF78EFB411B03206429F5D9B0
:1027B000C7E704F11C078FCF0843D90340EA821012
:1027C0004FF6FF72914340EA0760A1F5803108435C
:1027D00070600120C8F86000FFF774FB04463068A1
:1027E000800106D4FFF76EFB011B03200229F6D9F6
:1027F000A7E70020A5E700BF0038024000004742DD
:102800000070004070B5C8B3002605464FF0000CBC
:10281000866290F8510030B9284685F8506000F083
:1028200031F8D5F828C0022185F8511029680A68C6
:1028300022F040020A60D5E90123D5E903041A43D6
:1028400010436A6920431043AA6902F400731843D5
:10285000EB6918432B6A184340EA0C000860042017
:1028600000EA12406A6A10434860C86920F40060B8
:10287000C86101206E6585F8510000E001263046F0
:1028800070BD000010B586B0044601A81421FEF703
:1028900060F821681448814224D10021134A00F5D0
:1028A000E6300091136943F480431361136903F424
:1028B00080430093009B0091136843F00203136070
:1028C000126802F002020092009A05220592032289
:1028D000CDE90312022102914FF46041019101A957
:1028E000FFF718FA06B010BD00380040303802403B
:1028F0002DE9F843044690F85000012801D1022048
:10290000C7E001201E4615460F4684F85000FFF729
:10291000D9FA94F85110814601296BD10120002F7A
:1029200000F0B180002D00F0AE80002E00F0AB80F2
:1029300094F85100DDF8208004281CBF052084F89D
:10294000510000206065E687A563A6872763C4E978
:102950001000A686E6862068016849065EBF016809
:1029600041F0400101606268711EE368B1FA81F1D3
:10297000B2FA82F24909B3F5006F4FEA521241EA06
:10298000020145D131B137F8021BC1602763E08EE7
:102990000138E086012608F10105E08E10B9E08FCC
:1029A000002879D02068816889070CD5E18E012E36
:1029B00009D141B1216B002631F8022BC26021639D
:1029C000E18E0139E1868168C9070AD0E18F41B102
:1029D000C068A16B012621F8020BA163E08F0138CA
:1029E000E087FFF76FFA002DD7D0A0EB0900404534
:1029F000D3D347E06068B0F5827F07D10220042975
:102A000041D1A16800293FF489AF3CE002203AE0BF
:102A100039B139780173206B01302063E08E0138C1
:102A2000E086012608F10105E08E08B9E08F98B331
:102A30002068816889070ED5E18E012E0BD151B136
:102A4000216B002609780173216B20680131216315
:102A5000E18E0139E1868168C9070BD0E18F49B168
:102A6000C068A16B01260870A06B0130A063E08FE5
:102A70000138E087FFF726FA002DD5D0A0EB09003A
:102A80004045D1D30320002184F85010012184F85F
:102A9000511001B0BDE8F083204641464A4600F09F
:102AA0009BFE18B1202060650120ECE7A1680020A2
:102AB0000029E8D100902168CA68009289680091D5
:102AC0000099E0E770477047B0B110B5044690F840
:102AD0003D0028B9002084F83C00204600F00EF8A4
:102AE0000220211D84F83D00206800F085FF0120B0
:102AF00084F83D00002010BD01207047006809499E
:102B0000884218BF704781B00020009006480168D5
:102B100041F400310160006800F40030009000983A
:102B200001B0704700440140443802400068C16869
:102B300041F00101C160816801F0070106291EBF53
:102B4000016841F00101016000207047704710B535
:102B5000044600680169890744BFC1685FEA817162
:102B600038D40169490744BFC1685FEA41713DD467
:102B70000169090744BFC1685FEA017143D4016973
:102B8000C90644BFC1685FEAC16148D40169C90789
:102B90001CBFC1685FEAC1714ED10169090644BF1B
:102BA000C1685FEA01614FD40169490644BFC16849
:102BB0005FEA416150D40169890646BFC1685FEA96
:102BC000816110BD6FF0200101612046BDE8104019
:102BD000FFF779BF6FF00201016101212177806960
:102BE000800741D02046FFF7B1FF43E06FF00401BA
:102BF000016102212177806910F4407F3ED0204698
:102C0000FFF7A4FF40E06FF0080101610421217784
:102C1000C06980073CD02046FFF798FF3EE06FF088
:102C20001001016108212177C06910F4407F39D07B
:102C30002046FFF78BFF3BE06FF00101016120466A
:102C400000F03CF82068A8E76FF0800101612046A1
:102C5000FFF738FF2068A7E76FF0400101612046C9
:102C600000F036F82068A6E7204600F025F8204658
:102C700000F023F800202077206872E7204600F05B
:102C80001BF8204600F019F80020207720686FE735
:102C9000204600F011F8204600F00FF800202077C1
:102CA00020686CE7204600F007F8204600F005F8A1
:102CB00000202077206869E7704770470068034963
:102CC000884208BFFFF784BA704700BF0048014040
:102CD000704750B310B5044690F8390028B9002069
:102CE00084F83800204600F023F8242084F83900C6
:102CF0002068C16821F40051C160204600F03EFF09
:102D00002068016921F490410161416921F02A01A3
:102D10004161C16841F40051C16000202021E0639D
:102D200084F8391084F83A1010BD01207047000073
:102D30002DE9F04786B0044601A81421FDF709FEED
:102D400020686349884263D06249884240F0BC8071
:102D5000002761480097416941F0100141614169D4
:102D600001F01001009100990097016841F0020103
:102D7000016001A9006800F002000090009807209F
:102D80000590032004900120039002200290C020AF
:102D90000190524800F58060FEF7BCFF5149534D49
:102DA0004FF0006940204FF480688A4601F5866143
:102DB000C5E9001905F1080181E8810105F1140058
:102DC0001421FDF7C6FD2846FEF7FEFE08B1FEF70A
:102DD0002DFE474E0AF56E7025631421C6E90009E1
:102DE00006F11400C6E90277C6F81080AC63FDF75F
:102DF000B0FD3046FEF7E8FE08B1FEF717FE2520CD
:102E0000002100226663B463FFF76EFA252059E0C3
:102E1000002731480097016941F4003101610169DF
:102E200001F40031009100990097016841F001011F
:102E3000016001A9006800F00100009000980720DF
:102E400005900320049001200390022002900C20A2
:102E500001902248FEF75EFF2249214D4FF00069A4
:102E600040204FF480688A461831C5E9001905F101
:102E7000080181E8810105F114001421FDF769FDC5
:102E80002846FEF7A1FE08B1FEF7D0FD164E14212C
:102E9000256306F11400C6E900A9C6E90277C6F861
:102EA0001080AC63FDF755FD3046FEF78DFE08B18E
:102EB000FEF7BCFD2620002100226663B463FFF705
:102EC00013FA2620FFF702FA06B0BDE8F08700BF2C
:102ED0000044004000100140303802400000024031
:102EE000F40501208860024094050120340501208A
:102EF000D4040120FEE70268516949054FF0000142
:102F00000FD56FF4806353612022016380F83D2068
:102F100080F83E1080F83C10016C41F0040101641F
:102F200001210846704700002DE9FE430446006871
:102F30000F460A9D0B9E99469046002201682B463B
:102F400041F48071016020464FF00111009600F0BD
:102F500064F850B9206807F0FE012A463346016143
:102F60001949204600F094F818B1012003B0BDE8DB
:102F7000F083002032460290206841690291294680
:102F8000806902900298204600F0CDF840B1206C94
:102F90000428EAD12068016841F400710160E4E787
:102FA000B9F1010F0AD020684FEA182132460161B9
:102FB0002046294600F0B7F80028E8D120685FFADB
:102FC00088F101610020D1E702000100F8B5154643
:102FD0000E4604464F1C2068406940071AD420461C
:102FE000FFF789FFA0B9002FF5D0FEF76BFF16B1F0
:102FF000401BB042EFD900202021206384F83D100F
:1030000084F83E0084F83C00206C40F020002064EE
:10301000012000E0002001B0F0BD2DE9F047DDF80F
:1030200020909A46164680468FB201F47F045D1CBC
:103030001820B4F5803F08BF1420D8F800100858B5
:103040003840C01BB0FA80F04009B0421CBF0020DD
:10305000BDE8F087002DEBD0FEF734FFBAF1000F8A
:1030600003D0A0EB09005045E2D900202021C8F888
:10307000300088F83D1088F83E0088F83C00D8F809
:10308000400040F02000C8F840000120BDE8F08773
:103090002DE9F8439846164681468FB201F47F0524
:1030A000541CD9F80000B5F5803F0CBF4169816917
:1030B0003940B9421AD04169490519D4002CF0D0E1
:1030C000FEF700FF1EB1A0EB0800B042E9D90020D6
:1030D0002021C9F8300089F83D1089F83E0089F8B0
:1030E0003C00D9F8400040F0200016E0002017E036
:1030F000016841F4007101606FF48061416100205A
:103100002021C9F8300089F83D1089F83E0089F87F
:103110003C00D9F8400040F00400C9F8400001200C
:1031200001B0BDE8F083F8B515460E4604464F1CC5
:103130002068406900061AD42046FFF7DCFEA0B9DB
:10314000002FF5D0FEF7BEFE16B1401BB042EFD9FE
:1031500000202021206384F83D1084F83E0084F88C
:103160003C00206C40F020002064012000E00020A2
:1031700001B0F0BD10B5074800210022002402F084
:10318000CBFB05490028086008BF4FF0FF342046FC
:1031900010BD00BF7D3A00085C1B012080B51048BF
:1031A00010490022002304F0E7F805F08BF958B12C
:1031B00000204021802205F011FB002040218022C8
:1031C000BDE8804005F020BB00208021402205F0B2
:1031D00005FB002080214022BDE8804005F014BBA3
:1031E000DCC2000814B200080020704780B5064811
:1031F00006490160FEF7BEFC002814BFBDE8804010
:1032000080BDFEF713BC00BFCC040120003002409B
:10321000BCB500204749184C01900A6842F480026E
:103220000A600A6802F480020192019A009008681C
:10323000002240F4001008600868002100F400102B
:10324000009000981020A0470C4D1020A847112096
:1032500000210022A0471120A8473A200021002287
:10326000A0473A20A847462000210022A047462038
:103270002946BDE8BC400847E9220008CD220008E5
:103280002DE9F04786B000272A482B4C2B4E002210
:1032900005970097016841F080010160016801F025
:1032A0008001009100990097016841F001010160DF
:1032B000016801F00101009100990097016841F057
:1032C0000201016049F60241006800F0020000902E
:1032D00000982046B04704F580654FF480510122E4
:1032E000A2464FF480584FF001092846B0472846BF
:1032F00008210022B04701AE48F60240104C049766
:10330000CDE90297019050463146A04741F20800AE
:103310000497CDE90297314601902846A047032043
:103320003146CDE903705046CDE90189A04706B08A
:10333000BDE8F0873038024000000240B91E0008A6
:10334000151D000810B50C480C4B0D4C00224FF415
:1033500080410262C0E90043C0E90222C0E90412D0
:10336000C0E90622FEF7B2FD002814BFBDE81040F8
:1033700010BDFEF75BBB00BF54060120801A06009B
:103380000054004080B50E480E4A4FF4827100236D
:103390004FF4007CC0E900210A21C0E90233C0E9F2
:1033A0000433C0E906C3C0E90833C0E90A31FFF7B6
:1033B00029FA002814BFBDE8804080BDFEF736BB67
:1033C000A80601200038004080B50A480A4B0021B9
:1033D0004FF6FF728161C0E90031C0E9021201615C
:1033E000FFF772FB002814BFBDE8804080BDFEF7E8
:1033F0001DBB00BF000701200044014010B50B4871
:103400000B4C4FF4E13300210C22C0E90043C0E92A
:103410000211C0E90412C0E90611FFF75AFC0028A6
:1034200014BFBDE8104010BDFEF700BB80070120AF
:103430000010014010B50B480B4C4FF4E133002154
:103440000C22C0E90043C0E90211C0E90412C0E93E
:103450000611FFF73EFC002814BFBDE8104010BD68
:10346000FEF7E4BAC00701200044004079484FF459
:10347000004101F0D0BD00BFFEE710B500F128010A
:1034800051E8002F12B9BFF32F8F04E0531E41E81B
:10349000003404B1F4E782B12C3001210AE0821C2F
:1034A000D2E84F3FC2E8441F04B1F9E71A0608BF4B
:1034B00010BD083000680028F1D1002010BD10B503
:1034C00084465CF8303F8BB1CA784FF0000E05E0BF
:1034D0001C46DB7893420ED26368A646002BF7D1D8
:1034E0000022C1E9012E00F12C0208E00022C1E90E
:1034F0000122C16209E0C1E9014E04F10802116034
:10350000BEF1000F18BF0EF1040CCCF800102830EB
:1035100050E8001F4A1C40E8002303B1F8E710BD43
:10352000D1E90123002A0EBFC36293608B68191D85
:10353000002B08BF00F130010A607047704700207F
:10354000AFF30080F8B5874E04460025E8B207289F
:1035500088BFF8BDA5F15000C0B2B04700200027D9
:10356000B0471020B04703E0204600F081FD01374E
:1035700078B20028F8DA0135E8E700BF764AC0B231
:103580001268C1F3C70301F0070102EBC312105C1C
:10359000012202FA01F1084018BF0120704700BF64
:1035A00070B52C4C2C4D4FF4806100222046A8476A
:1035B000694E4FF48061002230602046A847706059
:1035C00020464FF480610022A8474FF48061012219
:1035D000B060FDF794F96420FEF78AFB614CAE20E1
:1035E000A0472020A0471020A047B020A047C82017
:1035F000A0470020A0471020A0474020A0478120DE
:10360000A047FF20A047A120A047A620A047A820B0
:10361000A0473F20A047A420A047D320A0470020D8
:10362000A047D520A047F020A047D920A0472220BE
:10363000A047DA20A0471220A047DB20A047202087
:10364000A0478D20A0471420A047AF202146BDE809
:1036500070400847C88400203B4F00082DE9F84F10
:10366000DFF800B13C4F4FF0000800254FF0000993
:103670000024B9F1080F08BFBDE8F88FA9F1500088
:103680005FFA80FA5046D84700200026D84710201D
:10369000D84721E0B8682844805D01281AD14CB988
:1036A0005046D84706F00F00D847F0B20009103056
:1036B000D847012438682844805D00F0D9FCD7E958
:1036C000000128442944805D8855B868284400F8E2
:1036D000068000E000240136802EDBD1803509F120
:1036E0000109C6E7F8B5DFF870C0044601F0070528
:1036F000002AE6B2DCF80000C1F3C70300EBC310F8
:1037000050FA84FE805D03D0144A525D024302E009
:10371000134A525D02408EF80020D5B2C908DCF889
:10372000040000EBC310805D854205D0DCF8080082
:10373000012200EBC3108255A1F15000094FC0B225
:10374000B84704F00F00B84730091030B847284692
:10375000BDE8F84000F08CBCB004002018C300089D
:1037600010C300084D40000819480068704700BFAA
:1037700018480178012905D10021017004484FF053
:10378000806101601248016841F0010101607047E9
:1037900004ED00E04FF0FF307047000040B17E497B
:1037A0000968B1FBF0F0411E0020B0EB116F02D0B0
:1037B0004FF0FF307047054AFF231370044A062379
:1037C00013605160034990600870704723ED00E07A
:1037D00010E000E0C80401201CB504466E48134602
:1037E0000A4611490068B0FBF1F04FF47A71484382
:1037F00001906068B0F5827F0AD12046802100F0F8
:1038000015F870B1606D40F020006065032009E09C
:10381000019830B101980138019020688068000655
:10382000F6D4002002B010BD00366E012DE9F04143
:10383000984616460F460446551C20688068384056
:10384000B8421CBF0020BDE8F081002DF5D0FEF786
:1038500039FBA0EB0800B042EFD32068416821F0AB
:10386000E00141606168B1F5827F0AD1A168B1F5DC
:10387000004F02D0B1F5806F03D1016821F0400103
:103880000160A16AB1F5005F07D1016821F4005120
:103890000160016841F400510160002084F850008B
:1038A000012084F851000320BDE8F081B0B592B04A
:1038B00000241E480225CDE90A44CDE908440194BC
:1038C000016841F080510160006800F08050019073
:1038D000019801941648016841F440410160006874
:1038E00000F4404001900198042011906020109550
:1038F0000F900C200E904FF48000CDE90C504FF447
:10390000A02007900120069006A8FEF70FFE4FF4B6
:1039100080500594032104900F20CDE902540190BA
:1039200001A8FEF70FFD12B0B0BD00BF4038024045
:10393000007000401548416801F00C021449082A43
:1039400003D0042A08BF134915E00268022352027B
:10395000104A58BF0A46016801F03F01B2FBF1F17D
:103960000268C2F3881251430268C2F3014203EBBA
:103970004202B1FBF2F1084A084B11604068C0F303
:103980000310185C21FA00F0106070470438024000
:103990000024F40040787D016C010020C4C20008BE
:1039A00010B50E480F4CD0F8801041F47001C0F8EB
:1039B00080100B490A6842F001020A6000228A6006
:1039C0000B6823400B60084B4B600B6823F480238B
:1039D0000B60CA604FF00061016010BD08ED00E0AF
:1039E00000380240FFFFF6FE103000240148FFF7C8
:1039F000AEB800BF4007012010B50368184AB0F107
:103A0000804F13D0174CA04210D0174CA0420DD0BD
:103A1000164CA0420AD0164CA0420BD0154CA04226
:103A200008D0154CA04205D0904207D14C6823F035
:103A300070032343CC6823F4407323434C6923F081
:103A40008003904243EA040303608B68C3620B68FF
:103A5000836204BF096911630121416110BD00BF88
:103A6000000001400004004000080040000C00403D
:103A700000480140004001400044014086B00C4E27
:103A800001AC0CA53068804710EE100A07F03CFB33
:103A900002460B4620462946FCF74CFD20460021F5
:103AA000002203F0B3FD4FF4FA7001F071F8E9E77A
:103AB0007001002054203A3A20252E326C66000016
:103AC00010B5930712D400F12803D00718D153E89A
:103AD000000F084203D1BFF32F8F002005E020EA3A
:103AE000010243E8002404B1F1E710BD806AD20767
:103AF00000EA010315D1002B18BF10BD002010BD36
:103B000053E8000F00EA01028A4203D0BFF32F8F6F
:103B1000002005E020EA010243E8002404B1EFE7B9
:103B200010BD8B4218BF002010BD000080B5124AA6
:103B30004FF0000E02F1440C624606E01A69914211
:103B40000BD3891A03F10C029E461368002BF5D1A2
:103B50000022C0E902E2016106E0C0E902E301617E
:103B600098601A69511A1961BEF1000F18BF0EF161
:103B70000C0CCCF8000080BDB40100202DE9F0470A
:103B80000446006849F20C650169E26821F440517D
:103B900011430161A168D4E90423E769C6681143B0
:103BA000AE43B7F5004F41EA030141EA070141EA9C
:103BB0000601C1604169A26921F4407141EA020134
:103BC00041614A4940F480603FD188420CBFDFF830
:103BD00020A1DFF820A1D047D4F804908046D04738
:103BE00067680646D047616819257F00684306FB71
:103BF00005F34900B3FBF7F3B0FBF1F06421B0FB30
:103C0000F1F202FB1102181A4FEA49031044322262
:103C100002EBC0004FF4F872B0FBF1F002EA400092
:103C200008FB05F2B2FBF3F2B2FBF1F100EB011677
:103C3000D047616868434900B0FBF1F7D04761683D
:103C400068430722032349003CE0884214BFDFF8A1
:103C5000A4A0DFF89CA0D047D4F804908046D047B9
:103C600067680646D04761681925BF00684306FBB0
:103C700005F38900B3FBF7F3B0FBF1F06421B0FB6F
:103C8000F1F202FB1102181A4FEA890310443222A2
:103C900002EB001008FB05F2B0FBF1F0B2FBF3F20F
:103CA00000F0F000B2FBF1F100EB0116D0476168C3
:103CB00068438900B0FBF1F7D047616868430F2281
:103CC00004238900B0FBF1F0391A6427B0FBF7F543
:103CD00005FB17000844216898403230B0FBF7F02C
:103CE000104030438860BDE8F08700BF00140140F9
:103CF000B12400089D240008FEE7000070B5504D77
:103D0000012085F8270001E000F03AFFFEF7DAF81D
:103D10006328F9D94BA002F013FC00F001F9044626
:103D20004EA0214602F00CFC514810FA84F00928FC
:103D30000CD8DFE800F00510161C22282E34423B78
:103D40000220E861012028704AA03CE0734802F09C
:103D5000F7FB00246FE00420E861022028704BA0EC
:103D600031E00820E861032028704EA02BE01020ED
:103D7000E8610420287051A025E02020E86105209A
:103D8000287054481FE04020E861062028705248FF
:103D900019E08020E86107202870504813E04FF4B4
:103DA0008070E861082028704D480CE04FF4806076
:103DB000E8610A2028704C4805E04FF40070E86183
:103DC00009202870474802F0BBFB4FF48071474C34
:103DD0004FF4805069814FF48031EA6904EA821619
:103DE000434C13012E6204EA0222C5E90320C5E90F
:103DF000053100F0EDF83F4E01200124B0470220CC
:103E0000B0470320B04769893B483C4EB047E9685A
:103E10003B48B04729693B48B04769693A48B047D1
:103E2000A9693A48B047E9693948B047296A394829
:103E3000B0473948B047002085F82700204670BDBC
:103E4000641D012077323571787820496E697420BD
:103E5000426567696E2E2E2E0D0A0000773235718D
:103E600078782049443A307825580D0A000000003F
:103E7000EFBFFFFF77323571787820436869703A79
:103E8000207732357131300D0A00000077323571FC
:103E9000787820436869703A207732357132300D76
:103EA0000A00000077323571787820436869703AEB
:103EB000207732357134300D0A00000077323571C9
:103EC000787820436869703A207732357138300D40
:103ED0000A000000C7C300089BC30008B1C3000864
:103EE000F4C30008DDC3000884C30008C0FF3F001E
:103EF00000FFFF00653F00087DC400084165000821
:103F00001FC40008B8C4000850C400089AC40008C0
:103F100037C40008D7C400086AC400080BC40008EE
:103F2000F8B53E4C4FF4805100222046FDF7C4FF07
:103F30000B4F9F20B847A520B8470546A520B84796
:103F40000646A520B847074620464FF48051012277
:103F5000FDF7B2FF300240EA0540384401B0F0BD41
:103F600025400008B0B52D4C05464FF48051002285
:103F70002046FDF7A1FF022D0CD0012D15D1052003
:103F800000F050F8A52000F04DF80546244880F8D0
:103F9000245014E0352000F045F8A52000F042F848
:103FA00005461F4880F8255009E0152000F03AF832
:103FB000A52000F037F80546194880F8265020461D
:103FC0004FF480510122FDF777FF2846B0BD00BFB6
:103FD000F8B5124C4FF48051002200252046FDF721
:103FE0006BFF4B2000F01EF803E0A52000F01AF84C
:103FF0000135042DF9D30A4E002505E0A5207719D7
:1040000000F010F878700135082DF7D120464FF4F4
:1040100080510122BDE8F840FDF74EBF0004024088
:10402000641D0120E0B58DF807000A200DF107019D
:104030000DF10602012300900348FEF759FC9DF89C
:10404000060002B080BD00BFA8060120F8B58DF8BB
:104050000F00642001210DF10F020123CDE90021A1
:1040600002900C4878210022FDF7E8FF8FBD00BFC9
:10407000F8B58DF80F00642001210DF10F02012326
:10408000CDE900210290034878214022FDF7D6FFB8
:104090008FBD00BF540601202DE9F04F89B0089074
:1040A00013988B46159F92460593411E072900F2EF
:1040B0009380CDF80CA0DFE811F00800B100A10258
:1040C0006F01A102A102A102290216980021584401
:1040D00004907CE0179801EB0A0B06970791D0F843
:1040E0000480DFF89C050068007C10F0030046D0D7
:1040F000069D169FDDE90446022829D0089800692C
:1041000080688047069CDDF85880DDE904568246C9
:104110008020217820FA08F008420CD0089F294618
:104120005A46384600F0FAFA80EA0A033846294629
:104130005A4600F042FB08F101000135082808BF8B
:104140000134B0F1080818BF8046013EE0D137E0E5
:1041500080202978F840084205D0089821465A4620
:10416000434600F02AFB781C0134082808BF0135BB
:10417000B0F1080718BF0746013EE9D120E01798C3
:104180000DF11009169ED0F800A099E830024F46B4
:10419000802043465A4617F8011BF040084208BFEA
:1041A00053460898214600F008FB701C0134B0F11A
:1041B000080618BF0646082808BFB946013DE6D1E3
:1041C0000799069F1498DDF80CA007440131129856
:1041D0008142FFF67FAF11E2102800F0F481202821
:1041E00040F00C824FF0000814E0059D08EB0A0433
:1041F000002609E057F8263008980BEB0601224606
:1042000000F0DBFA0136013D012DF3DA149808F1D4
:104210000108074412988045E7DBEFE11698002279
:1042200058440190B3E002EB0A0097F800B00697FB
:1042300002920790DFF848040068007C00F0030059
:1042400002284DD0002840F09B801798DDF814908C
:10425000019C169E002806984F462546B046824689
:10426000049020D04FEA4801C022062022FA01F132
:10427000A0EB4800079A01EA0B0121FA00F0179918
:1042800051F820300898294600F097FA08F1010803
:104290000135B8F1040F04BF1AF801BF4FF0000850
:1042A000013FDFD16CE07100C022062022FA01F14B
:1042B000A0EB4600079A01EA0B0121FA00F30898E7
:1042C000214600F07AFA01360134042E04D1049814
:1042D000002610F801BF0490B9F10109E3D14FE0C5
:1042E000394617983E46059F019CDDF858A0049179
:1042F0000028B8462546D14622D04FEA4901C022BF
:10430000062022FA01F1A0EB490001EA0B0131FA83
:1043100000F007D01799079A51F8203008982946DD
:1043200000F04BFA09F101090135B9F1040F04BF9E
:1043300016F801BF4FF00009B8F10108DDD11FE008
:104340004FEA4A01C022062022FA01F1A0EB4A00FE
:1043500001EA0B0131FA00F304D00898079A2146CC
:1043600000F02BFA0AF1010A0134BAF1040F05D169
:1043700004984FF0000A10F801BF0490013FDFD10C
:10438000029A069F1498DDF80CA007440132129897
:104390008242FFF648AF31E116980021584401905F
:1043A000AFE001EB0A0097F80090069702910790A2
:1043B000B3480068007C00F0030002284FD00028BA
:1043C00040F09A801798DDF814B0019C169E0028E2
:1043D00006985F462546B0460490039022D04FEAE7
:1043E0008801F022042022FA01F1A0EB8800079A4C
:1043F00001EA090121FA00F0179951F820300898D4
:10440000294600F0DAF908F101080135B8F1020F88
:1044100005D104984FF0000810F8019F0490013F67
:10442000DDD169E0B100F022042022FA01F1A0EB15
:104430008600079A01EA090121FA00F3089821464B
:1044400000F0BBF901360134022E04D10398002696
:1044500010F8019F0390BBF1010BE3D14CE01798DA
:10446000019C169E04970397002805982546B3469D
:104470008046074624D04FEA8B01F022042022FA1E
:1044800001F1A0EB8B0001EA090131FA00F007D03D
:104490001799079A51F820300898294600F08DF9AD
:1044A0000BF1010B0135BBF1020F05D104984FF060
:1044B000000B10F8019F0490B8F10108DBD11BE05C
:1044C000B100F022042022FA01F1A0EB860001EAFB
:1044D000090131FA00F304D00898079A214600F048
:1044E0006CF901360134022E04D10398002610F82D
:1044F000019F0390013FE3D10299069F149807445E
:10450000013112988142FFF64CAF77E0DFF87081FD
:104510004FF0000953E0D8F8000009EB0A05007CD1
:1045200000F00300022815D0002844D11798002479
:1045300028B3059E0BE0385D179A0BEB040152F887
:10454000203008982A4600F038F90134013E012E47
:10455000F1DA30E017980026F8B1059C0CE0B85D60
:1045600040B1179A0BEB060152F8203008982A4602
:1045700000F023F90136013C012CF0DA1BE0059E26
:1045800008E03B5D08980BEB04012A4600F015F9A2
:104590000134013E012EF4DA0DE0059C09E0BB5D1B
:1045A0002BB108980BEB06012A4600F006F90136FC
:1045B000013C012CF3DA149809F10109074412981F
:1045C0008145A8DB1AE04FF0000814E0059D08EBD8
:1045D0000A04002609E037F8163008980BEB0601AC
:1045E000224600F0EAF80136013D012DF3DA149875
:1045F00008F10108074412988045E7DB09B0BDE8DF
:10460000F08F00BFE0B5009200F008F88CBDE0B577
:1046100000930B4600F002F88CBD00002DE9F04736
:10462000074617488846DDF820A01C461546006856
:10463000017CC90703D1C06BD0F800901BE0554541
:10464000C8BFBDE8F087464605E0384631462A46F1
:1046500000F0F1F80136A642F7DD0135EFE74646F6
:1046600006E0384631462A464B4600F0A6F80136A9
:10467000A642F6DD01355545F1DDBDE8F08700BF06
:10468000180000200248012918BF0020704700BF11
:10469000A4BF0008093907290CD80A48DFE801F04F
:1046A0000B0406080A100C0E0C4870470A487047A5
:1046B0000848704700207047044870470248704718
:1046C00003487047FB470008914700087D470008F2
:1046D000874700083D470008C54700081F480008F5
:1046E0004A1E0D2A15D881680020DFE802F00A0C66
:1046F0000E1012121215070808070707704701204D
:1047000070474868704788687047C868704708698C
:1047100070474FF0FF3070478869704780B588B2A6
:1047200091B2FEF72BFF80BD806800220A6082896B
:10473000013A8A80008A0138C8807047B0B50446C3
:1047400000F008F80546A06901210022FEF74CFDA3
:104750002843B0BDB0B50446806858B91C2002F0AB
:10476000F7FCA060054620698068804704F04EF998
:10477000A861A068B0FA80F04009B0BD8069062148
:104780000022FEF731BD806905210022FEF72CBD15
:10479000E0B50023CDE900238DF804106A4604211A
:1047A0008069FEF721FD8CBDE0B5CDE900126A46B7
:1047B00003218069FEF718FD8CBD88B291B2DAB290
:1047C000FEF790BF7CB50446002016460D46CDE9A5
:1047D00000002046FFF7BEFFA06868B1C0E901569F
:1047E0006A464169002908BF29464161CDE9005662
:1047F000A0690721FEF7F8FC7CBDBCB5044600208B
:104800000D4601902046FFF7A5FFA06830B1056076
:10481000019501AA0221A069FEF7E6FCBCBD70B5B6
:1048200015460C460646FFF795FFB06810B1C0E983
:104830000345446170BDF8B514460D460646FFF7C2
:104840006DFF074630698068804780EA070330467D
:104850002946224601B0BDE8F040FFF7AEBF000098
:1048600010B5074C00F00F03044AB0F1FF3F23449A
:10487000C8BF83180801187010BD00BF00E400E035
:1048800014ED00E010B5044601F068F830B120687E
:104890004FF0FF31BDE8104000F0B8BA10BD00681D
:1048A00000F0D2BA10B50446002000F0E9FA002862
:1048B000206001D0012010BD0520214600F01AFB28
:1048C000002010BD10B5044601F048F820B1206862
:1048D000BDE8104000F0F2BA10BD00F0A9B9000028
:1048E000FEF748FC044C22692046002190474FF413
:1048F0007A7000F04DF9F6E77C0100202DE9F041D7
:10490000624EDFF85C80082524E0D6E9000101F062
:1049100051F8B18830680022FDF7CEFA0120C04777
:10492000B18830680122FDF7C7FAD6E9000101F02D
:1049300033F80A20C047B1883068FDF7B1FA044661
:104940001E20C047C7F34607002CA5F1010518BF7C
:1049500067F07F07002DD8D1F8B2BDE8F08100BF25
:10496000ED190008B0B5494CD4E9000101F022F876
:10497000A188206800220025FDF79EFA4FF4F07010
:10498000FDF734F8A18820680122FDF795FA0F2081
:10499000FDF72CF8D4E9000100F0FEFF04E048B177
:1049A0000120FDF723F80135A1882068FDF778FA8A
:1049B0003B2DF4D93B2D84BF0020B0BD002504E081
:1049C00048B90120FDF712F80135A1882068FDF7EC
:1049D00067FAEF2DF4D90020F02D38BF0120B0BDCB
:1049E00010B52DED028BFFF7BDFF9FED138AE8B1E7
:1049F000CC2000F025F8442000F022F8FFF7B2FFA9
:104A0000A0B1CC2000F01CF8BE2000F019F8FFF790
:104A100075FF0446FFF772FF44EA00209FED070A86
:104A200001EE100AB8EEC11A21EE008AB0EE480A73
:104A3000BDEC028B10BD00BF0000C8C20000803D6D
:104A400070B5124D0446D5E9000100F0B3FF082609
:104A500019E0A98828680022FDF72EFA0A20FCF741
:104A6000C5FFA9882868E2070CBF00220122FDF7D4
:104A700023FA1420FCF7BAFFA98828680122FDF761
:104A80001BFA013E6408002EE3D170BD74010020C2
:104A900070B50B4E0C46274A0546318852F8310056
:104AA00002EBC1018988FDF700FA30882988411A94
:104AB00018BF411C31802046BDE87040FDF718B991
:104AC0000008012070B5104E05460C4630780128CC
:104AD00001D1708804E0288801213170013870808C
:104AE000144A81B252F8310002EBC1018988FDF706
:104AF000DCF9708800B92888013870802046BDE84C
:104B00007040FDF7F5B800BFAC040020094800EB89
:104B1000C10030F8041C50F8080CFDF7CDB900BFF7
:104B2000044800EBC10030F8041C50F8080CFDF7F5
:104B3000BCB900BF9401002080B502F01FFE6FF0E9
:104B40007F4002F08AFF012002F0D8FF074802F000
:104B500095FF002002F0A2FFFFF7D0F804A001F0BB
:104B6000EFFC00F00BFF002080BD00BF40BF00083D
:104B700073746172742072746F732E2E2E0A00008B
:104B80000A2001E000BF01380028FBD17047000077
:104B900010B50446FCF780FFEFF3058028B9EFF36A
:104BA000108010B9EFF3118030B16FF00500FCF701
:104BB00075FF6FF0050010BD2046DFF808C000DF6C
:104BC00010BD00BFD559000810B50446FCF76AFFB8
:104BD000EFF3058028B9EFF3108010B9EFF31180DF
:104BE00038B100206FF005010024FCF75AFF204681
:104BF00010BD2046DFF808C000DF0446F7E700BF1D
:104C0000F9590008EFF3058048B9EFF3108030B987
:104C1000EFF3118018B9EFF31480C00701D100F051
:104C200029BFDFF808C000DF704700BF755A0008D1
:104C300080B500F081F9FCF73AFFEFF3058028B961
:104C4000EFF3108010B9EFF3118030B16FF0050071
:104C5000FCF72BFF6FF0050080BDDFF808C000DF18
:104C600080BD00BF895A000880B5FCF722FFEFF332
:104C7000058028B9EFF3108010B9EFF3118030B13F
:104C80006FF00500FCF711FF6FF0050080BDDFF845
:104C900008C000DF80BD00BFE55B0008F8B51F4617
:104CA00016460C460546FCF70FFFEFF3058028B9C2
:104CB000EFF3108010B9EFF3118070B3E5B1DFB9F5
:104CC000D4B12878FA2817D12846FEF7D6FBE8B1E8
:104CD0006A6A074600F10C012046FBF748FD0EB159
:104CE000F87830703846FD6000F014FB2846214605
:104CF000FCF7F5FE002406E028466FF003016FF094
:104D00000304FCF7E0FE204601B0F0BD2846214632
:104D1000FCF7E1FE6FF00204F5E72846DFF80CC06F
:104D2000214632463B4600DF01B0F0BD895C0008F9
:104D300070B514460D460646FCF7CBFEEFF3058032
:104D400028B9EFF3108010B9EFF3118038B10020CB
:104D50006FF005010024FCF7B6FE204670BD30461A
:104D6000DFF80CC02946224600DF0446F5E700BF05
:104D7000995D0008F8B51F4616460C460546FCF737
:104D8000ABFEEFF3058028B9EFF3108010B9EFF315
:104D9000118080B3F5B1EFB9E4B12878FA2819D1C0
:104DA00005F10C0000F056F9F0B16A6A07460C30C4
:104DB0002146FBF7DCFCC7E90145FE700026F9201F
:104DC000BE703870384600F0A5FA28462146FCF738
:104DD0007EFE06E028466FF003016FF00306FCF745
:104DE00072FE304601B0F0BD28462146FCF772FE47
:104DF0006FF00206F5E72846DFF80CC02146324680
:104E00003B4600DF01B0F0BDDD5E0008B0B50D46E9
:104E10000446FCF765FEEFF3058028B9EFF3108038
:104E200010B9EFF3118038B120466FF00501FCF79F
:104E30005EFE6FF00500B0BD2046DFF808C02946D1
:104E400000DFB0BDC95F000810B50446FCF74DFE99
:104E5000EFF3058028B9EFF3108010B9EFF311805C
:104E600038B120466FF00501FCF741FE6FF00500F8
:104E700010BD2046DFF804C000DF10BD9D600008B3
:104E800010B50446FCF734FEEFF3058028B9EFF3C4
:104E9000108010B9EFF3118038B100206FF00501D8
:104EA0000024FCF724FE204610BD2046DFF808C091
:104EB00000DF0446F7E700BF6161000810B5044653
:104EC000FCF718FEEFF3058028B9EFF3108010B956
:104ED000EFF3118038B120466FF00501FCF707FEB3
:104EE0006FF0050010BD2046DFF804C000DF10BDE4
:104EF000E1610008FEE7F8B58768044618E03D4622
:104F0000BF68204695F82320696AFCF790FD78B1C8
:104F10000646284600F083FB28463146002200F072
:104F200037FC95F82320696A20463346FCF7BBFD21
:104F3000002FE4D1F8BDFEE7704770B5B8B1B1B14C
:104F4000042A14D2864601F10F055EF8083F25F0C9
:104F5000070C1C46A3EB0E05DEF8043023F0030615
:104F6000AD1B654506D22368A646002BF1D100246F
:104F7000002323E0D0E9005464440544446055F81C
:104F8000046CA6423EBFA5F108035C60DEF8043065
:104F90006BB1DEF8004023F003034CEA020643F84D
:104FA0000E4073445E60CEF800309E4603E04CEA4B
:104FB0000203CEF804300EF108042346FCF77BFD13
:104FC000204670BD10B560B159B100F10802A1F1E1
:104FD000080C0023624507D0144612682346002AB5
:104FE000F8D10024002212E051F8044C4268002B52
:104FF00024F00304A2EB04024FF00104426019BF45
:10500000DCF800201A60002241F8042C0122FCF791
:1050100056FD204610BD10B508B1420705D000244A
:105020000022FCF74DFD204610BD1829F7D311F0E2
:105030000702F4D10B181022A3F10804C0E90012F2
:105040008460002443F8084C83685A60C4600124DB
:105050000122E6E7B0B5002817D000F1140151E8AD
:10506000004F14B9BFF32F8F04E0226841E80023FA
:1050700003B1F4E73CB1011D51E8002F531C41E896
:10508000003505B1F8E7214602E0002400200021A8
:10509000FCF712FD2046B0BDB0B500281FD0C26895
:1050A0008A421CD802698A4219D900F11402136895
:1050B0000B60BFF35F8F52E8003F0C689C42F6D153
:1050C00042E8001505B1F2E7021D52E8003F5C1E00
:1050D00042E8004505B1F8E70024002203E06FF044
:1050E00003046FF00302FCF7E8FC2046B0BD70B586
:1050F0000E4601460020F9B1F6B11446E2B11D4654
:10510000D3B1002004FB06522B46C1E90060C1E97F
:105110000245C1E90425084631462246FCF7CEFC8B
:10512000C6F1010003E02919013029600D4600286D
:10513000F9D100202860012070BD2DE9F04104461E
:105140008078D0B3E56821462846FEF7E9F90020CB
:1051500005F10C06214620703046FFF79DFFA86838
:1051600048B33046FFF776FF28B30446284600F0E0
:1051700037FA0021002206464FF0000800F008FB35
:10518000304600F095FA87686A6A064604F10C001A
:105190003946FBF7ECFAF92084F8028021462070AA
:1051A000F068E0702846FEF78AF928463946BDE8DF
:1051B000F041FCF78DBCBDE8F081D4E90115A86889
:1051C00058B34078832828D12846FCF781FC28462C
:1051D00000F006FA0021002206464FF0000800F019
:1051E000D7FA304600F064FA86686A6A074604F126
:1051F0000C013046FBF7BBFAF86808B1E1780170A2
:1052000028463146FCF76BFC84F8008005F10C0061
:105210002146BDE8F041FFF73FBF2846FCF758FCA8
:1052200028462146BDE8F041FEF749B92DE9F04195
:10523000044600274FF0010821E025466469E8781C
:1052400000071CD5284600212F76FCF754FCA868DF
:10525000A8B1284600F0C4F900210022064600F05B
:1052600097FAC5E90367F06A0028686100D0056114
:1052700028460121F56285F81880FCF734FC002CE3
:10528000DBD1BDE8F081000070B5D44C04F15605C7
:1052900004F15A0628E0D6E85F1F4A1C904200D865
:1052A0000022C6E8532F03B1F5E788B2E16D51F84B
:1052B0002000002828D00178F139082914D8DFE827
:1052C00001F005130813130B0E131100216E88470C
:1052D0000AE0616E884707E0A16E884704E0E16E4E
:1052E000884701E0216F8847B4F85400D5E85F1F74
:1052F00011B9BFF32F8F04E04A1EC5E8532F03B145
:10530000F4E709047FF4C7AF0020BDE8704000F067
:105310000FB900BF70B50146F248B0F8542000F153
:105320005603D3E85F4FA24202D8BFF32F8F04E0A9
:10533000651CC3E8565F06B1F3E7A3B293421AD2E5
:1053400000F15803D3E85F4F651CAA4200D800253E
:10535000C3E8565F06B1F5E7A2B2C36D43F8221069
:10536000417A002919BF0121817205484FF080510F
:1053700008BF016070BD0220BDE87040FFF7BABDF4
:1053800004ED00E001214170ED4990F920C001F1E8
:105390001C02114692684AB192F920306345F8DC4C
:1053A000C0E90221886002F10C0103E00022C0E99B
:1053B000022108310860FCF7AABB00BF10B54A1CE7
:1053C00011D0F24A002402F12C0C624603E0891A43
:1053D00003F110021C461368E3B1DA699142F6D278
:1053E0004FF0010E18E0E949002301F13004214695
:1053F0001A460B6803F11001002BF9D14FF0FF3171
:10540000002AC1614FF00001C0E9041216D002F178
:10541000100413E04FF0000E002CC0E90434C16109
:1054200018BF04F1100CCCF80000BEF1000F08BF4B
:1054300010BDDA6903F11404511AD961206010BD5E
:10544000C2690169531C0AD021B1CB691A44CA61EF
:1054500042694A6142693AB9F848C162704709B184
:1054600042694A6142691AB1116100214161704784
:10547000F2480163704700BFB0B5F04DEC6A1CB153
:10548000E0690138E06100D0B0BD607813384FEAC0
:105490003010082831D8DFE800F00530090D131965
:1054A0001F252B002046FCF7F8FA26E02046FCF7E3
:1054B0002AFB22E0204600F0BCF8FCF7F5FA1CE0DD
:1054C000204600F0B6F8FCF70DFB16E0204600F091
:1054D000B0F8FCF711FB10E0204600F0AAF8FCF74A
:1054E000F0FA0AE0204600F0A4F8FCF7EFFA04E036
:1054F000204600F09EF8FCF7F1FA94F82200C0066E
:105500004FF0200058BF6020A16B41582046FCF7A7
:1055100000FB204600F083F8204600F0C1F8246923
:1055200024B1E0690028B0D000206061EC62B0BD19
:10553000B0B50546E748002D4469017A0CD0022930
:1055400005D194F9200095F92010814212DC2846FB
:10555000BDE8B04000F0A4B8022913D1456A8DB16E
:1055600094F9200095F920108142D8BFB0BD28469B
:1055700000F055F82046FFF705FF2846BDE8B0408B
:1055800000F0D0B8B0BD00BF10B5044600202080A8
:10559000A07881070DD5C00605D4CE48216B406F99
:1055A000FFF710FD05E0CB48216BD0F88400FFF732
:1055B00073FDA078C00708BF10BDC649D1F88800A8
:1055C00020B12146BDE81040FFF766BDD1F880004C
:1055D0002146BDE81040FFF7F5BC00BFB401002034
:1055E000014680688268002A8A6000D0D16000216C
:1055F000C160704791F920C00246806840B190F9BF
:1056000020306345F8DAC1E902020C30916004E011
:105610000020C1E9020202F1080001607047C16880
:1056200031B182688A60826802B1D1600021C160B4
:1056300070470178F12918BF7047C068F9E7B0B525
:105640000446054603E02878F12803D1ED68002DD3
:10565000F9D1B0BD2046FFF7E2FF28462146BDE85C
:10566000B040FFF7C7BFB0B504464078332818BF35
:10567000B0BD94F82320616A2046FEF721FA70B18C
:10568000054620460022294600F082F894F82310AF
:10569000606A2A462346BDE8B040FCF733BAB0BD85
:1056A000014601204870F7481C30FFF7A3BF00BF38
:1056B00090F82210C9064FF0200158BF6021806B7E
:1056C00008447047EF48416939B1086B8A6B8242E0
:1056D00004D90068044A904200D170470120FFF7C6
:1056E00009BC00BFB4010020A52E5AE270B5624C7F
:1056F0000A480021A26D666E00F02CFEE14D002EDE
:10570000A86209D0E26D0648002100F023FEA864DB
:10571000002818BF012070BD012070BD374F000860
:105720004158000810B5044602206070D5488461D5
:10573000FFF7C8FF2046BDE81040FCF7E9B900BFFD
:10574000B4010020F8B5CF4F0C4605460020397A49
:10575000022918D1796AB1B17E6921463046FCF739
:10576000CCF9304621467570FFF728FE786A8168CB
:105770000029796202D007F11C02CA600021C160D1
:10578000FFF7D0FF012001B0F0BD00BFB401002041
:1057900070B515460E460446FCF7BBF994F8220096
:1057A000C0064FF0200058BF6020A16B4650204635
:1057B000FFF746FE20461DB1BDE87040FFF7B8BEBA
:1057C000BDE87040FFF76CBFB0B5FDF7CDFFAD4D44
:1057D000E968286D01310028E96000D08047FFF7B3
:1057E0004BFE0020FFF7A4FE296C29B3AA69A86B21
:1057F00090421CBFC5E90E21B0BDE96B11B1013962
:10580000E96319D1297A022916D16C6AA4B190F8FA
:10581000200094F8201081420ED12046FFF7FFFEB1
:10582000A86BFFF73DFFA86BFCF771F92046FFF767
:1058300079FF286CC5E90E40B0BD00BFB40100205F
:1058400082B0E6480821D0E91820FFF771FAE24D4E
:105850000A496C46C5E91301214600224FF0FF3387
:10586000FFF71CFA30B9DDE90001FCF753F9DDE977
:1058700000108847E86CEFE724C200088158000850
:1058800070B5FD4D6C6C1CB3206901260138206198
:105890001CE02069E0B9E06808B1A1688160686433
:1058A00004F1180100220023E86CFFF763FA18B135
:1058B00003202146FFF71EFBE078012804D161692F
:1058C0002046FEF733F900E066706C6C002CE0D1E6
:1058D00070BD00BFB4010020FCF713F9DFF810C061
:1058E00000DF00204FF0FF31FCF70AF9FEE700BFB0
:1058F000C9620008EFF3058028B9EFF3108010B9F2
:10590000EFF3118008B100F01BBDDFF808C000DF25
:10591000704700BF4163000870B514460D46064647
:10592000FCF7F4F8EFF3058028B9EFF3108010B915
:10593000EFF3118038B100206FF005010024FCF76F
:10594000DFF8204670BD3046DFF80CC029462246FD
:1059500000DF0446F5E700BF5563000810B5064CAC
:10596000207808B1012010BDFFF74CF90128D2BF03
:1059700020780120207010BD581B0120FDF7DAFFB0
:10598000FFF756F9034800210022FFF7C5FFFFF794
:105990006BF9FEE7E1480008FEB50022012389B259
:1059A000CDE90422CDE90223019101A9FCF7B2F966
:1059B00006B080BDFEB50322012389B20492002205
:1059C000039202930592019101A9FCF7A3F906B095
:1059D00080BD000010B568B1044613202146FFF7D2
:1059E000B1FE18B12046FCF75AF803E0E9484069D7
:1059F000FCF753F8002010BDB0B548B184680568C5
:105A000074B1A1070FD1C0680F280CD9002018E08D
:105A10000025E049D1F8900050B1FFF71BFB0DE0E5
:105A2000C0680028F5D0002400206FF008011BE0BA
:105A3000D1F8800010210122FFF77FFA044678B1E7
:105A400001200021C4E90151E160A070F320084960
:105A50002070D048416620462946FCF721F805E031
:105A6000002400206FF00401FCF71BF82046B0BDB5
:105A7000F74E000810B5C748047A2046FCF716F820
:105A8000204610BDB40100202DE9F843C14F387AFB
:105A900048B1012800F099804FF0FF304FF0FF34FB
:105AA000FCF703F894E007F108009C21FAF751FF96
:105AB000DFF87C8AB8F81000A7F85400D8E9020291
:105AC000D8E90B41FA6538642046FFF7A4FA08B11B
:105AD000C7F88040D8E90541DFF80491D8E90756B6
