:020000040800F2
:1000000000C90020ED0200086B470008014000080D
:10001000B54600087D1F0008994F00080000000049
:100020000000000000000000000000002D03000898
:100030009920000800000000C5030008D50300084F
:100040000703000807030008070300080703000868
:100050000703000807030008070300080703000858
:10006000070300080703000807030008811F0008B2
:100070008D1F000807030008991F0008A51F00082E
:10008000070300080703000807030008000000003A
:10009000000000000000000000000000070300084E
:1000A0000703000807030008314B00080703000896
:1000B00007030008070300080703000807030008F8
:1000C00007030008070300080703000807030008E8
:1000D000070300083D4F0008070300080000000068
:1000E00007030008070300080703000800000000DA
:1000F00000000000000000000000000007030008EE
:1001000000000000070300080703000807030008B9
:1001100000000000000000000000000000000000DF
:100120000703000807030008070300080703000887
:1001300007030008000000000000000000000000AD
:10014000000000000000000000000000070300089D
:10015000070300080703000807030008694F0008A9
:10016000070300080703000800000000000000006B
:10017000000000000000000000000000000000007F
:10018000000000000703000800000000000000005D
:10019000070300080703000800F002F800F092F8D7
:1001A0000AA090E8000C82448344AAF10107DA45D2
:1001B00001D100F087F8AFF2090EBAE80F0013F092
:1001C000010F18BFFB1A43F0010318470086000017
:1001D00020860000103A24BF78C878C1FAD85207A8
:1001E00024BF30C830C144BF04680C6070470000B1
:1001F0000023002400250026103A28BF78C1FBD830
:10020000520728BF30C148BF0B6070476E2900F00D
:10021000F285702900F05387662908F0F08065297F
:1002200008F0ED80672908F0EA80612908F0E9808C
:1002300003681B0A28BF41F08001692900F0AA81E8
:10024000642900F0A781752900F0A4816F2900F0CE
:10025000E186782900F01F87E92900F07B86E429F0
:1002600000F07886F52900F07586EF2900F0DE862B
:10027000F82900F01E870368DB0928BF41F08001E0
:10028000632900F0FC85732900F00186E32901F061
:100290004983F32901F04E83002070471FB508F011
:1002A000A1F801F057FD04000020002108F084F8B7
:1002B000401C60600020002108F068F8E0601FBD6D
:1002C00010B510BD01F018FD114603B405F018FA81
:1002D00003BCFFF7E3FF01F00BFE01F0F3FD03B4F5
:1002E000FFF7EEFF03BC01F0FBFD0000094880476B
:1002F00009480047FEE7FEE7FEE7FEE7FEE7FEE708
:10030000FEE7FEE7FEE7FEE704480549054A064B1F
:1003100070470000154B00089901000800BF00203D
:1003200000C9002000C5002000C500201EF0040FF9
:100330000CBFEFF30880EFF30980816911F8021C0C
:1003400091BB01B590E80F10E047BDE800508CE884
:100350000300244B93E80600914208BF704741B95F
:100360001EF0100F10D12049086820F0010008602D
:100370000AE02CE9F00F1EF0100F08BF2CED108AD8
:10038000C1F838C081F822E01A6092F82210906B10
:1003900061F0FF0E1EF0100F08BFB0EC108AB0E83D
:1003A000F00F80F309887047104A13689942FAD811
:1003B00001B552F821C00FC8E047BDE80050CCF8A5
:1003C0000000704701B506F071F8BDE80140EFF399
:1003D000098CBEE701B506F00BFBBDE80140EFF369
:1003E000098CB6E74000002034EF00E02C860008BE
:1003F00053EA020C00F069802DE9F04B4FF0000643
:10040000002B1FBFB3FA83F503FA05F424FA05F6AF
:100410005E4012BF1643B2FA82F502FA05F4C5F146
:1004200020051EBF22FA05FC44EA0C04203556EADA
:10043000044C4FEA144418BF641C4FF000084FF0FE
:100440000009904271EB030C39D3002919BFB1FAAE
:1004500081F701FA07F6B0FA80F700FA07F6C7F15C
:1004600020071EBF20FA07FC46EA0C062037B6FB21
:10047000F4FCA7EB0507103F07F01F0BCBF120069C
:100480002CFA06F60CFA0BFB44BFB3460026202FCD
:10049000A4BF5E464FF0000B5BEA060C08BF4FF0AE
:1004A000010B19EB0B0948EB0608ABFB027C06FBC2
:1004B00002CC0BFB03CCC01B71EB0C01C1E70B465C
:1004C000024641464846BDE8F08B13B5084318BFC5
:1004D0004FF0FF300146AFF30080BDE81C4070478D
:1004E0007CB51D4616460C00009001D02044401EED
:1004F000074B7B442A4669460190304600F095FC44
:1005000005461CB10020694600F0A2FC28467CBDCF
:10051000650900000FB41CB5084B06AA7B44694668
:100520000090059800F081FC04460020694600F028
:100530008FFC20461CBC5DF814FB00003109000054
:1005400070B50C460546012A05D02878800600D5EE
:10055000EA69002302E0012305E05B1C934202D21A
:10056000E05C0028F9D1A869E618C01AA861286AD9
:1005700018442862284600F0ACFB04E0D5E90121CC
:1005800014F8010B9047B442F8D3284600F0B7FBAB
:1005900070BD00002DE9F041064600241068752961
:1005A000314616A510D000F0BBFB002802DA40420D
:1005B00013A507E031688A0701D512A502E04907B3
:1005C00004D511A5012401E000F0B3FB00210A22AB
:1005D00006F1240709E0B0FBF2FCB0FBF2F302FBEA
:1005E0001C00303078541846491C0028F3D12346AB
:1005F0002A463046BDE8F04100F0A4BB00000000F0
:100600002D0000002B000000200000002DE9F05F0D
:10061000894604464FF0000ADFF874B1FB44C0F885
:1006200020A02046E1688847002874D0252806D0FD
:10063000D4E901219047206A401C2062F1E700269E
:100640005F462046E16888472028054607DB312DB4
:1006500005D2781910F8200C08B10643F1E7B0076D
:1006600001D526F00406C4F81CA00027C4F818A081
:100670002A2D09D0284607F082FE38B304EB8708FC
:10068000303DC8F8185019E059F8041B204604EB17
:1006900087029161E1688847012F054618D1E0691A
:1006A000002820DA26F020061DE0D8F8180000EB1C
:1006B000800005EB40003038C8F818002046E1689B
:1006C0008847054607F05BFE0028EED1012F0AD0CF
:1006D0002E2D08D12046E16888477F1C0546022F51
:1006E00046F02006C4DBA069002803DA404246F049
:1006F0000106A061F00701D026F010066C2D0BD08A
:10070000682D09D04C2D39D06A2D35D0742D35D0B7
:100710007A2D33D016E038E0E1682F46204688472E
:10072000B842054609D16C2F26D04FF48060E168AD
:10073000064320468847054604E06C2F1AD04FF444
:10074000807006430DB3A5F14100192802D8203569
:1007500046F400664A462946204626604E46FFF784
:1007600055FD80B101280BD0F61D26F0070000F1E1
:10077000080956E74020E4E78020D8E70020D6E7C4
:1007800006F104094DE7284652E7206ABDE8F09FCC
:10079000E67D00000FB400B58DB010A9099000915E
:1007A0000B904FF0FF300A9000200C9006487844E0
:1007B0000690064878446A4607900F9909A800F009
:1007C0009DFC0DB05DF814FB6B090000830900006F
:1007D0002DE9FF5F1D464FF0FF3B91464FF00008AB
:1007E0005F46D5E90146A96901987F1C8847296AB7
:1007F000824688470028F6D1BAF1FF3F0CD0002E80
:1008000024F4C06419DD600614D5BAF12B0F09D0A9
:10081000BAF12D0F0ED103E0584604B0BDE8F09FA9
:1008200044F48064A96901987F1C8847761E82463B
:10083000002E02DDBAF1300F03D0B9F1000F26D03F
:1008400032E0A969761E01987F1C44F40074884741
:10085000002E824605DDBAF1780F06D0BAF1580FA6
:1008600003D0B9F1000F10D01EE0B9F1000F02D093
:10087000B9F1100F18D1A969761E01987F1C24F4D4
:10088000007488478246102002E0082000E00A2019
:10089000814609E0A96908FB0908761E01987F1CBA
:1008A00044F4007488478246002E05DD49465046D0
:1008B00000F010FC0028EDDAE96901988847A005EE
:1008C00002D46FF00100A8E7E00725D1600613D538
:1008D000600502D5C8F1000000E0404629680A1D05
:1008E0002A600968220501D5087015E0220701D5A4
:1008F000088011E008600FE02868011D2960006889
:10090000210502D580F8008006E0210702D5A0F875
:10091000008001E0C0F8008038467EE72DE9FF5FE7
:100920004FF000089946144646469169D2E901A75E
:10093000DDF838B001988847054659EA0B0005D024
:1009400009E0A1690198761C88470546216A284676
:1009500088470028F5D1681C03D05FEACA7005D02B
:1009600015E04FF0FF3004B0BDE8F09F2068011D96
:100970002160D0F800800AE05FEACA7001D108F86F
:10098000015BA169761C01987F1E88470546002FF0
:100990001ADD681C18D0B9F1000F0DD0E81705EB6F
:1009A000D060421120F01F0059F822102A1A0120AD
:1009B00090400142E0D107E0BBF1000FDCD12846B6
:1009C000216A88470028D7D0E16901988847BBF1A0
:1009D000000F07D1002E05DD5FEACA7002D10021A9
:1009E00088F80010A068B84203DDBBF1000F03D007
:1009F00017B16FF00100B6E73046B4E710B5431CFD
:100A000002E010F8011B71B18107FAD14FF00132F9
:100A100002C88C1A8C4314EAC211F9D0C01A0A0613
:100A200003D0C01E10BDC01A10BD0A0401D0801E24
:100A300010BD0902FCD0401E10BD40EA010370B594
:100A40009B072ED14FF00136042A2AD308C810C9BB
:100A50009D1B9D43121F15EAC61517D0D8B2E1B2EF
:100A6000401A50EA056110D198B2A1B2401A50EA7A
:100A700005410AD123F07F4024F07F41401A50EA1B
:100A8000052102D1180EA0EB146070BDA342DBD08B
:100A900018BA21BA884201D9012070BD4FF0FF3049
:100AA00070BD0AB9002070BD10F8013B11F8014B70
:100AB00063B1A3420AD1521E08D010F8013B11F8CD
:100AC000014B1BB1A34201D1521EEDD1181B70BDC9
:100AD000032A40F2308010F0030C00F0158011F86A
:100AE000013BBCF1020F624498BF11F801CB00F842
:100AF000013B38BF11F8013BA2F1040298BF00F896
:100B000001CB38BF00F8013B11F0030300F0258052
:100B1000083AC0F0088051F8043B083A51F804CB79
:100B2000A0E80810F5E7121D5CBF51F8043B40F83F
:100B3000043BAFF30080D20724BF11F8013B11F84A
:100B400001CB48BF11F8012B24BF00F8013B00F88E
:100B500001CB48BF00F8012B704710B5203AC0F018
:100B60000B80B1E81850A0E81850B1E81850A0E880
:100B70001850203ABFF4F5AF5FEA027C24BFB1E819
:100B80001850A0E8185044BF18C918C0BDE810405C
:100B90005FEA827C24BF51F8043B40F8043B08BF65
:100BA0007047D20728BF31F8023B48BF11F8012B2C
:100BB00028BF20F8023B48BF00F8012B70474FF0D8
:100BC00000020429C0F0128010F0030C00F01B801A
:100BD000CCF1040CBCF1020F18BF00F8012BA8BF28
:100BE00020F8022BA1EB0C0100F00DB85FEAC17CEC
:100BF00024BF00F8012B00F8012B48BF00F8012B9F
:100C000070474FF0000200B51346944696462039CF
:100C100022BFA0E80C50A0E80C50B1F12001BFF4B5
:100C2000F7AF090728BFA0E80C5048BF0CC05DF81B
:100C300004EB890028BF40F8042B08BF704748BF69
:100C400020F8022B11F0804F18BF00F8012B7047DD
:100C500030B44FF0013C50F8042B51F8043BCCFA6F
:100C600052F4D51A20D1FCB950F8042B51F8043BAA
:100C7000CCFA52F4D51A17D1B4B950F8042B51F864
:100C8000043BCCFA52F4D51A0ED16CB950F8042BAF
:100C900051F8043BCCFA52F4D51A05D1002CDAD025
:100CA00030BC4FF00000704729BAB1FA81F111F061
:100CB0001801D1F120008440F2D1CA40CB4012F09B
:100CC000FF0213F0FF0330BCD01A70477047704723
:100CD000704770B5044685690068C10601D53026A5
:100CE00000E02026C00707D070BDD4E901213046BE
:100CF0009047206A401C20626D1EF6D570BD70B50D
:100D0000044685690078C00707D170BDD4E9012188
:100D100020209047206A401C20626D1EF6D570BDD1
:100D200009684A0501D540B27047C905FCD500B233
:100D3000704709684A0501D5C0B27047C905FCD59E
:100D400080B270472DE9F0470D4699469246044619
:100D500000F124080168880604D5E06921F010013B
:100D6000216000E00120A84201DD471B00E00027D0
:100D7000A1697A1902EB0900081AA0612078C0065F
:100D800002D42046FFF7A5FF002608E0D4E90121A0
:100D90001AF806009047206A401C761C20624E45D7
:100DA000F4DB2078C0060AD52046FFF792FF06E064
:100DB000D4E9012130209047206A401C2062381E6F
:100DC000A7F10107F4DC07E0D4E9012118F80500D8
:100DD0009047206A401C2062281EA5F10105F3DC23
:100DE0002046FFF78CFF2078000602D50220BDE8E0
:100DF000F0870120FBE711680268006A530501D5FE
:100E000008700AE0D30501D5088006E0130603D573
:100E1000C217C1E9000200E008600120704700002D
:100E200001694A1C02610878704700B58FB0CDE9AE
:100E300001310021059105497944CDE9031011469E
:100E40006846FFF7E3FB0FB000BD0000E5FFFFFFC2
:100E50000A6802F8010B0A607047D1E900239A4240
:100E600002D2531C0B601070704710B5436913B168
:100E7000AFF3008001E0FFF763FB012010BD1278A3
:100E800000F124010A7000224A700122EDE7116886
:100E90004FF0FF32E9E700002DE9FF5F15468A4673
:100EA0000446DFF8AC80F8440027D8E900103E463D
:100EB000CDE9001010E03AF816106A4602A800F0DA
:100EC000F7FE411C07D02178890603D5E26939185D
:100ED00091420DD80744761C2078800602D5E0693F
:100EE000B84205DDAE42E6DB3AF816000028E2D152
:100EF000A069C01BA0612046FFF7EBFED8E90010F7
:100F0000CDE90010002017E03AF818106A4602A850
:100F100000F0CEFEB0F1FF3F81460BD000250DF171
:100F2000080B05E0D4E901211BF8050090476D1C72
:100F30004D45F7D308F10100B0428046E4DB206A5A
:100F4000384420622046FFF7DAFEBDE8FF9F00002C
:100F50006E7500002DE9F0418046D21D22F0070297
:100F60000025D2E90002F52915A614D0011E72F160
:100F7000000106DA0023D0EB030063EB020211A6A6
:100F800008E0D8F800108B0701D50FA602E049074A
:100F900001D50EA601251146002408F1240704E01E
:100FA00000F0DCF830323A55641C50EA0102F7D107
:100FB0002B46324621464046BDE8F041FFF7C2BE0F
:100FC000000000002D0000002B00000020000000A9
:100FD00030B4002100F1240408E002F00705D20833
:100FE000303542EA4372DB086554491C52EA030576
:100FF000F3D10468002310A2250708D504F02004CB
:101000000C4304D0C46901230CA2641EC46130BC2B
:10101000FFF798BE10B5044621461068FFF789FE19
:1010200002462046BDE810400023D1E7D21D22F041
:101030000701D1E90023CBE70000000030000000E9
:10104000F0B40D460188090502D5214C7C4402E02C
:101050001F4C7C440E34002100F1240608E002F00D
:101060000F071209E75D42EA03721B097754491C16
:1010700052EA0307F3D102780023120704D5702D3A
:1010800006D009B1022311342246F0BCFFF75ABE44
:1010900001231034F8E770B504460D462146106868
:1010A000FFF747FE024629462046BDE87040002370
:1010B000C6E7D21D22F00703D3E90023C0E7036887
:1010C000126843F0200303600823C3610023B7E7DD
:1010D000D07300003A2800D2303820F02002412A94
:1010E00001D3A2F13700884201D34FF0FF3070479F
:1010F000026811441378016018467047D1600549B1
:101100007944516104497944116200211161114609
:1011100000F014BCEDFFFFFFDD000000426842B1AB
:10112000016811F8013B23B1521EC0E900121846B4
:1011300070470121C160881E704742685AB1C36878
:10114000016843B983688B4205D0491E521CC0E92F
:101150000012002070474FF0FF30704730B5B0F1FB
:101160000A0271F100034FEA900E4EEA817EB0EB65
:101170000E0061EB91014FEA101E4EEA017E10EB6A
:101180000E0041EB11114FEA102E4EEA016E10EBEA
:101190000E0041EB11214FEA104E4EEA014E10EBCA
:1011A0000E0041EB1141401841F100014FEAD0001F
:1011B00040EA41704FEAD1014FEA810444EA907459
:1011C00010EB800544EB01046D1944EB0404521B41
:1011D000A3414FF0000348BF0A3200D530BD401C88
:1011E00041F1000130BD10B5044600F0ABFD0068D0
:1011F000005D00F0010010BD2DE9FF4F0C461E46BA
:101200004FF0FF378BB0D2E90001DDF860800A9023
:101210008A46C1F30A5505B93D46002108464FF0FC
:101220000000BAF1000F00F4400005DA00EB800086
:101230004FF4400101EA50004FEA9059B9F1010F13
:1012400000DDB9460A9850EA4A000ED044F6105024
:10125000A5F2FF3545432F14B8F1000F1ED075429B
:10126000291E1EDDC9F100021CE0B8F1010F4FF08C
:10127000000001D0302103E0F24305E02154401C7E
:10128000B042FBDB30460022002121540B99C1F80B
:101290000880C1E900200FB0BDE8F08FBD1B6D1CB8
:1012A000DEE74A4600DA694206A800F099FD06AB7F
:1012B00093E8070003AB83E8070050460A9906F05D
:1012C0007EFC8DE80700A0F500501F3800900398C1
:1012D000002D0ADD42F21F014A460844002303A9FB
:1012E0000390684606F0E7FE09E0A0F500504A4684
:1012F0001F38002303A90390684606F0F1FE8DE82D
:1013000007000004000C03D04FF0FF30410800E05C
:101310001046B8F1000F03D00022009215461EE0DF
:10132000751E05D4FFF71AFF303262556D1EF9D5D0
:10133000B3460122084302D000227F1C04E020783B
:10134000302801D100227F1E002A099784D01DE099
:10135000112D07DAFFF702FF303262556D1C50EA9B
:101360000102F5D1084302D00098C8B10EE0002177
:10137000681E05E0235C625C63542254401E491CD5
:101380008142F7DBAB46A81B401E0990002004F801
:101390000B000B98099AC0F80880C0E9002B7AE787
:1013A00011264FF0000857E72DE9F04F8846044614
:1013B000D21D22F0070191B0D1E90001CDE90A0167
:1013C00006F0C5FF02460B98C00F01D02D2007E0A4
:1013D0002068810701D52B2002E0202101EAC0000E
:1013E000032A099001D0072A05DB0346414620461F
:1013F00000F0B6FC0BE12078800601D5E06900E042
:101400000620B8F1650F814606D0B8F1660F18D0F6
:10141000B8F1670F70D131E00020B9F1110F0090E1
:1014200001DB112301E009F101030AAA01A90CA8BB
:10143000FFF7E2FEDDE90C70002609F101058346A5
:1014400047E001204B4600904FF000470AAA01A94F
:101450000CA8FFF7D1FEDDE90DB00C995D46002622
:1014600010B909F101000D18B9EB050003D4C0F162
:10147000FF3609F10105A5EB09002BE0B9F1010FD9
:1014800001DA4FF001090020B9F1110F0090484630
:1014900001DD112300E003460AAA01A90CA8FFF709
:1014A000ABFEDDE90C704D46002683462078000730
:1014B0000AD4AB4500DA5D4601A8012D04DD4119CF
:1014C00011F8011C302907D04F4502DA17F1040F3B
:1014D00004DA012082460FE06D1EEEE7002F02DCE9
:1014E000ED1B3E4403E0781CA84200DD7D1CB81BC8
:1014F00000F1010A4FF000472078000703D4AA4505
:1015000001DB4FF0FF3A0021B7F1004F0DF1430826
:101510008DF8431024D002202B23002F01DA7F42C4
:101520002D230A21021EA0F1010000DC5FB197FB10
:10153000F1FC97FBF1F201FB1C7C17460CF1300C1F
:1015400008F801CDEEE7A8F1010003702188090534
:1015500001D5452100E06521A0F1010800F8011C3A
:1015600009980FA9A1EB0807FF1D00B1012041193F
:1015700001EBEA70A1693844081A401EA061207886
:10158000C00602D42046FFF7A4FB099828B1D4E98D
:1015900001219047206A401C20622078C00622D595
:1015A0002046FFF796FB1EE0002E04DBB34502DD6C
:1015B00001A8805D00E03020D4E901219047206A35
:1015C000401C2062761CAAF101005FEA000A0AD1E1
:1015D00000F0C0FBC0680168405CD4E9012190477D
:1015E000206A401C2062281EA5F10105DCDC07E012
:1015F000D4E9012118F8010B9047206A401C2062B1
:10160000381EA7F10107F3DC2046FFF778FB032023
:1016100011B041E62DE9F04F04460D46D21D22F0EF
:10162000070089B0D0E900974846394606F08FFE9A
:101630000246F80F01D02D2307E02068810701D56D
:101640002B2302E0202101EAC0038DF820300BB1EA
:10165000012000E00020032A824601D0072A04DB93
:101660002946204600F07CFB3FE12078800601D42B
:101670000D2500E0E569C7F30A560D2D49DA002172
:101680004FEA175B08464FF00000002F00F44000BF
:1016900007DA00EB80004FF4400100EBD07001EA64
:1016A00060008115012901DD4FF0FF3100224FEA72
:1016B000850CBCF1180F06D31346ACF118004FF09F
:1016C0008052C24003E04FF4801323FA0CF30CF174
:1016D0000C0CBCF1200F04D3ACF1200C09FA0CF077
:1016E00001E007FA0CF000294FF0004801DD18B9BD
:1016F0000FE00ED140450CD319EB02095F4121B92F
:10170000404502D19F4329EA0209BBEB175F00D095
:10171000761C2088000502D57B48784402E07A4890
:101720007844193808AA302302F80A30037C0AF1F9
:101730000101002E0AF1020A53546A4602DC4FF0FE
:10174000300101E04FF031014FF001088DF8001039
:1017500002D0A6F2FF3603E059EA470100D06B4EF3
:10176000002D02DC2178090704D54FF002082E2154
:101770008DF80110C44600210BE0C7F303433F017D
:10178000C35C491C6D1E02F80830052908F10108E8
:1017900001DA002DF1DC00210CE000EB1973491C8B
:1017A0001B786D1E082902F808304FEA091908F164
:1017B000010801DA002DF0DC21688B0602D516E065
:1017C000A8F10108E04505DD02EB080313F8013C30
:1017D000302BF5D0B8F1000F09DD02EB080313F848
:1017E000013C2E2B03D1090701D4A8F10108002DDB
:1017F00005DD3E2102F808106D1E08F10108407C4D
:10180000002E02F8080008F1010804DA2D207642C3
:1018100002F8080002E02B2002F808000A214FF429
:101820007A70864208F101080BDB96FBF0F3303347
:1018300002F8083096FBF0F308F1010800FB13668C
:1018400001E0642E0CDB642096FBF0F3303302F8E9
:10185000083096FBF0F308F1010800FB136601E085
:101860000A2E06DB96FBF1F0303002F8080008F192
:10187000010896FBF1F001FB1060303002F808001F
:10188000A16908F1010808EB050202EB0A00081A39
:10189000A0612078C00602D42046FFF71AFA216A18
:1018A00008AE01EB0A00206204E0D4E9012116F839
:1018B000010B9047BAF1010AF7D22078C00602D591
:1018C0002046FFF706FA6E4609E016F8010B3E289F
:1018D0000FD0D4E901219047206A401C2062B8F162
:1018E0000108F2D22046FFF70AFA09B00320BDE84A
:1018F000F08F206A2844206203E0D4E901213020DF
:1019000090476D1EEBD3F8E73D6D000002FCFFFF32
:1019100010B5436913B1AFF3008001E0FFF7BCFAE3
:10192000012010BD128800F1240182840022C284AB
:101930000122EDE711684FF0FF32E9E72DE9F34F9F
:101940004FF0000A0C4656468DB001200C9001F174
:101950000C000B9062690B9801219047051E2DD059
:10196000252D2CD0216A8847C0B162690B980121CE
:101970009047216A88470028F7D16269411E0B9879
:10198000904700E0761CA1690D988847216A884736
:101990000028F7D1E1690D988847DBE7A1690D9828
:1019A0008847A842074601D1761CD3E7E1690D9824
:1019B00088477F1C02D1BAF1000F6FD06BE16269DA
:1019C0000B9800273D46394690472A2804D1626982
:1019D0000B98012190470125DFF8D08262690B98AE
:1019E00001219047A0F130010A290AD24745E5DCE0
:1019F00007EB870100EB4107303FDFD445F01005CE
:101A0000ECE7E90601D46FF000476C280AD04C28B7
:101A100014D0682815D06A280DD074281CD07A28D4
:101A20001AD01DE062690B98012190476C2802D002
:101A300045F0040514E045F002050DE045F02005F1
:101A40000AE062690B9801219047682802D045F0AE
:101A5000080505E045F4006562690B98012190478F
:101A6000C4E9015765283DD019DC58287AD00CDC30
:101A7000452837D004DC252826D041289ED131E0E6
:101A800046282FD0472899D12CE05B2877D06128B1
:101A900028D063287CD0642823D15AE0F6E06F2850
:101AA00048D008DC66281DD067281BD0692821D0C3
:101AB0006E2816D127E0702845D0732868D0752885
:101AC00047D078280DD14DE0A1690D988847252889
:101AD00005463FF469AFE1690D9888476D1C3FF4F6
:101AE0006AAFD8E00D9923466A466FF00100AFF364
:101AF0000080C5E045F0400023464FF000026060E2
:101B0000A80736D43EE0E8077FF447AF2068011D00
:101B100021600068290501D506701BE7290701D55A
:101B2000068017E7A90703D5F117C0E9006111E79F
:101B300006600FE745F0400023464FF00802606062
:101B4000A80716D41EE040F60E0125EA01006060E9
:101B500016E045F0400023464FF00A026060A807F7
:101B600007D40FE045F040006060A80708D5234681
:101B700010220D996FF00100AFF3008080E007E0C4
:101B8000102223460D996FF00100FEF721FE77E049
:101B90004FF0000963284F46C8464B46CB4602D05B
:101BA0005B2806D038E0E80601D40120A0600127B8
:101BB00032E06269D4F80CB00B98012190475E289E
:101BC00007D14FF0010949466269D4F80CB00B986F
:101BD0009047216939B900210A4603AB43F8212017
:101BE000491C0829FADBD8B3216949B308F1010877
:101BF00062690B98012190475D28F4D1B9F1000F7B
:101C000009D0002003A951F82020D24341F8202018
:101C1000401C0828F7DB03AB2069002820794FEA35
:101C200040701ED05B462246CDF80080CDE901977A
:101C30000D9900286FF0010020DAAFF300801FE05B
:101C4000C11703AA00EBD1614B1121F01F0102EB78
:101C50008302411A13680120884003431360C7E7D9
:101C600019E00D99224600286FF00100009702DA72
:101C7000AFF3008004E0FEF751FE01E0AFF3008017
:101C800000280ADA401C06D10C9820B14FF0FF3032
:101C90000FB0BDE8F08F5046FAE7E90701D10AF12D
:101CA000010A064400200C9054E60000CCCCCC0C79
:101CB0002DE9F04116460C46054600F043F803684E
:101CC00093F80101012807D0FF2C12D8185D80B1CC
:101CD00001202C70BDE8F081D3F80701324621467F
:101CE00003F20713C7182846BC46BDE8F04100239D
:101CF00060474FF0FF30EDE7754600F0EDF8AE4677
:101D000005006946534620F00700854618B020B507
:101D1000FEF7FAFABDE820404FF000064FF000074A
:101D20004FF000084FF0000BAC46ACE8C009ACE83F
:101D3000C009ACE8C009ACE8C00921F007018D4634
:101D40007047000010B500F005F8001D10BD00BF81
:101D50006966000010B500F0BFF8203010BD00002B
:101D60002DE9F0411F46044603260168072A01F4C5
:101D7000006004DB08B116A505E016A503E008B174
:101D800015A500E015A521F010002060A069C01E77
:101D9000A0610FB1401EA0612046FEF79AFF4FB12F
:101DA000D4E9012138469047206A401C2062C01CBB
:101DB000206206E0206AFAE7D4E9012115F8010B58
:101DC0009047761EF8D22046FEF799FFBDE8F081D5
:101DD0004E414E006E616E00494E4600696E6600CF
:101DE0002DE9F047814616468AB0354878440DC83B
:101DF0008DE80D0032487844801C03AC0DC884E89F
:101E00000D0041F69B300844372190FBF1F290FB26
:101E1000F1F5A5F1800501FB12041B3C02D56442DB
:101E2000012000E00020DFF898A080460027FA4457
:101E3000AAF1BE0A0EE0E0070AD03246684607EB78
:101E4000470101230AEB810106F04AF98DE80700FA
:101E500064107F1C002CEED1194F7F44AE3F19E077
:101E6000E80715D007EB04100DF1180A90E80E00F2
:101E70008AE80E00C068F04201D1981908903246F5
:101E8000012306A903A806F02BF903AB83E807009A
:101E90006D10641C002DE3D14FF0010332466946FA
:101EA000B8F1000F03A802D006F005F901E006F032
:101EB00017F9C9E90001C9F808200AB0BDE8F087A0
:101EC000FC66000010B50446AFF300802046BDE874
:101ED0001040FEF704BA00000048704700010020DF
:101EE00001491820ABBEFEE7260002007047000043
:101EF00080B501F0CFF802F087FD02F09FFA02F002
:101F00004DFA02F00BFB02F027FB02F03FFB02F060
:101F100097FB02F0AFFB02F05BFB0F48082101F0DA
:101F20005BFF02F0C1FB0D484FF480614FF480620B
:101F300002F0FCFC0A494FF48062086009484FF443
:101F4000806103F05DFB0849086008A003F0E8FC2D
:101F5000BDE8804003F046BE088600204886002089
:101F6000F881002088860020C001002048656C6C44
:101F70006F20576F726C640D0A000000FEE70000CE
:101F8000014800F031BD00BFFC810020014800F095
:101F90002BBD00BF5C820020014800F025BD00BFC2
:101FA000BC820020014800F01FBD00BF1C83002040
:101FB00010B501686FF00F0252FA81F21823B2FBDC
:101FC000F3F306A4E35C40F2FF34A1435F2A88BF29
:101FD0000431C0E91613084610BD00BF00061016F4
:101FE0000006101610B560484169A1B10139416180
:101FF000C16882694B1CB3F10A0418BF1C46C46057
:10200000064803680133B3F10A0418BF1C46046094
:1020100002EBC10010BD002010BD00BFD0000020A9
:1020200010B55148416BA1B101394163C16A826B5E
:102030004B1CB3F10A0418BF1C46C462064803686F
:102040000133B3F10A0418BF1C46046002EBC1005F
:1020500010BD002010BD00BFD400002010B54248C4
:10206000416AA1B101394162C169826A4B1CB3F175
:102070000A0418BF1C46C461064803680133B3F163
:102080000A0418BF1C46046002EBC10010BD00200A
:1020900010BD00BFD80000207047000070B5324E60
:1020A0000546B0690C4628B930485021002204F09A
:1020B00064F8B061D6E903317269994208BF092A10
:1020C0000CD040F8315000EBC10001314460501C8D
:1020D000B1F10A0218BF0A46C6E9042070BD00BF6C
:1020E00070B5214E0546B06B0C4628B91F485021EB
:1020F000002204F042F8B063D6E90B31726B9942CA
:1021000008BF092A0CD040F8315000EBC100013162
:102110004460501CB1F10A0218BF0A46C6E90C20FF
:1021200070BD00BF70B5104E0546B06A0C4628B9A8
:102130000E485021002204F020F8B062D6E90731A1
:10214000726A994208BF092A0CD040F8315000EB5E
:10215000C10001314460501CB1F10A0218BF0A46A7
:10216000C6E9082070BD00BF6C010020F00100200E
:1021700070470000EA49097851B1DB4AC0F3C62133
:10218000515CC0F3022021FA00F000F0010070471A
:102190000020704770B5E24C264656F8185F00F0F4
:1021A000C3F956E8001F46E8000202B1F9E7A94268
:1021B000F2D1A84208D204F1100151E8002F531CBB
:1021C00041E8003404B1F8E770BD00BFF8B514462B
:1021D0000D460646FFF7CEFF98B13746C0F2080716
:1021E000FFF7D8FF0146EFF30580002808BFB7B21C
:1021F00007F140702A46234601B0BDE8F04000F0E8
:1022000041B80120F8BD00002DE9F04799469246FB
:102210000F460646FFF7AEFF58B3DDF82080344680
:10222000C0F20804FFF7B6FF0546EFF3058000286B
:10223000BB4808BFB4B20130D0E84F1F4A1CC0E809
:10224000432F03B1F8E74FF4E02000EA0146A0195C
:1022500000F1807029463A46534600F013F858B111
:102260000748294630434A464346BDE8F04700F058
:1022700009B80120BDE8F0870020BDE8F08700BF65
:10228000010000022DE9F04F4FF0805491464FF0CD
:10229000005204EAD10402EA9902204310434FF0AD
:1022A000804202EA530240EA02089D48DFF844E215
:1022B0009A468B466FF0070600F1040C013680F059
:1022C0005180614651E8004F601C41E8000505B1AE
:1022D000F8E704F03F0504F470740EEB051048EACB
:1022E000843400F10C0744F0406257E8004FA1012C
:1022F00003D3BFF32F8F002406E004F000441443FF
:1023000047E8004303B1F0E76101D7D584F0044208
:102310002BF0004102F0004319442C014EF8041048
:102320002AF0004129F0004419442344C0E9013156
:1023300057E8001F890103D2BFF32F8F002004E06C
:1023400047E8002303B1F3E7012058B1744808308F
:1023500050E8001F4A1C40E8002303B1F8E70120C1
:10236000BDE8F08F6E480C3050E8001F4A1C40E872
:10237000002303B1F8E70020BDE8F08F0023FE2919
:1023800098BFFE2A26D82DE9F041DFF85C810023B2
:102390004FF0010E4FF0000CBCF1040F17D020FAE3
:1023A0000CF7FF070FD00F4697420CD803EBD7046A
:1023B00007F0070618F804500EFA06F6354308F839
:1023C00004500137F0E70CF1010C2033E4E701235E
:1023D000BDE8F041184670472DE9F047DFF840A10D
:1023E000814600208AF800003F4888468021FEF799
:1023F00008FC3E4A18214FF0FF3341F221064FF00E
:10240000FF3589B1147885EA04256FF0070444B1DB
:1024100086EA45002FB29F42C8BF680001340546D6
:10242000F5E701390132ECE7DAF82000304988425B
:1024300018D1BAF80210A8B2814215D1DAF81C00FE
:10244000411CCAF81C10A0B12A490020B0F5806FC9
:1024500046D00A18D36810305C0144BF23F04063B3
:10246000D360F3E7CAF820100120CAF81C00AAF8CC
:102470000250204800244FF48061CAE90144CAF8A0
:102480000C408AF80140FEF7BCFB00F059F8002828
:1024900006460CBF002000F04DF8CAE90440CAF817
:1024A0001840D6B1144C48460021FE22A0470F2008
:1024B000EF21EF22A0470420FE21FE22A047FFF7D4
:1024C00069FE0146DAF81C200C480023FFF7DAFE0B
:1024D000B8F1000F18BF00F013F83046BDE8F087E0
:1024E00000F02EF80646DCE7008B0020148600087A
:1024F0006B27A5E1008700207D23000800FF000373
:1025000080B50748017849B901210170FFF742FE03
:102510000146044800220023FFF7B4FE012080BDDD
:10252000808B002001FF000301480068704700BF56
:10253000041000E001480068704700BF2800002038
:102540000548016841F0807101600448016841F06C
:102550000101016001207047FCED00E0001000E087
:10256000014602480022FFF731BE00BF01F301001F
:10257000014602480022FFF729BE00BF05F3020012
:1025800001464FF473400022FFF720BE0146024887
:102590000022FFF71BBE00BF03F302000146024802
:1025A0000022FFF713BE00BF0DF5020001464FF4F5
:1025B00071400022FFF70ABE014602480022FFF7E1
:1025C00005BE00BF06F10100024800210022FFF70E
:1025D000FDBD00BF01F10100024800210022FFF70C
:1025E000F5BD00BF02F10200024800210022FFF702
:1025F000EDBD00BF07F10100024800210022FFF7F6
:10260000E5BD00BF08F102001CB514460A460146AC
:10261000024800932346FFF7F7FD1CBD01F00200BE
:102620000A4601460148FFF7D1BD00BF04F0020091
:10263000E0B513460A460146002000900148FFF726
:10264000E3FD8CBD05F002001CB514460A460146A8
:10265000024800932346FFF7D7FD1CBD03F002009C
:10266000E0B513460A460146002000900148FFF7F6
:10267000CBFD8CBD02F00200E0B513460A460146D0
:10268000002000904FF43C30FFF7BEFD8CBD0000F1
:10269000014602480022FFF799BD00BF08F9020079
:1026A0000A4601460148FFF791BD00BF03FA020048
:1026B0000A4601464FF47A40FFF788BD1CB5144620
:1026C0000A460146024800932346FFF79DFD1CBDC4
:1026D0000CFA0100E0B513460A46014600200090BE
:1026E0000148FFF791FD8CBD0DFA0200014602483A
:1026F0000022FFF76BBD00BF0EFA02000A4601463A
:102700000148FFF763BD00BF09FA02000A4601460F
:102710000148FFF75BBD00BF0AFA0200E0B51346AF
:102720000A460146002000900148FFF76DFD8CBD70
:1027300001FA01000A4601460148FFF747BD00BF04
:102740000BFA02000A4601460148FFF73FBD00BFF1
:1027500010FA02001CB514460A46014602480093CE
:102760002346FFF751FD1CBD06FA0100E0B51346F4
:102770000A460146002000900148FFF745FD8CBD48
:1027800007FA0200014602480022FFF71FBD00BF02
:1027900008FA02000A4601460148FFF717BD00BFCC
:1027A0000FFA02000A4601460148FFF70FBD00BFBD
:1027B00006F701000A4601460148FFF707BD00BFC2
:1027C00007F70200014602480022FFF7FFBC00BFE6
:1027D00008F702000A4601460148FFF7F7BC00BFB0
:1027E00009F702000A4601460148FFF7EFBC00BFA7
:1027F00003F70200014602480022FFF7E7BC00BFD2
:102800000EF70100014602480022FFF7DFBC00BFBF
:102810000FF702000A4601464FF47740FFF7D6BC97
:10282000014602480022FFF7D1BC00BF01F70100BA
:10283000014602480022FFF7C9BC00BF0AF70200A8
:10284000014602480022FFF7C1BC00BF0BF70100A0
:102850000A4601460148FFF7B9BC00BF0CF7020069
:102860000A4601460148FFF7B1BC00BF06F8010067
:102870000A4601460148FFF7A9BC00BF07F802005D
:10288000014602480022FFF7A1BC00BF08F8020081
:102890000A4601460148FFF799BC00BF09F802004B
:1028A0000A4601460148FFF791BC00BF03F8020049
:1028B0000A4601464FF47840FFF788BCE0B513465E
:1028C0000A460146002000900148FFF79DFC8CBDA0
:1028D00001F80100014602480022FFF777BC00BF63
:1028E0000AF80200014602480022FFF76FBC00BF51
:1028F0000BF801000A4601460148FFF767BC00BF1C
:102900000CF802000A4601460148FFF75FBC00BF11
:1029100016F203000B4601460348002A0CBF1A4674
:102920002930FFF753BC00BF03F202000146024802
:102930000022FFF74BBC00BF1CF202000A46014612
:102940004FF47240FFF742BC024800210022FFF71B
:102950003DBC00BF1AF201001CB514460A460146F0
:10296000024800932346FFF74FFC1CBD09F4020008
:10297000014602480022FFF729BC00BF08F402000C
:10298000014602480022FFF721BC00BF15F20200F9
:10299000E0B513460A460146002000900148FFF7C3
:1029A00033FC8CBD01F20100014602480022FFF712
:1029B0000DBC00BF18F20300014602480022FFF7D9
:1029C00005BC00BF19F202000A4601460148FFF7A4
:1029D000FDBB00BF17F203000A4601460148FFF79E
:1029E000F5BB00BF01F60200F8B5044600200090D8
:1029F000D4E91660574A0821156837688140394282
:102A00000CD0226813685B0708D5136823F0040311
:102A10001360B160616D41F0010161650121814088
:102A2000394208D022685269120604D5B160616D3E
:102A300041F00201616504218140394208D02268D9
:102A40001268920704D5B160616D41F004016165BF
:102A500010218140394217D020680268120713D52F
:102A6000B16002680168520306D4C90506D4016842
:102A700021F00801016001E0080301D4216C00E0AD
:102A8000A16C09B120468847E16D202000FA01F2CF
:102A90003A423BD020680368DB0637D5B26094F831
:102AA00035300268052B19D122F016020260426906
:102AB00022F080024261226C0AB9A26C1AB102684B
:102AC00022F0080202603F208840B060002084F8B5
:102AD0003400012084F83500216D37E0016852038D
:102AE0000CD4C9050ED4016821F01001016000204A
:102AF00084F83400012084F8350003E0080301D491
:102B0000616C00E0E16B09B120468847606D00B35D
:102B1000606DC00719D0052184F8351021684FF485
:102B200016500A68B5FBF0F022F001020A60009A24
:102B300001328242009202D80A68D207F7D10120FE
:102B400084F83500002084F83400E16C09B1204697
:102B50008847F8BD280000202DE9F041044600F028
:102B60005FF9ACB10546022084F83500002084F8F6
:102B700034002168086820F0010008600868C00778
:102B800009D000F04DF9401B052837D82168F5E73A
:102B90000120BDE8F0810868344A271DE8CF00EA2B
:102BA000020E43EA0E032B43D4E9050C33433B43A7
:102BB000D4E90728184340EA0C00636A104340EA4E
:102BC0000802042B1ED1D4E90A53206B1A43104388
:102BD000086051F8140F20F0030040EA050040F0AF
:102BE0000402B3B1BCF5005F24D0BCF1000F31D1B9
:102BF000022D32D0012D27D07DB30AE003262027F5
:102C0000032012E00A6051F8140F20F0070040EA98
:102C1000030220460A60FFF7CBF9E16D3F2202FA7A
:102C200001F18160002701260020676584F8356086
:102C3000BDE8F081032DECD8012640270120DFE814
:102C400005F0020C0203F0E7A3F1C070B0FA80F0C7
:102C5000400904E0032D04D3DBD1C3F30060002856
:102C6000D7D0012640270120DFE700BF3F8010F0CA
:102C70002DE9FC4F5F4A072490425F4A08BF0424B5
:102C800002444FEAB223042B38BF4FEAB2244FF07C
:102C9000010B4FF000084FF0000E00220094BEF12F
:102CA000200F08BFBDE8FC8F0F680BFA02F6374211
:102CB00000F093804F68122F00F295800BFA07F412
:102CC00014F0061F00F08F80032303FA0EF48368CC
:102CD000CD68A34305FA0EF52B438360C7F30013B9
:102CE00045689340B5432B436FEA040C4FEA420A10
:102CF0004360C4688D6804EA0C0405FA0AF52C43A5
:102D0000C46047F01004122C12D108F01C040F23E9
:102D100003FA04F56FF0030303EA52070744D7F8F8
:102D200020900B6929EA0505A3402B433B624F68BD
:102D3000036807F0030403EA0C0304FA0AF42343CC
:102D40000360FB0049D500230193F94B2B4F1C4630
:102D50001B6822F0030543F4804323602368BC46CC
:102D600003F4804301933D44019F264F08F00C0378
:102D70000F24B946EF599C4027EA0404009F07FA44
:102D800003F3234345F80930DCF800304D6843EA8B
:102D90000604EF0358BF23EA0604CCF80040DCF831
:102DA0000430AF0343EA060458BF23EA0604CCF814
:102DB0000440DCF80830EF0243EA060458BF23EA77
:102DC00006040F4BCCF808401F461B68AD0243EACF
:102DD000060458BF23EA06043C6008F104080EF11B
:102DE000020E01325BE7032303FA0EF46FEA040CD0
:102DF000F2467EE7001002400000FEBF003C0140AA
:102E00000C3C014008FCFFFF42690A408A4208BFAF
:102E1000090481617047002A08BF09048161704775
:102E20009B480068704700BFF8B560B3044690F84F
:102E30003D0028B9002084F83C00204600F0AEF8A0
:102E4000242084F83D002068016821F00101016020
:102E5000016841F400410160016821F40041016012
:102E600000F008FB49494A4B002288424FF000011C
:102E700038BF0121984238BF01226368454DAB42FB
:102E800038BF0A460AB10120F8BDAC49424EB0FB3A
:102E9000F1F22168B3424D6825F03F0545EA02058D
:102EA0004D600D6A25F03F0511D801322A430A62B0
:102EB0005A000138B0FBF2F04CF6FF7301306FF3AB
:102EC0001F30042898BF0420CA699A4337E04FF4A2
:102ED000967672434FF47A76B2FBF6F201380132FD
:102EE0002A430A62CA694CF6FF75AA43A56845B130
:102EF00019265E43B0FBF6F60427013667F31F364A
:102F000006E003EB4306B0FBF6F601366FF31F361F
:102F1000360509D055B119256B43B0FBF3F00423F6
:102F2000013063F31F3008E0012008E003EB4303A6
:102F3000B0FBF3F001306FF31F3040F4004010435A
:102F4000C861E0690A6804F10C0622F0C00210436F
:102F5000226A10430860886848F2FF3290436CCEC2
:102F6000184310438860C86820F0FF0028433043AE
:102F7000C860086840F0010008600020202120643B
:102F800084F83D10206384F83E00F8BD80841E0064
:102F900000093D00A1860100A08601002DE9F04353
:102FA00087B0044602A81421FDF72BFE21682E48A5
:102FB000814255D100262D4F0196396800F5D83051
:102FC00041F002013960396801F0020101910421E8
:102FD00006910321059101210491122103914FF4DF
:102FE00040710291019902A9FFF742FE01963869EA
:102FF00020491F4D40F400108946183138614020A7
:10300000C5E9001605F108014FF4806881E8410127
:103010003869142100F400100190019805F11400A2
:10302000FDF7EFFD2846FFF797FD08B1FFF7A0F881
:10303000AC636563104D4FF00070C5E9009005F179
:1030400014001421C5E90266C5F81080FDF7D9FD0A
:103050002846FFF781FD08B1FFF78AF8AC63A56346
:1030600007B0BDE8F08300BF005400403038024094
:103070005C82002010600240FC810020034804496B
:1030800000780A6810440860704700BF20000020E4
:10309000FCBE002080B50B48016841F4007101605E
:1030A000016841F480610160016841F48071016050
:1030B000032000F08BF8002000F006F800F040F844
:1030C000002080BD003C0240B0B586B001461A2009
:1030D0000022002400F05EF81A2000F04DF8144899
:1030E0000194016841F4802101600068694600F4A0
:1030F00080200190019801A800F0A0F900F0C4F927
:103100000E4D0C49B0FBF5F00B4B013840F2E732A5
:10311000C1E900300846C1E902420C6100F0CEFC72
:1031200008B1012002E0034800F0E3FC06B0B0BDA6
:1031300044380240C88500200048014040420F004A
:1031400082B000200B4901904A6842F480424A60F4
:103150004A6802F480420192019A0090086840F0A7
:1031600080500860086800F080500090009802B01D
:10317000704700BF40380240002808D400F01F010B
:10318000012202FA01F1024A400942F82010704778
:1031900000E100E0B0B5134B4FF0FF351B68C3F3FF
:1031A0000223DC1E83F0070338BF0024042B28BF52
:1031B000042305FA03F3994305FA04F3A1409A4363
:1031C0001143BDE8B04002F05FBA00BF05494FF6B9
:1031D000FF030A681A4060F30A220348104308609C
:1031E000704700BF0CED00E00000FA05F8B504469A
:1031F000006810F0050F26D0424F00208C4E38603A
:10320000FFF70EFE05463068000105D5FFF708FE02
:10321000401B0228F7D934E0221D07CA40EA81107A
:1032200040EA0270C6F8840001203860FFF7F8FD1C
:1032300005463068000105D4FFF7F2FD401B022867
:10324000F7D91EE02068810754D50020784E009001
:10325000306C2D4F40F080503064306C00F0805066
:1032600000900098386840F480703860FFF7D8FD0F
:1032700005463868C00506D4FFF7D2FD401B02287A
:10328000F7D90320F8BD306F10F440701FD02169CA
:1032900001F4407188421AD0306F1C4901220A6043
:1032A000002220F440700A603067306FC0070ED0F3
:1032B000FFF7B6FD054641F28837306F800706D428
:1032C000FFF7AEFD411B0320B942F6D919E0206893
:1032D0002169B3680E4A23F4F81301F440750A40DB
:1032E000B5F5407F08BF1343B360326F6FF31F31F2
:1032F00011433167000703D5207D0449C1F8A003BD
:103300000020F8BD6800474200700040400E474270
:10331000FFFCFF0F2DE9F041002800F08680444BB0
:103320000446D3F80004884600F00F00884207D214
:1033300083F80084D3F8000400F00F00404574D1F6
:103340002068810711D5410703D5996841F4E05100
:103350009960010703D5996841F460419960A168BB
:103360009A6822F0F00211439960C0072BD0606880
:10337000811E022903D21968890109D455E0012868
:1033800003D11968890303D44FE0196889074CD524
:1033900099681D4621F0030108439860FFF740FD3E
:1033A000064641F288376068A9682B4601F00C0197
:1033B000B1EB800F07D0FFF733FD801BB842F2D985
:1033C0000320BDE8F081D3F8000400F00F00404571
:1033D00007D983F80084D3F8000400F00F004045BB
:1033E00023D12068410705D5E1689A6822F4E052AC
:1033F00011439960000706D52069996821F460415E
:1034000041EAC00098601C4600F04EF8A168094AE5
:10341000C1F30311515CC8402049086006480068A8
:10342000FFF752FE0020BDE8F0810120BDE8F081E9
:1034300000380240FC8500082400002010B50F224F
:103440000260174A4FF4E054136803F0030343602B
:10345000136803F0F0038360136803F4E053C36060
:10346000136804EAD3030361D2F8F80300F00F00F5
:10347000086010BD09480A4900680968094AC1F393
:103480008221515CC84070470448054900680968BA
:10349000044AC1F34231515CC84070472800002003
:1034A000083802400C86000810B5134C606800F024
:1034B0000C00082804D0042814BF1048104810BD80
:1034C0002268206802F03F0240020D485CBF42F2D1
:1034D0000040C0F2F40021680023C1F38811A0FB72
:1034E0000101FCF785FF21680222C1F3014102EBD3
:1034F0004101B0FBF1F010BD043802400024F4009B
:1035000040787D012DE9FC41002800F0C880044688
:103510000078BE4EC00744D0B06800F00C0004280C
:1035200005D1306880033CD56068D0BBB7E0B06897
:1035300000F00C00082802D170684002F1D46768DE
:10354000B7F5803F06D03068B7F5A02F12D140F410
:1035500080203060306840F480303060FFF760FCDD
:103560000546306880031CD4FFF75AFC401B6428D2
:10357000F7D9D7E020F480303060306820F4802024
:103580003060FFF74DFC0546002FEAD106E0FFF75B
:1035900047FC411B0320642900F236813068800318
:1035A000F5D4207880072CD5B06810F00C0F07D028
:1035B000B06800F00C00082809D17068400206D4F9
:1035C0003068800716D5E068012813D067E0E0680E
:1035D000002800F0C8808E4801210160FFF720FC20
:1035E00005463068800705D4FFF71AFC401B022807
:1035F000F7D997E02069316821F0F80141EAC0006D
:1036000030602078000720D56169814871B10121BF
:10361000C0F8801EFFF704FC0546706F800714D4C5
:10362000FFF7FEFB401B0228F7D97BE00021C0F822
:10363000801EFFF7F5FB0546706F800705D5FFF785
:10364000EFFB401B0228F7D96CE02078400729D413
:10365000A769002F00F0D780B06800F00C000828A0
:1036600063D1012F1BD0E169B06800F480028A4267
:1036700015D1216A00F03F028A4210D147F6C0718D
:10368000626A014091420AD1A16A00F440328A4242
:1036900005D1E16A00F07060884200F0B48001203A
:1036A000BDE8FC81306C4FF00008C0000CD4CDF8B0
:1036B0000480306C4FF0010840F080503064306C72
:1036C00000F0805001900198524F3868C0050FD427
:1036D000386840F480703860FFF7A2FB0546386810
:1036E000C00505D4FFF79CFB401B0228F7D919E061
:1036F000A768012F05D0306F052F45D140F0040099
:103700003067306F40F001003067FFF789FB0546F6
:1037100041F28837306F80074ED4FFF781FB401BA2
:10372000B842F7D90320BDE8FC813949002088461A
:103730000866FFF775FB0546022F0AD14746306839
:10374000800142D5FFF76CFB411B03200229F6D90B
:103750005AE03068800156D5FFF762FB411B032019
:103760000229F6D950E02A4800210160FFF758FBF2
:103770000546306880077FF544AFFFF751FB411BDA
:1037800003200229F5D93FE020F001003067306FB7
:1037900020F004003067FFF743FB0546002FB7D148
:1037A00041F28837306F800706D5FFF739FB411BA0
:1037B0000320B942F6D927E0B8F1000F3FF448AF33
:1037C000306C20F08050306442E71C341FCC08433A
:1037D00040EA8210D9034FF6FF72914340EA046039
:1037E000A1F580310843706001203866FFF718FBAF
:1037F00004463068800106D4FFF712FB011B03204A
:103800000229F6D900E00020BDE8FC810038024022
:103810000000474200700040B8B170B50446407FD8
:1038200020B900202077204600F03EF80220607783
:103830002068CA21416253214162204601F004F808
:10384000216820B10120042228E001207047886807
:10385000144A261D104088606DCE28438D68304381
:10386000284388600B61086940EA02400861C86823
:1038700020F08000C8608868800605D4204600F0EB
:1038800021F821680028DDD1086C20F4802008642C
:10389000A0690A6C1043086400200122FF234B62D8
:1038A000627770BDBFFF8FFF00680449884200D077
:1038B0007047034801210160704700BF00280040A5
:1038C0003C0E4742B0B504460068C16821F0A00133
:1038D000C160FFF7A5FA05462068C068800607D4D6
:1038E000FFF79EFA401BB0F57A7FF5D90320B0BDF3
:1038F0000020B0BDF8B5B0B300248462054690F84E
:10390000510000284FF0000005D1284685F85040AE
:1039100000F02CF8A86A022185F8511095E84E00B5
:103920001A430F68324327F040070F602B691A4390
:103930006B691A43AB6903F400763243EE69324394
:103940002E6A32431043086004206A6A00EA13407A
:1039500010434860C86920F40060C86101206C65AC
:1039600085F8510000E001242046F8BD2DE9F04122
:1039700086B0044601A81421FDF743F921682C48BC
:10398000814252D10026D14900960A6900F5E630FD
:1039900042F480420A610A6902F480420092009A6D
:1039A00000960A6842F002020A60096801F002010A
:1039B0000091052105910321CDE9036102210291C6
:1039C0004FF460410191009901A9FFF751F91A4F95
:1039D000184D07F118014020C5E9001605F108014E
:1039E0004FF4806881E8410105F114001421FDF7CE
:1039F00008F92846FFF7B0F808B1FEF7B9FBAC6349
:103A0000A5640E4D142105F11400C5E90076C5E941
:103A10000266C5F81080FDF7F4F82846FFF79CF819
:103A200008B1FEF7A5FBAC63E56406B0BDE8F08124
:103A3000003800401C83002058600240BC820020F7
:103A40007047704710B590F83C300222012B2AD005
:103A500080F83D20012280F83C2002680B68546801
:103A6000B2F1804F24F0700444EA03049368546078
:103A70000ED00E4CA2420BD00D4CA24208D00D4CE1
:103A8000A24205D00C4CA24202D0E04CA24204D18A
:103A9000496823F08003194391600022012180F8D6
:103AA0003C2080F83D10104610BD00BF00040040CF
:103AB00000080040000C004000400140B0B110B5CB
:103AC000044690F83D0028B9002084F83C002046C8
:103AD00000F00EF8022084F83D002068211D01F05E
:103AE0002DF8012084F83D00002010BD0120704712
:103AF00070470068C16841F00101C160816801F050
:103B00000701062903D0016841F00101016000208E
:103B10007047704710B5044600680169890744BFC3
:103B2000C1685FEA817139D40169490744BFC1683E
:103B30005FEA41713ED40169090744BFC1685FEA89
:103B4000017144D40169C90644BFC1685FEAC1611B
:103B500049D40169C9071CBFC1685FEAC1714FD16F
:103B60000169090644BFC1685FEA016150D4016977
:103B7000490644BFC1685FEA416151D401698906C1
:103B800044BFC1685FEA816100D410BD6FF02001BD
:103B900001612046BDE81040FFF753BF6FF00201FE
:103BA0000161012121778069800741D02046FFF71C
:103BB000B0FF43E06FF004010161022121778069C9
:103BC00010F4407F3ED02046FFF7A3FF40E06FF0A7
:103BD0000801016104212177C06980073CD020469B
:103BE000FFF797FF3EE06FF0100101610821217798
:103BF000C06910F4407F39D02046FFF78AFF3BE0D0
:103C00006FF001010161204600F002F92068A7E78A
:103C10006FF0800101612046FFF712FF2068A6E7E0
:103C20006FF040010161204600F0FCF82068A5E734
:103C3000204600F04FF8204600F0CCF80020207716
:103C4000206871E7204600F045F8204600F0C2F8F1
:103C50000020207720686EE7204600F03BF82046E1
:103C600000F0B8F80020207720686BE7204600F0CD
:103C700031F8204600F0AEF800202077206868E791
:103C800010B586B0044601A81421FCF7BAFF2068DD
:103C9000B0F1804F18D10020D24900900A6842F05C
:103CA00002020A60096801F00201009101210591F8
:103CB000CDE90300022002904FF48060019000984B
:103CC000034801A9FEF7D4FF06B010BD303802400A
:103CD000000402407047000070B50D4690F83C109B
:103CE00004460220012944D084F83D004FEAB20086
:103CF0000126032884F83C6036D8DFE800F0020A89
:103D000012222068294600F077FF206850F8181F1B
:103D10000EE02068294600F095FF206850F8181F33
:103D200016E02068294600F0B9FF206850F81C1FF3
:103D300041F008010160016821F004010160296976
:103D40000FE02068294600F0D3FF206850F81C1FC0
:103D500041F400610160016821F48061016029691A
:103D60000902026811430160002084F83C0084F8D5
:103D70003D6070BDB0B110B5044690F83D0028B963
:103D8000002084F83C00204600F00EF8022084F861
:103D90003D002068211D00F0D1FE012084F83D0087
:103DA000002010BD0120704781B00068B0F1804F45
:103DB0000BD1002000900648016841F0010101602C
:103DC000006800F001000090009801B0704700BF4B
:103DD000403802407047000010B5044600680122D8
:103DE00000F0FAFE20680949884203D14A6C42F487
:103DF00000424A64816801F00701062903D0016886
:103E000041F001010160002010BD00BF0000014031
:103E100000680349884208BFFFF730B9704700BF08
:103E200000480140704750B310B5044690F839007F
:103E300028B9002084F83800204600F023F8242018
:103E400084F839002068C16821F40051C16020461F
:103E500001F006F82068016921F49041016141698F
:103E600021F02A014161C16841F40051C160002084
:103E70002021E06384F8391084F83A1010BD012045
:103E8000704700002DE9F04387B0044602A81421D2
:103E9000FCF7B7FE20685149884247D05049884214
:103EA00040F0998000264F480196416941F0100189
:103EB0004161416901F01001019101990196016888
:103EC00041F001010160006802A900F001000190C9
:103ED000072006900320CDE90460022003904FF4F0
:103EE000C060029001984048FEF7C2FE404F424D2C
:103EF0004FF0006907F118004FF48068C5E9000928
:103F000005F114001421C5E90266C5F81080FCF71C
:103F100078FE2846FEF720FE08B1FEF729F9AC63CB
:103F20006563364D402007F1900140E000262D48A2
:103F30000196416941F020014161416901F0200190
:103F4000019101990196016841F001010160006849
:103F500002A900F001000190082006900320CDE99D
:103F60000460022003904FF4C050029001981E4854
:103F7000FEF77EFE1D4D1E4F4FF480684FF0206906
:103F800005F114001421C5E90079C5E90266C5F8F8
:103F90001080FCF736FE2846FEF7DEFD08B1FEF77E
:103FA000E7F8AC636563134D402007F178012960A1
:103FB000C5F80490A86005F114001421EE60C5F85E
:103FC0001080FCF71EFE2846FEF7C6FD08B1FEF77E
:103FD000CFF8AC63256307B0BDE8F083001401405F
:103FE0000010014030380240000002403C840020B4
:103FF000286402409C8400207C830020DC83002015
:10400000FEE77CB5054601A80C46019202F04EFE83
:1040100000F0F00020281CBF00207CBD01986946FC
:1040200000F076F8019901440191009902290BDB17
:1040300001AE304602F03AFE00F001002870304632
:1040400002F034FE207001207CBD2DE9FE430446C1
:104050000D980026029002A8984617460D46019634
:1040600002F024FE00F0F00130292CD1C0F3C00191
:104070002170C0F3410100F00100296038700298FE
:10408000DDF8289001A900F043F80646029801994E
:1040900030444718029002A948463A4602F014FEFE
:1040A00088B10298391A0ED42A68DDE90B64012A16
:1040B00006DB02A802F000FEA8F800000298391AF8
:1040C0003060012621603046BDE8FE832DE9FC41C9
:1040D000054600200C46086001274FF0FF300DF127
:1040E00007080646053010D040460121A8470128A0
:1040F0000BD19DF90710206801F07F0207FB020039
:10410000FF012060701E0029EBD47042BDE8FC81E5
:10411000024A10600248FFF7D9BF00BFF4810020B7
:1041200015570008B0B502460020802391FBF3F438
:104130007F29A1EBC415C8BF45F080051554013097
:104140007F292146F2DCB0BD421C802A01DA02211F
:1041500009E0B2F5804F01DA032104E0034B0521A9
:104160009A42B8BF04210844704700BFFFFF1F00F8
:10417000F8B5044600200E46009020460121154661
:104180009047012815D169462846FFF79FFF009FF9
:10419000601C3946FFF7C6FF0130C119B14208DC87
:1041A00027B120443946A847B84202D120780009F7
:1041B000F8BD4FF0FF30F8BD7CB504290190BCBFBD
:1041C0006FF001007CBD911F04461001B1FA81F12E
:1041D00063F3C300490940EA410001AE069DC1B244
:1041E000304603F0B5FC01980221FFF79BFF0199CF
:1041F000084401903046294603F0B0FC0198001BAA
:104200007CBD0000F8B504460090104615460E46E9
:1042100000F080F80746FFF797FFB042C4BF6FF089
:104220000100F8BD6E463046102103F091FC009865
:104230003946FFF777FF0099084400902F7A31A0A4
:1042400032A1042F08BF0146304603F06DFC042F55
:1042500018BF03273046394603F07AFCA87EE97E72
:10426000022202EA4000002918BF012140EA81072A
:1042700009D095F83C0095F83D1000F0010061F37D
:10428000C40747EA4017286C08B9A86C08B167F062
:104290007F07E86C08B9686D08B147F040076E46C3
:1042A000F9B2304603F054FC298B304603F056FC3B
:1042B00005F10C030ECB304603F05EFCE87E60B1E6
:1042C00005F124030ECB6E46304603F055FC05F194
:1042D00030030ECB304603F04FFCB7F1FF3F05DC57
:1042E00005F140030ECB684603F046FC780605D581
:1042F00005F14C030ECB684603F03EFC0098001B12
:10430000F8BD00BF4D515454000000004D51497399
:1043100064700000B0B50446057AC068D4E90412A0
:1043200000F036F80221042D08BF0C21032D08BF30
:104330000E210D18E07E60B104F1240207CA00F0DE
:1043400027F804F13002054407CA00F021F8284498
:10435000051D206C08B1A26C01E0A26C22B1616C59
:1043600000F016F82844851CE06C08B1626D01E08D
:10437000626D22B1216D00F00BF82844851C28469F
:10438000B0BDE0B5009204220023FFF715FF8CBDFD
:1043900000280CBF0846FCF731BB7047BCB50020B5
:1043A0005A4901900A68234C42F400120A600A68D4
:1043B00002F400120192019A00900868002240F471
:1043C000800008600868002100F4800000900098D8
:1043D0000B20A047184D0B20A8470C2000210022DD
:1043E000A0470C20A8470E2000210022A0470E2045
:1043F000A8470F2000210022A0470F20A8473920FE
:1044000000210022A0473920A8473A20002100229D
:10441000A0473A20A847452000210022A047452078
:10442000A847462000210022A04746202946BDE893
:10443000BC40084795310008793100082DE9F04F5C
:1044400087B000243148069401940168314F41F04F
:10445000040101600168002201F004010191019949
:10446000019401684FF4005A41F080010160016835
:1044700001F08001019101990194016841F001016D
:104480000160016801F00101019101990194016845
:1044900041F00201016000684FF4005100F0020099
:1044A000019001981A4800F5006680463046B847EA
:1044B000404648F28111002248F28119B84708F5B8
:1044C000806528464FF482510022B8474FF0010B17
:1044D000CDE90444CDE902AB02AFDFF83CA03046A1
:1044E0003946D04740463946CDE90444CDE9029BE0
:1044F000D0474FF482500594CDE903B4029028468A
:104500003946D04707B0BDE8F08F00BF30380240D1
:1045100000000240172E0008712C000810B50B484F
:104520000B4B0C4C00214FF48042C0E90043C0E922
:104530000211C0E90421C0E906110162FEF774FC12
:1045400018B1BDE81040FDF713BE10BDFC8400207B
:10455000A08601000054004010B50A480A4C002112
:10456000FF227F23C0E90041C0E90232C0E9041103
:104570008161FFF751F918B1BDE81040FDF7F8BDB2
:1045800010BD00BF508500200028004010B50E4827
:104590000E4B4FF4827200214FF40074C0E90032D8
:1045A0000A22C0E90211C0E90411C0E90641C0E9CC
:1045B0000811C0E90A12FFF79DF918B1BDE81040D3
:1045C000FDF7D6BD10BD00BF70850020003800404B
:1045D00010B58AB0002401A81C21CDE90844FCF7DD
:1045E00010FB16484FF4FA614FF080428461C0E935
:1045F0000024C0E902410461FFF7BCFB08B1FDF7EC
:10460000B7FD0E4808A9CDE90844FFF71BFA08B129
:10461000FDF7AEFD00200590CDE90200602001907D
:10462000064801A90822FFF757FB08B1FDF7A0FDD6
:104630000248FFF725FB0AB010BD00BF0886002026
:1046400010B5EF480A4C00210C224FF4E133C0E9C9
:104650000043C0E90211C0E90412C0E90611FFF7E6
:10466000E2FB18B1BDE81040FDF782BD10BD00BFF0
:104670000010014010B5E3480A4C00210C224FF411
:10468000E133C0E90043C0E90211C0E90412C0E906
:104690000611FFF7C8FB18B1BDE81040FDF768BD73
:1046A00010BD00BF00140140D3484FF4004101F099
:1046B000C8BD00BFFEE710B500F1280151E8002F8A
:1046C00012B9BFF32F8F04E0531E41E8003404B148
:1046D000F4E772B12C300121006850B1821CD2E89D
:1046E0004F3FC2E8441F04B1F9E71A0602D0083070
:1046F000F2E7002010BD70B5024652F8305F4DB1B0
:10470000CC7800235DB12E46ED78A5420DD27568B8
:104710003346F7E70023C1E90133C1620DE000240D
:10472000C1E9014300F12C0403E0C1E9016306F192
:1047300008042160002B18BF1A1D1160283050E8B2
:10474000001F4A1C40E8002303B1F8E770BDD1E91F
:104750000123002A0EBFC36293608B68191D002BD2
:1047600008BF00F130010A60704770470DA400F0E7
:1047700003FE38B1204601F0D3F84FF47A7001F00F
:1047800069FBF4E701F05EF940F6B83001F062FB36
:1047900001F070FA012802D00AA001F0C1F801F07E
:1047A00005FBFCE75769666920496E69742045522C
:1047B000524F522E0D0A547279204C617465722E3C
:1047C0000D0A00004D51545420494E495420464191
:1047D000494C45442E0D0A0019480068704700BF37
:1047E00018480178012905D105494FF080620A6017
:1047F000002101701248016841F001010160704719
:1048000004ED00E04FF0FF307047000040B1BF49B9
:104810000968B1FBF0F0411E0020B0EB116F02D02F
:104820004FF0FF307047054AFF231370044A0623F8
:1048300013605160034908709060704723ED00E0F9
:1048400010E000E0F0810020B0B504460068C168C7
:10485000490611D44FF0FF31C160FEF7E1FA054679
:104860002068C068400607D4FEF7DAFA401BB0F5AE
:104870007A7FF5D90320B0BD0020B0BDB0B500F1FE
:104880000C01C289D1E85F3F9A4202D8BFF32F8F53
:1048900004E05C1CC1E8554F05B1F3E7C28999B249
:1048A0000020914238BF0120B0BD000010B5044681
:1048B00006A0214601F034F8074808A10068224606
:1048C0000068BDE8104000F00DB800BF536C6F7475
:1048D0003A2025730D0A0000C001002025730D0A3F
:1048E0000000000082B07CB5CDE9062304460568CF
:1048F00006A801900C480E460178012903D12968C9
:104900000A685206FCD501210170D4E90401019B1B
:104910003246FBF7E5FD216982B2284600F0E2FF4E
:10492000BDE87C4002B07047F18100202DE9FC47D2
:10493000DFF8008FDFF8009F17460E460546404619
:104940001C2100224FF0000AC84704464761056059
:10495000C0E9026A404631460022C84760604046CE
:1049600039460022C8476A6B29681368D2E916C223
:104970001F6827F001071F601F6827F480271F604A
:10498000D4E901765E600E1D9E603F2606FA02F2B3
:10499000DF60CCF8082020611868002240F0010098
:1049A0001860CDF804A0086801904868019001984B
:1049B000C86840F01000C860486940F04000486195
:1049C00040460421C8470E49A0610C488D4205D0DD
:1049D0000C498D420DD10830472501E004302525D2
:1049E0000460284601210022FEF7D4FB2846FEF78A
:1049F000C3FB2046BDE8FC87F001002060010020D9
:104A0000488600208886002070B598B001AC00254B
:104A1000201D14211095CDE90E55FCF7F2F8204821
:104A200007950168022641F080510160006800F09E
:104A30008050079007981B480795016841F4404152
:104A40000160006800F44040079004201790602047
:104A5000169615900C2014904FF48000CDE912604A
:104A6000012011904FF4A0200D9009200C90079880
:104A70000CA8FEF747FD4FF480500B950A900F20CD
:104A8000CDE90865079007A80321FEF743FC4FF422
:104A90000070059020460196FEF7A8FB18B070BD87
:104AA00040380240007000401548416801F00C0297
:104AB0001449082A03D0042A17D1134915E00268C3
:104AC00002235202104A58BF0A46016801F03F0112
:104AD000B2FBF1F10268C2F3881251430268C2F3DB
:104AE000014203EB4202B1FBF2F1084A084B1160AC
:104AF0004068C0F30310185C21FA00F010607047A2
:104B0000043802400024F40040787D012800002091
:104B1000FC8500080548D0F8801041F47001C0F809
:104B200080104FF000610160704700BF08ED00E0A9
:104B30000148FEF7EFBF00BFC885002070B50368CD
:104B40007B4AB0F1804F07D01D4CA04204D01D4CD1
:104B5000A04218BF90422ED14C6823F0700323432B
:104B6000B0F1804F13D0164CA04210D0154CA0428B
:104B70000DD0154CA0420AD0904208D0134CA04250
:104B800005D0134CA04202D0124CA04203D1CC68F5
:104B900023F4407323434E690C688D6823F080032F
:104BA000334390420360C562846201D10969116395
:104BB0000121416170BD044CA042CDD0D0E700BFBF
:104BC0000004004000080040000C0040004001408C
:104BD000004801400044014010B501F01F010123CD
:104BE000046A8B4024EA0303036202FA01F1026AB9
:104BF0001143016210BD0000F0B5026A22F001020B
:104C000002620B688A68046A24F002042243446842
:104C1000856925F073052B43454DA8420BD1CD681E
:104C2000D1E9056724F44074344322F00C0225F0E6
:104C300004053C432A43446083614968416302623E
:104C4000F0BD00BFF0B5026A22F0100202620B68EC
:104C50008A68046A24F0200444EA021244688569E0
:104C600025F4E64545EA0323314DA8420FD1D1E9A9
:104C70000567CD6824F4406444EA86046FF040067A
:104C800006EA051522F0C00244EA87042A4344607C
:104C90008361496881630262F0BD00BFF0B5026ABA
:104CA00022F4807202620B688A68046A24F4007439
:104CB00044EA02224468C56925F073052B431C4D64
:104CC000A8420FD1CD68D1E9056724F4405444EAE5
:104CD00006142D0240F2FF46B54322F4406244EA36
:104CE00007142A434460C3614968C1630262F0BD8E
:104CF000B0B5026A22F4805202620C688A68036AC4
:104D000023F4005343EA02324368C56925F4E645BB
:104D100045EA0424064DA84204D14D6923F480439A
:104D200043EA85134360C461496801640262B0BD0F
:104D300000000140B0B50C461146154600F0FCFAE3
:104D400008B10120B0BD0748AAB20068214600683A
:104D5000006800F0C7FD04A04FF49671BDE8B040B4
:104D600000F022BEC001002053454E44204F4B0DA1
:104D70000A00000070B50D46064600F051FE0446DC
:104D8000013005D0204631462A4600F0B1FA10B174
:104D90004FF0FF3405E0F3480121006800EB840088
:104DA0000166204670BD00BF10B5930712D400F114
:104DB0002803D0071ED153E8000F084203D1BFF3E8
:104DC0002F8F002005E020EA010243E8002404B10F
:104DD000F1E710BD806A00EA01038B42014618BF6B
:104DE000002112F0010208BF014653EA020018BF79
:104DF000084610BD53E8000F00EA01028A4203D0C2
:104E0000BFF32F8F002005E020EA010243E80024D1
:104E100004B1EFE710BD0000B0B5104A00234432E2
:104E200015462C683CB12569A94209D3491B04F1F8
:104E30000C052346F5E70024C0E90234016106E0D1
:104E4000C0E902340161A0602569691A2161002B63
:104E500018BF03F10C021060B0BD00BF2C00002091
:104E6000B0B50446006804F108030ECB0569194388
:104E700025F440552A430261C268636949F20C6512
:104E80001943E369AA4319431143C1604169A26907
:104E900021F4407111434161274940F48060B3F52A
:104EA000004F04D1884207D1FEF7EEFA06E08842AF
:104EB00021D1FEF7E9FA20E0FEF7DCFA6368192158
:104EC000A0FB01015A00DB0FFBF792FA6421B0FB53
:104ED000F1F26FF0630302FB0300322303EBC00027
:104EE000B0FBF1F14FF4F87000EA410000EB021062
:104EF00001F007011BE0FEF7BDFA63681921A0FB72
:104F000001019A009B0FFBF773FA6421B0FBF1F2E9
:104F10006FF0630302FB0300322303EB0010B0FBCE
:104F2000F1F101F0F00000EB021001F00F01084375
:104F300021688860B0BD00BF0014014010B5154C59
:104F4000EFF3108072B6606801680A68496B1268F6
:104F50000968496800F01EFE6068006800684168E2
:104F6000006862B610BD00BF10B50A4CEFF31080A8
:104F700072B6A06801680A68496B126809684968D6
:104F800000F008FEA068006800684168006862B62A
:104F900010BD00BF60010020FEE7000070B5884E24
:104FA0000C460546B06A012803D1012000F052FFEB
:104FB000F8E70120B062F06929462246FBF788FD38
:104FC0000020B062F069716A2044F06108197062D3
:104FD00070BD00BF10B57A4CA06A012803D1012032
:104FE00000F038FFF8E7A1690020C4E90711C4E91F
:104FF000090010BD2DE9F843714F16460C46804656
:10500000B86A012803D1012000F024FFF8E701204D
:105010004FF000090025B862786AA04209DA012041
:10502000C7F8289000F016FF0135B542F4DB0220E6
:105030000BE0396A40462246FBF74AFDD7E90801F2
:105040002044091BC7E9080100200021B962BDE81E
:10505000F88300BF2DE9F843594F1646894680462C
:10506000B86A012803D1012000F0F4FEF8E701201E
:1050700000240025B862786A40B90120BC6200F0C3
:10508000E9FE0135B542F6DB02200BE0C9F800006D
:10509000D7E908124046FBF71BFDB9690020C7E9B4
:1050A000071178620021B962BDE8F88370B5444EFB
:1050B0000C4605467069012803D1012000F0CAFEA4
:1050C000F8E701207061B06829462246FBF700FD31
:1050D00000207061B06831692044B0600819306107
:1050E00070BD00BF10B5364C6069012803D10120A6
:1050F00000F0B0FEF8E761680020C4E90211C4E9DD
:10510000040010BD2DE9F8432D4F16460C4680468D
:105110007869012803D1012000F09CFEF8E7012006
:105120004FF00009002578613869A04209DA0120B2
:10513000C7F8149000F08EFE0135B542F4DB022072
:105140000BE0F96840462246FBF7C2FCD7E90301B1
:105150002044091BC7E90301002000217961BDE853
:10516000F88300BFC00100202DE9F843144F164614
:10517000894680467869012803D1012000F06AFE43
:10518000F8E70120002400257861386940B9012042
:105190007C6100F05FFE0135B542F6DB02200BE0DA
:1051A000C9F80000D7E903124046FBF791FC796883
:1051B0000020C7E90211386100217961BDE8F88358
:1051C000C0010020CC496B4A01A0642300F0B2BAB0
:1051D0004154453000000000C749664A01A06423DD
:1051E00000F0A8BA4154000080B50A490A4A07A055
:1051F000642300F09FFA08B1012080BD07A04FF49E
:10520000FA61BDE8804000F0CFBB00BF41542B5293
:10521000535400007C870008918700087265616420
:10522000790D0A0010B588B06C46024605A12046EB
:10523000FBF770F9B0494F4A2046642300F07AFA30
:1052400008B010BD41542B43574155544F434F4E66
:105250004E3D25640000000010B588B06C46024643
:1052600007A12046FBF756F90AA0214600F058FB9B
:10527000A149404A2046642300F05CFA08B010BD02
:1052800041542B43574D4F44455F4445463D2564AB
:10529000000000002D2D3E2025730D0A00000000A7
:1052A0009549344A01A0642300F044BA41542B4389
:1052B00049504D55583D310005A109A3002808BFAC
:1052C0000B468D492B4A1846642300F033BA00BFC1
:1052D00041542B435753544F50534D4152540000A7
:1052E00041542B43575354415254534D415254004F
:1052F000B0B5A2B0044602AD0B46009206A1284606
:105300002246FBF707F97C491A4A28464FF4FA73FC
:1053100000F010FA22B0B0BD41542B434950535411
:105320004152543D25642C22544350222C22257393
:10533000222C25640000000010B590B06C460B468E
:10534000024606A12046FBF7E5F80A4A08A12046D6
:10535000642300F0EFF910B010BD00BF41542B439F
:10536000495053454E443D25642C256400000000FF
:105370003E2000009187000880B521A000F0D0FAFF
:1053800026A000F0CDFAFFF727FF08B127A01FE005
:105390002BA000F0C5FAFFF727FF08B12DA017E0FA
:1053A00031A000F0BDFAFFF70DFF08B132A00FE009
:1053B000374800F0B5FA0120FFF74EFF08B1354835
:1053C00006E0354800F0ACFAFFF76AFF20B1334839
:1053D00000F0A6FA012080BD314800F0A1FA314862
:1053E00031A100F06BF830B1324800F099FABDE815
:1053F000804000F087B8304800F092FA002080BD6D
:105400003E3E3E207769666920696E697420737438
:105410006172742E2E2E0D0A000000003E415420B1
:10542000746573742E2E2E0D0A00000061742074B2
:10543000657374204552524F522E0D0A0000000031
:105440003E526573657420746573742E2E2E0D0A9A
:105450000000000052657365742074657374204504
:1054600052524F522E0D0A003E736574206E6F200B
:105470006563686F2E0D0A00536574206E6F20659A
:1054800063686F204552524F522E0D0A00000000F3
:10549000998700080987000820870008F886000817
:1054A000CF860008B9870008383838383838383897
:1054B00000000000E18600084D87000810B590B09C
:1054C0006C460B46024606A12046FBF723F80A4924
:1054D0000AA2204644F6206300F02CF910B010BD5B
:1054E00041542B43574A41505F4355523D22257347
:1054F000222C2225732200007C8700084641494C5B
:105500000D0A0000B0B519A000F00AFA0120FFF75B
:1055100089FE1D4C18BB1DA000F002FA0120FFF708
:10552000CBFE08B11DA41AE022A52846642100F094
:105530003BFA0028F9D1274800F0F2F926A000F044
:10554000EFF90020FFF7B8FE08B127A407E02B48C9
:1055500000F0E6F900200025FFF764FE18B12046B0
:1055600000F0DEF901252846B0BD00BF3E3E3E7387
:105570007461727420736D61727420636F6E6669FA
:10558000672E0D0A00000000818700083E737461D9
:10559000727420736D6172742E0D0A0053746172FF
:1055A0007420536D617274204552524F522E0D0A71
:1055B00000000000736D617274636F6E666967202E
:1055C000636F6E6E656374656420776966690D0A42
:1055D00000000000348700083E53746F7020736D24
:1055E0006172742E0D0A000053746F7020536D6148
:1055F0007274204552524F522E0D0A0066870008E1
:105600002DE9F047DFF82C82DFF82CA291460D46F9
:1056100006464046882100220027D04704463046EF
:1056200029464A46FFF782F9206080691449002222
:1056300000F0C0F804F160001421A767C4E9027704
:105640002771FBF7DEFA404629460022D047F24E8A
:105650002946C6E90100C6E90307404600227761F2
:10566000D047C6E90600C6E908070648B76200F158
:105670001001C4F88410E06520463460BDE8F0876E
:10568000F16D00080000002010B5074C00F00F037A
:105690002344044AB0F1FF3FC8BF831808011870C3
:1056A00010BD00BF00E400E014ED00E010B50446BA
:1056B00001F0ECFA30B120684FF0FF31BDE8104046
:1056C00000F0E4BC10BD006800F0FEBC10B504465C
:1056D000002000F015FD206008B1012010BD05205C
:1056E000214600F047FD002010BD10B5044601F032
:1056F000CDFA20B12068BDE8104000F01FBD10BDFC
:1057000000F0DABB02484FF48071FDF77DBB00BFAB
:1057100000000240B0B5064B00228A4206DA1C683F
:105720000132651C1D6024780470F6E70846B0BDA0
:10573000F48100202DE9F04FADF5017DC04D064606
:1057400028681C46C06D914600688B4680472868D3
:10575000174900683246FFF7C5F8142094FBF0F5AE
:105760004FF0FF3A01AEE84600270AF1010AAA45C8
:1057700018DAB348009700684146C06D1422C36828
:1057800030469847009C304621465A4600F056F86D
:1057900048B1304621464A4600F050F80028E4D18E
:1057A000012700E0022738460DF5017DBDE8F08FA6
:1057B000B48700082DE9F84F05467948894600EB83
:1057C000C2003C30044600680068A84220D06068EF
:1057D0000028F7D1DFF85C80DFF85CB04046082194
:1057E00000224FF0000AD847074640460821002211
:1057F000D8470646404608210022D847C0F804A0F2
:10580000C7E9009AC6E9005706606060BDE8F88FF6
:10581000084808210022002500F0AFFCC0E90095EF
:10582000216849680A4649680029FBD15060BDE8F3
:10583000F88F00BFF00100207B610008F8B5054635
:10584000104614460E46FBF7D9F8B04202DD4FF081
:10585000FF30F8BD311A00228A42F8DC002383426F
:1058600007DAE65CEF5C0133B742F8D0013501326C
:10587000F2E70020F8BD000010B58AB001AC204668
:105880002421FBF7BEF91920079003480021224686
:1058900001F0DAF90AB010BD6D470008B0B58AB062
:1058A00001AC20462421FBF7ACF9282007900948D9
:1058B000094D00212246A8471820079007480021DB
:1058C0002246A84708200790054800212246A847FD
:1058D0000AB0B0BD016D0008496C00089D6D00085C
:1058E0004D6D000870B50368006B0468D0E9165070
:1058F000266826F48026266062601A1DA260E16098
:105900003F2101FA00F0A860206840F0010020600B
:105910006FF040001860586940F08000586170BD19
:1059200083B0B8B5044605A80EC0104D05A8009078
:105930002878012804D10C48006801684906FCD584
:10594000012028706968009BD1E904012246FAF71A
:10595000C7FD696882B208680969FFF7C3FFBDE83F
:10596000B84003B0704700BF4886002060010020A7
:10597000B0B50C460546FCF791FB28462146FCF7DE
:10598000D1FB28462146FCF7ABFB054C054D2068B2
:10599000A8476068A847A0682946BDE8B040084706
:1059A0006C010020C16B00082DE9F04FADF5017DC1
:1059B000834623480D460068C06D00688047142068
:1059C00095FBF0F4DFF854804FF0FF3A01ADE94663
:1059D00000270AF1010AA24518DA19480097006861
:1059E0004946C06D1422C36828469847009E284641
:1059F00031465A46FFF722FF48B128463146424613
:105A0000FFF71CFF0028E4D1012700E002273846F9
:105A10000DF5017DBDE8F08FC001002091870008E1
:105A20000748006800F160010020052804D051F803
:105A300020201AB10130F8E74FF0FF30704700BF67
:105A4000C001002070B5ADF51C7D002011900A202A
:105A5000ADF840002A4850210F902AA0FFF78AF99C
:105A60000446013049D02A4E3068C06D0068804736
:105A70000FAD2846FAF7C2FF024620462946FFF737
:105A800059F924A0FFF74CFF30680DF14A04C06DAE
:105A900011A9C368204640F6B8329847119921A051
:105AA000FFF73EFF119941B32148224D2246A847F6
:105AB000621C21A00421A847142000F0CBF922A0E9
:105AC000A847073425A014212246A84706A807A9FD
:105AD00008AA09AB0DF12B06CDE90063CDE902213F
