:020000040800F2
:10000000C0BC0020ED020008F3420008213F0008B8
:100010003D420008A11E0008414A000800000000FF
:100020000000000000000000000000002D03000898
:10003000BD1F000800000000C5030008D50300082C
:100040000703000807030008070300080703000868
:100050000703000807030008070300080703000858
:10006000070300080703000807030008A51E00088F
:10007000B11E000807030008BD1E0008C91E0008C5
:10008000070300080703000807030008000000003A
:10009000000000000000000000000000070300084E
:1000A00007030008070300084D460008070300087F
:1000B00007030008070300080703000807030008F8
:1000C00007030008070300080703000807030008E8
:1000D00007030008E54900080703000800000000C6
:1000E00007030008070300080703000800000000DA
:1000F00000000000000000000000000007030008EE
:1001000000000000070300080703000807030008B9
:1001100000000000000000000000000000000000DF
:100120000703000807030008070300080703000887
:1001300007030008000000000000000000000000AD
:10014000000000000000000000000000070300089D
:10015000070300080703000807030008114A000806
:10016000070300080703000800000000000000006B
:10017000000000000000000000000000000000007F
:10018000000000000703000800000000000000005D
:10019000070300080703000800F002F800F092F8D7
:1001A0000AA090E8000C82448344AAF10107DA45D2
:1001B00001D100F087F8AFF2090EBAE80F0013F092
:1001C000010F18BFFB1A43F001031847C87900005C
:1001D000E8790000103A24BF78C878C1FAD85207ED
:1001E00024BF30C830C144BF04680C6070470000B1
:1001F0000023002400250026103A28BF78C1FBD830
:10020000520728BF30C148BF0B6070476E2900F00D
:100210005285702900F0B386662907F0228365298C
:1002200007F01F83672907F01C83612907F01B83F0
:1002300003681B0A28BF41F08001692900F0AA81E8
:10024000642900F0A781752900F0A4816F2900F0CE
:100250004186782900F07F86E92900F0DB85E429D2
:1002600000F0D885F52900F0D585EF2900F03E860D
:10027000F82900F07E860368DB0928BF41F0800181
:10028000632900F05C85732900F06185E32901F0A2
:10029000DB82F32901F0E082002070471FB507F0F0
:1002A000D3FA01F0E9FC04000020002107F0B6FABF
:1002B000401C60600020002107F09AFAE0601FBD3A
:1002C00010B510BD01F0AAFC114603B404F08AFE7B
:1002D00003BCFFF7E3FF01F09DFD01F085FD03B4D2
:1002E000FFF7EEFF03BC01F08DFD000009488047D9
:1002F00009480047FEE7FEE7FEE7FEE7FEE7FEE708
:10030000FEE7FEE7FEE7FEE704480549054A064B1F
:10031000704700003146000899010008C0B600206F
:10032000C0BC0020C0B80020C0B800201EF0040FE0
:100330000CBFEFF30880EFF30980816911F8021C0C
:1003400091BB01B590E80F10E047BDE800508CE884
:100350000300244B93E80600914208BF704741B95F
:100360001EF0100F10D12049086820F0010008602D
:100370000AE02CE9F00F1EF0100F08BF2CED108AD8
:10038000C1F838C081F822E01A6092F82210906B10
:1003900061F0FF0E1EF0100F08BFB0EC108AB0E83D
:1003A000F00F80F309887047104A13689942FAD811
:1003B00001B552F821C00FC8E047BDE80050CCF8A5
:1003C0000000704701B505F025FBBDE80140EFF3E3
:1003D000098CBEE701B505F0D1FDBDE80140EFF3A2
:1003E000098CB6E73000002034EF00E0387A0008CE
:1003F00053EA020C00F069802DE9F04B4FF0000643
:10040000002B1FBFB3FA83F503FA05F424FA05F6AF
:100410005E4012BF1643B2FA82F502FA05F4C5F146
:1004200020051EBF22FA05FC44EA0C04203556EADA
:10043000044C4FEA144418BF641C4FF000084FF0FE
:100440000009904271EB030C39D3002919BFB1FAAE
:1004500081F701FA07F6B0FA80F700FA07F6C7F15C
:1004600020071EBF20FA07FC46EA0C062037B6FB21
:10047000F4FCA7EB0507103F07F01F0BCBF120069C
:100480002CFA06F60CFA0BFB44BFB3460026202FCD
:10049000A4BF5E464FF0000B5BEA060C08BF4FF0AE
:1004A000010B19EB0B0948EB0608ABFB027C06FBC2
:1004B00002CC0BFB03CCC01B71EB0C01C1E70B465C
:1004C000024641464846BDE8F08B13B5084318BFC5
:1004D0004FF0FF300146AFF30080BDE81C4070478D
:1004E0007CB51D4616460C00009001D02044401EED
:1004F000074B7B442A4669460190304600F0F5FBE5
:1005000005461CB10020694600F002FC28467CBD6F
:10051000250800000FB41CB5084B06AA7B446946A9
:100520000090059800F0E1FB04460020694600F0C9
:10053000EFFB20461CBC5DF814FB0000F107000037
:1005400070B50C460546012A05D02878800600D5EE
:10055000EA69002302E0012305E05B1C934202D21A
:10056000E05C0028F9D1A869E618C01AA861286AD9
:1005700018442862284600F00CFB04E0D5E901216C
:1005800014F8010B9047B442F8D3284600F017FB4B
:1005900070BD00002DE9F041064600241068752961
:1005A000314616A510D000F01BFB002802DA4042AD
:1005B00013A507E031688A0701D512A502E04907B3
:1005C00004D511A5012401E000F013FB00210A224B
:1005D00006F1240709E0B0FBF2FCB0FBF2F302FBEA
:1005E0001C00303078541846491C0028F3D12346AB
:1005F0002A463046BDE8F04100F004BB0000000090
:100600002D0000002B000000200000002DE9F05F0D
:10061000894604464FF0000ADFF874B1FB44C0F885
:1006200020A02046E1688847002874D0252806D0FD
:10063000D4E901219047206A401C2062F1E700269E
:100640005F462046E16888472028054607DB312DB4
:1006500005D2781910F8200C08B10643F1E7B0076D
:1006600001D526F00406C4F81CA00027C4F818A081
:100670002A2D09D0284607F0B3F838B304EB8708D1
:10068000303DC8F8185019E059F8041B204604EB17
:1006900087029161E1688847012F054618D1E0691A
:1006A000002820DA26F020061DE0D8F8180000EB1C
:1006B000800005EB40003038C8F818002046E1689B
:1006C0008847054607F08CF80028EED1012F0AD0A4
:1006D0002E2D08D12046E16888477F1C0546022F51
:1006E00046F02006C4DBA069002803DA404246F049
:1006F0000106A061F00701D026F010066C2D0BD08A
:10070000682D09D04C2D39D06A2D35D0742D35D0B7
:100710007A2D33D016E038E0E1682F46204688472E
:10072000B842054609D16C2F26D04FF48060E168AD
:10073000064320468847054604E06C2F1AD04FF444
:10074000807006430DB3A5F14100192802D8203569
:1007500046F400664A462946204626604E46FFF784
:1007600055FD80B101280BD0F61D26F0070000F1E1
:10077000080956E74020E4E78020D8E70020D6E7C4
:1007800006F104094DE7284652E7206ABDE8F09FCC
:100790004A7200000FB400B58DB010A90990009105
:1007A0000B904FF0FF300A9000200C9006487844E0
:1007B0000690064878446A4607900F9909A800F009
:1007C000FDFB0DB05DF814FB2B0800004308000092
:1007D0002DE9FF5F1D464FF0FF3B91464FF00008AB
:1007E0005F46D5E90146A96901987F1C8847296AB7
:1007F000824688470028F6D1BAF1FF3F0CD0002E80
:1008000024F4C06419DD600614D5BAF12B0F09D0A9
:10081000BAF12D0F0ED103E0584604B0BDE8F09FA9
:1008200044F48064A96901987F1C8847761E82463B
:10083000002E02DDBAF1300F03D0B9F1000F26D03F
:1008400032E0A969761E01987F1C44F40074884741
:10085000002E824605DDBAF1780F06D0BAF1580FA6
:1008600003D0B9F1000F10D01EE0B9F1000F02D093
:10087000B9F1100F18D1A969761E01987F1C24F4D4
:10088000007488478246102002E0082000E00A2019
:10089000814609E0A96908FB0908761E01987F1CBA
:1008A00044F4007488478246002E05DD49465046D0
:1008B00000F070FB0028EDDAE96901988847A0058F
:1008C00002D46FF00100A8E7E00725D1600613D538
:1008D000600502D5C8F1000000E0404629680A1D05
:1008E0002A600968220501D5087015E0220701D5A4
:1008F000088011E008600FE02868011D2960006889
:10090000210502D580F8008006E0210702D5A0F875
:10091000008001E0C0F8008038467EE710B5431C37
:1009200002E010F8011B71B18107FAD14FF00132DA
:1009300002C88C1A8C4314EAC211F9D0C01A0A06F4
:1009400003D0C01E10BDC01A10BD0A0401D0801E05
:1009500010BD0902FCD0401E10BD40EA010370B575
:100960009B072ED14FF00136042A2AD308C810C99C
:100970009D1B9D43121F15EAC61517D0D8B2E1B2D0
:10098000401A50EA056110D198B2A1B2401A50EA5B
:1009900005410AD123F07F4024F07F41401A50EAFC
:1009A000052102D1180EA0EB146070BDA342DBD06C
:1009B00018BA21BA884201D9012070BD4FF0FF302A
:1009C00070BD0AB9002070BD10F8013B11F8014B51
:1009D00063B1A3420AD1521E08D010F8013B11F8AE
:1009E000014B1BB1A34201D1521EEDD1181B70BDAA
:1009F000032A40F2308010F0030C00F0158011F84B
:100A0000013BBCF1020F624498BF11F801CB00F822
:100A1000013B38BF11F8013BA2F1040298BF00F876
:100A200001CB38BF00F8013B11F0030300F0F68260
:100A3000083AC0F0088051F8043B083A51F804CB5A
:100A4000A0E80810F5E7121D5CBF51F8043B40F820
:100A5000043BAFF30080D20724BF11F8013B11F82B
:100A600001CB48BF11F8012B24BF00F8013B00F86F
:100A700001CB48BF00F8012B70474FF0000204295A
:100A8000C0F0128010F0030C00F01B80CCF1040CBD
:100A9000BCF1020F18BF00F8012BA8BF20F8022BF1
:100AA000A1EB0C0100F00DB85FEAC17C24BF00F897
:100AB000012B00F8012B48BF00F8012B70474FF0C5
:100AC000000200B5134694469646203922BFA0E89E
:100AD0000C50A0E80C50B1F12001BFF4F7AF0907AA
:100AE00028BFA0E80C5048BF0CC05DF804EB89009B
:100AF00028BF40F8042B08BF704748BF20F8022BDE
:100B000011F0804F18BF00F8012B70470000000063
:100B100030B44FF0013C50F8042B51F8043BCCFAB0
:100B200052F4D51A20D1FCB950F8042B51F8043BEB
:100B3000CCFA52F4D51A17D1B4B950F8042B51F8A5
:100B4000043BCCFA52F4D51A0ED16CB950F8042BF0
:100B500051F8043BCCFA52F4D51A05D1002CDAD066
:100B600030BC4FF00000704729BAB1FA81F111F0A2
:100B70001801D1F120008440F2D1CA40CB4012F0DC
:100B8000FF0213F0FF0330BCD01A70477047704764
:100B9000704770B5044685690068C10601D53026E6
:100BA00000E02026C00707D070BDD4E901213046FF
:100BB0009047206A401C20626D1EF6D570BD70B54E
:100BC000044685690078C00707D170BDD4E90121CA
:100BD00020209047206A401C20626D1EF6D570BD13
:100BE00009684A0501D540B27047C905FCD500B275
:100BF000704709684A0501D5C0B27047C905FCD5E0
:100C000080B270472DE9F0470D469946924604465A
:100C100000F124080168880604D5E06921F010017C
:100C2000216000E00120A84201DD471B00E0002711
:100C3000A1697A1902EB0900081AA0612078C006A0
:100C400002D42046FFF7A5FF002608E0D4E90121E1
:100C50001AF806009047206A401C761C20624E4518
:100C6000F4DB2078C0060AD52046FFF792FF06E0A5
:100C7000D4E9012130209047206A401C2062381EB0
:100C8000A7F10107F4DC07E0D4E9012118F8050019
:100C90009047206A401C2062281EA5F10105F3DC64
:100CA0002046FFF78CFF2078000602D50220BDE821
:100CB000F0870120FBE711680268006A530501D53F
:100CC00008700AE0D30501D5088006E0130603D5B5
:100CD000C217C1E9000200E008600120704700006F
:100CE00001694A1C02610878704700B58FB0CDE9F0
:100CF00001310021059105497944CDE903101146E0
:100D00006846FFF783FC0FB000BD0000E5FFFFFF62
:100D10000A6802F8010B0A607047D1E900239A4281
:100D200002D2531C0B601070704710B5436913B1A9
:100D3000AFF3008001E0FFF703FC012010BD127843
:100D400000F124010A7000224A700122EDE71168C7
:100D50004FF0FF32E9E700002DE9FF5F15468A46B4
:100D60000446DFF8AC80F8440027D8E900103E467E
:100D7000CDE9001010E03AF816106A4602A800F01B
:100D800029FF411C07D02178890603D5E26939186B
:100D900091420DD80744761C2078800602D5E06980
:100DA000B84205DDAE42E6DB3AF816000028E2D193
:100DB000A069C01BA0612046FFF7EBFED8E9001038
:100DC000CDE90010002017E03AF818106A4602A892
:100DD00000F000FFB0F1FF3F81460BD000250DF180
:100DE000080B05E0D4E901211BF8050090476D1CB4
:100DF0004D45F7D308F10100B0428046E4DB206A9C
:100E0000384420622046FFF7DAFEBDE8FF9F00006D
:100E1000126B00002DE9F0418046D21D22F007023E
:100E20000025D2E90002F52915A614D0011E72F1A1
:100E3000000106DA0023D0EB030063EB020211A6E7
:100E400008E0D8F800108B0701D50FA602E049078B
:100E500001D50EA601251146002408F1240704E05F
:100E600000F00EF930323A55641C50EA0102F7D115
:100E70002B46324621464046BDE8F041FFF7C2BE50
:100E8000000000002D0000002B00000020000000EA
:100E900030B4002100F1240408E002F00705D20874
:100EA000303542EA4372DB086554491C52EA0305B7
:100EB000F3D10468002310A2250708D504F020040C
:100EC0000C4304D0C46901230CA2641EC46130BC6D
:100ED000FFF798BE10B5044621461068FFF789FE5B
:100EE00002462046BDE810400023D1E7D21D22F083
:100EF0000701D1E90023CBE700000000300000002B
:100F0000F0B40D460188090502D5214C7C4402E06D
:100F10001F4C7C440E34002100F1240608E002F04E
:100F20000F071209E75D42EA03721B097754491C57
:100F300052EA0307F3D102780023120704D5702D7B
:100F400006D009B1022311342246F0BCFFF75ABE85
:100F500001231034F8E770B504460D4621461068A9
:100F6000FFF747FE024629462046BDE870400023B1
:100F7000C6E7D21D22F00703D3E90023C0E70368C8
:100F8000126843F0200303600823C3610023B7E71E
:100F9000746900003A2800D2303820F02002412A3B
:100FA00001D3A2F13700884201D34FF0FF307047E0
:100FB000026811441378016018467047D1600549F2
:100FC000794451610449794411620021116111464B
:100FD00000F046BCEDFFFFFF41010000426842B156
:100FE000016811F8013B23B1521EC0E900121846F6
:100FF00070470121C160881E704742685AB1C368BA
:10100000016843B983688B4205D0491E521CC0E970
:101010000012002070474FF0FF30704710B5203AA3
:10102000C0F00B80B1E81850A0E81850B1E8185093
:10103000A0E81850203ABFF4F5AF5FEA027C24BF65
:10104000B1E81850A0E8185044BF18C918C0BDE84E
:1010500010405FEA827C24BF51F8043B40F8043B17
:1010600008BF7047D20728BF31F8023B48BF11F8CC
:10107000012B28BF20F8023B48BF00F8012B704726
:1010800030B5B0F10A0271F100034FEA900E4EEA5A
:10109000817EB0EB0E0061EB91014FEA101E4EEA2B
:1010A000017E10EB0E0041EB11114FEA102E4EEABB
:1010B000016E10EB0E0041EB11214FEA104E4EEA8B
:1010C000014E10EB0E0041EB1141401841F10001BF
:1010D0004FEAD00040EA41704FEAD1014FEA810463
:1010E00044EA907410EB800544EB01046D1944EB65
:1010F0000404521BA3414FF0000348BF0A3200D53D
:1011000030BD401C41F1000130BD10B5044600F077
:10111000ABFD0068005D00F0010010BD2DE9FF4F40
:101120000C461E464FF0FF378BB0D2E90001DDF8C8
:1011300060800A908A46C1F30A5505B93D460021F0
:1011400008464FF00000BAF1000F00F4400005DA45
:1011500000EB80004FF4400101EA50004FEA905943
:10116000B9F1010F00DDB9460A9850EA4A000ED0E5
:1011700044F61050A5F2FF3545432F14B8F1000F87
:101180001ED07542291E1EDDC9F100021CE0B8F117
:10119000010F4FF0000001D0302103E0F24305E0E1
:1011A0002154401CB042FBDB304600220021215478
:1011B0000B99C1F80880C1E900200FB0BDE8F08F9D
:1011C000BD1B6D1CDEE74A4600DA694206A800F046
:1011D00099FD06AB93E8070003AB83E80700504690
:1011E0000A9905F01DFF8DE80700A0F500501F3893
:1011F00000900398002D0ADD42F21F014A46084480
:10120000002303A90390684606F086F909E0A0F5DB
:1012100000504A461F38002303A90390684606F091
:1012200090F98DE807000004000C03D04FF0FF3068
:10123000410800E01046B8F1000F03D000220092F0
:1012400015461EE0751E05D4FFF71AFF30326255B1
:101250006D1EF9D5B3460122084302D000227F1C3F
:1012600004E02078302801D100227F1E002A09974F
:1012700084D01DE0112D07DAFFF702FF30326255EE
:101280006D1C50EA0102F5D1084302D00098C8B1A4
:101290000EE00021681E05E0235C625C635422546A
:1012A000401E491C8142F7DBAB46A81B401E09903B
:1012B000002004F80B000B98099AC0F80880C0E9D8
:1012C000002B7AE711264FF0000857E72DE9F04F81
:1012D00088460446D21D22F0070191B0D1E90001F1
:1012E000CDE90A0106F064FA02460B98C00F01D05E
:1012F0002D2007E02068810701D52B2002E0202166
:1013000001EAC000032A099001D0072A05DB034641
:101310004146204600F0B6FC0BE12078800601D55E
:10132000E06900E00620B8F1650F814606D0B8F10B
:10133000660F18D0B8F1670F70D131E00020B9F115
:10134000110F009001DB112301E009F101030AAA4A
:1013500001A90CA8FFF7E2FEDDE90C70002609F1F7
:101360000105834647E001204B4600904FF00047BF
:101370000AAA01A90CA8FFF7D1FEDDE90DB00C996E
:101380005D46002610B909F101000D18B9EB050002
:1013900003D4C0F1FF3609F10105A5EB09002BE0EC
:1013A000B9F1010F01DA4FF001090020B9F1110F75
:1013B0000090484601DD112300E003460AAA01A976
:1013C0000CA8FFF7ABFEDDE90C704D460026834606
:1013D000207800070AD4AB4500DA5D4601A8012D4C
:1013E00004DD411911F8011C302907D04F4502DAFC
:1013F00017F1040F04DA012082460FE06D1EEEE7BC
:10140000002F02DCED1B3E4403E0781CA84200DD07
:101410007D1CB81B00F1010A4FF00047207800073F
:1014200003D4AA4501DB4FF0FF3A0021B7F1004F8A
:101430000DF143088DF8431024D002202B23002FF8
:1014400001DA7F422D230A21021EA0F1010000DCF7
:101450005FB197FBF1FC97FBF1F201FB1C7C174697
:101460000CF1300C08F801CDEEE7A8F10100037093
:101470002188090501D5452100E06521A0F1010879
:1014800000F8011C09980FA9A1EB0807FF1D00B186
:101490000120411901EBEA70A1693844081A401E85
:1014A000A0612078C00602D42046FFF772FB09989D
:1014B00028B1D4E901219047206A401C206220789D
:1014C000C00622D52046FFF764FB1EE0002E04DB99
:1014D000B34502DD01A8805D00E03020D4E90121A0
:1014E0009047206A401C2062761CAAF101005FEA46
:1014F000000A0AD100F0C0FBC0680168405CD4E972
:1015000001219047206A401C2062281EA5F1010598
:10151000DCDC07E0D4E9012118F8010B9047206AD0
:10152000401C2062381EA7F10107F3DC2046FFF7BC
:1015300046FB032011B041E62DE9F04F04460D466D
:10154000D21D22F0070089B0D0E9009748463946FD
:1015500006F02EF90246F80F01D02D2307E020688F
:10156000810701D52B2302E0202101EAC0038DF879
:1015700020300BB1012000E00020032A824601D078
:10158000072A04DB2946204600F07CFB3FE1207857
:10159000800601D40D2500E0E569C7F30A560D2D3C
:1015A00049DA00214FEA175B08464FF00000002F90
:1015B00000F4400007DA00EB80004FF4400100EB3C
:1015C000D07001EA60008115012901DD4FF0FF3183
:1015D00000224FEA850CBCF1180F06D31346ACF17C
:1015E00018004FF08052C24003E04FF4801323FAFA
:1015F0000CF30CF10C0CBCF1200F04D3ACF1200C5B
:1016000009FA0CF001E007FA0CF000294FF000484D
:1016100001DD18B90FE00ED140450CD319EB0209DA
:101620005F4121B9404502D19F4329EA0209BBEB42
:10163000175F00D0761C2088000502D57B487844CF
:1016400002E07A487844193808AA302302F80A30B0
:10165000037C0AF10101002E0AF1020A53546A4682
:1016600002DC4FF0300101E04FF031014FF0010892
:101670008DF8001002D0A6F2FF3603E059EA4701C8
:1016800000D06B4E002D02DC2178090704D54FF005
:1016900002082E218DF80110C44600210BE0C7F38B
:1016A00003433F01C35C491C6D1E02F80830052945
:1016B00008F1010801DA002DF1DC00210CE000EB5B
:1016C0001973491C1B786D1E082902F808304FEA6F
:1016D000091908F1010801DA002DF0DC21688B06F8
:1016E00002D516E0A8F10108E04505DD02EB08038C
:1016F00013F8013C302BF5D0B8F1000F09DD02EBF7
:10170000080313F8013C2E2B03D1090701D4A8F1DB
:101710000108002D05DD3E2102F808106D1E08F1BC
:101720000108407C002E02F8080008F1010804DAE4
:101730002D20764202F8080002E02B2002F8080073
:101740000A214FF47A70864208F101080BDB96FB00
:10175000F0F3303302F8083096FBF0F308F101089B
:1017600000FB136601E0642E0CDB642096FBF0F3B3
:10177000303302F8083096FBF0F308F1010800FB63
:10178000136601E00A2E06DB96FBF1F0303002F81A
:10179000080008F1010896FBF1F001FB1060303001
:1017A00002F80800A16908F1010808EB050202EB44
:1017B0000A00081AA0612078C00602D42046FFF76C
:1017C000E8F9216A08AE01EB0A00206204E0D4E9DE
:1017D000012116F8010B9047BAF1010AF7D22078DF
:1017E000C00602D52046FFF7D4F96E4609E016F888
:1017F000010B3E280FD0D4E901219047206A401CFC
:101800002062B8F10108F2D22046FFF7D8F909B0FA
:101810000320BDE8F08F206A2844206203E0D4E969
:101820000121302090476D1EEBD3F8E77D62000068
:1018300002FCFFFF10B5436913B1AFF3008001E074
:10184000FFF78AFA012010BD128800F1240182847A
:101850000022C2840122EDE711684FF0FF32E9E770
:101860002DE9F34F4FF0000A0C4656468DB001208B
:101870000C9001F10C000B9062690B9801219047CC
:10188000051E2DD0252D2CD0216A8847C0B1626954
:101890000B9801219047216A88470028F7D1626997
:1018A000411E0B98904700E0761CA1690D9888476F
:1018B000216A88470028F7D1E1690D988847DBE75E
:1018C000A1690D988847A842074601D1761CD3E745
:1018D000E1690D9888477F1C02D1BAF1000F6FD0E3
:1018E0006BE162690B9800273D46394690472A28EC
:1018F00004D162690B98012190470125DFF8D0825D
:1019000062690B9801219047A0F130010A290AD29F
:101910004745E5DC07EB870100EB4107303FDFD4AB
:1019200045F01005ECE7E90601D46FF000476C289C
:101930000AD04C2814D0682815D06A280DD07428F5
:101940001CD07A281AD01DE062690B9801219047BB
:101950006C2802D045F0040514E045F002050DE0C6
:1019600045F020050AE062690B980121904768283C
:1019700002D045F0080505E045F4006562690B9862
:1019800001219047C4E9015765283DD019DC58284A
:101990007AD00CDC452837D004DC252826D0412815
:1019A0009ED131E046282FD0472899D12CE05B28E2
:1019B00077D0612828D063287CD0642823D15AE0CE
:1019C000F6E06F2848D008DC66281DD067281BD0B9
:1019D000692821D06E2816D127E0702845D07328B9
:1019E00068D0752847D078280DD14DE0A1690D98B1
:1019F0008847252805463FF469AFE1690D98884777
:101A00006D1C3FF46AAFD8E00D9923466A466FF02B
:101A10000100AFF30080C5E045F0400023464FF0E1
:101A200000026060A80736D43EE0E8077FF447AFC5
:101A30002068011D21600068290501D506701BE79B
:101A4000290701D5068017E7A90703D5F117C0E9D3
:101A5000006111E706600FE745F0400023464FF0B4
:101A600008026060A80716D41EE040F60E0125EAC1
:101A70000100606016E045F0400023464FF00A0286
:101A80006060A80707D40FE045F040006060A80739
:101A900008D5234610220D996FF00100AFF30080A6
:101AA00080E007E0102223460D996FF00100FEF759
:101AB0008FFE77E04FF0000963284F46C8464B463B
:101AC000CB4602D05B2806D038E0E80601D40120DE
:101AD000A060012732E06269D4F80CB00B980121B4
:101AE00090475E2807D14FF0010949466269D4F852
:101AF0000CB00B989047216939B900210A4603AB15
:101B000043F82120491C0829FADBD8B3216949B3DD
:101B100008F1010862690B98012190475D28F4D112
:101B2000B9F1000F09D0002003A951F82020D243B9
:101B300041F82020401C0828F7DB03AB206900286F
:101B400020794FEA40701ED05B462246CDF80080D7
:101B5000CDE901970D9900286FF0010020DAAFF36D
:101B600000801FE0C11703AA00EBD1614B1121F0E7
:101B70001F0102EB8302411A1368012088400343CE
:101B80001360C7E719E00D99224600286FF00100A5
:101B9000009702DAAFF3008004E0AFF3008001E0C9
:101BA000AFF3008000280ADA401C06D10C9820B15F
:101BB0004FF0FF300FB0BDE8F08F5046FAE7E9076D
:101BC00001D10AF1010A064400200C9054E60000FD
:101BD000CCCCCC0C2DE9F04116460C46054600F065
:101BE00043F8036893F80101012807D0FF2C12D8AD
:101BF000185D80B101202C70BDE8F081D3F8070199
:101C00003246214603F20713C7182846BC46BDE8F2
:101C1000F041002360474FF0FF30EDE7754600F0DC
:101C2000EDF8AE4605006946534620F007008546AC
:101C300018B020B5FEF768FBBDE820404FF0000665
:101C40004FF000074FF000084FF0000BAC46ACE837
:101C5000C009ACE8C009ACE8C009ACE8C00921F093
:101C600007018D467047000010B500F005F8001D13
:101C700010BD00BFA95B000010B500F0BFF8203018
:101C800010BD00002DE9F0411F46044603260168FF
:101C9000072A01F4006004DB08B116A505E016A5CB
:101CA00003E008B115A500E015A521F010002060A3
:101CB000A069C01EA0610FB1401EA0612046FEF7C2
:101CC00068FF4FB1D4E9012138469047206A401C93
:101CD0002062C01C206206E0206AFAE7D4E90121F4
:101CE00015F8010B9047761EF8D22046FEF767FFE5
:101CF000BDE8F0814E414E006E616E00494E4600D7
:101D0000696E66002DE9F047814616468AB035486F
:101D100078440DC88DE80D0032487844801C03AC2F
:101D20000DC884E80D0041F69B300844372190FB34
:101D3000F1F290FBF1F5A5F1800501FB12041B3CCB
:101D400002D56442012000E00020DFF898A0804620
:101D50000027FA44AAF1BE0A0EE0E0070AD0324694
:101D6000684607EB470101230AEB810105F0E9FB17
:101D70008DE8070064107F1C002CEED1194F7F44C2
:101D8000AE3F19E0E80715D007EB04100DF1180A73
:101D900090E80E008AE80E00C068F04201D1981960
:101DA00008903246012306A903A805F0CAFB03AB3D
:101DB00083E807006D10641C002DE3D14FF0010390
:101DC00032466946B8F1000F03A802D005F0A4FB23
:101DD00001E005F0B6FBC9E90001C9F808200AB026
:101DE000BDE8F0873C5C000010B50446AFF300800E
:101DF0002046BDE81040FEF772BA00000048704768
:101E00000001002001491820ABBEFEE726000200B9
:101E10007047000080B501F0CFF802F083FB02F0BC
:101E2000D1F802F07FF802F03DF902F059F902F022
:101E300071F902F0C9F902F0E1F902F08DF90F48E9
:101E4000082101F05BFF02F0F3F90D484FF4007137
:101E50004FF4007202F0F8FA0A494FF40072086079
:101E600009484FF4007103F049F80849086008A0D8
:101E700003F0B0F9BDE8804003F054BAEC850020CF
:101E80002C860020DC8100206C8600206C01002064
:101E900048656C6C6F20576F726C640D0A0000000F
:101EA000FEE70000014800F031BD00BFE0810020E6
:101EB000014800F02BBD00BF40820020014800F027
:101EC00025BD00BFA0820020014800F01FBD00BF5B
:101ED0000083002010B501686FF00F0252FA81F202
:101EE0001823B2FBF3F306A4E35C40F2FF34A143F2
:101EF0005F2A88BF0431C0E91613084610BD00BF31
:101F0000000610160006101610B560484169A1B110
:101F100001394161C16882694B1CB3F10A0418BFE1
:101F20001C46C460064803680133B3F10A0418BFB5
:101F30001C46046002EBC10010BD002010BD00BFB4
:101F4000C000002010B55148416BA1B10139416377
:101F5000C16A826B4B1CB3F10A0418BF1C46C462F1
:101F6000064803680133B3F10A0418BF1C46046035
:101F700002EBC10010BD002010BD00BFC400002056
:101F800010B54248416AA1B101394162C169826A12
:101F90004B1CB3F10A0418BF1C46C4610648036811
:101FA0000133B3F10A0418BF1C46046002EBC10000
:101FB00010BD002010BD00BFC80000207047000009
:101FC00070B5324E0546B0690C4628B930485021EC
:101FD000002203F086FBB061D6E9033172699942B1
:101FE00008BF092A0CD040F8315000EBC100013184
:101FF0004460501CB1F10A0218BF0A46C6E9042029
:1020000070BD00BF70B5214E0546B06B0C4628B9B7
:102010001F485021002203F064FBB063D6E90B3166
:10202000726B994208BF092A0CD040F8315000EB7E
:10203000C10001314460501CB1F10A0218BF0A46C8
:10204000C6E90C2070BD00BF70B5104E0546B06AE1
:102050000C4628B90E485021002203F042FBB06222
:10206000D6E90731726A994208BF092A0CD040F8B4
:10207000315000EBC10001314460501CB1F10A0243
:1020800018BF0A46C6E9082070BD00BF84010020C1
:10209000D801002070470000EA49097851B1DB4AB5
:1020A000C0F3C621515CC0F3022021FA00F000F019
:1020B000010070470020704770B5E24C264656F884
:1020C000185F00F0C3F956E8001F46E8000202B1AD
:1020D000F9E7A942F2D1A84208D204F1100151E86F
:1020E000002F531C41E8003404B1F8E770BD00BF75
:1020F000F8B514460D460646FFF7CEFF98B13746B1
:10210000C0F20807FFF7D8FF0146EFF3058000286B
:1021100008BFB7B207F140702A46234601B0BDE8B8
:10212000F04000F041B80120F8BD00002DE9F04773
:10213000994692460F460646FFF7AEFF58B3DDF8C4
:1021400020803446C0F20804FFF7B6FF0546EFF3DF
:1021500005800028BB4808BFB4B20130D0E84F1F4B
:102160004A1CC0E8432F03B1F8E74FF4E02000EA2F
:102170000146A01900F1807029463A46534600F006
:1021800013F858B10748294630434A464346BDE84C
:10219000F04700F009B80120BDE8F0870020BDE855
:1021A000F08700BF010000022DE9F04F4FF080548E
:1021B00091464FF0005204EAD10402EA990220430A
:1021C00010434FF0804202EA530240EA02089D4861
:1021D000DFF844E29A468B466FF0070600F1040CE4
:1021E000013680F05180614651E8004F601C41E8A3
:1021F000000505B1F8E704F03F0504F470740EEB38
:10220000051048EA843400F10C0744F0406257E8B6
:10221000004FA10103D3BFF32F8F002406E004F089
:102220000044144347E8004303B1F0E76101D7D508
:1022300084F004422BF0004102F0004319442C01C9
:102240004EF804102AF0004129F0004419442344B8
:10225000C0E9013157E8001F890103D2BFF32F8F76
:10226000002004E047E8002303B1F3E7012058B160
:102270007448083050E8001F4A1C40E8002303B1AE
:10228000F8E70120BDE8F08F6E480C3050E8001FE1
:102290004A1C40E8002303B1F8E70020BDE8F08FB6
:1022A0000023FE2998BFFE2A26D82DE9F041DFF849
:1022B0005C8100234FF0010E4FF0000CBCF1040FC5
:1022C00017D020FA0CF7FF070FD00F4697420CD813
:1022D00003EBD70407F0070618F804500EFA06F6C9
:1022E000354308F804500137F0E70CF1010C2033B6
:1022F000E4E70123BDE8F041184670472DE9F047B7
:10230000DFF840A1814600208AF800003F48884657
:102310008021FEF7D4FB3E4A18214FF0FF3341F2F3
:1023200021064FF0FF3589B1147885EA04256FF056
:10233000070444B186EA45002FB29F42C8BF680037
:1023400001340546F5E701390132ECE7DAF82000FF
:102350003049884218D1BAF80210A8B2814215D18A
:10236000DAF81C00411CCAF81C10A0B12A49002050
:10237000B0F5806F46D00A18D36810305C0144BFB6
:1023800023F04063D360F3E7CAF820100120CAF8B5
:102390001C00AAF80250204800244FF48061CAE9CA
:1023A0000144CAF80C408AF80140FEF788FB00F0AF
:1023B00059F8002806460CBF002000F04DF8CAE985
:1023C0000440CAF81840D6B1144C48460021FE22F9
:1023D000A0470F20EF21EF22A0470420FE21FE227C
:1023E000A047FFF769FE0146DAF81C200C480023DD
:1023F000FFF7DAFEB8F1000F18BF00F013F830460F
:10240000BDE8F08700F02EF80646DCE7C08A002021
:10241000207A00086B27A5E1C0860020A1220008D1
:1024200000FF000380B50748017849B90121017018
:10243000FFF742FE0146044800220023FFF7B4FEE6
:10244000012080BD408B002001FF0003014800688F
:10245000704700BF041000E001480068704700BFEB
:10246000080000200548016841F0807101600448BF
:10247000016841F00101016001207047FCED00E0BE
:10248000001000E0014602480022FFF731BE00BF05
:1024900001F30100014602480022FFF729BE00BFF8
:1024A00005F3020001464FF473400022FFF720BEFF
:1024B000014602480022FFF71BBE00BF03F30200E3
:1024C000014602480022FFF713BE00BF0DF50200CF
:1024D00001464FF471400022FFF70ABE0146024850
:1024E0000022FFF705BE00BF06F1010002480021EF
:1024F0000022FFF7FDBD00BF01F1010002480021ED
:102500000022FFF7F5BD00BF02F1020002480021E2
:102510000022FFF7EDBD00BF07F1010002480021D6
:102520000022FFF7E5BD00BF08F102001CB514460C
:102530000A460146024800932346FFF7F7FD1CBDFB
:1025400001F002000A4601460148FFF7D1BD00BF75
:1025500004F00200E0B513460A4601460020009050
:102560000148FFF7E3FD8CBD05F002001CB51446E1
:102570000A460146024800932346FFF7D7FD1CBDDB
:1025800003F00200E0B513460A4601460020009021
:102590000148FFF7CBFD8CBD02F00200E0B5134609
:1025A0000A460146002000904FF43C30FFF7BEFD84
:1025B0008CBD0000014602480022FFF799BD00BF14
:1025C00008F902000A4601460148FFF791BD00BF25
:1025D00003FA02000A4601464FF47A40FFF788BD2D
:1025E0001CB514460A460146024800932346FFF7ED
:1025F0009DFD1CBD0CFA0100E0B513460A460146DC
:10260000002000900148FFF791FD8CBD0DFA0200FB
:10261000014602480022FFF76BBD00BF0EFA020020
:102620000A4601460148FFF763BD00BF09FA0200F0
:102630000A4601460148FFF75BBD00BF0AFA0200E7
:10264000E0B513460A460146002000900148FFF716
:102650006DFD8CBD01FA01000A4601460148FFF7F5
:1026600047BD00BF0BFA02000A4601460148FFF7CA
:102670003FBD00BF10FA02001CB514460A460146D1
:10268000024800932346FFF751FD1CBD06FA0100E6
:10269000E0B513460A460146002000900148FFF7C6
:1026A00045FD8CBD07FA0200014602480022FFF7F3
:1026B0001FBD00BF08FA02000A4601460148FFF7A5
:1026C00017BD00BF0FFA02000A4601460148FFF796
:1026D0000FBD00BF06F701000A4601460148FFF79B
:1026E00007BD00BF07F70200014602480022FFF7BE
:1026F000FFBC00BF08F702000A4601460148FFF789
:10270000F7BC00BF09F702000A4601460148FFF77F
:10271000EFBC00BF03F70200014602480022FFF7AA
:10272000E7BC00BF0EF70100014602480022FFF798
:10273000DFBC00BF0FF702000A4601464FF47740A6
:10274000FFF7D6BC014602480022FFF7D1BC00BF0C
:1027500001F70100014602480022FFF7C9BC00BF93
:102760000AF70200014602480022FFF7C1BC00BF81
:102770000BF701000A4601460148FFF7B9BC00BF4C
:102780000CF702000A4601460148FFF7B1BC00BF42
:1027900006F801000A4601460148FFF7A9BC00BF40
:1027A00007F80200014602480022FFF7A1BC00BF63
:1027B00008F802000A4601460148FFF799BC00BF2D
:1027C00009F802000A4601460148FFF791BC00BF24
:1027D00003F802000A4601464FF47840FFF788BC30
:1027E000E0B513460A460146002000900148FFF775
:1027F0009DFC8CBD01F80100014602480022FFF754
:1028000077BC00BF0AF80200014602480022FFF729
:102810006FBC00BF0BF801000A4601460148FFF7F4
:1028200067BC00BF0CF802000A4601460148FFF7EA
:102830005FBC00BF16F203000B4601460348002AA6
:102840000CBF1A462930FFF753BC00BF03F2020049
:10285000014602480022FFF74BBC00BF1CF20200F9
:102860000A4601464FF47240FFF742BC024800217D
:102870000022FFF73DBC00BF1AF201001CB5144650
:102880000A460146024800932346FFF74FFC1CBD51
:1028900009F40200014602480022FFF729BC00BFEC
:1028A00008F40200014602480022FFF721BC00BFE5
:1028B00015F20200E0B513460A46014600200090DA
:1028C0000148FFF733FC8CBD01F2010001460248CC
:1028D0000022FFF70DBC00BF18F2030001460248BA
:1028E0000022FFF705BC00BF19F202000A460146AC
:1028F0000148FFF7FDBB00BF17F203000A4601467F
:102900000148FFF7F5BB00BF01F60200F8B5044629
:1029100000200090D4E91660574A082115683768EE
:10292000814039420CD0226813685B0708D51368D0
:1029300023F004031360B160616D41F00101616532
:1029400001218140394208D022685269120604D51B
:10295000B160616D41F0020161650421814039423D
:1029600008D022681268920704D5B160616D41F009
:102970000401616510218140394217D02068026846
:10298000120713D5B16002680168520306D4C90565
:1029900006D4016821F00801016001E0080301D4B8
:1029A000216C00E0A16C09B120468847E16D202030
:1029B00000FA01F23A423BD020680368DB0637D5C3
:1029C000B26094F835300268052B19D122F0160256
:1029D0000260426922F080024261226C0AB9A26C54
:1029E0001AB1026822F0080202603F208840B060FD
:1029F000002084F83400012084F83500216D37E090
:102A0000016852030CD4C9050ED4016821F01001ED
:102A10000160002084F83400012084F8350003E0D0
:102A2000080301D4616C00E0E16B09B120468847DE
:102A3000606D00B3606DC00719D0052184F83510B2
:102A400021684FF416500A68B5FBF0F022F001023D
:102A50000A60009A01328242009202D80A68D207C4
:102A6000F7D1012084F83500002084F83400E16CAF
:102A700009B120468847F8BD080000202DE9F04143
:102A8000044600F05FF9ACB10546022084F8350039
:102A9000002084F834002168086820F001000860F4
:102AA0000868C00709D000F04DF9401B052837D849
:102AB0002168F5E70120BDE8F0810868344A271D48
:102AC000E8CF00EA020E43EA0E032B43D4E9050CDB
:102AD00033433B43D4E90728184340EA0C00636AB8
:102AE000104340EA0802042B1ED1D4E90A53206B9C
:102AF0001A431043086051F8140F20F0030040EA15
:102B0000050040F00402B3B1BCF5005F24D0BCF175
:102B1000000F31D1022D32D0012D27D07DB30AE034
:102B200003262027032012E00A6051F8140F20F03A
:102B3000070040EA030220460A60FFF7CBF9E16D87
:102B40003F2202FA01F1816000270126002067651B
:102B500084F83560BDE8F081032DECD801264027CC
:102B60000120DFE805F0020C0203F0E7A3F1C070DA
:102B7000B0FA80F0400904E0032D04D3DBD1C3F3A5
:102B800000600028D7D0012640270120DFE700BFE2
:102B90003F8010F02DE9FC4F5F4A072490425F4AC6
:102BA00008BF042402444FEAB223042B38BF4FEA83
:102BB000B2244FF0010B4FF000084FF0000E00223E
:102BC0000094BEF1200F08BFBDE8FC8F0F680BFA20
:102BD00002F6374200F093804F68122F00F2958082
:102BE0000BFA07F414F0061F00F08F80032303FA9A
:102BF0000EF48368CD68A34305FA0EF52B4383607A
:102C0000C7F3001345689340B5432B436FEA040CA8
:102C10004FEA420A4360C4688D6804EA0C0405FA6E
:102C20000AF52C43C46047F01004122C12D108F0AE
:102C30001C040F2303FA04F56FF0030303EA5207A1
:102C40000744D7F820900B6929EA0505A3402B43D8
:102C50003B624F68036807F0030403EA0C0304FABD
:102C60000AF423430360FB0049D500230193F94B89
:102C70002B4F1C461B6822F0030543F4804323605E
:102C80002368BC4603F4804301933D44019F264FD3
:102C900008F00C030F24B946EF599C4027EA0404BE
:102CA000009F07FA03F3234345F80930DCF80030AE
:102CB0004D6843EA0604EF0358BF23EA0604CCF844
:102CC0000040DCF80430AF0343EA060458BF23EAAF
:102CD0000604CCF80440DCF80830EF0243EA0604AE
:102CE00058BF23EA06040F4BCCF808401F461B6868
:102CF000AD0243EA060458BF23EA06043C6008F12B
:102D000004080EF1020E01325BE7032303FA0EF40E
:102D10006FEA040CF2467EE7001002400000FEBF9E
:102D2000003C01400C3C014008FCFFFF42690A40A6
:102D30008A4208BF090481617047002A08BF09045C
:102D4000816170479B480068704700BFF8B560B369
:102D5000044690F83D0028B9002084F83C00204645
:102D600000F0AEF8242084F83D002068016821F0CE
:102D700001010160016841F400410160016821F432
:102D80000041016000F008FB49494A4B002288429B
:102D90004FF0000138BF0121984238BF012263681B
:102DA000454DAB4238BF0A460AB10120F8BDAC49D7
:102DB000424EB0FBF1F22168B3424D6825F03F0569
:102DC00045EA02054D600D6A25F03F0511D8013234
:102DD0002A430A625A000138B0FBF2F04CF6FF7346
:102DE00001306FF31F30042898BF0420CA699A434A
:102DF00037E04FF4967672434FF47A76B2FBF6F2F0
:102E0000013801322A430A62CA694CF6FF75AA43A7
:102E1000A56845B119265E43B0FBF6F604270136D6
:102E200067F31F3606E003EB4306B0FBF6F6013608
:102E30006FF31F36360509D055B119256B43B0FB2A
:102E4000F3F00423013063F31F3008E0012008E0B1
:102E500003EB4303B0FBF3F001306FF31F3040F49A
:102E600000401043C861E0690A6804F10C0622F0D2
:102E7000C0021043226A10430860886848F2FF329B
:102E800090436CCE184310438860C86820F0FF0060
:102E900028433043C860086840F001000860002003
:102EA0002021206484F83D10206384F83E00F8BDA2
:102EB00080841E0000093D00A1860100A08601005B
:102EC0002DE9F04387B0044602A81421FDF7F7FD71
:102ED00021682E48814255D100262D4F0196396830
:102EE00000F5D83041F002013960396801F0020183
:102EF00001910421069103210591012104911221E0
:102F000003914FF440710291019902A9FFF742FE2B
:102F10000196386920491F4D40F400108946183148
:102F200038614020C5E9001605F108014FF48068BA
:102F300081E841013869142100F4001001900198E2
:102F400005F11400FDF7BBFD2846FFF797FD08B11A
:102F5000FFF7A0F8AC636563104D4FF00070C5E952
:102F6000009005F114001421C5E90266C5F810802F
:102F7000FDF7A5FD2846FFF781FD08B1FFF78AF8A8
:102F8000AC63A56307B0BDE8F08300BF0054004008
:102F9000303802404082002010600240E081002072
:102FA0000348044900780A6810440860704700BF6D
:102FB00000000020BCB6002080B50B48016841F439
:102FC00000710160016841F480610160016841F4B1
:102FD00080710160032000F08BF8002000F006F8FB
:102FE00000F040F8002080BD003C0240B0B586B043
:102FF00001461A200022002400F05EF81A2000F09A
:103000004DF814480194016841F480210160006882
:10301000694600F480200190019801A800F0A0F911
:1030200000F0C4F90E4D0C49B0FBF5F00B4B013824
:1030300040F2E732C1E900300846C1E902420C61C2
:1030400000F0CEFC08B1012002E0034800F0E3FCF0
:1030500006B0B0BD44380240AC85002000480140B5
:1030600040420F0082B000200B4901904A6842F4B0
:1030700080424A604A6802F480420192019A0090BC
:10308000086840F080500860086800F080500090A8
:10309000009802B0704700BF40380240002808D4B2
:1030A00000F01F01012202FA01F1024A400942F830
:1030B0002010704700E100E0B0B5134B4FF0FF3532
:1030C0001B68C3F30223DC1E83F0070338BF002410
:1030D000042B28BF042305FA03F3994305FA04F3EC
:1030E000A1409A431143BDE8B04001F03FBF00BF8B
:1030F00005494FF6FF030A681A4060F30A220348A5
:1031000010430860704700BF0CED00E00000FA05B6
:10311000F8B50446006810F0050F26D0424F002095
:103120008C4E3860FFF70EFE05463068000105D56D
:10313000FFF708FE401B0228F7D934E0221D07CA1A
:1031400040EA811040EA0270C6F88400012038602D
:10315000FFF7F8FD05463068000105D4FFF7F2FDE2
:10316000401B0228F7D91EE02068810754D50020B3
:10317000784E0090306C2D4F40F080503064306CB1
:1031800000F0805000900098386840F480703860FB
:10319000FFF7D8FD05463868C00506D4FFF7D2FD15
:1031A000401B0228F7D90320F8BD306F10F440709F
:1031B0001FD0216901F4407188421AD0306F1C4938
:1031C00001220A60002220F440700A603067306FEC
:1031D000C0070ED0FFF7B6FD054641F28837306FC5
:1031E000800706D4FFF7AEFD411B0320B942F6D994
:1031F00019E020682169B3680E4A23F4F81301F43A
:1032000040750A40B5F5407F08BF1343B360326F85
:103210006FF31F3111433167000703D5207D044947
:10322000C1F8A0030020F8BD6800474200700040CC
:10323000400E4742FFFCFF0F2DE9F041002800F04F
:103240008680444B0446D3F80004884600F00F0003
:10325000884207D283F80084D3F8000400F00F00FE
:10326000404574D12068810711D5410703D599687D
:1032700041F4E0519960010703D5996841F4604138
:103280009960A1689A6822F0F00211439960C00722
:103290002BD06068811E022903D21968890109D4E4
:1032A00055E0012803D11968890303D44FE0196858
:1032B00089074CD599681D4621F0030108439860A1
:1032C000FFF740FD064641F288376068A9682B4643
:1032D00001F00C01B1EB800F07D0FFF733FD801B2D
:1032E000B842F2D90320BDE8F081D3F8000400F021
:1032F0000F00404507D983F80084D3F8000400F09C
:103300000F00404523D12068410705D5E1689A6840
:1033100022F4E05211439960000706D520699968AC
:1033200021F4604141EAC00098601C4600F04EF86C
:10333000A168094AC1F30311515CC84020490860E3
:1033400006480068FFF752FE0020BDE8F08101202A
:10335000BDE8F08100380240087A0008040000202F
:1033600010B50F220260174A4FF4E054136803F0BF
:1033700003034360136803F0F0038360136803F4EE
:10338000E053C360136804EAD3030361D2F8F8037F
:1033900000F00F00086010BD09480A49006809687C
:1033A000094AC1F38221515CC8407047044805496D
:1033B00000680968044AC1F34231515CC840704753
:1033C0000800002008380240187A000810B5134C95
:1033D000606800F00C00082804D0042814BF1048CE
:1033E000104810BD2268206802F03F0240020D48DC
:1033F0005CBF42F20040C0F2F40021680023C1F338
:103400008811A0FB0101FCF7F3FF21680222C1F340
:10341000014102EB4101B0FBF1F010BD0438024064
:103420000024F40040787D012DE9FC41002800F0E3
:10343000C88004460078BE4EC00744D0B06800F093
:103440000C00042805D1306880033CD56068D0BBEF
:10345000B7E0B06800F00C00082802D170684002A4
:10346000F1D46768B7F5803F06D03068B7F5A02F74
:1034700012D140F480203060306840F480303060F9
:10348000FFF760FC0546306880031CD4FFF75AFC48
:10349000401B6428F7D9D7E020F4803030603068D2
:1034A00020F480203060FFF74DFC0546002FEAD164
:1034B00006E0FFF747FC411B0320642900F2368138
:1034C00030688003F5D4207880072CD5B06810F0E0
:1034D0000C0F07D0B06800F00C00082809D1706804
:1034E000400206D43068800716D5E068012813D062
:1034F00067E0E068002800F0C8808E480121016084
:10350000FFF720FC05463068800705D4FFF71AFC5A
:10351000401B0228F7D997E02069316821F0F801B3
:1035200041EAC00030602078000720D561698148F9
:1035300071B10121C0F8801EFFF704FC0546706FD1
:10354000800714D4FFF7FEFB401B0228F7D97BE06D
:103550000021C0F8801EFFF7F5FB0546706F80075D
:1035600005D5FFF7EFFB401B0228F7D96CE0207868
:10357000400729D4A769002F00F0D780B06800F079
:103580000C00082863D1012F1BD0E169B06800F45A
:1035900080028A4215D1216A00F03F028A4210D18E
:1035A00047F6C071626A014091420AD1A16A00F4F3
:1035B00040328A4205D1E16A00F07060884200F032
:1035C000B4800120BDE8FC81306C4FF00008C000E1
:1035D0000CD4CDF80480306C4FF0010840F08050DE
:1035E0003064306C00F0805001900198524F386880
:1035F000C0050FD4386840F480703860FFF7A2FB34
:1036000005463868C00505D4FFF79CFB401B02281F
:10361000F7D919E0A768012F05D0306F052F45D1E4
:1036200040F004003067306F40F001003067FFF772
:1036300089FB054641F28837306F80074ED4FFF78B
:1036400081FB401BB842F7D90320BDE8FC81394912
:10365000002088460866FFF775FB0546022F0AD151
:1036600047463068800142D5FFF76CFB411B0320C1
:103670000229F6D95AE03068800156D5FFF762FB7F
:10368000411B03200229F6D950E02A48002101609D
:10369000FFF758FB0546306880077FF544AFFFF71A
:1036A00051FB411B03200229F5D93FE020F0010026
:1036B0003067306F20F004003067FFF743FB0546AA
:1036C000002FB7D141F28837306F800706D5FFF75A
:1036D00039FB411B0320B942F6D927E0B8F1000FAE
:1036E0003FF448AF306C20F08050306442E71C3427
:1036F0001FCC084340EA8210D9034FF6FF72914372
:1037000040EA0460A1F5803108437060012038660A
:10371000FFF718FB04463068800106D4FFF712FB60
:10372000011B03200229F6D900E00020BDE8FC813E
:10373000003802400000474200700040B8B170B548
:103740000446407F20B900202077204600F03EF854
:10375000022060772068CA214162532141622046DD
:1037600000F000FE216820B10120042228E00120A1
:1037700070478868144A261D104088606DCE284323
:103780008D683043284388600B61086940EA024035
:103790000861C86820F08000C8608868800605D489
:1037A000204600F021F821680028DDD1086C20F4C3
:1037B00080200864A0690A6C10430864002001227C
:1037C000FF234B62627770BDBFFF8FFF0068044923
:1037D000884200D07047034801210160704700BF54
:1037E000002800403C0E4742B0B504460068C1685E
:1037F00021F0A001C160FFF7A5FA05462068C06866
:10380000800607D4FFF79EFA401BB0F57A7FF5D902
:103810000320B0BD0020B0BDF8B5B0B30024846271
:10382000054690F8510000284FF0000005D12846C9
:1038300085F8504000F02CF8A86A022185F8511054
:1038400095E84E001A430F68324327F040070F6097
:103850002B691A436B691A43AB6903F40076324350
:10386000EE6932432E6A32431043086004206A6ACC
:1038700000EA134010434860C86920F40060C86142
:1038800001206C6585F8510000E001242046F8BD58
:103890002DE9F04186B0044601A81421FDF70FF987
:1038A00021682C48814252D10026D14900960A69EC
:1038B00000F5E63042F480420A610A6902F480426F
:1038C0000092009A00960A6842F002020A600968B3
:1038D00001F002010091052105910321CDE9036169
:1038E000022102914FF460410191009901A9FFF773
:1038F00051F91A4F184D07F118014020C5E900167B
:1039000005F108014FF4806881E8410105F11400D8
:103910001421FDF7D4F82846FFF7B0F808B1FEF7F8
:10392000B9FBAC63A5640E4D142105F11400C5E983
:103930000076C5E90266C5F81080FDF7C0F8284694
:10394000FFF79CF808B1FEF7A5FBAC63E56406B091
:10395000BDE8F0810038004000830020586002403C
:10396000A08200207047704710B590F83C300222CA
:10397000012B2AD080F83D20012280F83C200268EB
:103980000B685468B2F1804F24F0700444EA0304D9
:10399000936854600ED00E4CA2420BD00D4CA24244
:1039A00008D00D4CA24205D00C4CA24202D0E04CF3
:1039B000A24204D1496823F0800319439160002298
:1039C000012180F83C2080F83D10104610BD00BF5A
:1039D0000004004000080040000C0040004001408E
:1039E000B0B110B5044690F83D0028B9002084F825
:1039F0003C00204600F00EF8022084F83D002068CC
:103A0000211D00F029FE012084F83D00002010BD9A
:103A10000120704770470068C16841F00101C16032
:103A2000816801F00701062903D0016841F0010116
:103A3000016000207047704710B5044600680169B6
:103A4000890744BFC1685FEA817139D401694907B8
:103A500044BFC1685FEA41713ED40169090744BFB0
:103A6000C1685FEA017144D40169C90644BFC168F5
:103A70005FEAC16149D40169C9071CBFC1685FEA37
:103A8000C1714FD10169090644BFC1685FEA016194
:103A900050D40169490644BFC1685FEA416151D40D
:103AA0000169890644BFC1685FEA816100D410BD25
:103AB0006FF0200101612046BDE81040FFF753BFC1
:103AC0006FF002010161012121778069800741D0F7
:103AD0002046FFF7B0FF43E06FF0040101610221CF
:103AE0002177806910F4407F3ED02046FFF7A3FF86
:103AF00040E06FF00801016104212177C06980076F
:103B00003CD02046FFF797FF3EE06FF010010161C7
:103B100008212177C06910F4407F39D02046FFF793
:103B20008AFF3BE06FF001010161204600F002F9DD
:103B30002068A7E76FF0800101612046FFF712FFC0
:103B40002068A6E76FF040010161204600F0FCF814
:103B50002068A5E7204600F04FF8204600F0CCF89A
:103B600000202077206871E7204600F045F82046C5
:103B700000F0C2F80020207720686EE7204600F0B1
:103B80003BF8204600F0B8F80020207720686BE76B
:103B9000204600F031F8204600F0AEF800202077F3
:103BA000206868E710B586B0044601A81421FCF728
:103BB00086FF2068B0F1804F18D10020D2490090D4
:103BC0000A6842F002020A60096801F002010091ED
:103BD00001210591CDE90300022002904FF480609D
:103BE00001900098034801A9FEF7D4FF06B010BD6C
:103BF00030380240000402407047000070B50D46A6
:103C000090F83C1004460220012944D084F83D007D
:103C10004FEAB2000126032884F83C6036D8DFE87A
:103C200000F0020A12222068294600F073FD206885
:103C300050F8181F0EE02068294600F091FD20681A
:103C400050F8181F16E02068294600F0B5FD2068DE
:103C500050F81C1F41F008010160016821F00401C7
:103C6000016029690FE02068294600F0CFFD206837
:103C700050F81C1F41F400610160016821F480616B
:103C8000016029690902026811430160002084F87B
:103C90003C0084F83D6070BDB0B110B5044690F8AA
:103CA0003D0028B9002084F83C00204600F00EF8C2
:103CB000022084F83D002068211D00F0CDFC012089
:103CC00084F83D00002010BD0120704781B00068DD
:103CD000B0F1804F0BD1002000900648016841F000
:103CE00001010160006800F001000090009801B03F
:103CF000704700BF403802407047000010B50446CE
:103D00000068012200F0F6FC20680949884203D1CE
:103D10004A6C42F400424A64816801F007010629B6
:103D200003D0016841F001010160002010BD00BF17
:103D30000000014000680349884208BFFFF730B91E
:103D4000704700BF00480140704750B310B50446AB
:103D500090F8390028B9002084F83800204600F097
:103D600023F8242084F839002068C16821F4005128
:103D7000C160204600F0C8FD2068016921F490412F
:103D80000161416921F02A014161C16841F400519A
:103D9000C16000202021E06384F8391084F83A10D3
:103DA00010BD0120704700002DE9F04387B00446A4
:103DB00002A81421FCF783FE20685149884247D0AD
:103DC0005049884240F099800026B24801964169E6
:103DD00041F010014161416901F010010191019927
:103DE0000196016841F001010160006802A900F03C
:103DF00001000190072006900320CDE90460022015
:103E000003904FF4C06002900198A348FEF7C2FEF1
:103E10003F4F414D4FF0006907F118004FF48068A3
:103E2000C5E9000905F114001421C5E90266C5F8C9
:103E30001080FCF744FE2846FEF720FE08B1FEF78E
:103E400029F9AC636563354D402007F1900140E0EE
:103E5000002690480196416941F020014161416985
:103E600001F02001019101990196016841F00101E1
:103E70000160006802A900F001000190082006908E
:103E80000320CDE90460022003904FF4C05002905B
:103E900001988148FEF77EFE1C4D1D4F4FF480684F
:103EA0004FF0206905F114001421C5E90079C5E936
:103EB0000266C5F81080FCF702FE2846FEF7DEFD1C
:103EC00008B1FEF7E7F8AC636563124D402007F1D7
:103ED00078012960C5F80490A86005F11400142148
:103EE000EE60C5F81080FCF7EAFD2846FEF7C6FD37
:103EF00008B1FEF7CFF8AC63256307B0BDE8F083E7
:103F0000001401400010014030380240208400209D
:103F1000286402408084002060830020C083002049
:103F2000FEE70000BCB500205A4901900A68234C06
:103F300042F400120A600A6802F400120192019A27
:103F400000900868002240F48000086008680021A2
:103F500000F48000009000980B20A047184D0B2023
:103F6000A8470C2000210022A0470C20A8470E20C3
:103F700000210022A0470E20A8470F200021002288
:103F8000A0470F20A847392000210022A047392050
:103F9000A8473A2000210022A0473A20A847452000
:103FA00000210022A0474520A847462000210022EA
:103FB000A04746202946BDE8BC400847B930000864
:103FC0009D3000082DE9F04F87B000243148069459
:103FD00001940168314F41F0040101600168002241
:103FE00001F0040101910199019401684FF4005A14
:103FF00041F080010160016801F0800101910199A7
:104000000194016841F001010160016801F00101C2
:10401000019101990194016841F002010160006879
:104020004FF4005100F00200019001981A4800F589
:10403000006680463046B847404648F2811100226B
:1040400048F28119B84708F5806528464FF4825137
:104050000022B8474FF0010BCDE90444CDE902AB93
:1040600002AFDFF83CA030463946D04740463946DB
:10407000CDE90444CDE9029BD0474FF4825005942A
:10408000CDE903B4029028463946D04707B0BDE8D1
:10409000F08F00BF30380240000002403B2D000886
:1040A000952B000810B50B480B4B0C4C00214FF41E
:1040B0008042C0E90043C0E90211C0E90421C0E91F
:1040C00006110162FEF742FE18B1BDE81040FDF78F
:1040D000E1BF10BDE0840020A08601000054004034
:1040E00010B50A480A4C0021FF227F23C0E9004195
:1040F000C0E90232C0E904118161FFF71FFB18B16A
:10410000BDE81040FDF7C6BF10BD00BF34850020DC
:104110000028004010B50E480E4B4FF4827200216B
:104120004FF40074C0E900320A22C0E90211C0E96C
:104130000411C0E90641C0E90811C0E90A12FFF7FD
:104140006BFB18B1BDE81040FDF7A4BF10BD00BF68
:10415000548500200038004010B58AB0002401A822
:104160001C21CDE90844FCF7AAFC16484FF4FA617B
:104170004FF080428461C0E90024C0E9024104613B
:10418000FFF78AFD08B1FDF785FF0E4808A9CDE9C4
:104190000844FFF7E9FB08B1FDF77CFF002005901C
:1041A000CDE9020060200190064801A90822FFF72E
:1041B00025FD08B1FDF76EFF0248FFF7F3FC0AB0DA
:1041C00010BD00BFEC85002010B5D4480A4C00217A
:1041D0000C224FF4E133C0E90043C0E90211C0E909
:1041E0000412C0E90611FFF7B0FD18B1BDE8104098
:1041F000FDF750BF10BD00BF0010014010B5C8480A
:104200000A4C00210C224FF4E133C0E90043C0E91D
:104210000211C0E90412C0E90611FFF796FD18B1BA
:10422000BDE81040FDF736BF10BD00BF00140140CF
:10423000B8484FF4004101F0B8BA00BFFEE710B52E
:1042400000F1280151E8002F12B9BFF32F8F04E0CD
:10425000531E41E8003404B1F4E772B12C3001215F
:10426000006850B1821CD2E84F3FC2E8441F04B13D
:10427000F9E71A0602D00830F2E7002010BD70B549
:10428000024652F8305F4DB1CC7800235DB12E4626
:10429000ED78A5420DD275683346F7E70023C1E9F2
:1042A0000133C1620DE00024C1E9014300F12C0497
:1042B00003E0C1E9016306F108042160002B18BF87
:1042C0001A1D1160283050E8001F4A1C40E80023E6
:1042D00003B1F8E770BDD1E90123002A0EBFC36224
:1042E00093608B68191D002B08BF00F130010A6034
:1042F0007047704719480068704700BF1848017838
:10430000012905D105494FF080620A600021017042
:104310001248016841F001010160704704ED00E0BE
:104320004FF0FF307047000040B1BF490968B1FB52
:10433000F0F0411E0020B0EB116F02D04FF0FF30C3
:104340007047054AFF231370044A06231360516027
:10435000034908709060704723ED00E010E000E032
:10436000D8810020B0B504460068C168490611D460
:104370004FF0FF31C160FEF7E5FC05462068C068DC
:10438000400607D4FEF7DEFC401BB0F57A7FF5D976
:104390000320B0BD0020B0BDB0B500F10C01C28952
:1043A000D1E85F3F9A4202D8BFF32F8F04E05C1C34
:1043B000C1E8554F05B1F3E7C28999B20020914297
:1043C00038BF0120B0BD000010B5044606A021464C
:1043D00000F000FF074808A1006822460068BDE819
:1043E000104000F00DB800BF536C6F743A20257375
:1043F0000D0A00006C01002025730D0A000000006A
:1044000082B07CB5CDE906230446056806A8019074
:104410000C480E460178012903D129680A68520622
:10442000FCD501210170D4E90401019B3246FCF75F
:1044300057F8216982B2284600F0AEFEBDE87C4004
:1044400002B07047D98100202DE9FC47DFF8BC8C11
:10445000DFF8BC9C17460E46054640461C2100224C
:104460004FF0000AC847044647610560C0E9026A88
:10447000404631460022C847606040463946002227
:10448000C8476A6B29681368D2E916C21F6827F00B
:1044900001071F601F6827F480271F60D4E9017699
:1044A0005E600E1D9E603F2606FA02F2DF60CCF8C9
:1044B000082020611868002240F001001860CDF843
:1044C00004A008680190486801900198C86840F00D
:1044D0001000C860486940F040004861404604212F
:1044E000C8470E49A0610C488D4205D00C498D4249
:1044F0000DD10830472501E0043025250460284609
:1045000001210022FEF7D8FD2846FEF7C7FD204610
:10451000BDE8FC87D8010020600100202C86002027
:104520006C86002070B598B001AC0025201D1421C8
:104530001095CDE90E55FCF7C2FA204807950168A1
:10454000022641F080510160006800F08050079021
:1045500007981B480795016841F4404101600068D5
:1045600000F44040079004201790602016961590A4
:104570000C2014904FF48000CDE9126001201190BE
:104580004FF4A0200D9009200C9007980CA8FEF77E
:104590004BFF4FF480500B950A900F20CDE9086532
:1045A000079007A80321FEF747FE4FF4007005901F
:1045B00020460196FEF7ACFD18B070BD40380240B1
:1045C000007000401548416801F00C021449082AA7
:1045D00003D0042A17D1134915E0026802235202BE
:1045E000104A58BF0A46016801F03F01B2FBF1F1E1
:1045F0000268C2F3881251430268C2F3014203EB1E
:104600004202B1FBF2F1084A084B11604068C0F366
:104610000310185C21FA00F0106070470438024063
:104620000024F40040787D0108000020087A00088A
:104630000548D0F8801041F47001C0F880104FF0A8
:1046400000610160704700BF08ED00E00148FFF71E
:10465000F3B900BFAC85002070B503687B4AB0F1A8
:10466000804F07D01D4CA04204D01D4CA04218BF63
:1046700090422ED14C6823F070032343B0F1804F59
:1046800013D0164CA04210D0154CA0420DD0154CA2
:10469000A0420AD0904208D0134CA04205D0134C3F
:1046A000A04202D0124CA04203D1CC6823F4407344
:1046B00023434E690C688D6823F080033343904296
:1046C0000360C562846201D10969116301214161FE
:1046D00070BD044CA042CDD0D0E700BF0004004024
:1046E00000080040000C004000400140004801402C
:1046F0000044014010B501F01F010123046A8B4002
:1047000024EA0303036202FA01F1026A114301621F
:1047100010BD0000F0B5026A22F0010202620B68CF
:104720008A68046A24F0020422434468856925F0FB
:1047300073052B43454DA8420BD1CD68D1E90567E0
:1047400024F44074344322F00C0225F004053C4369
:104750002A4344608361496841630262F0BD00BF3F
:10476000F0B5026A22F0100202620B688A68046ADD
:1047700024F0200444EA02124468856925F4E645E1
:1047800045EA0323314DA8420FD1D1E90567CD6831
:1047900024F4406444EA86046FF0400606EA0515F6
:1047A00022F0C00244EA87042A43446083614968D6
:1047B00081630262F0BD00BFF0B5026A22F480722C
:1047C00002620B688A68046A24F4007444EA0222D4
:1047D0004468C56925F073052B431C4DA8420FD1D1
:1047E000CD68D1E9056724F4405444EA06142D024B
:1047F00040F2FF46B54322F4406244EA07142A43DC
:104800004460C3614968C1630262F0BDB0B5026A29
:1048100022F4805202620C688A68036A23F400530F
:1048200043EA02324368C56925F4E64545EA0424B3
:10483000064DA84204D14D6923F4804343EA851311
:104840004360C461496801640262B0BD0000014078
:1048500010B5930712D400F12803D0071ED153E8F6
:10486000000F084203D1BFF32F8F002005E020EA9C
:10487000010243E8002404B1F1E710BD806A00EAB8
:1048800001038B42014618BF002112F0010208BF4C
:10489000014653EA020018BF084610BD53E8000F56
:1048A00000EA01028A4203D0BFF32F8F002005E007
:1048B00020EA010243E8002404B1EFE710BD000044
:1048C000B0B5104A0023443215462C683CB1256926
:1048D000A94209D3491B04F10C052346F5E700243E
:1048E000C0E90234016106E0C0E902340161A06060
:1048F0002569691A2161002B18BF03F10C021060B1
:10490000B0BD00BF1C000020B0B50446006804F133
:1049100008030ECB0569194325F440552A4302616B
:10492000C268636949F20C651943E369AA431943F4
:104930001143C1604169A26921F440711143416191
:10494000274940F48060B3F5004F04D1884207D175
:10495000FEF72CFD06E0884221D1FEF727FD20E07E
:10496000FEF71AFD63681921A0FB01015A00DB0F55
:10497000FBF73EFD6421B0FBF1F26FF0630302FB35
:104980000300322303EBC000B0FBF1F14FF4F870E9
:1049900000EA410000EB021001F007011BE0FEF706
:1049A000FBFC63681921A0FB01019A009B0FFBF738
:1049B0001FFD6421B0FBF1F26FF0630302FB030003
:1049C000322303EB0010B0FBF1F101F0F00000EB3B
:1049D000021001F00F01084321688860B0BD00BFDC
:1049E0000014014010B5154CEFF3108072B66068EA
:1049F00001680A68496B12680968496800F06AFC36
:104A00006068006800684168006862B610BD00BF59
:104A100010B50A4CEFF3108072B6A06801680A68FE
:104A2000496B12680968496800F054FCA068006886
:104A300000684168006862B610BD00BF60010020D8
:104A4000FEE7000070B5434E0C460546706901282C
:104A500003D1012000F0B2FCF8E701207061B068DA
:104A600029462246FBF7C4FF00207061B068316917
:104A70002044B0600819306170BD00BF10B5354CDE
:104A80006069012803D1012000F098FCF8E7616813
:104A90000020C4E90211C4E9040010BD2DE9F84367
:104AA0002C4F16460C4680467869012803D1012018
:104AB00000F084FCF8E701204FF000090025786140
:104AC0003869A04209DA0120C7F8149000F076FC9A
:104AD0000135B542F4DB02200BE0F968404622467E
:104AE000FBF786FFD7E903012044091BC7E903014F
:104AF000002000217961BDE8F88300BF2DE9F8436B
:104B0000144F1646894680467869012803D1012052
:104B100000F054FCF8E70120002400257861386992
:104B200040B901207C6100F049FC0135B542F6DB5B
:104B300002200BE0C9F80000D7E903124046FBF75A
:104B400057FF79680020C7E90211386100217961B7
:104B5000BDE8F8836C010020474902A0642200F000
:104B60004BBA00BF4154453000000000424902A04A
:104B7000642200F041BA00BF4154000080B50949E9
:104B800006A0642200F038FA08B1012080BD06A01A
:104B90004FF4FA61BDE8804000F060BB41542B52F5
:104BA00053540000407B000872656164790D0A006F
:104BB00010B588B06C46024605A12046FBF7AAFC5A
:104BC0002D492046642200F017FA08B010BD00BF3E
:104BD00041542B43574155544F434F4E4E3D25644E
:104BE0000000000010B588B06C46024607A12046C0
:104BF000FBF790FC0AA0214600F0ECFA1E49204683
:104C0000642200F0F9F908B010BD00BF41542B43F5
:104C1000574D4F44455F4445463D25640000000024
:104C20002D2D3E2025730D0A00000000124902A020
:104C3000642200F0E1B900BF41542B4349504D5567
:104C4000583D310004A108A2002808BF0A460A49BD
:104C50001046642200F0D0B941542B435753544FAF
:104C600050534D415254000041542B43575354412B
:104C70005254534D41525400407B000880B521A04E
:104C800000F0A8FA26A000F0A5FAFFF76FFF08B120
:104C900027A01FE02BA000F09DFAFFF76FFF08B1DF
:104CA0002DA017E031A000F095FAFFF755FF08B1ED
:104CB00032A00FE0374800F08DFA0120FFF792FF95
:104CC00008B1354806E0354800F084FAFFF7AEFF3A
:104CD00020B1334800F07EFA012080BD314800F059
:104CE00079FA314831A100F06BF830B1324800F068
:104CF00071FABDE8804000F085B8304800F06AFAEB
:104D0000002080BD3E3E3E207769666920696E695D
:104D1000742073746172742E2E2E0D0A0000000030
:104D20003E415420746573742E2E2E0D0A0000002F
:104D300061742074657374204552524F522E0D0ACF
:104D4000000000003E526573657420746573742E14
:104D50002E2E0D0A000000005265736574207465E4
:104D60007374204552524F522E0D0A003E736574E3
:104D7000206E6F206563686F2E0D0A0053657420E6
:104D80006E6F206563686F204552524F522E0D0A98
:104D900000000000487B0008D67A0008ED7A000881
:104DA000C57A00089C7A0008807B000838383838BB
:104DB0003838383800000000AE7A0008017B00085F
:104DC00010B590B06C460B46024606A12046FBF794
:104DD000A1FB0AA1204644F6206200F00DF910B0B4
:104DE00010BD00BF41542B43574A41505F435552B9
:104DF0003D222573222C2225732200004641494C76
:104E00000D0A0000B0B519A000F0E4F90120FFF789
:104E1000CFFE1D4C18BB1DA000F0DCF90120FFF7F0
:104E200011FF08B11DA41AE0224D2846642100F0AC
:104E300015FA0028F9D120A000F0CCF925A000F047
:104E4000C9F90020FFF7FEFE08B126A407E02A48B2
:104E500000F0C0F900200025FFF7AAFE18B1204697
:104E600000F0B8F901252846B0BD00BF3E3E3E73B4
:104E70007461727420736D61727420636F6E666901
:104E8000672E0D0A00000000307B00083E7374613D
:104E9000727420736D6172742E0D0A005374617206
:104EA0007420536D617274204552524F522E0D0A78
:104EB00000000000637B0008536D61727420436F33
:104EC0006E6E65637420537563636573732E0D0A8C
:104ED000000000003E53746F7020736D6172742E79
:104EE0000D0A000053746F7020536D617274204579
:104EF00052524F522E0D0A001A7B00082DE9F8433A
:104F0000DFF808821746894606464046842100227B
:104F1000002500F0E6FB0446304649463A46FFF7D6
:104F200093FA206080690F49002200F0AFF804F185
:104F30005C001421A567C4E902552571FBF7BFFD8C
:104F400040464946002200F0CCFBE049064A626731
:104F5000C1E90040C1E902002046C1E90455BDE8AD
:104F6000F88300BF256300080C00002010B5074C33
:104F700000F00F032344044AB0F1FF3FC8BF831879
:104F80000801187010BD00BF00E400E014ED00E05F
:104F900010B5044601F03EF930B120684FF0FF3102
:104FA000BDE8104000F026BB10BD006800F040BB1B
:104FB00010B50446002000F057FB206008B1012026
:104FC00010BD0520214600F089FB002010BD10B562
:104FD000044601F01FF920B12068BDE8104000F040
:104FE00061BB10BD00F01CBA02484FF48071FDF7A0
:104FF0009DBE00BF000002402DE9F04FADF5017DE0
:105000001D4C064620681546406F8B460068804759
:1050100020681AA100683246FFF7F2F9142095FBC8
:10502000F0F44FF0FF3A01ADE8460FF258090026C0
:105030000AF1010AA24518DA0F48009600684146B5
:10504000406F1422C36828469847009F2846394677
:105050004A4600F05FF848B1284639465A4600F003
:1050600059F80028E4D1012600E0022630460DF56B
:10507000017DBDE8F08F00BF6C01002025730D0A93
:10508000000000004F4B0D0A000000002DE9F84F12
:1050900005467048894600EBC2003C300446006873
:1050A0000068A84220D060680028F7D1DFF85C8053
:1050B000DFF85CB04046082100224FF0000AD847D4
:1050C0000746404608210022D847064640460821A8
:1050D0000022D847C0F804A0C7E9009AC6E90057E3
:1050E00006606060BDE8F88F0848082100220025AE
:1050F00000F0F7FAC0E90095216849680A46496856
:105100000029FBD15060BDE8F88F00BFD801002016
:10511000E3560008F8B50546104614460E46FBF760
:10512000FDFBB04202DD4FF0FF30F8BD311A002226
:105130008A42F8DC0023834207DAE65CEF5C013345
:10514000B742F8D001350132F2E70020F8BD000087
:10515000B0B58AB001AC20462421FBF7B0FC282072
:1051600007900948094D00212246A84718200790BA
:10517000074800212246A84708200790054800213B
:105180002246A8470AB0B0BD35620008D1610008C8
:10519000D16200088162000870B50368006B046882
:1051A000D0E91650266826F48026266062601A1D13
:1051B000A260E1603F2101FA00F0A860206840F0A1
:1051C000010020606FF040001860586940F08000D6
:1051D000586170BD83B0B8B5044605A80EC0104D27
:1051E00005A800902878012804D10C4800680168BF
:1051F0004906FCD5012028706968009BD1E90401AB
:105200002246FBF76DF9696882B208680969FFF701
:10521000C3FFBDE8B84003B0704700BF2C86002034
:1052200060010020B0B50C460546FCF7C9FE2846D3
:105230002146FCF709FF28462146FCF7E3FE054C12
:10524000054D2068A8476068A847A0682946BDE8C2
:10525000B040084784010020496100082DE9F04F63
:10526000ADF5017D834619480D460068406F006822
:105270008047142095FBF0F4DFF854804FF0FF3A9C
:1052800001ADE94600270AF1010AA24518DA0F48E4
:10529000009700684946406F1422C3682846984723
:1052A000009E284631465A46FFF734FF48B128464B
:1052B00031464246FFF72EFF0028E4D1012700E0E7
:1052C000022738460DF5017DBDE8F08F6C01002006
:1052D000407B000870B50446A2684068511A00225D
:1052E000E16042546168A069FFF79CFF07CC036846
:1052F000406B0468D0E91650266826F00106266047
:10530000266826F48026266062601A1DA260E1608D
:105310003F2101FA00F0A860206840F00100206001
:1053200070BD0000B0B5244C1149124D204600223A
:10533000A84711481149006800228069A847104910
:1053400020460122A8470F4920460222A8470F20E5
:105350000121FCF7D3FFFFF735F900F061F80A48A7
:105360000021002200F034FF00F076F80020B0BDEC
:10537000157000088D500008DC810020C94300082A
:1053800001700008E94F00088D530008FFF7E0FEA8
:10539000FFF774FC074C084D20464FF40051FDF711
:1053A000C5FCC82000F00AF828460021FFF73AFFA4
:1053B000F2E700BF000802401170000810B5044673
:1053C000FDF760F8EFF3058028B9EFF3108010B90E
:1053D000EFF3118030B16FF00500FDF763F86FF067
:1053E000050010BD2046DFF808C000DF10BD00BF7B
:1053F000B1630008EFF3058048B9EFF3108030B9CE
:10540000EFF3118018B9EFF31480C00701D100F059
:10541000E1BFDFF808C000DF704700BFD5630008B8
:1054200080B500F05DF9FDF761F8EFF3058028B96C
:10543000EFF3108010B9EFF3118030B16FF0050079
:10544000FDF746F86FF0050080BDDFF808C000DF0B
:1054500080BD00BFE963000880B5FDF757F8EFF3A2
:10546000058028B9EFF3108010B9EFF3118030B147
:105470006FF00500FDF72CF86FF0050080BDDFF838
:1054800008C000DF80BD00BF3D650008F8B51F46BD
:1054900016460C460546FDF7A3F8EFF3058028B93C
:1054A000EFF3108010B9EFF3118068B3E5B1DFB905
:1054B000D4B12878FA2817D12846FEF7C0FEE0B10B
:1054C0006A6A074600F10C012046FBF791FA0EB11B
:1054D000F87830703846FD6000F0E0FA2846214642
:1054E000FDF7EAF8002406E028466FF003016FF0AC
:1054F0000304FDF76FF82046F8BD28462146FDF766
:10550000B3F86FF00204F6E72846DFF80CC0214636
:1055100032463B4600DFF8BDDD65000870B5144635
:105520000D460646FDF78CF8EFF3058028B9EFF33A
:10553000108010B9EFF3118038B100206FF0050131
:105540000024FDF747F8204670BD3046DFF80CC058
:105550002946224600DF0446F5E700BFED66000855
:10556000F8B51F4616460C460546FDF785F8EFF3DD
:10557000058028B9EFF3108010B9EFF3118078B3EC
:10558000F5B1EFB9E4B12878FA2819D105F10C008A
:1055900000F02AF9E8B16A6A07460C302146FBF7A9
:1055A00027FAC7E90145FE700026F920BE70387061
:1055B000384600F073FA28462146FDF731F806E038
:1055C00028466FF003016FF00306FDF703F830463D
:1055D000F8BD28462146FDF73FF86FF00206F6E7D2
:1055E0002846DFF80CC0214632463B4600DFF8BDB6
:1055F0002D680008B0B50D460446FDF765F8EFF3D9
:10560000058028B9EFF3108010B9EFF3118038B19D
:1056100020466FF00501FDF78FF86FF00500B0BD73
:105620002046DFF808C0294600DFB0BD1969000830
:1056300010B50446FDF770F8EFF3058028B9EFF3D5
:10564000108010B9EFF3118038B120466FF00501DA
:10565000FDF772F86FF0050010BD2046DFF804C0BA
:1056600000DF10BDE969000810B50446FDF76AF8CF
:10567000EFF3058028B9EFF3108010B9EFF3118034
:1056800038B100206FF005010024FDF755F82046E1
:1056900010BD2046DFF808C000DF0446F7E700BF72
:1056A000A96A000810B50446FDF75CF8EFF3058021
:1056B00028B9EFF3108010B9EFF3118038B120460C
:1056C0006FF00501FDF738F86FF0050010BD2046BA
:1056D000DFF804C000DF10BD296B0008FEE7FEE71D
:1056E0007047F8B5A8B1A1B1042A12D2034653F805
:1056F000085F01F10F0424F0070C2E46EF1A5D68D5
:1057000025F003043C1B644506D235683346002D62
:10571000F3D1002400231EE0D0E900466644466031
:10572000071957F8044CB44203D2A7F10804666085
:105730005D6855B11C6825F00305EC504CEA020485
:105740001D446C601D602B4602E04CEA02045C6064
:1057500003F108042346FCF7E9FE2046F8BDB0B586
:1057600060B159B100F10804A1F10802002394428C
:1057700007D0254624682B46002CF8D100240022AF
:105780000FE051F8045C446825F00305641B446095
:1057900013B112681A6002E0002241F8042C0124BF
:1057A0000122FCF7EFFE2046B0BD10B508B142075C
:1057B00005D000240022FCF7F1FE204610BD182978
:1057C000F7D311F00702F4D10A18A2F1080383609D
:1057D000002342F8083C826810245460C0E9001499
:1057E00001240122C360E6E7B0B5002817D000F11C
:1057F000140151E8004F14B9BFF32F8F04E0226861
:1058000041E8002303B1F4E73CB1011D51E8002F4A
:10581000531C41E8003505B1F8E7214602E00024B9
:1058200000200021FCF78EFE2046B0BDB0B5002858
:105830001FD0C2688A421CD802698A4219D900F175
:10584000140213680B60BFF35F8F52E8003F0C68CF
:105850009C42F6D142E8001505B1F2E7021D52E87C
:10586000003F5C1E42E8004505B1F8E70024002235
:1058700003E06FF003046FF00302FCF76BFE2046B9
:10588000B0BD70B50E4601460020E9B1E6B1144640
:10589000D2B11D46C3B104FB06520020C1E900602D
:1058A000C1E90245C1E904250846314622462B4696
:1058B000FCF75CFE701E20B12919296001380D46E5
:1058C000F9E700202860012070BD2DE9F041044671
:1058D0008078D0B3E56821462846FEF7FCFC00201E
:1058E00005F10C06207030462146FFF79FFFA8689F
:1058F00048B33046FFF778FF28B30446284600F047
:105900004DFA0021002206464FF0000800F01AFB75
:10591000304600F0ABFA87686A6A064604F10C006C
:105920003946FBF765F8F92084F802802070F068AA
:105930002146E0702846FEF7A2FC28463946BDE81D
:10594000F041FCF775BEBDE8F081D4E90115A86807
:1059500058B34078832828D12846FCF769FE2846AA
:1059600000F01CFA0021002206464FF0000800F06B
:10597000E9FA304600F07AFA86686A6A074604F166
:105980000C013046FBF734F8F86808B1E178017093
:1059900028463146FCF790FE84F8008005F10C00A3
:1059A0002146BDE8F041FFF741BF2846FCF740FE25
:1059B00028462146BDE8F041FEF761BC2DE9F041E3
:1059C000044600274FF0010814B32546E8786469BF
:1059D0000007F9D5284600212F76FCF7CBFEA868F2
:1059E0000028F1D0284600F0D9F90021002206460F
:1059F00000F0A8FAC5E90367F06A686100B10561C3
:105A00002846012185F81880F562FCF775FEDBE772
:105A1000BDE8F08170B5E04C04F1560504F15A067A
:105A2000B4F85400D5E85F1F11B9BFF32F8F04E01D
:105A30004A1EC5E8532F03B1F4E7090429D0D6E87C
:105A40005F1F4A1C904200D80022C6E8532F03B1C2
:105A5000F5E788B2E16D51F82000D0B10178F13955
:105A60000829DDD8DFE801F006050905050C0F055A
:105A70001200D5E7216E8847D2E7616E8847CFE7ED
:105A8000A16E8847CCE7E16E8847C9E7216F884758
:105A9000C6E70020BDE8704000F02AB970B50146A5
:105AA000F14800F15603B0F85420D3E85F4FA2420A
:105AB00002D8BFF32F8F04E0651CC3E8565F06B120
:105AC000F3E7A3B2934214D200F15803D3E85F4F37
:105AD000651CAA4200D80025C3E8565F06B1F5E769
