:020000040800F2
:10000000F081002021030008F94B0008A1490008F5
:10001000354B0008BB2D0008ED5100080000000022
:100020000000000000000000000000006103000864
:10003000052E000800000000F9030008090400086C
:100040003B0300083B0300083B0300083B03000898
:100050003B0300083B0300083B0300083B03000888
:100060003B0300083B0300083B0300083B03000878
:100070003B0300083B0300083B0300083B03000868
:100080003B0300083B0300083B030008000000009E
:100090000000000000000000000000003B0300081A
:1000A0003B0300083B030008DD4E00083B0300084B
:1000B0003B0300083B0300083B0300083B03000828
:1000C0003B0300083B0300083B0300083B03000818
:1000D0003B030008A55100083B0300080000000096
:1000E0003B0300083B0300083B030008000000003E
:1000F0000000000000000000000000003B030008BA
:10010000000000003B0300083B0300083B0300081D
:1001100000000000000000000000000000000000DF
:100120003B0300083B030008BD2D00083B0300080B
:100130003B03000800000000000000000000000079
:100140000000000000000000000000003B03000869
:100150003B0300083B030008C92D00083B030008CF
:100160003B0300083B030008000000000000000003
:10017000000000000000000000000000000000007F
:10018000000000003B030008000000000000000029
:100190003B0300083B03000800F002F800F0ACF855
:1001A0000AA090E8000C82448344AAF10107DA45D2
:1001B00001D100F0A1F8AFF2090EBAE80F0013F078
:1001C000010F18BFFB1A43F0010318476CA400008D
:1001D0008CA400000A4410F8014B14F00F0508BF6E
:1001E00010F8015B240908BF10F8014B6D1E05D003
:1001F00010F8013B6D1E01F8013BF9D1641E03D0DC
:10020000641E01F8015BFBD19142E4D3704700000A
:100210000023002400250026103A28BF78C1FBD80F
:10022000520728BF30C148BF0B6070476E2900F0ED
:10023000F385702900F03D87662909F0FA87652962
:1002400009F0F787672909F0F487612909F0F38736
:1002500003681B0A28BF41F08001692900F0A085CE
:10026000642900F09D85752900F09A856F2900F0BA
:10027000CB86782900F00987E92900F06586E42912
:1002800000F06286F52900F05F86EF2900F0C8864D
:10029000F82900F008870368DB0928BF41F08001D6
:1002A000632901F06985732901F06E85E32901F066
:1002B0007985F32901F07E85002070471FB509F08C
:1002C000ABFF9DE8030000F095FC02F09FF90400ED
:1002D0000020002109F08AFF401C606000200021FE
:1002E00009F06EFFE06002F053F81FBD10B502F098
:1002F000C7F802F092F910BD02F05AF9114603B4A2
:1003000005F0EDF903BCFFF7D9FF05F0E5FE02F0BB
:100310001DFC03B4FFF7EAFF03BC02F055FC00002C
:100320000948804709480047FEE7FEE7FEE7FEE789
:10033000FEE7FEE7FEE7FEE7FEE7FEE704480549C5
:10034000054A064B70470000914E000899010008CD
:10035000F0210020F0810020F0710020F0710020D9
:100360001EF0040F0CBFEFF30880EFF309808169E2
:1003700011F8021C91BB01B590E80F10E047BDE8F1
:1003800000508CE80300244B93E80600914208BF1C
:10039000704741B91EF0100F10D12049086820F0B5
:1003A000010008600AE02CE9F00F1EF0100F08BFF2
:1003B0002CED108AC1F838C081F822E01A6092F85A
:1003C0002210906B61F0FF0E1EF0100F08BFB0EC12
:1003D000108AB0E8F00F80F309887047104A13685C
:1003E0009942FAD801B552F821C00FC8E047BDE8DC
:1003F0000050CCF80000704701B506F007FABDE8E0
:100400000140EFF3098CBEE701B506F0C1FCBDE881
:100410000140EFF3098CB6E71803002034EF00E049
:1004200088A400080844401E491E884370470821DC
:10043000001DF7E72DE9F04117460E460446FFF789
:10044000F6FFA042054633D9002F1CBF06F10C0071
:1004500005F01AF930467468F4B12168A94217D33F
:1004600005F1080291423CBF6168416007D36268B0
:1004700061194A602268521B0A6041602560002FA2
:100480001CBF06F10C0005F01FF9201DBDE8F0812E
:1004900020466468002CE0D12946304600F096FBE7
:1004A0000028D7D1002F1CBF06F10C0005F00CF975
:1004B0000020BDE8F08110B5044600F07EFB016825
:1004C0002046BDE810400122B4E753EA020C00F0D8
:1004D00069802DE9F04B4FF00006002B1FBFB3FAE7
:1004E00083F503FA05F424FA05F65E4012BF1643BD
:1004F000B2FA82F502FA05F4C5F120051EBF22FA10
:1005000005FC44EA0C04203556EA044C4FEA144436
:1005100018BF641C4FF000084FF00009904271EBC7
:10052000030C39D3002919BFB1FA81F701FA07F694
:10053000B0FA80F700FA07F6C7F120071EBF20FACD
:1005400007FC46EA0C062037B6FBF4FCA7EB0507D0
:10055000103F07F01F0BCBF120062CFA06F60CFA21
:100560000BFB44BFB3460026202FA4BF5E464FF0CE
:10057000000B5BEA060C08BF4FF0010B19EB0B09EF
:1005800048EB0608ABFB027C06FB02CC0BFB03CC62
:10059000C01B71EB0C01C1E70B46024641464846C1
:1005A000BDE8F08B13B54FF000004FF00001AFF342
:1005B0000080BDE81C4070477CB51D4616460C0007
:1005C000009001D02044401E074B7B442A466946D8
:1005D0000190304600F039FC05461CB10020694608
:1005E00000F046FC28467CBDAD0800000FB400B505
:1005F00089B00CA96A4600910B9902F0F1FA09B092
:100600005DF814FB0FB400B58DB010A909900091EE
:100610000B904FF0FF300A9000200C900648784471
:100620000690064878446A4607900F9909A800F09A
:1006300015FE0DB05DF814FB5B0C0000730C0000A0
:100640002DE9FF5F4FF00008994614464646916930
:10065000D2E901A7DDF838B001988847054659EA84
:100660000B0005D009E0A1690198761C8847054672
:10067000216A284688470028F5D1681C03D05FEA24
:10068000CA7005D015E04FF0FF3004B0BDE8F09F10
:100690002068011D2160D0F800800AE05FEACA707E
:1006A00001D108F8015BA169761C01987F1E88477B
:1006B0000546002F1ADD681C18D0B9F1000F0DD0C7
:1006C000E81705EBD060421120F01F0059F8221006
:1006D0002A1A012090400142E0D107E0BBF1000F4F
:1006E000DCD12846216A88470028D7D0E1690198E3
:1006F0008847BBF1000F07D1002E05DD5FEACA7005
:1007000002D1002188F80010A068B84203DDBBF1D7
:10071000000F03D017B16FF00100B6E73046B4E721
:100720002DE9F04704464FF000094FF0FF37C56848
:10073000D4E90486A80707D0204600F06FFE3046B3
:1007400004F0CFFF002802DA3846BDE8F08728051C
:1007500002D5404600F0B7FA4C21204600F0C2F91D
:10076000206D20F0010020654846EEE770B5054693
:100770000A4E304604F088FF05F14C04204604F090
:1007800083FF2846FFF7CCFF0546204604F09CFF78
:10079000304604F099FF284670BD00000400002098
:1007A0002DE9F041044600F14C07384604F06CFF97
:1007B000E068810712D0800601D5A66A04E0A1692D
:1007C000606808442169461A204600F027FE00228E
:1007D00005463146204600F071FD00E00025384610
:1007E00004F072FF2846BDE8F0812DE9F04118B110
:1007F000BDE8F041FFF7D4BF0B4E0025304604F0B2
:1008000043FF0A4C6F1E07E02046FFF7C9FF00B107
:100810003D46206D20F00104002CF5D1304604F057
:1008200053FF2846DFE7000004000020C00300203B
:100830002DE9F04716468846814602F14C073846B6
:1008400004F022FF3046FFF76BFF18F8010B612818
:100850000AD0722802D077283FD102E00125002477
:1008600005E00225042402E0082448F2020518F8F5
:10087000010B2B2806D0622809D018F8010C742827
:100880000AD00BE045F0030544F00204EFE745F021
:10089000040544F00104EAE744F010044846214608
:1008A00004F03AFF411C18D00021316171604FF40F
:1008B0000071F560F1617061200704D530460222B5
:1008C000002100F0FBFC306D40F00100306538463F
:1008D00004F0FAFE3046BDE8F0870026F7E72DE980
:1008E000F04115460E460746204C204604F0CCFE4B
:1008F0002A4631463846FFF79BFF0546204604F05E
:10090000E3FE2846BDE8F0812DE9F0410E46804621
:10091000164D284604F0B8FE154C206DC10704D0D2
:10092000410804D020F00104F7E7224612E05420E9
:10093000FFF7C1FD070017D0206D47F00101084304
:1009400054212065384600F0CDF807F14C0004F042
:10095000ABFE3A4631464046FFF76AFF044628465A
:1009600004F0B2FE2046CDE70024F8E704000020A2
:10097000C003002010B5431C02E010F8011B71B148
:100980008107FAD14FF0013202C88C1A8C4314EA65
:10099000C211F9D0C01A0A0603D0C01E10BDC01A79
:1009A00010BD0A0401D0801E10BD0902FCD0401EFB
:1009B00010BD032A40F2308010F0030C00F01580C7
:1009C00011F8013BBCF1020F624498BF11F801CB52
:1009D00000F8013B38BF11F8013BA2F1040298BFB7
:1009E00000F801CB38BF00F8013B11F0030300F021
:1009F0002580083AC0F0088051F8043B083A51F8C5
:100A000004CBA0E80810F5E7121D5CBF51F8043BC9
:100A100040F8043BAFF30080D20724BF11F8013B3C
:100A200011F801CB48BF11F8012B24BF00F8013B9E
:100A300000F801CB48BF00F8012B704710B5203AF1
:100A4000C0F00B80B1E81850A0E81850B1E8185079
:100A5000A0E81850203ABFF4F5AF5FEA027C24BF4B
:100A6000B1E81850A0E8185044BF18C918C0BDE834
:100A700010405FEA827C24BF51F8043B40F8043BFD
:100A800008BF7047D20728BF31F8023B48BF11F8B2
:100A9000012B28BF20F8023B48BF00F8012B70470C
:100AA0004FF000020429C0F0128010F0030C00F097
:100AB0001B80CCF1040CBCF1020F18BF00F8012B15
:100AC000A8BF20F8022BA1EB0C0100F00DB85FEAE3
:100AD000C17C24BF00F8012B00F8012B48BF00F8AF
:100AE000012B70474FF0000200B51346944696461E
:100AF000203922BFA0E80C50A0E80C50B1F1200131
:100B0000BFF4F7AF090728BFA0E80C5048BF0CC0DE
:100B10005DF804EB890028BF40F8042B08BF70473C
:100B200048BF20F8022B11F0804F18BF00F8012BAE
:100B3000704700000000000030B44FF0013C50F856
:100B4000042B51F8043BCCFA52F4D51A20D1FCB94D
:100B500050F8042B51F8043BCCFA52F4D51A17D1B3
:100B6000B4B950F8042B51F8043BCCFA52F4D51A1E
:100B70000ED16CB950F8042B51F8043BCCFA52F466
:100B8000D51A05D1002CDAD030BC4FF000007047E8
:100B900029BAB1FA81F111F01801D1F12000844095
:100BA000F2D1CA40CB4012F0FF0213F0FF0330BC79
:100BB000D01A704770477047704710B500F072FC4C
:100BC000083010BD704770477047704738B504460D
:100BD0000A4600206946AFF30080002808BF38BDF0
:100BE00002460099204600F068FC012038BD012033
:100BF00001F0D6BCF8B5AFF30080054600200C46E6
:100C0000102000BF0646A819A0420DD932466946F9
:100C10000020AFF30080070008BF01F0C1FC00987E
:100C2000A04218BF0546C419FFF7C7FF0560074675
:100C3000F01D20F007004619284600F00AF8B442DB
:100C400008BFF8BDA21B31463868BDE8F84000F087
:100C500034BC00210160C0E901100C3004F024BD57
:100C60001020704770B516460D46041F002808BFB7
:100C700070BD002E1CBF05F10C0004F005FD2B46D5
:100C80005868002818BFA04238BF0346F8D3196837
:100C9000CA18A24218BF5C6003D122681C461144E6
:100CA000196021680A19824218BF606004D1426845
:100CB0006260006808442060002E1CBF05F10C0033
:100CC00004F002FD70BD10B50446FFF776FF016821
:100CD0002046BDE810400122C4E770B5044685698E
:100CE0000068C10601D5302600E02026C00707D0E5
:100CF00070BDD4E9012130469047206A401C206233
:100D00006D1EF6D570BD70B5044685690078C007C4
:100D100007D170BDD4E9012120209047206A401CF2
:100D200020626D1EF6D570BD09684A0501D540B236
:100D30007047C905FCD500B2704709684A0501D55E
:100D4000C0B27047C905FCD580B2704770B50C467B
:100D50000546012A05D02878800600D5EA690023D7
:100D600002E0012305E05B1C934202D2E05C002814
:100D7000F9D1A869E618C01AA861286A184428623F
:100D80002846FFF7AAFF04E0D5E9012114F8010B7A
:100D90009047B442F8D32846FFF7B5FF70BD000076
:100DA0002DE9F0410646002410687529314616A544
:100DB00010D0FFF7B9FF002802DA404213A507E080
:100DC00031688A0701D512A502E0490704D511A5AB
:100DD000012401E0FFF7B1FF00210A2206F12407F8
:100DE00009E0B0FBF2FCB0FBF2F302FB1C00303078
:100DF00078541846491C0028F3D123462A46304629
:100E0000BDE8F04100F0C9BB000000002D0000006B
:100E10002B0000002000000011680268006A5305E2
:100E200001D508700AE0D30501D5088006E0130655
:100E300003D5C217C1E9000200E008600120704735
:100E400001694A1C02610878704700B58FB0CDE98E
:100E500001310021059105497944CDE9031011467E
:100E6000684600F031F90FB000BD0000E5FFFFFF5C
:100E70000A6802F8010B0A607047D1E900239A4220
:100E800002D2531C0B601070704700002DE9FF5F09
:100E900015468A460446DFF8AC80F8440027D8E9B6
:100EA00000103E46CDE9001010E03AF816106A46F0
:100EB00002A801F051FB411C07D02178890603D517
:100EC000E269391891420DD80744761C20788006D3
:100ED00002D5E069B84205DDAE42E6DB3AF816001D
:100EE0000028E2D1A069C01BA0612046FFF7F5FEF3
:100EF000D8E90010CDE90010002017E03AF81810EA
:100F00006A4602A801F028FBB0F1FF3F81460BD0F2
:100F100000250DF1080B05E0D4E901211BF80500BF
:100F200090476D1C4D45F7D308F10100B042804653
:100F3000E4DB206A384420622046FFF7E4FEBDE887
:100F4000FF9F00009E9300002DE9F0418046D21DD6
:100F500022F007020025D2E90002F52915A614D0D7
:100F6000011E72F1000106DA0023D0EB030063EBEF
:100F7000020211A608E0D8F800108B0701D50FA6D1
:100F800002E0490701D50EA601251146002408F10B
:100F9000240704E000F0B3FA30323A55641C50EAFA
:100FA0000102F7D12B46324621464046BDE8F041CA
:100FB00000F0F3BA000000002D0000002B0000003C
:100FC0002000000030B4002100F1240408E002F009
:100FD0000705D208303542EA4372DB086554491CE4
:100FE00052EA0305F3D10468002310A2250708D5AF
:100FF00004F020040C4304D0C46901230CA2641E35
:10100000C46130BC00F0C9BA10B50446214610686E
:10101000FFF793FE02462046BDE810400023D1E7CB
:10102000D21D22F00701D1E90023CBE70000000028
:1010300030000000F0B40D460188090502D5214CAE
:101040007C4402E01F4C7C440E34002100F1240655
:1010500008E002F00F071209E75D42EA03721B097C
:101060007754491C52EA0307F3D102780023120790
:1010700004D5702D06D009B1022311342246F0BCEC
:1010800000F08BBA01231034F8E770B504460D4622
:1010900021461068FFF751FE024629462046BDE86A
:1010A00070400023C6E7D21D22F00703D3E90023D6
:1010B000C0E70368126843F0200303600823C3619C
:1010C0000023B7E7009200002DE9F05F894604464F
:1010D0004FF0000ADFF874B1FB44C0F820A02046AE
:1010E000E1688847002874D0252806D0D4E901217A
:1010F0009047206A401C2062F1E700265F462046A8
:10110000E16888472028054607DB312D05D278198C
:1011100010F8200C08B10643F1E7B00701D526F01E
:101120000406C4F81CA00027C4F818A02A2D09D072
:10113000284607F009FC38B304EB8708303DC8F8AF
:10114000185019E059F8041B204604EB87029161FE
:10115000E1688847012F054618D1E069002820DAA8
:1011600026F020061DE0D8F8180000EB800005EB03
:1011700040003038C8F818002046E1688847054626
:1011800007F0E2FB0028EED1012F0AD02E2D08D166
:101190002046E16888477F1C0546022F46F020065E
:1011A000C4DBA069002803DA404246F00106A061D2
:1011B000F00701D026F010066C2D0BD0682D09D059
:1011C0004C2D39D06A2D35D0742D35D07A2D33D0B1
:1011D00016E038E0E1682F4620468847B8420546C9
:1011E00009D16C2F26D04FF48060E1680643204679
:1011F0008847054604E06C2F1AD04FF480700643F0
:101200000DB3A5F14100192802D8203546F4006637
:101210004A462946204626604E46FFF707F880B129
:1012200001280BD0F61D26F0070000F1080956E74B
:101230004020E4E78020D8E70020D6E706F1040943
:101240004DE7284652E7206ABDE8F09F90910000E4
:10125000026811441378016018467047D16005494F
:1012600079445161044979441162002111611146A8
:1012700000F0A4BDEDFFFFFF1F030000426842B174
:10128000016811F8013B23B1521EC0E90012184653
:1012900070470121C160881E704742685AB1C36817
:1012A000016843B983688B4205D0491E521CC0E9CE
:1012B0000012002070474FF0FF3070472DE9F041D9
:1012C000044616460D464769007B80072ED03846F7
:1012D00004F019FA50BB3EB3012E02D0022E25D1E4
:1012E00004E0204601F033F805441DE0384604F0E0
:1012F00001FAE168002841F01001E16005DA2046BA
:1013000000F058F80120BDE8F081C9030BD56268F0
:10131000E16A914200D81146A26911442269891AF2
:10132000814200DD08460544002D01DA0220EAE78B
:10133000E16A6068E268814206D29103E06203D507
:1013400022F4003141F01002A6690027AE4213DCFE
:10135000E16A814201D90B4600E0034603EB060C2B
:101360002369ACEB030CAC4506DD814201D98C4608
:1013700000E084469C4505D1A760276042F020002C
:10138000A5620DE0AD1BE669AE1B8142A66000D9E7
:101390000846C01A281A20605819606022F0200000
:1013A00003490840E060002084F84870ABE7000083
:1013B000BFCFD7FFC16821F4001141F08001C160A7
:1013C00000218160016070472DE9F0478146144695
:1013D0000E464FF0FF383248D5685769054209D0AC
:1013E0003846A16904F0D9F9002811DB2C48C04324
:1013F0000540E5602B4632464946384604F0D8F9A8
:10140000A16920F00042B21A11440028A16103D062
:101410002046FFF7CFFF4046BDE8F08770B5044691
:101420000569C06A6168884200D80846E16821F40D
:101430002011E160C90312D5A84208D02246411B01
:101440002846FFF7C1FF10B14FF0FF3070BD0020FC
:10145000E562C4E90150E06820F48030E0600020DB
:1014600070BD10B50446C06820F02000E060A16A9D
:10147000A06988420DD02046FFF7D0FFE06820F435
:10148000405040F01000E060A06AA0612069E06276
:10149000606044F24001E0688843E06010BD0000F5
:1014A0001000020000487047BC040020801A084465
:1014B000401E491E88431044704770B514460546C7
:1014C0008C464368002B18BF634538BF1846F8D3D5
:1014D00002681044604508D0664660460422082130
:1014E000FFF7E4FF811B8446641A2946CCF80040CC
:1014F000BDE8704000220CF10400FFF7B3BB30B52B
:10150000B0F10A0271F100034FEA900E4EEA817EBB
:10151000B0EB0E0061EB91014FEA101E4EEA017E26
:1015200010EB0E0041EB11114FEA102E4EEA016E46
:1015300010EB0E0041EB11214FEA104E4EEA014E26
:1015400010EB0E0041EB1141401841F100014FEA50
:10155000D00040EA41704FEAD1014FEA810444EAE9
:10156000907410EB800544EB01046D1944EB040406
:10157000521BA3414FF0000348BF0A3200D530BDD3
:10158000401C41F1000130BD10B5044601F036F8B1
:101590000068005D00F0010010BD2DE9F0470D4628
:1015A00099469246044600F124080168880604D54D
:1015B000E06921F01001216000E00120A84201DD76
:1015C000471B00E00027A1697A1902EB0900081AFD
:1015D000A0612078C00602D42046FFF77EFB0026DB
:1015E00008E0D4E901211AF806009047206A401C5F
:1015F000761C20624E45F4DB2078C0060AD52046D2
:10160000FFF76BFB06E0D4E9012130209047206A08
:10161000401C2062381EA7F10107F4DC07E0D4E982
:10162000012118F805009047206A401C2062281EFE
:10163000A5F10105F3DC2046FFF765FB20780006E5
:1016400002D50220BDE8F0870120FBE72DE9FF4F1E
:101650000C461E464FF0FF378BB0D2E90001DDF893
:1016600060800A908A46C1F30A5505B93D460021BB
:1016700008464FF00000BAF1000F00F4400005DA10
:1016800000EB80004FF4400101EA50004FEA90590E
:10169000B9F1010F00DDB9460A9850EA4A000ED0B0
:1016A00044F61050A5F2FF3545432F14B8F1000F52
:1016B0001ED07542291E1EDDC9F100021CE0B8F1E2
:1016C000010F4FF0000001D0302103E0F24305E0AC
:1016D0002154401CB042FBDB304600220021215443
:1016E0000B99C1F80880C1E900200FB0BDE8F08F68
:1016F000BD1B6D1CDEE74A4600DA694206A800F011
:10170000D5FF06AB93E8070003AB83E8070050461C
:101710000A9906F073FB8DE80700A0F500501F380A
:1017200000900398002D0ADD42F21F014A4608444A
:10173000002303A90390684606F0DCFD09E0A0F54C
:1017400000504A461F38002303A90390684606F05C
:10175000E6FD8DE807000004000C03D04FF0FF30D9
:10176000410800E01046B8F1000F03D000220092BB
:1017700015461EE0751E05D4FFF7C1FE30326255D6
:101780006D1EF9D5B3460122084302D000227F1C0A
:1017900004E02078302801D100227F1E002A09971A
:1017A00084D01DE0112D07DAFFF7A9FE3032625513
:1017B0006D1C50EA0102F5D1084302D00098C8B16F
:1017C0000EE00021681E05E0235C625C6354225435
:1017D000401E491C8142F7DBAB46A81B401E099006
:1017E000002004F80B000B98099AC0F80880C0E9A3
:1017F000002B7AE711264FF0000857E72DE9F04F4C
:1018000088460446D21D22F0070191B0D1E90001BB
:10181000CDE90A0106F0E2FE02460B98C00F01D0A6
:101820002D2007E02068810701D52B2002E0202130
:1018300001EAC000032A099001D0072A05DB03460C
:101840004146204600F0F2FE0BE12078800601D5EB
:10185000E06900E00620B8F1650F814606D0B8F1D6
:10186000660F18D0B8F1670F70D131E00020B9F1E0
:10187000110F009001DB112301E009F101030AAA15
:1018800001A90CA8FFF7E2FEDDE90C70002609F1C2
:101890000105834647E001204B4600904FF000478A
:1018A0000AAA01A90CA8FFF7D1FEDDE90DB00C9939
:1018B0005D46002610B909F101000D18B9EB0500CD
:1018C00003D4C0F1FF3609F10105A5EB09002BE0B7
:1018D000B9F1010F01DA4FF001090020B9F1110F40
:1018E0000090484601DD112300E003460AAA01A941
:1018F0000CA8FFF7ABFEDDE90C704D4600268346D1
:10190000207800070AD4AB4500DA5D4601A8012D16
:1019100004DD411911F8011C302907D04F4502DAC6
:1019200017F1040F04DA012082460FE06D1EEEE786
:10193000002F02DCED1B3E4403E0781CA84200DDD2
:101940007D1CB81B00F1010A4FF00047207800070A
:1019500003D4AA4501DB4FF0FF3A0021B7F1004F55
:101960000DF143088DF8431024D002202B23002FC3
:1019700001DA7F422D230A21021EA0F1010000DCC2
:101980005FB197FBF1FC97FBF1F201FB1C7C174662
:101990000CF1300C08F801CDEEE7A8F1010003705E
:1019A0002188090501D5452100E06521A0F1010844
:1019B00000F8011C09980FA9A1EB0807FF1D00B151
:1019C0000120411901EBEA70A1693844081A401E50
:1019D000A0612078C00602D42046FFF77EF909985E
:1019E00028B1D4E901219047206A401C2062207868
:1019F000C00622D52046FFF770F91EE0002E04DB5A
:101A0000B34502DD01A8805D00E03020D4E901216A
:101A10009047206A401C2062761CAAF101005FEA10
:101A2000000A0AD100F0F2FDC0680168405CD4E908
:101A300001219047206A401C2062281EA5F1010563
:101A4000DCDC07E0D4E9012118F8010B9047206A9B
:101A5000401C2062381EA7F10107F3DC2046FFF787
:101A600052F9032011B041E62DE9F04F04460D462E
:101A7000D21D22F0070089B0D0E9009748463946C8
:101A800006F0ACFD0246F80F01D02D2307E02068D8
:101A9000810701D52B2302E0202101EAC0038DF844
:101AA00020300BB1012000E00020032A824601D043
:101AB000072A04DB2946204600F0B8FD3FE12078E4
:101AC000800601D40D2500E0E569C7F30A560D2D07
:101AD00049DA00214FEA175B08464FF00000002F5B
:101AE00000F4400007DA00EB80004FF4400100EB07
:101AF000D07001EA60008115012901DD4FF0FF314E
:101B000000224FEA850CBCF1180F06D31346ACF146
:101B100018004FF08052C24003E04FF4801323FAC4
:101B20000CF30CF10C0CBCF1200F04D3ACF1200C25
:101B300009FA0CF001E007FA0CF000294FF0004818
:101B400001DD18B90FE00ED140450CD319EB0209A5
:101B50005F4121B9404502D19F4329EA0209BBEB0D
:101B6000175F00D0761C2088000502D57B4878449A
:101B700002E07A487844193808AA302302F80A307B
:101B8000037C0AF10101002E0AF1020A53546A464D
:101B900002DC4FF0300101E04FF031014FF001085D
:101BA0008DF8001002D0A6F2FF3603E059EA470193
:101BB00000D06B4E002D02DC2178090704D54FF0D0
:101BC00002082E218DF80110C44600210BE0C7F356
:101BD00003433F01C35C491C6D1E02F80830052910
:101BE00008F1010801DA002DF1DC00210CE000EB26
:101BF0001973491C1B786D1E082902F808304FEA3A
:101C0000091908F1010801DA002DF0DC21688B06C2
:101C100002D516E0A8F10108E04505DD02EB080356
:101C200013F8013C302BF5D0B8F1000F09DD02EBC1
:101C3000080313F8013C2E2B03D1090701D4A8F1A6
:101C40000108002D05DD3E2102F808106D1E08F187
:101C50000108407C002E02F8080008F1010804DAAF
:101C60002D20764202F8080002E02B2002F808003E
:101C70000A214FF47A70864208F101080BDB96FBCB
:101C8000F0F3303302F8083096FBF0F308F1010866
:101C900000FB136601E0642E0CDB642096FBF0F37E
:101CA000303302F8083096FBF0F308F1010800FB2E
:101CB000136601E00A2E06DB96FBF1F0303002F8E5
:101CC000080008F1010896FBF1F001FB10603030CC
:101CD00002F80800A16908F1010808EB050202EB0F
:101CE0000A00081AA0612078C00602D42046FEF738
:101CF000F4FF216A08AE01EB0A00206204E0D4E997
:101D0000012116F8010B9047BAF1010AF7D22078A9
:101D1000C00602D52046FEF7E0FF6E4609E016F841
:101D2000010B3E280FD0D4E901219047206A401CC6
:101D30002062B8F10108F2D22046FEF7E4FF09B0B4
:101D40000320BDE8F08F206A2844206203E0D4E934
:101D50000121302090476D1EEBD3F8E71E8700006D
:101D600002FCFFFF10B5436913B1AFF3008001E03F
:101D7000FEF7ECFF012010BD127800F124010A707B
:101D800000224A700122EDE711684FF0FF32E9E7C7
:101D900010B5436913B1AFF3008001E0FFF776F8A7
:101DA000012010BD128800F1240182840022C28427
:101DB0000122EDE711684FF0FF32E9E72DE9F34F1B
:101DC0004FF0000A0C4656468DB001200C9001F1F0
:101DD0000C000B9062690B9801219047051E2DD0D5
:101DE000252D2CD0216A8847C0B162690B9801214A
:101DF0009047216A88470028F7D16269411E0B98F5
:101E0000904700E0761CA1690D988847216A8847B1
:101E10000028F7D1E1690D988847DBE7A1690D98A3
:101E20008847A842074601D1761CD3E7E1690D989F
:101E300088477F1C02D1BAF1000F6FD06BE1626955
:101E40000B9800273D46394690472A2804D16269FD
:101E50000B98012190470125DFF8D08262690B9829
:101E600001219047A0F130010A290AD24745E5DC5B
:101E700007EB870100EB4107303FDFD445F0100549
:101E8000ECE7E90601D46FF000476C280AD04C2833
:101E900014D0682815D06A280DD074281CD07A2850
:101EA0001AD01DE062690B98012190476C2802D07E
:101EB00045F0040514E045F002050DE045F020056D
:101EC0000AE062690B9801219047682802D045F02A
:101ED000080505E045F4006562690B98012190470B
:101EE000C4E9015765283DD019DC58287AD00CDCAC
:101EF000452837D004DC252826D041289ED131E062
:101F000046282FD0472899D12CE05B2877D061282C
:101F100028D063287CD0642823D15AE0F6E06F28CB
:101F200048D008DC66281DD067281BD0692821D03E
:101F30006E2816D127E0702845D0732868D0752800
:101F400047D078280DD14DE0A1690D988847252804
:101F500005463FF469AFE1690D9888476D1C3FF471
:101F60006AAFD8E00D9923466A466FF00100AFF3DF
:101F70000080C5E045F0400023464FF0000260605D
:101F8000A80736D43EE0E8077FF447AF2068011D7C
:101F900021600068290501D506701BE7290701D5D6
:101FA000068017E7A90703D5F117C0E9006111E71B
:101FB00006600FE745F0400023464FF008026060DE
:101FC000A80716D41EE040F60E0125EA0100606065
:101FD00016E045F0400023464FF00A026060A80773
:101FE00007D40FE045F040006060A80708D52346FD
:101FF00010220D996FF00100AFF3008080E007E040
:10200000102223460D996FF00100AFF3008077E0B6
:102010004FF0000963284F46C8464B46CB4602D0D6
:102020005B2806D038E0E80601D40120A060012733
:1020300032E06269D4F80CB00B98012190475E2819
:1020400007D14FF0010949466269D4F80CB00B98EA
:102050009047216939B900210A4603AB43F8212092
:10206000491C0829FADBD8B3216949B308F10108F2
:1020700062690B98012190475D28F4D1B9F1000FF6
:1020800009D0002003A951F82020D24341F8202094
:10209000401C0828F7DB03AB2069002820794FEAB1
:1020A00040701ED05B462246CDF80080CDE90197F6
:1020B0000D9900286FF0010020DAAFF300801FE0D7
:1020C000C11703AA00EBD1614B1121F01F0102EBF4
:1020D0008302411A13680120884003431360C7E755
:1020E00019E00D99224600286FF00100009702DAEE
:1020F000AFF3008004E0FEF7A3FA01E0AFF3008045
:1021000000280ADA401C06D10C9820B14FF0FF30AD
:102110000FB0BDE8F08F5046FAE7E90701D10AF1A8
:10212000010A064400200C9054E60000CCCCCC0CF4
:10213000704710B54FF0FF34C1688A020FD5036BAA
:1021400042689A420BD1014690F82520104600F0D3
:102150003DFC401C01D1204610BD002010BD11F0F7
:10216000C00FF8D1026941689142F4D90268491E52
:10217000521CC0E90021F0E72DE9F04705460C4666
:10218000C86820F4201040F48000C860800602D5A2
:102190000846FFF766F9E06841F282014FF0FF3927
:1021A0000140022903D02046FFF704F9B5E000F40E
:1021B0002041B1F5004F0FD1C00306D56168E06A38
:1021C000884200D80846606006E02069E0626060EE
:1021D000606903F08FFAA061A0680022EEB20028C7
:1021E0000DDAE1688B050AD4C043A06041F4903059
:1021F0002260E0606068411C61600670A5E0E068F4
:102200009046226040F40050E060206968BB60693D
:1022100003F079FA012704F12405A0B1A08910F494
:10222000407F08D0E069FEF746F9206118B1E06808
:1022300040F4006016E0E7612561E06820F440703A
:1022400040F480600EE0E069FEF735F90028206177
:10225000F1D0E06840F4006010F4407FE06002D10B
:1022600040F48070E06020696060E06825696FF08C
:10227000010AC1051FD56168E06A884200D8084696
:10228000411B04D022462846FFF79EF8F0BBE068C9
:10229000010203D5E562C4E9015854E0691CE1621A
:1022A0006160E16940F48030491EC4E902103046A3
:1022B0002E70BDE8F087010202D500F480320AE0FA
:1022C0006068411C61600670E0680A2E40F480304E
:1022D000E06006D00022E16A6068814203D90B46C3
:1022E00002E00122F7E70346A7895B1B7F0503D4C1
:1022F000E7699F4200DDE2B1814200D80146E56214
:102300000F1AC4E90158002B09DD00E005E0224660
:1023100019462846FFF758F808B14846C9E747B1BB
:10232000A069E5626560C01BA061E06840F0100034
:10233000E060E068000208D56168A069E562491BB9
:1023400008446560A0615046B3E73046B1E710B578
:102350000146C268900703D0900607D5886A0AE054
:1023600000F059F901210160881E10BD8B69486891
:1023700018440B69C01A91F848301BB191F8491004
:10238000401A10BD1103FCD50028FADD401E10BD17
:1023900010B565485421FEF7A5FB64485421FEF7AB
:1023A000A1FB63485421FEF79DFB62485E49624AE7
:1023B000624B01605D4810605D4A1A60431C0B650A
:1023C000511C01650120106557484C3003F06CF931
:1023D00056484C3003F068F955484C3003F064F926
:1023E000574803F061F958484F4A56A17844FEF720
:1023F00076FA20B9544878440A3800F0B5FB5448BE
:102400004A4A52A17844FEF76AFA20B95048784403
:102410000A3800F0A9FB4F48454A4CA17844FEF722
:102420005EFA20B94B4878440A3800F09DFB4023FF
:102430003D48DC000021224600F0ECFA20B1424881
:102440007844543800F090FB38482246402300215D
:1024500000F0E0FA20B13E487844543800F084FBA4
:10246000334822461023002100F0D4FA002806D079
:1024700038487844BDE81040563800F075BB10BDB0
:102480002B482DE9F041006D2D4E20F0010430461F
:1024900003F0FAF8244D4C35284603F0F5F82248AD
:1024A000FEF73EF9284603F00FF9284603F0F9F845
:1024B0001E4D4C35284603F0E7F81C48FEF730F96E
:1024C000284603F001F9284603F0EBF8184D4C3587
:1024D000284603F0D9F81648FEF722F9284603F0FB
:1024E000F3F8284603F0DDF814E0206D20F0010534
:1024F00004F14C00074603F0C7F82046FEF710F938
:10250000384603F0E1F8384603F0CBF82046FEF7F2
:10251000DAFB2C46002CE8D1304603F0D5F8084809
:1025200003F0BFF8BDE8F081C003002014040020D0
:1025300068040020080000200C000020100000208B
:10254000040000207200000064800000770000009A
:10255000538000002C8000002DE9F04116460C4607
:10256000054600F04BF8036893F80101012807D0F5
:10257000FF2C12D8185D80B101202C70BDE8F081CD
:10258000D3F807013246214603F20713C71828463D
:10259000BC46BDE8F041002360474FF0FF30EDE757
:1025A00010B500F0E9FABDE8104000F0D8BA704765
:1025B0007546FEF777FFAE4605006946534620F0A4
:1025C0000700854618B020B5FDF7B8FEBDE82040ED
:1025D0004FF000064FF000074FF000084FF0000BDF
:1025E000AC46ACE8C009ACE8C009ACE8C009ACE84E
:1025F000C00921F007018D467047000010B500F0BA
:1026000005F8001D10BD00BFE57B000010B5FEF70A
:1026100049FF203010BD03F00FB810B5FEF7CDFA1A
:102620000068BDE8104000F0D5BA00002DE9F04187
:102630001F46044603260168072A01F4006004DBF4
:1026400008B116A505E016A503E008B115A500E040
:1026500015A521F010002060A069C01EA0610FB177
:10266000401EA0612046FEF738FB4FB1D4E901219E
:1026700038469047206A401C2062C01C206206E059
:10268000206AFAE7D4E9012115F8010B9047761E7C
:10269000F8D22046FEF737FBBDE8F0814E414E00F0
:1026A0006E616E00494E4600696E66002DE9F04786
:1026B000814616468AB0354878440DC88DE80D002D
:1026C00032487844801C03AC0DC884E80D0041F604
:1026D0009B300844372190FBF1F290FBF1F5A5F116
:1026E000800501FB12041B3C02D56442012000E07E
:1026F0000020DFF898A080460027FA44AAF1BE0A1D
:102700000EE0E0070AD03246684607EB4701012396
:102710000AEB810105F003FE8DE8070064107F1CC1
:10272000002CEED1194F7F44AE3F19E0E80715D0D9
:1027300007EB04100DF1180A90E80E008AE80E006D
:10274000C068F04201D1981908903246012306A9C9
:1027500003A805F0E4FD03AB83E807006D10641CDB
:10276000002DE3D14FF0010332466946B8F1000F66
:1027700003A802D005F0BEFD01E005F0D0FDC9E9D7
:102780000001C9F808200AB0BDE8F087647C0000A9
:1027900070B50D4601461446D36850692A4602F0CA
:1027A000EBFF002807DA411C07D0E16820F0004069
:1027B00041F48041E160281A70BD2046FEF7FAFD21
:1027C0004FF0FF3070BDC1680022026021F48051DB
:1027D00041F0400111F4C06FC16001D082607047C8
:1027E00002694168891AC269891A816070472DE9B6
:1027F000F0470446C06840F48000E060010312D551
:1028000020F40020E060810606D4E26A61688A4212
:1028100000D80A46511A216040F40010E06094F894
:102820002500BDE8F08720F40010E060800602D5A6
:102830002046FEF716FEE06842F281014FF0FF39B4
:102840000140012903D02046FEF7B4FDB6E021681F
:10285000002600290ADAC94340F480502160C4E907
:1028600002606068411C61600078DAE744F2400170
:1028700008420CD020F4A04040F040002660E06008
:1028800021696068401AE169401AA06096E02169F8
:1028900091B9C00310D4E069FDF70DFE2061B0B11D
:1028A000E06840F4006010F4407FE06002D140F442
:1028B0008070E06020696060E068D4F814A0C10610
:1028C0001AD5C0030ED52046FEF7A8FD14E004F18A
:1028D000240020610120E061E06820F4407040F4B1
:1028E0008060E6E721696068401AA16901445046AA
:1028F00002F053FF0028A6DBE068C0032AD5616818
:10290000E06A884200D808462169451AE069471BF9
:102910001BD02046D4F81880FEF780FD08EB050197
:102920005046C4F8188002F038FF00288BDBE068BE
:1029300040F40030E060000202D5A0692844A061A4
:10294000E1692069C91B45180DE02046FEF766FDC8
:10295000E769F5E725696168D4E90607491BE5627F
:1029600008446560A061E06820F0100010F4C06FBA
:10297000E06002D0204600F053F9E06840F4805057
:10298000C4E90260000205D52069E06260606FF072
:10299000010046E7224639462846FFF7F9FE411C6A
:1029A0000CD02918E16258B1401E2060681C60609C
:1029B000E06840F40030E060287832E7484630E7CD
:1029C00065602046FFF7FFFEF8E70000CA68431C79
:1029D0000FD00D4B1A420CD1D3070AD081F8250035
:1029E0004B680B6300238B6012F0C06F0B6003D049
:1029F00004E04FF0FF30704742F00072034B1A4082
:102A0000034B1A43CA60704780200800BFFFDFFFF6
:102A1000001048002DE9F04704461E4690460D463A
:102A2000C7684C30814602F02FFEB80714D07802F8
:102A300012D44046B8F5807F09D0B0F5007F06D0AB
:102A4000B8F5806F08D1012604F1240506E0701E58
:102A50006FF07F41884201D3012409E02561E661DE
:102A60006560E06820F4706040EA0800E0600024DF
:102A7000484602F029FE2046BDE8F0872DE9F05FC8
:102A80000E4680461C46924602FB06F503F14C00BA
:102A9000834602F0F9FD16B3A768002041E0002F3D
:102AA00041DCE069A8421CDAB9F1000F19D02246D6
:102AB00029464046FEF788FC08B1A76029E0E06897
:102AC00010F4C06F01D0002008E022696168891A03
:102AD000E269511AC003A16001D44842A060544683
:102AE00018E0A84203DAE06840F40000E060214604
:102AF00098F80000FFF740FBE16821F40001E16075
:102B0000411C06D0A76800280ADB6D1E08F10108E9
:102B100018E00024584602F0D7FD2046BDE8F09F9B
:102B2000012081460EE0AF423E4600DD2E46414682
:102B300032466068FDF73DFF6068BF1BAD1B304447
:102B4000B0446060002DAADCA760C8E710B5044659
:102B5000AFF300802046BDE81040FDF7DABB002847
:102B600001D000F031B8704710B500F0A1F8BDE811
:102B70001040FFF7F4BF000010B5012805D0002178
:102B800003A000F07BF8012010BD09A1F8E70000C8
:102B900053494752544D454D3A204F7574206F6646
:102BA0002068656170206D656D6F727900000000AE
:102BB0003A2048656170206D656D6F727920636F92
:102BC000727275707465640001491820ABBEFEE72F
:102BD0002600020010B50C3002F063FD10BD0000AD
:102BE0002DE9F04114460F46064600F14C052846F3
:102BF00002F04AFD08487844A0610848784422461B
:102C00003946E0613046FEF729FB0446284602F0CB
:102C10005BFD2046BDE8F081BF6D000033F5FFFF8E
:102C20002DE9F04707461348814602F02DFD124C6E
:102C300040F2022817E094F85000C00710D0BC42C0
:102C40000ED004F14C05284602F01EFDE668284629
:102C500002F03AFD38EA060002D12046FDF7A0FD59
:102C6000206D20F00104002CE5D1484602F02CFD37
:102C7000BDE8F08704000020C003002070B50546C1
:102C80000C460A2000E06D1C00F02CF835B12878C5
:102C90000028F8D102E0641C00F024F814B1207878
:102CA0000028F8D1BDE870400A2000F01BB80000F1
:102CB00010B5014602A0FFF7E1FF012010BD0000A2
:102CC00053494752545245443A20526564697265EB
:102CD00063743A2063616E2774206F70656E3A20CA
:102CE0000000000008B569468DF800000320ABBE67
:102CF00008BD80B502F07CFA002080BDB0B50B4D58
:102D000004460A212868B0FBF1F101EB8101A0EB38
:102D1000410119B906A003F063F828680130286062
:102D2000204602F08BFA0020B0BD00BF380500201D
:102D30002E000000002070470048704734A40008AF
:102D400081B00C480068009001B07047004870479F
:102D50000202000180B50748016821F0010101600D
:102D6000016821F00201016002F0A6FA80F0010082
:102D7000404280BD300500206FF00301032838BFBA
:102D800000210846704770B514460D46064606E019
:102D900015F8010B314602F0E5FB0136013C002C31
:102DA000F6D1002070BD80B503460846194602F0F2
:102DB000E3FA002080BD00207047FEE7014800F0E4
:102DC00031BD00BF0C060020014800F02BBD00BF44
:102DD0006C06002001686FF00F0240F2FF3352FAD8
:102DE00081F2994318235F2AB2FBF3F203A388BF51
:102DF000043181659A5CC26508467047000610166A
:102E00000006101670477047C449097851B1F44A5A
:102E1000C0F3C621515CC0F3022021FA00F000F09B
:102E2000010070470020704770B5BC4C264656F82C
:102E3000185F00F087FA56E8001F46E8000202B16A
:102E4000F9E7A942F2D1A84228BF70BD04F11001F0
:102E500051E8002F531C41E8003404B1F8E770BD7D
:102E6000F8B514460D460646FFF7CEFF98B1374633
:102E7000C0F20807FFF7D8FF0146EFF305800028EE
:102E800008BFB7B22A46234607F1407001B0BDE83B
:102E9000F04000F0C7B8012001B0F0BD2DE9F047C7
:102EA000994692460F460646FFF7AEFF58B33446A2
:102EB000DDF82080C0F20804FFF7B6FF0546EFF307
:102EC0000580002808BFB4B294480130D0E84F1FF5
:102ED0004A1CC0E8432F03B1F8E74FF4E0203A461C
:102EE000534600EA01462946A01900F1807000F01F
:102EF00099F858B1074829464A4643463043BDE849
:102F0000F04700F08FB80120BDE8F0870020BDE851
:102F1000F08700BF010000022DE9FC4707460020B2
:102F2000002900F077801546802A00F27380384629
:102F30000E46FFF769FFE0B13C46C0F20804FFF718
:102F400073FF8046EFF30580002808BFBCB295B13F
:102F5000082D15D8002031462A46CDE900006846E4
:102F6000FDF727FD05F0070044EA004000F140703E
:102F70004BE001204EE0204641460022002347E07E
:102F8000EE480130D0E84F1F4A1CC0E8432F03B180
:102F9000F8E74FF4E0203268736800EA01474146E1
:102FA00044EA0700CDE9002300F1807000F03AF810
:102FB000D8B14FF6017008360743184800EB052AD0
:102FC000083D092D13D33468D6F80490384641469D
:102FD00022464B4600F026F80836083DAAF5006A5E
:102FE00001370028EDD1CDE90049002012E0002092
:102FF00031462A46CDE900006846FDF7DAFC08486C
:10300000384040EA0A0040F00070009A019B4146B7
:1030100000F008F802B0BDE8F08700BF00F8FFFF3D
:10302000FF00FFFD2DE9F04F4FF0805791464FF024
:103030000052DFF8D8E29A468B466FF0070407EAA1
:10304000D10702EA9902384310434FF0804202EA66
:10305000530240EA0208B94800F1040C013400F0C0
:103060005180614651E8007F781C41E8000505B1B8
:10307000F8E707F03F0007F470770EEB001648EA18
:10308000873706F10C0547F0406255E8007FB9012B
:1030900003D3BFF32F8F002706E007F00047174345
:1030A00045E8007303B1F0E77901D7D587F0044212
:1030B0002BF00041000102F0004319444EF80010CB
:1030C0002AF0004029F0004118441944C6E90110D3
:1030D00055E8001F890103D2BFF32F8F002004E0C1
:1030E00045E8002303B1F3E7012058B193480830C5
:1030F00050E8001F4A1C40E8002303B1F8E7012014
:10310000BDE8F08F8D480C3050E8001F4A1C40E8A5
:10311000002303B1F8E70020BDE8F08F400C002049
:10312000FE294FF0000398BFFE2A27D82DE9F04171
:10313000DFF8CCE100234FF0010C4FF0000817E05E
:103140000CFA08F5054210D00D460CE003EBD5064D
:1031500005F0070401351EF806700CFA04F427EA9E
:1031600004040EF806409542F0D908F10108203316
:10317000B8F1040FE4D10123BDE8F04118467047CF
:10318000FE294FF0000398BFFE2A26D82DE9F04112
:10319000DFF86CE100234FF0010C4FF0000816E05F
:1031A0000CFA08F505420FD00D460BE003EBD506EF
:1031B00005F0070401351EF806700CFA04F43C43D0
:1031C0000EF806409542F1D908F101082033B8F114
:1031D000040FE5D10123BDE8F0411846704700BF58
:1031E000C00B00202DE9F047DFF850A181460020F8
:1031F000884680218AF800004148FDF773FC414B66
:1032000018214FF0FF3241F221064FF0FF3511E057
:103210001C7885EA04256FF0070407E02FB286EAE0
:10322000450001349742C8BF68000546002CF5D11F
:10323000013901330029EBD1DAF820003249884204
:103240001ED1BAF80200A9B288421BD1DAF81C409C
:10325000601C002CCAF81C0019D02C49002007E083
:103260000A181030D3685F0144BF23F04063D36075
:10327000B0F5806FF4D100F071F806460CBB15E094
:10328000CAF820100120CAF81C00AAF80250002039
:103290004FF48061CAE90100CAF80C008AF8010005
:1032A0001A48FDF71FFC00F059F80646002E4FF0B3
:1032B00000040CBF002000F04BF8CAE90440CAF833
:1032C0001840D6B1124C48460021FE22A0470F20DC
:1032D000EF21EF22A0470420FE21FE22A047FFF7A6
:1032E000A3FD0146DAF81C200A480023FFF79AFEE6
:1032F000B8F1000F18BF00F00FF83046BDE8F087B6
:10330000C00B00201CA400086B27A5E1C00700200B
:103310008131000800FF00030848017861B980B5D9
:1033200001210170FFF780FD0146054800220023BE
:10333000FFF778FEBDE8804001207047400C002078
:1033400001FF000301480068704700BF041000E05F
:1033500001480068704700BF1C0000200548016854
:1033600041F0807101600448016841F00101016091
:1033700001207047FCED00E0001000E0014602482B
:103380000022FFF76DBD00BF01F3010001460248B6
:103390000022FFF765BD00BF05F3020001464FF4B0
:1033A00073400022FFF75CBD014602480022FFF790
:1033B00057BD00BF03F30200014602480022FFF799
:1033C0004FBD00BF0DF5020001464FF471400022D1
:1033D000FFF746BD014602480022FFF741BD00BF8E
:1033E00006F10100014602480022FFF739BD00BF87
:1033F00014F10100024800210022FFF731BD00BF97
:1034000001F10100024800210022FFF729BD00BFA1
:1034100002F10200024800210022FFF721BD00BF97
:1034200007F10100024800210022FFF719BD00BF8B
:1034300008F10200E0B594460A46014602480093AE
:103440006346FFF72BFD8CBD01F002000A460146E2
:103450000148FFF705BD00BF04F00200E0B51346C8
:103460000A460146002000900148FFF717FD8CBD79
:1034700005F00200E0B594460A4601460248009372
:103480006346FFF70BFD8CBD03F00200E0B5134669
:103490000A460146002000900148FFF7FFFC8CBD62
:1034A00002F00200E0B513460A46014600200090F3
:1034B0004FF43C30FFF7F2FC8CBD0000014602489F
:1034C0000022FFF7CDBC00BF08F902000A46014602
:1034D0000148FFF7C5BC00BF03FA02000A460146D7
:1034E0004FF47A40FFF7BCBCE0B594460A4601466B
:1034F000024800936346FFF7D1FC8CBD0CFA010033
:10350000E0B513460A460146002000900148FFF747
:10351000C5FC8CBD0DFA0200014602480022FFF7EF
:103520009FBC00BF0EFA02000A4601460148FFF7A1
:1035300097BC00BF09FA02000A4601460148FFF79E
:103540008FBC00BF0AFA0200E0B513460A460146E6
:10355000002000900148FFF7A1FC8CBD01FA01009A
:103560000A4601460148FFF77BBC00BF0BFA020088
:103570000A4601460148FFF773BC00BF10FA02007B
:10358000E0B594460A460146024800936346FFF7B9
:1035900085FC8CBD06FA0100E0B513460A460146DB
:1035A000002000900148FFF779FC8CBD07FA02006B
:1035B000014602480022FFF753BC00BF08FA020090
:1035C0000A4601460148FFF74BBC00BF0FFA020054
:1035D0000A4601460148FFF743BC00BF06F7010059
:1035E0000A4601460148FFF73BBC00BF07F702004F
:1035F000014602480022FFF733BC00BF08F7020073
:103600000A4601460148FFF72BBC00BF09F702003C
:103610000A4601460148FFF723BC00BF03F702003A
:10362000014602480022FFF71BBC00BF0EF7010055
:10363000014602480022FFF713BC00BF0FF702004B
:103640000A4601464FF47740FFF70ABC014602489C
:103650000022FFF705BC00BF01F701000146024848
:103660000022FFF7FDBB00BF0AF702000146024837
:103670000022FFF7F5BB00BF0BF701000A46014629
:103680000148FFF7EDBB00BF0CF702000A460146F8
:103690000148FFF7E5BB00BF06F801000A460146F6
:1036A0000148FFF7DDBB00BF07F8020001460248F2
:1036B0000022FFF7D5BB00BF08F802000A4601460A
:1036C0000148FFF7CDBB00BF09F802000A460146DA
:1036D0000148FFF7C5BB00BF03F802000A460146D8
:1036E0004FF47840FFF7BCBBE0B513460A460146ED
:1036F000002000900148FFF7D1FB8CBD01F80100CC
:10370000014602480022FFF7ABBB00BF0AF80200E7
:10371000014602480022FFF7A3BB00BF0BF80100DF
:103720000A4601460148FFF79BBB00BF0CF80200A8
:103730000A4601460148FFF793BB00BF16F203009B
:103740000B4601460348002A0CBF1A462930FFF7F2
:1037500087BB00BF03F20200014602480022FFF7C8
:103760007FBB00BF1CF202000A4601464FF47240C4
:10377000FFF776BB024800210022FFF771BB00BFB4
:103780001AF20100E0B594460A4601460248009349
:103790006346FFF783FB8CBD09F402000146024833
:1037A0000022FFF75DBB00BF08F40200014602489B
:1037B0000022FFF755BB00BF06F201000146024898
:1037C0000022FFF74DBB00BF15F20200E0B5134623
:1037D0000A460146002000900148FFF75FFB8CBDC0
:1037E00001F20100014602480022FFF739BB00BF89
:1037F00018F20300014602480022FFF731BB00BF68
:1038000019F202000A4601460148FFF729BB00BF32
:1038100017F203000A4601460148FFF721BB00BF2B
:1038200001F60200F8B5044600200821009058482F
:103830000568D4E916603768814039420CD02268A7
:1038400013685B0708D5136823F004031360B160A5
:10385000616D41F00101616501218140394208D06B
:1038600022685269120604D5B160616D41F002010F
:10387000616504218140394208D0226812689207AC
:1038800004D5B160616D41F0040161651021814092
:10389000394217D020680268120713D5B160026858
:1038A0000168520306D4C9055EBF016821F0080112
:1038B000016001E0080301D4216C00E0A16C09B1B2
:1038C00020468847E16D202000FA01F23A423BD0C1
:1038D00020680368DB0637D5B26094F8353002689B
:1038E000052B19D122F016020260426922F08002F3
:1038F0004261226C0AB9A26C1AB1026822F0080275
:1039000002603F208840B060012084F8350000202C
:1039100084F83400216D37E0016852030CD4C905E6
:103920000ED4016821F010010160012084F83500F7
:10393000002084F8340003E0080301D4616C00E047
:10394000E16B09B120468847606D00B3606DC00728
:1039500019D005214FF4165084F83510B5FBF0F05E
:1039600021680A6822F001020A60009A013282424C
:10397000009202D80A68D207F7D1012084F83500F6
:10398000002084F83400E16C09B120468847F8BD76
:103990001C0000202DE9F041044600F059F9002CEC
:1039A0004FD00546022084F83500002084F834000A
:1039B0002168086820F00100086005E000F048F97F
:1039C000401B052840D821680868C007F6D1086860
:1039D000394AD4E9013504F10C0800EA020C98E8F0
:1039E000C101D4E9072E43EA0C032B431843636A51
:1039F00030433843042B40EA080040EA020040EA22
:103A00000E0225D1D4E90BE042EA0E02BEF1000F0E
:103A100040EA0200086051F8140FA26A20F0030087
:103A200040EA020040F0040C19D0B8F5005F28D03D
:103A3000B8F1000F35D1022A36D0012A2BD09AB323
:103A40000DE00120BDE8F08103252023032013E0D1
:103A50000A6051F8140F20F0070040EA030C2046DA
:103A6000C1F800C0FFF7B6F9E16D3F220023012540
:103A700002FA01F181600020636584F83550BDE8E9
:103A8000F081032AEBD8012540230120DFE802F072
:103A9000020C0203F0E7AEF1C070B0FA80F040090A
:103AA00004E0032A04D3DAD1CEF300600028D6D094
:103AB000012540230120DFE73F8010F02DE9F84F7A
:103AC0005B4A4FF0070A4FF0010B4FF000084FF030
:103AD000000E9042574A08BF4FF0040A02444FEAD2
:103AE000B223042B38BF4FEAB22A0022102A08BFA3
:103AF000BDE8F88F0B680BFA02F6334200F09180B4
:103B00004B6843F01004122C13D16FF003040EF035
:103B10001C030F2704EA520507FA03FC05442C6A2C
:103B200024EA0C0C0C6904FA03F343EA0C032B623D
:103B30004B68032703F00305122B07FA08F4076804
:103B400005FA08F56FEA040C27EA040747EA0507B7
:103B5000076013D80BFA03F414F0061F0ED0846824
:103B6000CD6804EA0C0405FA08F52C438460C3F31D
:103B7000001445689440B5432C434460C4688D6884
:103B8000DB0004EA0C0705FA08F547EA0507C760F9
:103B900047D50023284C0EF00C0500935B4BA44640
:103BA0001F461B6843F480433B603B6803F480433B
:103BB000009322F003032344214C009FA1461F5988
:103BC0000F24AC400AFA05F5A7432F4343F80970C8
:103BD000DCF800304D6843EA0607EC0358BF23EADF
:103BE0000607CCF80070AC03DCF8043043EA0607A3
:103BF00058BF23EA0607CCF80470EC02DCF8083062
:103C000043EA060758BF23EA06070C4BCCF80870B6
:103C1000AD021C461B6843EA060758BF23EA0607A5
:103C2000276008F102080EF1040E01325EE700BFC2
:103C3000001002400000FEBF003C01400C3C01406F
:103C400008FCFFFF002A08BF0904816170470000DB
:103C500006480068704700BF0348044900780A68B6
:103C600010440860704700BF14000020C4210020E9
:103C700080B50B48016841F400710160016841F4AE
:103C800080610160016841F480710160032000F0EF
:103C90008DF8002000F006F800F040F8002080BD0C
:103CA000003C0240B0B586B001461A200022002434
:103CB00000F05EF81A2000F04DF8144801940168F5
:103CC00041F4802101606946006800F48020019081
:103CD000019801A800F00AF900F02EF90E4D0C49E8
:103CE0000C4B40F2E732B0FBF5F00138C1E900308F
:103CF0000846C1E902420C6100F0C1FC08B1012094
:103D000002E0034800F0D6FC06B0B0BD44380240E3
:103D1000240700200048014040420F0082B00020EC
:103D20000B4901904A6842F480424A604A6802F4B2
:103D300080420192019A0090086840F0805008602B
:103D4000086800F080500090009802B0704700BFF3
:103D500040380240002808DB00F01F010122400922
:103D600002FA01F1014A42F82010704700E100E038
:103D700080B5144B1B68C3F3022CBCF1030E8CF00E
:103D800007034FF0FF3C38BF4FF0000E042B28BF55
:103D900004230CFA03F399430CFA0EF301FA0EF123
:103DA0009A431143BDE8804001F034BC05494FF609
:103DB000FF030A681A4060F30A22034810430860B0
:103DC000704700BF0CED00E00000FA052DE9F0415E
:103DD000002800F08380434B04468846D3F8000453
:103DE00000F00F00884207D283F80084D3F8000463
:103DF00000F00F00404571D12068810711D54107BF
:103E000042BF996841F4E0519960010742BF996847
:103E100041F4604199609968A26821F0F001114372
:103E20009960C0072AD06068811E022903D21968F0
:103E3000890109D452E0012803D11968890303D408
:103E40004CE01968890749D599681D4621F003019E
:103E500008439860FFF7FCFE064641F28837A868E1
:103E600061682B4600F00C00B0EB810F06D0FFF725
:103E7000EFFE801BB842F2D9032430E0D3F80004EF
:103E800000F00F00404507D983F80084D3F8000400
:103E900000F00F00404521D12068410705D5996801
:103EA000E26821F4E05111439960000706D5986853
:103EB000216920F4604040EAC10098601C4600F08F
:103EC0004BF8A168084A0024C1F30311515CC840B3
:103ED0001E4908600020FFF7E5FE00E001242046AF
:103EE000BDE8F08100380240D8A300080F2202602C
:103EF000174A136803F003034360136803F0F003E9
:103F00008360136803F4E053C3604FF4E053D2F8C6
:103F100000C003EADC030361D2F8F80300F00F00ED
:103F20000860704709480A490A4A00680968C1F3ED
:103F30008221515CC840704704480549054A006821
:103F40000968C1F34231515CC84070471C00002031
:103F500008380240E8A3000810B5134C606800F070
:103F60000C00082804D0042814BF1048104810BDC5
:103F7000226820680023400202F03F020C485CBF28
:103F800042F20040C0F2F4002168C1F38811A0FBA6
:103F90000101FCF79AFA21680222C1F3014102EB08
:103FA0004101B0FBF1F010BD043802400024F400E0
:103FB00040787D012DE9FC41002800F00581044690
:103FC0000078AF4EC0072FD0B06800F00C00042876
:103FD00023D0B06800F00C00082802D170684002BD
:103FE0001BD46768B7F5803F07D03068B7F5A02FBE
:103FF00040F00B8140F480203060306840F4803025
:104000003060FFF725FE0546306880030CD4FFF7CB
:104010001FFE401B6428F7D99DE03068800303D55C
:104020006068002800F0D080207880072BD5B06829
:1040300010F00C0F07D0B06800F00C00082809D170
:104040007068400206D43068800715D5E068012802
:1040500012D0B9E0E1688B4800297ED001210160CF
:10406000FFF7F6FD05463068800705D4FFF7F0FD41
:10407000401B0228F7D96EE03068216920F0F80073
:1040800040EAC10030602078000721D5606978B12E
:104090007C480121C0F8801EFFF7DAFD0546706FED
:1040A000800715D4FFF7D4FD401B0228F7D952E052
:1040B00074480021C0F8801EFFF7CAFD0546706FE6
:1040C000800705D5FFF7C4FD401B0228F7D942E061
:1040D0002078400770D5306C4FF00008C0000CD439
:1040E000CDF804804FF00108306C40F0805030640F
:1040F000306C00F0805001900198634F3868C00523
:104100000FD4386840F480703860FFF7A1FD054691
:104110003868C00505D4FFF79BFD401B0228F7D97E
:1041200019E0A768012F05D0306F052F25D140F089
:1041300004003067306F40F001003067FFF788FD02
:10414000054641F28837306F80072ED4FFF780FD97
:10415000401BB842F7D9032037E000210160FFF788
:1041600077FD0546306880077FF58DAFFFF770FD5E
:10417000411B03200229F5D927E020F00100306718
:10418000306F20F004003067FFF762FD0546002F16
:10419000D7D141F28837306F800706D5FFF758FD39
:1041A000411B0320B942F6D90FE0B8F1000F1EBF42
:1041B000306C20F080503064A769002F5DD0B0686B
:1041C00000F00C00082803D1012002B0BDE8F08106
:1041D0002C49002088460866FFF73AFD0546022F65
:1041E00009D13068800128D5FFF732FD411B03203B
:1041F0000229F6D9E9E7306880013ED5FFF728FDAE
:10420000411B03200329F6D3DFE720F48030306020
:10421000306820F480203060FFF71AFD0546002F3B
:104220007FF4F2AE306880037FF5FEAEFFF710FD3D
:10423000411B03206429F5D9C7E704F11C078FCF80
:104240000843D90340EA82104FF6FF72914340EAD7
:104250000760A1F58031084370600120C8F8600054
:10426000FFF7F6FC04463068800106D4FFF7F0FC47
:10427000011B03200229F6D9A7E70020A5E700BF0C
:1042800000380240000047420070004070B5C8B3DB
:10429000002605464FF0000C866290F8510030B9B8
:1042A000284685F8506000F031F8D5F828C0022182
:1042B00085F8511029680A6822F040020A60D5E9A1
:1042C0000123D5E903041A4310436A6920431043CC
:1042D000AA6902F400731843EB6918432B6A184368
:1042E00040EA0C000860042000EA12406A6A1043A9
:1042F0004860C86920F40060C86101206E6585F8D7
:10430000510000E00126304670BD000010B586B0B7
:10431000044601A81421FCF7E5FB216814488142FA
:1043200024D10021134A00F5E6300091136943F4CB
:1043300080431361136903F480430093009B009151
:10434000136843F002031360126802F00202009245
:10435000009A052205920322CDE90312022102915F
:104360004FF46041019101A9FFF7A8FB06B010BD11
:1043700000380040303802402DE9F84304464068D8
:104380001D4617460E46B0F5827F02D1A068002870
:104390007AD094F85000012801D102207EE04FF03D
:1043A000010984F85090FFF753FC804694F85100BF
:1043B000012862D10120002E60D0002F5ED00420A1
:1043C00084F8510000206065E787A787A663A08670
:1043D0002063C4E91000E0866E1CA1682068B1F576
:1043E000004F02BF016821F4804101600168490665
:1043F0005EBF016841F040010160E068A0B92CE0B7
:1044000020688168C90707D1FFF722FC66B1A0EBDD
:104410000800A84208D344E0C068A16B21F8020B51
:10442000A163E08F0138E087E08F0028E8D117E032
:1044300020688168C90707D1FFF70AFC6EB1A0EBBD
:104440000800A84209D32CE0007BA16B0870A06B88
:104450000130A063E08F0138E087E08F0028E7D1CA
:1044600020462946424600F007FC08B1202060653E
:10447000606D002818BF012000E00220002184F8B0
:10448000501084F8519009E00420314632463B46F2
:1044900084F851002046009500F005F801B0BDE811
:1044A000F0830320EAE72DE9F843044690F8500032
:1044B000012801D10220C7E001201E4615460F4603
:1044C00084F85000FFF7C4FB94F85110814601298D
:1044D0006BD10120002F00F0B180002D00F0AE80E4
:1044E000002E00F0AB8094F85100DDF82080042805
:1044F0001CBF052084F8510000206065E687A56395
:10450000A6872763C4E91000A686E68620680168AE
:1045100049065EBF016841F0400101606268711E9A
:10452000E368B1FA81F1B2FA82F24909B3F5006F9A
:104530004FEA521241EA020145D131B137F8021B6C
:10454000C1602763E08E0138E086012608F101058D
:10455000E08E10B9E08F002879D020688168890743
:104560000CD5E18E012E09D141B1216B002631F825
:10457000022BC2602163E18E0139E1868168C9079F
:104580000AD0E18F41B1C068A16B012621F8020B6E
:10459000A163E08F0138E087FFF75AFB002DD7D0E9
:1045A000A0EB09004045D3D347E06068B0F5827FB7
:1045B00007D10220042941D1A16800293FF489AF25
:1045C0003CE002203AE039B139780173206B0130C8
:1045D0002063E08E0138E086012608F10105E08EB7
:1045E00008B9E08F98B32068816889070ED5E18EFD
:1045F000012E0BD151B1216B002609780173216B7B
:10460000206801312163E18E0139E1868168C907A3
:104610000BD0E18F49B1C068A16B01260870A06B77
:104620000130A063E08F0138E087FFF711FB002D18
:10463000D5D0A0EB09004045D1D30320002184F858
:104640005010012184F8511001B0BDE8F0832046DC
:1046500041464A4600F03AFB18B12020606501202F
:10466000ECE7A16800200029E8D100902168CA6821
:104670000092896800910099E0E770477047B0B1F7
:1046800010B5044690F83D0028B9002084F83C009D
:10469000204600F00EF80220211D84F83D0020681D
:1046A00000F022FC012084F83D00002010BD012014
:1046B000704770470068C16841F00101C1608168BE
:1046C00001F0070106291EBF016841F001010160E8
:1046D00000207047704710B50446006801698907DB
:1046E00044BFC1685FEA817138D40169490744BF9A
:1046F000C1685FEA41713DD40169090744BFC168DF
:104700005FEA017143D40169C90644BFC1685FEA29
:10471000C16148D40169C9071CBFC1685FEAC171A2
:104720004ED10169090644BFC1685FEA01614FD4F7
:104730000169490644BFC1685FEA416150D401691B
:10474000890646BFC1685FEA816110BD6FF0200134
:1047500001612046BDE81040FFF790BF6FF00201F5
:104760000161012121778069800741D02046FFF750
:10477000B1FF43E06FF004010161022121778069FC
:1047800010F4407F3ED02046FFF7A4FF40E06FF0DA
:104790000801016104212177C06980073CD02046CF
:1047A000FFF798FF3EE06FF01001016108212177CB
:1047B000C06910F4407F39D02046FFF78BFF3BE003
:1047C0006FF001010161204600F03CF82068A8E785
:1047D0006FF0800101612046FFF74FFF2068A7E7D7
:1047E0006FF040010161204600F036F82068A6E72E
:1047F000204600F025F8204600F023F8002020771E
:10480000206872E7204600F01BF8204600F019F8F7
:104810000020207720686FE7204600F011F820463E
:1048200000F00FF80020207720686CE7204600F0A9
:1048300007F8204600F005F800202077206869E797
:104840007047704700680349884208BFFFF704BA01
:10485000704700BF00480140704750B310B5044690
:1048600090F8390028B9002084F83800204600F07C
:1048700023F8242084F839002068C16821F400510D
:10488000C160204600F0D0FB2068016921F490410E
:104890000161416921F02A014161C16841F400517F
:1048A000C16000202021E06384F8391084F83A10B8
:1048B00010BD0120704700002DE9F04F87B004467D
:1048C00002A81421FCF70EF92168994881425ED1B3
:1048D0000027754900F5744001974A6942F01002BB
:1048E0004A614A6902F010020192019A01970A682E
:1048F00042F002020A60096801F002010191019987
:1049000007210691032105910121049102210391C0
:10491000C021029102A9FFF7D1F81F481D4D4FF4A5
:10492000003A4FF000694FF48068C5E908A7C5E96F
:10493000000983462846C5E90277C5E90487C5E929
:104940000677FFF727F808B1FEF75DFA134E0BF173
:10495000780165634020C6E908A7C6E9001906F199
:10496000080181E881013046C6E90577F761AC634B
:10497000FFF710F808B1FEF746FA252000210022C3
:104980002663B463FFF7F4F92520FFF7E3F907B0D6
:10499000BDE8F08F0C060020406402406C06002049
:1049A000FEE70000E0B50020002201903E480168CB
:1049B00041F4800101600021006800F48000019052
:1049C00001983A20FFF7D4F93A20FFF7C3F94620BF
:1049D00000210022FFF7CCF94620BDE88C40FFF70C
:1049E000B9B900BF2DE9F04F87B000242E48304FF1
:1049F00001224FF4005A4FF0010806940194016817
:104A000041F004010160016801F004010191019984
:104A10000194016841F002010160016801F00201A6
:104A2000019101990194016841F0010101604FF485
:104A30000051006800F00100019001981B4800F54A
:104A4000006583462846B8470BF580664FF48061C1
:104A500001223046B84730464FF480510022B84713
:104A600058464FF4104101224FF41049B847CDE9A0
:104A70000444CDE902A802AFDFF838A02846394641
:104A8000D0474FF4A0500594CDE9038439460290F5
:104A90003046D04758463946CDE90444CDE902981E
:104AA000D04707B0BDE8F08F303802400000024028
:104AB000453C0008BD3A000880B50E480E4A4FF448
:104AC000827100234FF4007CC0E900210A21C0E973
:104AD0000233C0E90433C0E906C3C0E90833C0E9C2
:104AE0000A31FFF7D3FB002814BFBDE8804080BD2A
:104AF000FEF789B9CC0600200038004010B50B48FD
:104B00000B4C4FF4E13300210C22C0E90043C0E913
:104B10000211C0E90412C0E90611FFF79EFE002849
:104B200014BFBDE8104010BDFEF76DB9640700204A
:104B300000100140FEE710B500F1280151E8002FF8
:104B400012B9BFF32F8F04E0531E41E8003404B1C3
:104B5000F4E782B12C3001210AE0821CD2E84F3FF9
:104B6000C2E8441F04B1F9E71A0608BF10BD0830B7
:104B700000680028F1D1002010BD10B584465CF813
:104B8000303F8BB1CA784FF0000E05E01C46DB7851
:104B900093420ED26368A646002BF7D10022C1E9EA
:104BA000012E00F12C0208E00022C1E90122C162BD
:104BB00009E0C1E9014E04F108021160BEF1000FE5
:104BC00018BF0EF1040CCCF80010283050E8001F7C
:104BD0004A1C40E8002303B1F8E710BDD1E90123E6
:104BE000002A0EBFC36293608B68191D002B08BF9B
:104BF00000F130010A60704770470000014904F07D
:104C0000ACB800BFD405002019480068704700BF49
:104C100018480178012905D10021017004484FF09E
:104C2000806101601248016841F001010160704734
:104C300004ED00E04FF0FF307047000040B19249B2
:104C40000968B1FBF0F0411E0020B0EB116F02D0FB
:104C50004FF0FF307047054AFF231370044A0623C4
:104C600013605160034990600870704723ED00E0C5
:104C700010E000E03405002010B50446406894467A
:104C80000A46B0F5827F0ED1A068B0F5004F02D081
:104C9000B0F5806F0AD12168B0F5806F0B6823F002
:104CA00040030B6002D12046012101E02046802113
:104CB000634600F035F800280FBF0020606D40F01B
:104CC0002000606518BF032010BD00001CB504461D
:104CD0006D4813460A4611490068B0FBF1F04FF4E5
:104CE0007A71484301906068B0F5827F0AD120460E
:104CF000802100F015F870B1606D40F02000606513
:104D0000032009E0019830B1019801380190206832
:104D100080680006F6D4002002B010BD00366E0197
:104D20002DE9F041984616460F460446551C20686A
:104D300080683840B8421CBF0020BDE8F081002DDB
:104D4000F5D0FEF785FFA0EB0800B042EFD3206856
:104D5000416821F0E00141606168B1F5827F0AD1CC
:104D6000A168B1F5004F02D0B1F5806F03D10168A1
:104D700021F040010160A16AB1F5005F07D101682F
:104D800021F400510160016841F4005101600020EC
:104D900084F85000012084F851000320BDE8F08120
:104DA00070B592B006AC1421201DFBF79BFE0025C8
:104DB0001A4802260195016841F08051016000689F
:104DC00000F080500190019801951548016841F468
:104DD00040410160006800F44040019001980420C7
:104DE0001190642010960F9008200E901020CDE9AD
:104DF0000C650A900120099020460696FFF7DAF824
:104E00004FF480500595032104900F20CDE90265F1
:104E1000019001A8FEF7DAFF12B070BD40380240E1
:104E2000007000401548416801F00C021449082A3E
:104E300003D0042A08BF134915E002680223520276
:104E4000104A58BF0A46016801F03F01B2FBF1F178
:104E50000268C2F3881251430268C2F3014203EBB5
:104E60004202B1FBF2F1084A084B11604068C0F3FE
:104E70000310185C21FA00F01060704704380240FB
:104E80000024F40040787D011C000020D8A3000815
:104E900010B50E480F4CD0F8801041F47001C0F8E6
:104EA00080100B490A6842F001020A6000228A6001
:104EB0000B6823400B60084B4B600B6823F4802386
:104EC0000B60CA604FF00061016010BD08ED00E0AA
:104ED00000380240FFFFF6FE103000240148FFF7C3
:104EE000FABB00BF2407002010B50368184AB0F1D0
:104EF000804F13D0174CA04210D0174CA0420DD0B9
:104F0000164CA0420AD0164CA0420BD0154CA04221
:104F100008D0154CA04205D0904207D14C6823F030
:104F200070032343CC6823F4407323434C6923F07C
:104F30008003904243EA040303608B68C3620B68FA
:104F4000836204BF096911630121416110BD00BF83
:104F5000000001400004004000080040000C004038
:104F600000480140004001400044014010B5930753
:104F700012D400F12803D00718D153E8000F0842DB
:104F800003D1BFF32F8F002005E020EA010243E8A0
:104F9000002404B1F1E710BD806AD20700EA0103E2
:104FA00015D1002B18BF10BD002010BD53E8000F15
:104FB00000EA01028A4203D0BFF32F8F002005E0F0
:104FC00020EA010243E8002404B1EFE710BD8B4260
:104FD00018BF002010BD000080B5124A4FF0000E2F
:104FE00002F1440C624606E01A6991420BD3891A19
:104FF00003F10C029E461368002BF5D10022C0E994
:1050000002E2016106E0C0E902E3016198601A6909
:10501000511A1961BEF1000F18BF0EF10C0CCCF83B
:10502000000080BD040300202DE9F047044600681D
:1050300049F20C650169E26821F4405111430161B4
:10504000A168D4E90423E769C6681143AE43B7F504
:10505000004F41EA030141EA070141EA0601C1604C
:105060004169A26921F4407141EA020141614A4962
:1050700040F480603FD188420CBFDFF820A1DFF808
:1050800020A1D047D4F804908046D04767680646F0
:10509000D047616819257F00684306FB05F3490086
:1050A000B3FBF7F3B0FBF1F06421B0FBF1F202FBCC
:1050B0001102181A4FEA49031044322202EBC000D1
:1050C0004FF4F872B0FBF1F002EA400008FB05F281
:1050D000B2FBF3F2B2FBF1F100EB0116D0476168CD
:1050E00068434900B0FBF1F7D04761686843072285
:1050F000032349003CE0884214BFDFF8A4A0DFF896
:105100009CA0D047D4F804908046D04767680646F4
:10511000D04761681925BF00684306FB05F3890085
:10512000B3FBF7F3B0FBF1F06421B0FBF1F202FB4B
:105130001102181A4FEA89031044322202EB0010C0
:1051400008FB05F2B0FBF1F0B2FBF3F200F0F00067
:10515000B2FBF1F100EB0116D047616868438900AA
:10516000B0FBF1F7D047616868430F220423890040
:10517000B0FBF1F0391A6427B0FBF7F505FB170017
:105180000844216898403230B0FBF7F010403043BB
:105190008860BDE8F08700BF00140140393F000877
:1051A000253F000810B5104CEFF3108072B60023B5
:1051B000606801680A681268496B02890968496871
:1051C000511A418189B242685354816988476068A5
:1051D0004069006801F0C6FE6068006800684168C8
:1051E000006862B610BD00BF28050020FEE7000081
:1051F00070B5DB4D01E000F07EFF95F82700012837
:10520000F9D0012085F8270000F0ECF9D34C4FF4D9
:105210008051002200262046FEF714FDC72000F032
:1052200067F920464FF480510122FEF70BFD00F094
:1052300073F900F060FF85F8276070BD2DE9F0413B
:10524000E64E054601E000F056FF96F827000128DB
:10525000F9D0012086F8270000F05EF9376900F0E8
:10526000C1F9EB4C4FF4805100224FF0000820466A
:10527000FEF7E8FC202000F03BF930787D43092858
:1052800002D3280E00F034F9D54FC5F30740B847D4
:10529000C5F30720B847E8B2B84720464FF480511D
:1052A0000122FEF7CFFC00F037F900F024FF86F86A
:1052B0002780BDE8F08100BFF8B5C84D012085F812
:1052C000270001E000F017FFFEF7C2FC6328F9D9C0
:1052D00000F092F82649002711FA80F2092A0CD82A
:1052E0004FF480600A21DFE802F0050A0D10131662
:1052F00019201C23022001211AE0002433E004209D
:10530000022115E00820032112E0102004210FE003
:10531000202005210CE04020062109E08020072103
:1053200006E04FF40070092102E04FF4807008217C
:105330004FF48073297001014FF480524FF4803490
:1053400006026B818301C5E90362C5E90514C5E95D
:10535000070300F0A7F8074E01200124B047022000
:10536000B0470320B04785F82770204601B0F0BD54
:10537000EFBFFFFF395400082DE9F047974E15465F
:105380000F46814601E000F0B6FE96F8270001289E
:10539000F9D001204FF4805100224FF0000886F828
:1053A00027009B488246FEF74DFC0B2000F0A0F83A
:1053B0003078092802D3380E00F09AF8884CC7F3E9
:1053C0000740A047C7F30720A047F8B2A047002036
:1053D000A0475048AAB249464FF4FA63FEF7CCFF03
:1053E00050464FF480510122FEF72CFC00F083FE62
:1053F00086F82780BDE8F087F8B5854C4FF48051DA
:1054000000222046FEF71EFC754F9F20B847A520BE
:10541000B8470546A520B8470646A520B847074621
:1054200020464FF480510122FEF70CFC300240EA86
:105430000540384401B0F0BDB0B5754C05464FF499
:10544000805100222046FEF7FDFB022D0CD0012DDD
:1054500015D1052000F04CF8A52000F049F80546CC
:105460005E4880F8245014E0352000F041F8A52073
:1054700000F03EF80546594880F8255009E015200F
:1054800000F036F8A52000F033F80546534880F8C0
:10549000265020464FF480510122FEF7D3FB2846C8
:1054A000B0BD00BFF8B55A4C4FF480510022002522
:1054B0002046FEF7C7FB4B2000F01AF803E0A520BA
:1054C00000F016F80135042DF9D3444E002505E00F
:1054D000A520771900F00CF878700135082DF7D168
:1054E00020464FF480510122BDE8F840FEF7AABBE8
:1054F000E0B58DF807000A200DF107010DF1060255
:10550000012300900348FEF7CEFF9DF8060002B08D
:1055100080BD00BFCC060020B0B500F0ECFD3C4CD7
:105520004FF4805100222046FEF78CFB0520FFF748
:10553000DFFF2A4DA520FFF7DBFF85F8240000F0F0
:10554000DAFD95F82400C007F4D120464FF48051CD
:105550000122BDE8B040FEF775BB00BF0004024069
:10556000C82100202DE9F8431C4F0D46044601E0F8
:1055700000F0C1FD97F827000128F9D0012087F835
:105580002700FFF7C9FF00F02DF821484FF48051A4
:1055900000224FF000088146FEF754FB0220FFF77F
:1055A000A7FF3878092802D3280EFFF7A1FF0C4E79
:1055B000C5F30740B047C5F30720B047E8B2B0478E
:1055C0002046B04748464FF480510122FEF73AFB8F
:1055D000FFF7A2FF87F82780BDE8F883C8210020E5
:1055E000F154000810B50A4C4FF4805100222046B7
:1055F000FEF728FB0620FFF77BFF20464FF4805183
:105600000122FEF71FFBBDE8104000F074BD00BF93
:105610000004024010B5074C00F00F03044AB0F13B
:10562000FF3F2344C8BF83180801187010BD00BF96
:1056300000E400E014ED00E010B501F01BFDA0B1A6
:10564000002401F0E3FC01460D4805E050F8242059
:105650006AB18A420DD00134032CF7D9042C08D149
:105660000420042400F028FF03E0042401E040F8B3
:105670002410044904EB440001EB401010BD00BFAE
:10568000A81C0020B81C002010B5044601F0F2FC54
:1056900030B120684FF0FF31BDE8104000F098BEF7
:1056A00010BD006800F0B2BE10B50446002000F046
:1056B000C9FE0028206001D0012010BD0520214630
:1056C00000F0FAFE002010BD10B5044601F0D2FC37
:1056D00020B12068BDE8104000F0D2BE10BD00F03F
:1056E00055BD48F20101411A032934BF002002F0E0
:1056F0008DBF704748F20101411A032934BF0020D1
:1057000002F0BEBF704748F20101411A0020032990
:1057100038BF01207047000010B5C8B104460078BA
:105720003A2818D111492046FBF706FAC0B11049B2
:105730002046FBF701FAB0B10E492046FBF7FCF911
:105740004FF0FF31002808BF48F20301084610BDA2
:105750004FF0FF3010BD2046BDE8104002F0CABF38
:1057600048F2010010BD48F2020010BD54A4000828
:105770005BA400084CA4000848F20203C31A022BE1
:105780003CBF4FF0FF30704748F2010398420CBF16
:1057900042F0004003F006B8704748F20102821A56
:1057A000032A34BF4FF0FF3003F046B870470000C3
:1057B00048F20103C31A032B28BF03F081B802A0EB
:1057C00050F82300704700BFFFFFFFFF00000000FC
:1057D00000000000CAB03D4D686844683C4800F0D5
:1057E000FFFA3C4E304604F0B3FA2870304604F01D
:1057F000DBFADFF8E4A0DFF8E490287038A0514627
:10580000C8470646DFF8E48039A00B210122334661
:10581000C0473A4F3046B84739A05146C8470646B8
:105820003948222101223346C0473046B84737481D
:105830005146C847064636A03A2101223346C047A2
:105840003046B84741A000F0CBFADFF83481524F20
:1058500001AE06E0BDF80831419A3846314600F005
:10586000BFFA4046314604F02DF80028F2D0274810
:1058700044A1FBF749F8A0B10646434800F0B0FA4E
:10588000DFF80C910FF2041845AF03E048463946A3
:1058900000F0A6FA304641463A46FAF7A7FE013034
:1058A000F4D13C4800F09CFA0A4E304604F0F2FB7A
:1058B000304604F0CBFBA8684FF0FF3101F0F0FA5E
:1058C00068684189204600F0ABF9F4E71C05002028
:1058D00058A50008B2A50008E2A5000809090008BB
:1058E00068656C6C6F2E7478740000007D2A000867
:1058F00068656C6C6F776F726C640A006D070008E6
:105900006C6F672E74787400B6A50008D9A50008DE
:105910003131313131313131313131313131313177
:105920003131313131313131313131313131313167
:1059300031740A3232323232323232323232320A56
:105940006C6C6C6C6C6C6C6C6C0A000023232323F5
:105950002323232323232323232323232323232317
:105960002323232323232323232323232323232307
:1059700023232323232323232323230A000000009C
:10598000ABA50008720000008DA50008257300007B
:105990006DA50008A2A5000872A500082448254F9F
:1059A000DFF894A042F2107500F50068834600F518
:1059B00080693E8823E0002001E000BF0130398883
:1059C000691A8842F9DB40464FF400510122D04762
:1059D00058464FF4004101225C46D04758464FF4E8
:1059E00080510122D04748464FF480610122D047C0
:1059F000002001E000BF01303E88B042FAD34046AB
:105A00004FF400510022D04758464FF40041002285
:105A10005C46D04758464FF480510022D047484654
:105A20004FF480610022D047002EC4D1C1E700BFEF
:105A300000000240A4070020453C00080289002A1B
:105A40001ABF4368996601604160511C018170472B
:105A5000F8B506896EB10C46002708E005682146B6
:105A60002846FBF769F828B1013705F16800B7420D
:105A7000F4D30025284601B0F0BDB0F8AC100022E8
:105A800042547047B0F8AC30B0F8AE209A420AD316
:105A90000BD01F4800F0A4B9C21812F8012CC25450
:105AA000013BB0F8AE209342F6DC8154B0F8AE1062
:105AB0000131A0F8AE10B0F8AC100131A0F8AC1074
:105AC000704700BFB0F8ACC0B0F8AE10614515D259
:105AD00039B97047425C4318013103F8012CB0F822
