:020000040800F2
:10000000B006002041020008910700088907000897
:100010008D070008E505000805080008000000003D
:100020000000000000000000000000009907000828
:10003000E905000800000000950700089D0700087A
:100040005B0200085B0200085B0200085B0200081C
:100050005B0200085B0200085B0200085B0200080C
:100060005B0200085B0200085B0200085B020008FC
:100070005B0200085B0200085B0200085B020008EC
:100080005B0200085B0200085B0200080000000041
:100090000000000000000000000000005B020008FB
:1000A0005B0200085B0200085B0200085B020008BC
:1000B0005B0200085B0200085B0200085B020008AC
:1000C0005B0200085B0200085B0200085B0200089C
:1000D0005B0200085B0200085B02000800000000F1
:1000E0005B0200085B0200085B02000800000000E1
:1000F0000000000000000000000000005B0200089B
:10010000000000005B0200085B0200085B020008C0
:1001100000000000000000000000000000000000DF
:100120005B0200085B0200085B0200085B0200083B
:100130005B0200080000000000000000000000005A
:100140000000000000000000000000005B0200084A
:100150005B0200085B0200085B0200085B0200080B
:100160005B0200085B0200080000000000000000C5
:10017000000000000000000000000000000000007F
:10018000000000005B02000800000000000000000A
:100190005B0200085B02000800F002F800F041F882
:1001A0000AA090E8000C82448344AAF10107DA45D2
:1001B00001D100F036F8AFF2090EBAE80F0013F0E3
:1001C000010F18BFFB1A43F001031847F01000009D
:1001D00010110000103A24BF78C878C1FAD852072D
:1001E00024BF30C830C144BF04680C6070470000B1
:1001F0000023002400250026103A28BF78C1FBD830
:10020000520728BF30C148BF0B607047642900F017
:100210007780002070471FB501F03EF81FBD10B574
:1002200010BD00F02FF91146FFF7F5FF00F0AAFB13
:1002300000F04DF903B4FFF7F2FF03BC00F054F9EE
:100240000948804709480047FEE7FEE7FEE7FEE76A
:10025000FEE7FEE7FEE7FEE7FEE7FEE704480549A6
:10026000054A064B70470000AD07000899010008D9
:10027000B0000020B0060020B0020020B002002034
:100280000FB4044910B503AA029800F0D1F810BCCD
:100290005DF814FB680000202DE9F0410E4604468D
:1002A000002020622046E168884730B3252805D029
:1002B000D4E901219047206A401CF2E7E16820461A
:1002C00000278847050018D0A5F14100192802D859
:1002D00020354FF400673246294620462760FFF755
:1002E00095FF40B1012804D0F61D26F00706083618
:1002F000D8E7361DD6E72846DAE7206ABDE8F08160
:100300002DE9F0410646002410687529314616A5EE
:1003100010D0AFF30080002802DA404213A507E0B6
:1003200031688A0701D512A502E0490704D511A555
:10033000012401E0AFF3008000210A2206F1240726
:1003400009E0B0FBF2FCB0FBF2F302FB1C00303022
:1003500078541846491C0028F3D123462A463046D3
:10036000BDE8F04100F00BB8000000002D000000D7
:100370002B000000200000007047704770472DE9F7
:10038000F0470D4699469246044600F1240801685C
:10039000880604D5E06921F01001216000E0012009
:1003A000A84201DD471B00E00027A1697A1902EB92
:1003B0000900081AA0612078C00602D42046AFF3D5
:1003C0000080002608E0D4E901211AF806009047D1
:1003D000206A401C761C20624E45F4DB2078C00663
:1003E0000AD52046AFF3008006E0D4E90121302091
:1003F0009047206A401C2062381EA7F10107F4DCF8
:1004000007E0D4E9012118F805009047206A401C54
:100410002062281EA5F10105F3DC2046AFF3008021
:100420002078000602D50220BDE8F0870120FBE716
:10043000074B70B50D467B4400F011F80446284682
:10044000002000BF10B14FF0FF3070BD204670BDDE
:10045000CF03000001694A1C02610878704700B5AB
:100460008FB0CDE901310021059105497944CDE9ED
:10047000031011466846FFF70FFF0FB000BD0000E4
:10048000E5FFFFFF754600F02BF8AE460500694614
:10049000534620F00700854618B020B5FFF7DEFE72
:1004A000BDE820404FF000064FF000074FF0000875
:1004B0004FF0000BAC46ACE8C009ACE8C009ACE8B2
:1004C000C009ACE8C00921F007018D46704710B59E
:1004D0000446AFF300802046BDE81040FFF7AABEF7
:1004E000004870470800002001491820ABBEFEE715
:1004F00026000200704753EA020C00F069802DE9E3
:10050000F04B4FF00006002B1FBFB3FA83F503FA40
:1005100005F424FA05F65E4012BF1643B2FA82F5DE
:1005200002FA05F4C5F120051EBF22FA05FC44EAD3
:100530000C04203556EA044C4FEA144418BF641CDE
:100540004FF000084FF00009904271EB030C39D3D3
:10055000002919BFB1FA81F701FA07F6B0FA80F75E
:1005600000FA07F6C7F120071EBF20FA07FC46EA8B
:100570000C062037B6FBF4FCA7EB0507103F07F08D
:100580001F0BCBF120062CFA06F60CFA0BFB44BF2E
:10059000B3460026202FA4BF5E464FF0000B5BEA57
:1005A000060C08BF4FF0010B19EB0B0948EB0608CE
:1005B000ABFB027C06FB02CC0BFB03CCC01B71EB3C
:1005C0000C01C1E70B46024641464846BDE8F08BA8
:1005D00013B54FF000004FF00001AFF30080BDE80D
:1005E0001C407047FEE70000704700002DE9F04F07
:1005F00082B041F2000343F6004B07224FF0010A9C
:1006000000264FF0000CC4F20203C4F2010B984222
:1006100000F13E4308BF042203F1FF734FEAB32702
:10062000042F4FF0000738BF4FEAB322009209E0D1
:100630000CF1010C02370436BCF1100F04BF02B0FC
:10064000BDE8F08F0A680AFA0CF812EA080FEFD03A
:10065000D1F804E04EF01002122A12D106F01C026A
:100660000F2303FA02F46FF0030303EA5C05054469
:100670002B6AA3430C6904FA02F21A432A62D1F8E6
:1006800004E0032304680EF00302BEF1120F03FA24
:1006900007F302FA07F224EA03046FEA030942EAC5
:1006A0000402026014D80AFA0EF212F0061F0FD0EC
:1006B0008268CB6802EA0902BB401A438260CEF32B
:1006C0000012436802FA0CF223EA08031A4342605C
:1006D000C2688B6802EA0902BB401A43C2605FEA43
:1006E000CE02A5D5002206F00C050F24019243F698
:1006F0004402AC40C4F202021346126842F4804243
:100700001A601A6802F4804201922CF00302019BE5
:100710005A444FF60843CFF6FF739E46D358A3437F
:10072000009C04FA05F52B4342F80E30DBF800205C
:100730004D6842EA0803EC0358BF22EA0803CBF8ED
:100740000030AC03DBF8042042EA080358BF22EA79
:100750000803CBF80430EC02DBF8082042EA080377
:1007600058BF22EA080343F60C42CBF80830AD022A
:10077000C4F201021446126842EA080358BF22EA92
:100780000803236054E70000FEE70000FEE70000D6
:1007900070470000704700007047000040F2AC0056
:1007A000C2F2000001680131016070474EF68850C6
:1007B0004FF0000CCEF20000016841F470010160BE
:1007C00043F60001C4F202010A6842F001020A6025
:1007D000C1F808C04FF6FF720B68CFF6F6621A40F8
:1007E0000A6043F21002C2F200424A600A6822F430
:1007F00080220A60C1F80CC04FF0006140F8801CF4
:1008000070470000FEE70000F0B581B040F26C0CCC
:100810000090C2F2000C9CF838109CF83920202A75
:1008200040F0AE80012900F0AB8040F2AC034FF005
:10083000000E21210122CCF83CE08CF83910C2F2E4
:1008400000031968ACF826208CF83820ACF8242076
:10085000DCF80020BCF82640002C59D0DCF8084019
:100860006D462026BCF82670013FACF8267017684C
:100870003F061FD41F687F1AFF087C2F2CD81768EB
:100880003F0617D41F687F1AFF087C2F24D81768EB
:100890003F060FD41F687F1AFF087C2F1CD81768EB
:1008A0003F0607D41F687F1AFF087C2F14D81768EB
:1008B0003F06DFD50027B4F5805F1FD1002F5FD141
:1008C0002F886FF35F275760DCF81070002F14BF7C
:1008D0000135023517E000BFD76827F4D077D7601D
:1008E000576927F00107576101278CF839608CF8A8
:1008F00038E08CF83A60B4F5805FDFD0002F3FD14C
:1009000015F8017B5760BCF82670002FAAD100BFF4
:1009100017687F062ED41F687F1AFF087C2F17D810
:1009200017687F0626D41F687F1AFF087C2F0FD810
:1009300017687F061ED41F687F1AFF087C2F07D810
:1009400017687F0616D41F687F1AFF087C2FDFD92F
:10095000D16821F4D071D160516921F00101516158
:10096000202100228CF839108CF838208CF83A10AD
:1009700001B0F0BD00218CF8381020218CF839101E
:1009800001B0F0BD86B043F608064EF60C544FF6A3
:10099000FF0140F2000744F6D355C4F20206CEF23E
:1009A0000004C2F20007C1F26205D6F8F80340F471
:1009B0000070C6F8F803D6F8F80340F48060C6F873
:1009C000F803D6F8F80340F48070C6F8F8032068FE
:1009D000084040F20031C0F2FA5108432060386804
:1009E000A0FB05014FF0FF3000EB91110020B0EBB0
:1009F000116F0BD14EF21002CEF200025160F021C5
:100A0000E1750721906011602168E075019047F25F
:100A10000009F16BC4F2000941F48041F163F16B0C
:100A200001F48041019101990190B16B41F0805135
:100A3000B163B16B01F08051019101990190B16BEB
:100A400041F08051B163B16B01F080510191019986
:100A50000190D9F8000040F44040C9F80000D9F8EE
:100A6000000000F4404001900198306810F00C0F35
:100A70000AD0306800F00C00082840F0A08056F83A
:100A8000040C400200F19B8056F8080C56F8080C44
:100A9000102161F3C70046F8080C306800F00C0024
:100AA000082840F0BF80D6F8F80300F00F000228B5
:100AB00008D8032086F8F803D6F8F80300F00F00F2
:100AC000032810D1306840F4E0503060306840F4C2
:100AD00060403060306820F0F000306056F8080C5C
:100AE000800100F1D180002740F2004B4FF6184101
:100AF0004FF480644FF410484FF0010A01AD0597A0
:100B00000097C4F2020BCFF6FF71B06A40F0040008
:100B1000B062B06A00F00400009000980097B06ADC
:100B200040F00200B062B06A00F00200009000984D
:100B30000097B06A40F00100B062B06A00F00100B6
:100B4000009000984FF40050CBF81804CBF81840F0
:100B50004BF80180CDE90377CDE9010A0BF5806000
:100B60002946FFF743FD58462946CDE90377CDE9ED
:100B7000014AFFF73BFD09F5C8302946CDE9037767
:100B8000CDE9018AFFF732FD40F26C080C2109F52E
:100B900020404FF4E132C2F2000888E88500C8E93D
:100BA0000377C8E90517C8F81C7098F839100029B0
:100BB00000F0A28000214FF0000C0023CAE060206A
:100BC0000121C4F2472040F8601C40F2AC00C2F2A0
:100BD0000000016856F8082C92073FF557AF0268ED
:100BE000521A022A3FF65FAF56F8082C92073FF5DB
:100BF0004DAF0268521A022A3FF655AF56F8082C3C
:100C000092073FF543AF0268521A022A3FF64BAFF4
:100C100056F8082C92073FF539AF0268521A022A9B
:100C2000D8D940E760210020C4F24721086040F293
:100C3000AC00C2F20000026856F8083C9B0140F18B
:100C40006C8103689B1A022B3FF62DAF56F8083CC7
:100C50009B0140F1628103689B1A022B3FF623AF90
:100C600056F8083C9B0140F1588103689B1A022BFF
:100C70003FF619AF56F8083C9B0140F14E810368DE
:100C80009B1A022BD8D90EE73068022141F2883234
:100C900061F30100306040F2AC00C2F20000016874
:100CA000336803F00C03082B00F0688103685B1ABB
:100CB00093423FF618AF336803F00C03082B00F0A3
:100CC0005D8103685B1A93423FF60DAF336803F012
:100CD0000C03082B00F0528103685B1A93423FF625
:100CE00002AF336803F00C03082B00F04781036860
:100CF0005B1A9342D4D9F6E688F838700597CDE9A7
:100D00000377CDE90177009701A9F06B40F010005F
:100D1000F063F06B00F01000009000980097B06A4C
:100D200040F00200B062B06A00F00200009000984B
:100D3000072005900320CDE903A002200290C020E7
:100D400001905846FFF752FCD8E90671D8F8000028
:100D5000D8E902C3242449F20C62B1F5004F88F8A7
:100D60003940C46824F40054C460046924F4405435
:100D700043EA04030361D8E90434C56843EA0C0379
:100D800025EA020243EA040343EA010342EA0302BA
:100D9000C260426922F4407242EA070242615ED1B7
:100DA00041F2004240F48061C4F20102914240F0FD
:100DB0000B8140F2000141F2B22E4FF0190A48F2C5
:100DC0001F59C2F20001C0F6000EC5F2EB190A6805
:100DD000D6F800C0D8F8045031683368C3F34237FE
:100DE000C1F342311EF807701EF8011022FA07F411
:100DF00022FA01F104FB0AF36C0001FB0AF1B3FBD8
:100E0000F4F3B1FBF4F1A3FB0957C91A7D09642778
:100E100005FB17353223294403EBC101A1FB09135C
:100E20004FF4F87101EA1311CCF342331EF803308A
:100E300022FA03F303FB0AF3B3FBF4F3A3FB093732
:100E40006FF00F0303EA570301EB030C3368C3F39E
:100E5000423337681EF80330C7F3423709E141F2E5
:100E6000004240F48061C4F20102914240F00D81E1
:100E700040F2000141F2B22E4FF0190A48F21F5918
:100E8000C2F20001C0F6000EC5F2EB190A68D6F8EE
:100E900000C0D8F8045031683368C3F34237C1F357
:100EA00042311EF807701EF8011022FA07F422FAE8
:100EB00001F104FB0AF3AC0001FB0AF1B3FBF4F30C
:100EC000B1FBF4F1A3FB0957C91A7D09642705FB9F
:100ED00017353223294403EB0111A1FB0913F0213B
:100EE00001EA5311CCF342331EF8033022FA03F324
:100EF00003FB0AF3B3FBF4F3A3FB09376FF00F0313
:100F000003EA570301EB030C3368C3F3423337683A
:100F10001EF80330C7F342370BE141F60812C0F266
:100F2000004246F8042C01220A60016856F8082C99
:100F300092013FF5B8AD0268521A032ABFF4B3AD6F
:100F400056F8082C92013FF5AEAD0268521A022AFB
:100F50003FF6A9AD56F8082C92013FF5A4AD026802
:100F6000521A022A3FF69FAD56F8082C92013FF51F
:100F70009AAD0268521A022AD8D994E5D6F8F80335
:100F800010F00C0F09D0032086F8F803D6F8F80308
:100F900000F00F0003287FF4A6AD3068042161F350
:100FA0008C203060306820F460403060306800F0A1
:100FB0000C00082800F01B81042840F03B8147F614
:100FC0004000C0F27D1039E140F2000141F2B22E42
:100FD0004FF0190A48F21F59C2F20001C0F6000E84
:100FE000C5F2EB190A68D6F800C0D8F80450316889
:100FF0003368C3F38227C1F382211EF807701EF8FD
:10100000011022FA07F422FA01F104FB0AF36C0042
:1010100001FB0AF1B3FBF4F3B1FBF4F1A3FB0957B5
:10102000C91A7D09642705FB17353223294403EBD0
:10103000C101A1FB09134FF4F87101EA1311CCF3BC
:1010400082231EF8033022FA03F303FB0AF3B3FBF7
:10105000F4F3A3FB09376FF00F0303EA570301EB27
:10106000030C3368C3F3822337681EF80330C7F3D9
:10107000822722FA03F303FB0AF3B3FBF4F31EF80F
:1010800007700326FA4007275EE040F2000141F2B4
:10109000B22E4FF0190A48F21F59C2F20001C0F6F1
:1010A000000EC5F2EB190A68D6F800C0D8F8045053
:1010B00031683368C3F38227C1F382211EF80770B9
:1010C0001EF8011022FA07F422FA01F104FB0AF3D8
:1010D000AC0001FB0AF1B3FBF4F3B1FBF4F1A3FBA9
:1010E0000957C91A7D09642705FB1735322329449E
:1010F00003EB0111A1FB0913F02101EA5311CCF319
:1011000082231EF8033022FA03F303FB0AF3B3FB36
:10111000F4F3A3FB09376FF00F0303EA570301EB66
:10112000030C3368C3F3822337681EF80330C7F318
:10113000822722FA03F303FB0AF3B3FBF4F31EF84E
:1011400007700426FA400F2702FB0AF2B2FBF4F202
:101150009B1A48F21F55C5F2EB15A2FB0541490940
:10116000642401FB142100241944B14040F2AC0670
:101170003231C2F20006A1FB051244A507EA521162
:1011800041EA0C018160016921F4904101614169EA
:1011900021F02A014161C16841F40051C160202061
:1011A000C8F83C4088F8390088F83A0005E000BFEC
:1011B000601CB0F57A7418BF044628462146FFF734
:1011C0005FF830683168091AB1F57A7FF0D8316874
:1011D000091AB1F57A7FEBD83168091AB1F57A7F2F
:1011E000E6D83168091AB1F57A7FEBD9E0E756F80D
:1011F000042C56F8040C0023400202F03F0247F68C
:101200004000C0F27D105CBF42F20040C0F2F4002A
:1012100056F8041CC1F38811A0FB0101FFF76BF91C
:1012200056F8041C0222C1F3014102EB4101B0FB5C
:10123000F1F003E042F20040C0F2F40031680FA286
:10124000C1F30311515CC8403860A0FB05014FF0A9
:10125000FF3000EB91110020B0EB116F7FF443AC35
:101260004EF21002CEF200025160F021E17507212A
:10127000906011602168E07535E400BF0000000057
:10128000000000000102030406070809436F756EA1
:10129000743A3A2025640A00F1EE100A4FF6FF7105
:1012A000C0F2C03120EA010040F04070E1EE100AC7
:1012B000704700000000010203040000E012000873
:1012C0000000002008000000D4010008E812000817
:1012D00008000020A8060000F0010008000000003F
:0812E0000024F40000000000EE
:040000050800019955
:00000001FF
