:020000040800F2
:10000000088400200103000835540008D951000875
:100010007153000891330008515A00080000000095
:100020000000000000000000000000004103000884
:10003000DD33000800000000D9030008E9030008D0
:100040001B0300081B0300081B0300081B03000818
:100050001B0300081B0300081B0300081B03000808
:100060001B0300081B0300081B0300081B030008F8
:100070001B0300081B0300081B0300081B030008E8
:100080001B0300081B0300081B03000800000000FE
:100090000000000000000000000000001B0300083A
:1000A0001B0300081B030008195700081B03000866
:1000B0001B0300081B0300081B0300081B030008A8
:1000C0001B0300081B0300081B0300081B03000898
:1000D0001B030008E15900081B0300080000000092
:1000E0001B0300081B0300081B030008000000009E
:1000F0000000000000000000000000001B030008DA
:10010000000000001B0300081B0300081B0300087D
:1001100000000000000000000000000000000000DF
:100120001B0300081B030008953300081B0300088D
:100130001B03000800000000000000000000000099
:100140000000000000000000000000001B03000889
:100150001B0300081B030008A13300081B03000851
:100160001B0300081B030008000000000000000043
:10017000000000000000000000000000000000007F
:10018000000000001B030008000000000000000049
:100190001B0300081B03000800F002F800F09CF8A5
:1001A0000AA090E8000C82448344AAF10107DA45D2
:1001B00001D100F091F8AFF2090EBAE80F0013F088
:1001C000010F18BFFB1A43F001031847D09E00002F
:1001D000F09E0000103A24BF78C878C1FAD85207C0
:1001E00024BF30C830C144BF04680C6070470000B1
:1001F0000023002400250026103A28BF78C1FBD830
:10020000520728BF30C148BF0B6070476E2900F00D
:100210004B87702901F0A382662909F0D4856529EE
:1002200009F0D185672909F0CE85612909F0CD85CE
:1002300003681B0A28BF41F08001692900F0D081C2
:10024000642900F0CD81752900F0CA816F2901F081
:100250003182782901F06F82E92901F0CB81E4290C
:1002600001F0C881F52901F0C581EF2901F02E8246
:10027000F82901F06E820368DB0928BF41F0800194
:10028000632901F04F86732901F05486E32901F0B8
:100290005F86F32901F06486002070471FB509F0DE
:1002A00085FD9DE8030000F0D1FD01F0F7FB04009F
:1002B0000020002109F064FD401C60600020002146
:1002C00009F048FDE06002F0C1F81FBD10B502F072
:1002D00035F902F0FBF910BD02F0C8F9114603B47C
:1002E00005F087FC03BCFFF7D9FF05F0C5FE02F05F
:1002F00055FC03B4FFF7EAFF03BC02F08DFC0000DD
:100300000948804709480047FEE7FEE7FEE7FEE7A9
:10031000FEE7FEE7FEE7FEE7FEE7FEE704480549E5
:10032000054A064B70470000CD56000899010008A9
:10033000081F002008840020086F0020086F00209C
:100340001EF0040F0CBFEFF30880EFF30980816902
:1003500011F8021C91BB01B590E80F10E047BDE811
:1003600000508CE80300244B93E80600914208BF3C
:10037000704741B91EF0100F10D12049086820F0D5
:10038000010008600AE02CE9F00F1EF0100F08BF12
:100390002CED108AC1F838C081F822E01A6092F87A
:1003A0002210906B61F0FF0E1EF0100F08BFB0EC32
:1003B000108AB0E8F00F80F309887047104A13687C
:1003C0009942FAD801B552F821C00FC8E047BDE8FC
:1003D0000050CCF80000704701B506F0DFF9BDE829
:1003E0000140EFF3098CBEE701B506F099FCBDE8CA
:1003F0000140EFF3098CB6E73800002034EF00E04D
:100400001CA000080844401E491E8843704708216C
:10041000001DF7E72DE9F04117460E460446FFF7A9
:10042000F6FFA042054633D9002F1CBF06F10C0091
:1004300005F0B4FB30467468F4B12168A94217D3C3
:1004400005F1080291423CBF6168416007D36268D0
:1004500061194A602268521B0A6041602560002FC2
:100460001CBF06F10C0005F0B9FB201DBDE8F081B2
:1004700020466468002CE0D12946304600F0D2FCCA
:100480000028D7D1002F1CBF06F10C0005F0A6FBF9
:100490000020BDE8F08110B5044600F0BAFC016808
:1004A0002046BDE810400122B4E753EA020C00F0F8
:1004B00069802DE9F04B4FF00006002B1FBFB3FA07
:1004C00083F503FA05F424FA05F65E4012BF1643DD
:1004D000B2FA82F502FA05F4C5F120051EBF22FA30
:1004E00005FC44EA0C04203556EA044C4FEA144457
:1004F00018BF641C4FF000084FF00009904271EBE8
:10050000030C39D3002919BFB1FA81F701FA07F6B4
:10051000B0FA80F700FA07F6C7F120071EBF20FAED
:1005200007FC46EA0C062037B6FBF4FCA7EB0507F0
:10053000103F07F01F0BCBF120062CFA06F60CFA41
:100540000BFB44BFB3460026202FA4BF5E464FF0EE
:10055000000B5BEA060C08BF4FF0010B19EB0B090F
:1005600048EB0608ABFB027C06FB02CC0BFB03CC82
:10057000C01B71EB0C01C1E70B46024641464846E1
:10058000BDE8F08B13B54FF000004FF00001AFF362
:100590000080BDE81C4070477CB51D4616460C0027
:1005A000009001D02044401E074B7B442A466946F8
:1005B0000190304600F09FFF05461CB100206946BF
:1005C00000F0ACFF28467CBD790F00000FB4014657
:1005D00010B504AA039802F02BFB10BC5DF814FBC5
:1005E0002DE9F0410646002410687529314616A50C
:1005F00010D000F0C5FC002802DA404213A507E045
:1006000031688A0701D512A502E0490704D511A572
:10061000012401E000F0BDFC00210A2206F12407BC
:1006200009E0B0FBF2FCB0FBF2F302FB1C0030303F
:1006300078541846491C0028F3D123462A463046F0
:10064000BDE8F04100F0D7BC000000002D00000024
:100650002B000000200000002DE9F05F89460446D1
:100660004FF0000ADFF874B1FB44C0F820A0204628
:10067000E1688847002874D0252806D0D4E90121F4
:100680009047206A401C2062F1E700265F46204622
:10069000E16888472028054607DB312D05D2781907
:1006A00010F8200C08B10643F1E7B00701D526F099
:1006B0000406C4F81CA00027C4F818A02A2D09D0ED
:1006C000284608F0F3F838B304EB8708303DC8F843
:1006D000185019E059F8041B204604EB8702916179
:1006E000E1688847012F054618D1E069002820DA23
:1006F00026F020061DE0D8F8180000EB800005EB7E
:1007000040003038C8F818002046E16888470546A0
:1007100008F0CCF80028EED1012F0AD02E2D08D1F8
:100720002046E16888477F1C0546022F46F02006D8
:10073000C4DBA069002803DA404246F00106A0614C
:10074000F00701D026F010066C2D0BD0682D09D0D3
:100750004C2D39D06A2D35D0742D35D07A2D33D02B
:1007600016E038E0E1682F4620468847B842054643
:1007700009D16C2F26D04FF48060E16806432046F3
:100780008847054604E06C2F1AD04FF4807006436A
:100790000DB3A5F14100192802D8203546F40066B2
:1007A0004A462946204626604E46FFF72FFD80B177
:1007B00001280BD0F61D26F0070000F1080956E7C6
:1007C0004020E4E78020D8E70020D6E706F10409BE
:1007D0004DE7284652E7206ABDE8F09F6297000087
:1007E0000FB400B589B00CA96A4600910B9902F0CC
:1007F0003FFA09B05DF814FB0FB400B58DB010A935
:10080000099000910B904FF0FF300A9000200C905F
:10081000064878440690064878446A4607900F993F
:1008200009A800F0BBFF0DB05DF814FBA70F000096
:10083000BF0F00002DE9FF5F1D464FF0FF3B9146C3
:100840004FF000085F46D5E90146A96901987F1C71
:100850008847296A824688470028F6D1BAF1FF3FC7
:100860000CD0002E24F4C06419DD600614D5BAF152
:100870002B0F09D0BAF12D0F0ED103E0584604B06A
:10088000BDE8F09F44F48064A96901987F1C884703
:10089000761E8246002E02DDBAF1300F03D0B9F188
:1008A000000F26D032E0A969761E01987F1C44F41F
:1008B00000748847002E824605DDBAF1780F06D015
:1008C000BAF1580F03D0B9F1000F10D01EE0B9F102
:1008D000000F02D0B9F1100F18D1A969761E019846
:1008E0007F1C24F4007488478246102002E0082010
:1008F00000E00A20814609E0A96908FB0908761E84
:1009000001987F1C44F4007488478246002E05DD60
:100910004946504600F02EFF0028EDDAE9690198BB
:100920008847A00502D46FF00100A8E7E00725D1B1
:10093000600613D5600502D5C8F1000000E040460E
:1009400029680A1D2A600968220501D5087015E08A
:10095000220701D5088011E008600FE02868011D1A
:1009600029600068210502D580F8008006E0210793
:1009700002D5A0F8008001E0C0F8008038467EE78C
:100980002DE9FF5F4FF000089946144646469169ED
:10099000D2E901A7DDF838B001988847054659EA41
:1009A0000B0005D009E0A1690198761C884705462F
:1009B000216A284688470028F5D1681C03D05FEAE1
:1009C000CA7005D015E04FF0FF3004B0BDE8F09FCD
:1009D0002068011D2160D0F800800AE05FEACA703B
:1009E00001D108F8015BA169761C01987F1E884738
:1009F0000546002F1ADD681C18D0B9F1000F0DD084
:100A0000E81705EBD060421120F01F0059F82210C2
:100A10002A1A012090400142E0D107E0BBF1000F0B
:100A2000DCD12846216A88470028D7D0E16901989F
:100A30008847BBF1000F07D1002E05DD5FEACA70C1
:100A400002D1002188F80010A068B84203DDBBF194
:100A5000000F03D017B16FF00100B6E73046B4E7DE
:100A60002DE9F041044600F14C07384605F096F8B0
:100A7000E068810712D0800601D5A66A04E0A1696A
:100A8000606808442169461A204600F067FF00228A
:100A900005463146204600F0B1FE00E0002538460C
:100AA00005F09CF82846BDE8F0812DE9F04118B129
:100AB000BDE8F041FFF7D4BF0B4E0025304605F0EE
:100AC0006DF80A4C6F1E07E02046FFF7C9FF00B122
:100AD0003D46206D20F00104002CF5D1304605F094
:100AE0007DF82846DFE70000040000200001002018
:100AF0002DE9F04716468846814602F14C073846F4
:100B000005F04CF8304600F06DFF18F8010B612835
:100B10000AD0722802D077283FD102E001250024B4
:100B200005E00225042402E0082448F2020518F832
:100B3000010B2B2806D0622809D018F8010C742864
:100B40000AD00BE045F0030544F00204EFE745F05E
:100B5000040544F00104EAE744F010044846214645
:100B600005F064F8411C18D00021316171604FF428
:100B70000071F560F1617061200704D530460222F2
:100B8000002100F03BFE306D40F00100306538463A
:100B900005F024F83046BDE8F0870026F7E72DE998
:100BA000F04115460E460746204C204604F0F6FF5D
:100BB0002A4631463846FFF79BFF0546204605F09A
:100BC0000DF82846BDE8F0812DE9F0410E4680463B
:100BD000164D284604F0E2FF154C206DC10704D0E5
:100BE000410804D020F00104F7E7224612E0542027
:100BF000FFF751FC070017D0206D47F001010843B3
:100C000054212065384600F09BF807F14C0004F0B1
:100C1000D5FF3A4631464046FFF76AFF044628466C
:100C200004F0DCFF2046CDE70024F8E704000020B4
:100C30000001002010B5431C02E010F8011B71B147
:100C40008107FAD14FF0013202C88C1A8C4314EAA2
:100C5000C211F9D0C01A0A0603D0C01E10BDC01AB6
:100C600010BD0A0401D0801E10BD0902FCD0401E38
:100C700010BD032A40F2308010F0030C00F0158004
:100C800011F8013BBCF1020F624498BF11F801CB8F
:100C900000F8013B38BF11F8013BA2F1040298BFF4
:100CA00000F801CB38BF00F8013B11F0030300F05E
:100CB000BF86083AC0F0088051F8043B083A51F862
:100CC00004CBA0E80810F5E7121D5CBF51F8043B07
:100CD00040F8043BAFF30080D20724BF11F8013B7A
:100CE00011F801CB48BF11F8012B24BF00F8013BDC
:100CF00000F801CB48BF00F8012B70474FF000020D
:100D00000429C0F0128010F0030C00F01B80CCF11D
:100D1000040CBCF1020F18BF00F8012BA8BF20F88B
:100D2000022BA1EB0C0100F00DB85FEAC17C24BFDF
:100D300000F8012B00F8012B48BF00F8012B704789
:100D40004FF0000200B5134694469646203922BF64
:100D5000A0E80C50A0E80C50B1F12001BFF4F7AFAF
:100D6000090728BFA0E80C5048BF0CC05DF804EB91
:100D7000890028BF40F8042B08BF704748BF20F8FF
:100D8000022B11F0804F18BF00F8012B70470000B4
:100D900030B44FF0013C50F8042B51F8043BCCFA2E
:100DA00052F4D51A20D1FCB950F8042B51F8043B69
:100DB000CCFA52F4D51A17D1B4B950F8042B51F823
:100DC000043BCCFA52F4D51A0ED16CB950F8042B6E
:100DD00051F8043BCCFA52F4D51A05D1002CDAD0E4
:100DE00030BC4FF00000704729BAB1FA81F111F020
:100DF0001801D1F120008440F2D1CA40CB4012F05A
:100E0000FF0213F0FF0330BCD01A704770477047E1
:100E1000704710B500F03EFE083010BD70477047B7
:100E20007047704738B504460A4600206946AFF35C
:100E30000080002808BF38BD02460099204600F017
:100E400039FE012038BD012001F008BCF8B5AFF330
:100E50000080054600200C46102000BF0646A81959
:100E6000A0420DD9324669460020AFF3008007004A
:100E700008BF01F0F3FB0098A04218BF0546C41953
:100E8000FFF7C7FF05600746F01D20F00700461971
:100E9000284600F00AF8B44208BFF8BDA21B31464C
:100EA0003868BDE8F84000F005BE00210160C0E9E7
:100EB00001100C3004F082BE1020704770B5164649
:100EC0000D46041F002808BF70BD002E1CBF05F191
:100ED0000C0004F063FE2B465868002818BFA0429F
:100EE00038BF0346F8D31968CA18A24218BF5C601D
:100EF00003D122681C461144196021680A198242F4
:100F000018BF606004D142686260006808442060D5
:100F1000002E1CBF05F10C0004F060FE70BD10B582
:100F20000446FFF776FF01682046BDE81040012225
:100F3000C4E770B5044685690068C10601D530264E
:100F400000E02026C00707D070BDD4E9012130465B
:100F50009047206A401C20626D1EF6D570BD70B5AA
:100F6000044685690078C00707D170BDD4E9012126
:100F700020209047206A401C20626D1EF6D570BD6F
:100F800009684A0501D540B27047C905FCD500B2D1
:100F9000704709684A0501D5C0B27047C905FCD53C
:100FA00080B2704770B50C460546012A05D02878F6
:100FB000800600D5EA69002302E0012305E05B1CFE
:100FC000934202D2E05C0028F9D1A869E618C01A61
:100FD000A861286A184428622846FFF7AAFF04E09F
:100FE000D5E9012114F8010B9047B442F8D3284603
:100FF000FFF7B5FF70BD2DE9F0470D4699469246C3
:10100000044600F124080168880604D5E06921F04F
:101010001001216000E00120A84201DD471B00E033
:101020000027A1697A1902EB0900081AA06120784B
:10103000C00602D42046FFF77CFF002608E0D4E972
:1010400001211AF806009047206A401C761C206295
:101050004E45F4DB2078C0060AD52046FFF769FF2D
:1010600006E0D4E9012130209047206A401C20622C
:10107000381EA7F10107F4DC07E0D4E9012118F8D4
:1010800005009047206A401C2062281EA5F101053A
:10109000F3DC2046FFF763FF2078000602D502202C
:1010A000BDE8F0870120FBE711680268006A53057C
:1010B00001D508700AE0D30501D5088006E01306C3
:1010C00003D5C217C1E9000200E0086001207047A3
:1010D0002DE9FF4F0C461E464FF0FF378BB0D2E98B
:1010E0000001DDF860800A908A46C1F30A5505B90F
:1010F0003D46002108464FF00000BAF1000F00F411
:10110000400005DA00EB80004FF4400101EA500096
:101110004FEA9059B9F1010F00DDB9460A9850EA3B
:101120004A000ED044F61050A5F2FF3545432F1467
:10113000B8F1000F1ED07542291E1EDDC9F1000254
:101140001CE0B8F1010F4FF0000001D0302103E0A6
:10115000F24305E02154401CB042FBDB3046002244
:10116000002121540B99C1F80880C1E900200FB07B
:10117000BDE8F08FBD1B6D1CDEE74A4600DA694210
:1011800006A801F0ABF806AB93E8070003AB83E8D1
:10119000070050460A9906F0E3FD8DE80700A0F528
:1011A00000501F3800900398002D0ADD42F21F0105
:1011B0004A460844002303A90390684607F04CF808
:1011C00009E0A0F500504A461F38002303A9039008
:1011D000684607F056F88DE807000004000C03D0BD
:1011E0004FF0FF30410800E01046B8F1000F03D087
:1011F0000022009215461EE0751E05D400F07CFC0E
:10120000303262556D1EF9D5B3460122084302D033
:1012100000227F1C04E02078302801D100227F1EAC
:10122000002A099784D01DE0112D07DA00F064FC34
:10123000303262556D1C50EA0102F5D1084302D0EC
:101240000098C8B10EE00021681E05E0235C625CD6
:1012500063542254401E491C8142F7DBAB46A81B55
:10126000401E0990002004F80B000B98099AC0F862
:101270000880C0E9002B7AE711264FF0000857E7F5
:101280002DE9F04F88460446D21D22F0070191B0A7
:10129000D1E90001CDE90A0107F052F902460B98A5
:1012A000C00F01D02D2007E02068810701D52B2039
:1012B00002E0202101EAC000032A099001D0072A98
:1012C00005DB03464146204600F0E2FD0BE12078B5
:1012D000800601D5E06900E00620B8F1650F81467F
:1012E00006D0B8F1660F18D0B8F1670F70D131E0B1
:1012F0000020B9F1110F009001DB112301E009F189
:1013000001030AAA01A90CA8FFF7E2FEDDE90C70AF
:10131000002609F10105834647E001204B46009075
:101320004FF000470AAA01A90CA8FFF7D1FEDDE99A
:101330000DB00C995D46002610B909F101000D1899
:10134000B9EB050003D4C0F1FF3609F10105A5EBA7
:1013500009002BE0B9F1010F01DA4FF0010900207B
:10136000B9F1110F0090484601DD112300E003465A
:101370000AAA01A90CA8FFF7ABFEDDE90C704D46E7
:1013800000268346207800070AD4AB4500DA5D4684
:1013900001A8012D04DD411911F8011C302907D0E5
:1013A0004F4502DA17F1040F04DA012082460FE0FC
:1013B0006D1EEEE7002F02DCED1B3E4403E0781CBF
:1013C000A84200DD7D1CB81B00F1010A4FF0004768
:1013D0002078000703D4AA4501DB4FF0FF3A002133
:1013E000B7F1004F0DF143088DF8431024D00220CF
:1013F0002B23002F01DA7F422D230A21021EA0F1A8
:10140000010000DC5FB197FBF1FC97FBF1F201FBFF
:101410001C7C17460CF1300C08F801CDEEE7A8F162
:10142000010003702188090501D5452100E06521EF
:10143000A0F1010800F8011C09980FA9A1EB080709
:10144000FF1D00B10120411901EBEA70A169384488
:10145000081A401EA0612078C00602D42046FFF77B
:1014600068FD099828B1D4E901219047206A401C01
:1014700020622078C00622D52046FFF75AFD1EE0E4
:10148000002E04DBB34502DD01A8805D00E03020C2
:10149000D4E901219047206A401C2062761CAAF101
:1014A00001005FEA000A0AD100F0F8FAC06801689A
:1014B000405CD4E901219047206A401C2062281E2C
:1014C000A5F10105DCDC07E0D4E9012118F8010BE6
:1014D0009047206A401C2062381EA7F10107F3DC08
:1014E0002046FFF73CFD032011B041E601694A1C8C
:1014F00002610878704700B58FB0CDE90131002155
:10150000059105497944CDE9031011466846FFF776
:10151000A3F80FB000BD0000E5FFFFFF0A6802F866
:10152000010B0A607047D1E900239A4202D2531C92
:101530000B601070704700002DE9FF5F15468A466A
:101540000446DFF8AC80F8440027D8E900103E4696
:10155000CDE9001010E03AF816106A4602A801F032
:1015600059F8411C07D02178890603D5E26939185A
:1015700091420DD80744761C2078800602D5E06998
:10158000B84205DDAE42E6DB3AF816000028E2D1AB
:10159000A069C01BA0612046FFF7CBFCD8E9001072
:1015A000CDE90010002017E03AF818106A4602A8AA
:1015B00001F030F8B0F1FF3F81460BD000250DF16E
:1015C000080B05E0D4E901211BF8050090476D1CCC
:1015D0004D45F7D308F10100B0428046E4DB206AB4
:1015E000384420622046FFF7BAFCBDE8FF9F0000A8
:1015F000968800002DE9F0418046D21D22F00702B6
:101600000025D2E90002F52915A614D0011E72F1B9
:10161000000106DA0023D0EB030063EB020211A6FF
:1016200008E0D8F800108B0701D50FA602E04907A3
:1016300001D50EA601251146002408F1240704E077
:1016400000F05AFA30323A55641C50EA0102F7D1E0
:101650002B46324621464046BDE8F041FFF7CBBC61
:10166000000000002D0000002B0000002000000002
:1016700030B4002100F1240408E002F00705D2088C
:10168000303542EA4372DB086554491C52EA0305CF
:10169000F3D10468002310A2250708D504F0200424
:1016A0000C4304D0C46901230CA2641EC46130BC85
:1016B000FFF7A1BC10B5044621461068FFF769FC8E
:1016C00002462046BDE810400023D1E7D21D22F09B
:1016D0000701D1E90023CBE7000000003000000043
:1016E000F0B40D460188090502D5214C7C4402E086
:1016F0001F4C7C440E34002100F1240608E002F067
:101700000F071209E75D42EA03721B097754491C6F
:1017100052EA0307F3D102780023120704D5702D93
:1017200006D009B1022311342246F0BCFFF763BC96
:1017300001231034F8E770B504460D4621461068C1
:10174000FFF727FC024629462046BDE870400023EB
:10175000C6E7D21D22F00703D3E90023C0E70368E0
:10176000126843F0200303600823C3610023B7E736
:10177000F88600003A2800D2303820F02002412AB2
:1017800001D3A2F13700884201D34FF0FF307047F8
:10179000026811441378016018467047D16005490A
:1017A0007944516104497944116200211161114663
:1017B00000F0DABBEDFFFFFFD9030000426842B141
:1017C000016811F8013B23B1521EC0E9001218460E
:1017D00070470121C160881E704742685AB1C368D2
:1017E000016843B983688B4205D0491E521CC0E989
:1017F0000012002070474FF0FF3070472DE9F04194
:10180000044616460D464769007B80072ED03846B1
:1018100004F003FA50BB3EB3012E02D0022E25D1B4
:1018200004E0204600F0F0FD05441DE0384604F0D9
:10183000EBF9E168002841F01001E16005DA20468B
:1018400000F058F80120BDE8F081C9030BD56268AB
:10185000E16A914200D81146A26911442269891AAD
:10186000814200DD08460544002D01DA0220EAE746
:10187000E16A6068E268814206D29103E06203D5C2
:1018800022F4003141F01002A6690027AE4213DCB9
:10189000E16A814201D90B4600E0034603EB060CE6
:1018A0002369ACEB030CAC4506DD814201D98C46C3
:1018B00000E084469C4505D1A760276042F02000E7
:1018C000A5620DE0AD1BE669AE1B8142A66000D9A2
:1018D0000846C01A281A20605819606022F02000BB
:1018E00003490840E060002084F84870ABE700003E
:1018F000BFCFD7FFC16821F4001141F08001C16062
:1019000000218160016070472DE9F047814614464F
:101910000E464FF0FF383248D5685769054209D066
:101920003846A16904F0C3F9002811DB2C48C043F4
:101930000540E5602B4632464946384604F0C2F978
:10194000A16920F00042B21A11440028A16103D01D
:101950002046FFF7CFFF4046BDE8F08770B504464C
:101960000569C06A6168884200D80846E16821F4C8
:101970002011E160C90312D5A84208D02246411BBC
:101980002846FFF7C1FF10B14FF0FF3070BD0020B7
:10199000E562C4E90150E06820F48030E060002096
:1019A00070BD10B50446C06820F02000E060A16A58
:1019B000A06988420DD02046FFF7D0FFE06820F4F0
:1019C000405040F01000E060A06AA0612069E06231
:1019D000606044F24001E0688843E06010BD0000B0
:1019E000100002002DE9F04704464FF000094FF0C7
:1019F000FF37C568D4E90486A80707D02046FFF75B
:101A0000ADFF304604F0F7F8002802DA3846BDE8AA
:101A1000F087280502D54046FFF781FA4C21204681
:101A2000FFF78EF9206D20F0010020654846EEE7B3
:101A300010B5203AC0F00B80B1E81850A0E818505B
:101A4000B1E81850A0E81850203ABFF4F5AF5FEAAB
:101A5000027C24BFB1E81850A0E8185044BF18C950
:101A600018C0BDE810405FEA827C24BF51F8043BF7
:101A700040F8043B08BF7047D20728BF31F8023B4B
:101A800048BF11F8012B28BF20F8023B48BF00F8DF
:101A9000012B704700487047FC01002010B5FFF78C
:101AA000F9FF203010BD801A0844401E491E8843AB
:101AB0001044704770B5144605468C464368002BA9
:101AC00018BF634538BF1846F8D302681044604514
:101AD00008D06646604604220821FFF7E4FF811B18
:101AE0008446641A2946CCF80040BDE870400022C4
:101AF0000CF10400FFF7E2B930B5B0F10A0271F160
:101B000000034FEA900E4EEA817EB0EB0E0061EBCF
:101B100091014FEA101E4EEA017E10EB0E0041EBE0
:101B200011114FEA102E4EEA016E10EB0E0041EB40
:101B300011214FEA104E4EEA014E10EB0E0041EB20
:101B40001141401841F100014FEAD00040EA4170D4
:101B50004FEAD1014FEA810444EA907410EB80050A
:101B600044EB01046D1944EB0404521BA3414FF0F4
:101B7000000348BF0A3200D530BD401C41F10001CE
:101B800030BD10B5044600F097FD0068005D00F020
:101B9000010010BD2DE9F04F04460D46D21D22F084
:101BA000070089B0D0E900974846394606F0C8FCDE
:101BB0000246F80F01D02D2307E02068810701D5E8
:101BC0002B2302E0202101EAC0038DF820300BB165
:101BD000012000E00020032A824601D0072A04DB0E
:101BE0002946204600F054F93FE12078800601D4D0
:101BF0000D2500E0E569C7F30A560D2D49DA0021ED
:101C00004FEA175B08464FF00000002F00F4400039
:101C100007DA00EB80004FF4400100EBD07001EADE
:101C200060008115012901DD4FF0FF3100224FEAEC
:101C3000850CBCF1180F06D31346ACF118004FF019
:101C40008052C24003E04FF4801323FA0CF30CF1EE
:101C50000C0CBCF1200F04D3ACF1200C09FA0CF0F1
:101C600001E007FA0CF000294FF0004801DD18B937
:101C70000FE00ED140450CD319EB02095F4121B9A9
:101C8000404502D19F4329EA0209BBEB175F00D010
:101C9000761C2088000502D57B48784402E07A480B
:101CA0007844193808AA302302F80A30037C0AF174
:101CB0000101002E0AF1020A53546A4602DC4FF079
:101CC000300101E04FF031014FF001088DF80010B4
:101CD00002D0A6F2FF3603E059EA470100D06B4E6E
:101CE000002D02DC2178090704D54FF002082E21CF
:101CF0008DF80110C44600210BE0C7F303433F01F8
:101D0000C35C491C6D1E02F80830052908F1010862
:101D100001DA002DF1DC00210CE000EB1973491C05
:101D20001B786D1E082902F808304FEA091908F1DE
:101D3000010801DA002DF0DC21688B0602D516E0DF
:101D4000A8F10108E04505DD02EB080313F8013CAA
:101D5000302BF5D0B8F1000F09DD02EB080313F8C2
:101D6000013C2E2B03D1090701D4A8F10108002D55
:101D700005DD3E2102F808106D1E08F10108407CC7
:101D8000002E02F8080008F1010804DA2D2076423E
:101D900002F8080002E02B2002F808000A214FF4A4
:101DA0007A70864208F101080BDB96FBF0F33033C2
:101DB00002F8083096FBF0F308F1010800FB136607
:101DC00001E0642E0CDB642096FBF0F3303302F864
:101DD000083096FBF0F308F1010800FB136601E000
:101DE0000A2E06DB96FBF1F0303002F8080008F10D
:101DF000010896FBF1F001FB1060303002F808009A
:101E0000A16908F1010808EB050202EB0A00081AB3
:101E1000A0612078C00602D42046FFF78AF8216A24
:101E200008AE01EB0A00206204E0D4E9012116F8B3
:101E3000010B9047BAF1010AF7D22078C00602D50B
:101E40002046FFF776F86E4609E016F8010B3E28AB
:101E50000FD0D4E901219047206A401C2062B8F1DC
:101E60000108F2D22046FFF77AF809B00320BDE856
:101E7000F08F206A2844206203E0D4E90121302059
:101E800090476D1EEBD3F8E78581000002FCFFFF51
:101E90002DE9F0411F46044603260168072A01F494
:101EA000006004DB08B116A505E016A503E008B143
:101EB00015A500E015A521F010002060A069C01E46
:101EC000A0610FB1401EA0612046FFF732F84FB16C
:101ED000D4E9012138469047206A401C2062C01C8A
:101EE000206206E0206AFAE7D4E9012115F8010B27
:101EF0009047761EF8D22046FFF731F8BDE8F08112
:101F00004E414E006E616E00494E4600696E66009D
:101F100010B5436913B1AFF3008001E0FFF742F859
:101F2000012010BD127800F124010A7000224A70CD
:101F30000122EDE711684FF0FF32E9E710B5436980
:101F400013B1AFF3008001E0FFF7F6FA012010BDF6
:101F5000128800F1240182840022C2840122EDE76C
:101F600011684FF0FF32E9E72DE9F34F4FF0000A17
:101F70000C4656468DB001200C9001F10C000B90E0
:101F800062690B9801219047051E2DD0252D2CD07C
:101F9000216A8847C0B162690B9801219047216A84
:101FA00088470028F7D16269411E0B98904700E0EE
:101FB000761CA1690D988847216A88470028F7D1C7
:101FC000E1690D988847DBE7A1690D988847A84229
:101FD000074601D1761CD3E7E1690D9888477F1C3D
:101FE00002D1BAF1000F6FD06BE162690B98002744
:101FF0003D46394690472A2804D162690B98012151
:1020000090470125DFF8D08262690B980121904743
:10201000A0F130010A290AD24745E5DC07EB870128
:1020200000EB4107303FDFD445F01005ECE7E9064F
:1020300001D46FF000476C280AD04C2814D06828CF
:1020400015D06A280DD074281CD07A281AD01DE02B
:1020500062690B98012190476C2802D045F0040575
:1020600014E045F002050DE045F020050AE0626944
:102070000B9801219047682802D045F0080505E03B
:1020800045F4006562690B9801219047C4E9015746
:1020900065283DD019DC58287AD00CDC452837D08B
:1020A00004DC252826D041289ED131E046282FD0B7
:1020B000472899D12CE05B2877D0612828D0632865
:1020C0007CD0642823D15AE0F6E06F2848D008DCA1
:1020D00066281DD067281BD0692821D06E2816D10C
:1020E00027E0702845D0732868D0752847D0782815
:1020F0000DD14DE0A1690D988847252805463FF48C
:1021000069AFE1690D9888476D1C3FF46AAFD8E06C
:102110000D9923466A466FF00100AFF30080C5E0D9
:1021200045F0400023464FF000026060A80736D417
:102130003EE0E8077FF447AF2068011D216000689A
:10214000290501D506701BE7290701D5068017E789
:10215000A90703D5F117C0E9006111E706600FE791
:1021600045F0400023464FF008026060A80716D4EF
:102170001EE040F60E0125EA0100606016E045F021
:10218000400023464FF00A026060A80707D40FE022
:1021900045F040006060A80708D5234610220D993D
:1021A0006FF00100AFF3008080E007E010222346CB
:1021B0000D996FF00100FEF73DFB77E04FF000094D
:1021C00063284F46C8464B46CB4602D05B2806D014
:1021D00038E0E80601D40120A060012732E06269FE
:1021E000D4F80CB00B98012190475E2807D14FF02E
:1021F000010949466269D4F80CB00B9890472169EF
:1022000039B900210A4603AB43F82120491C0829AB
:10221000FADBD8B3216949B308F1010862690B9868
:10222000012190475D28F4D1B9F1000F09D00020B9
:1022300003A951F82020D24341F82020401C08284F
:10224000F7DB03AB2069002820794FEA40701ED0ED
:102250005B462246CDF80080CDE901970D99002814
:102260006FF0010020DAAFF300801FE0C11703AA6E
:1022700000EBD1614B1121F01F0102EB8302411AE7
:1022800013680120884003431360C7E719E00D99E4
:10229000224600286FF00100009702DAAFF30080B9
:1022A00004E0FEF76DFB01E0AFF3008000280ADADE
:1022B000401C06D10C9820B14FF0FF300FB0BDE8A4
:1022C000F08F5046FAE7E90701D10AF1010A064406
:1022D00000200C9054E60000CCCCCC0C2DE9F0474B
:1022E000814616468AB0354878440DC88DE80D0001
:1022F00032487844801C03AC0DC884E80D0041F6D8
:102300009B300844372190FBF1F290FBF1F5A5F1E9
:10231000800501FB12041B3C02D56442012000E051
:102320000020DFF898A080460027FA44AAF1BE0AF0
:102330000EE0E0070AD03246684607EB470101236A
:102340000AEB810105F09DFF8DE8070064107F1CFA
:10235000002CEED1194F7F44AE3F19E0E80715D0AD
:1023600007EB04100DF1180A90E80E008AE80E0041
:10237000C068F04201D1981908903246012306A99D
:1023800003A805F07EFF03AB83E807006D10641C13
:10239000002DE3D14FF0010332466946B8F1000F3A
:1023A00003A802D005F058FF01E005F06AFFC9E973
:1023B0000001C9F808200AB0BDE8F087C87B00001A
:1023C000704710B54FF0FF34C1688A020FD5036B18
:1023D00042689A420BD1014690F82520104600F041
:1023E00085FB401C01D1204610BD002010BD11F01E
:1023F000C00FF8D1026941689142F4D90268491EC0
:10240000521CC0E90021F0E710B50146C2689007F0
:1024100003D0900607D5886A0AE000F055F901213B
:102420000160881E10BD8B69486818440B69C01A8A
:1024300091F848301BB191F84910401A10BD1103B2
:10244000FCD50028FADD401E10BD000010B565481F
:102450005421FEF775FC64485421FEF771FC634873
:102460005421FEF76DFC62485E49624A624B01608E
:102470005D4810605D4A1A60431C0B65511C016584
:102480000120106557484C3003F098FB56484C30FB
:1024900003F094FB55484C3003F090FB574803F091
:1024A0008DFB58484F4A56A17844FEF778FB20B977
:1024B000544878440A3800F07FFB54484A4A52A1F5
:1024C0007844FEF76CFB20B9504878440A3800F095
:1024D00073FB4F48454A4CA17844FEF760FB20B996
:1024E0004B4878440A3800F067FB40233D48DC0045
:1024F0000021224600F01EFB20B1424878445438A7
:1025000000F05AFB384822464023002100F012FB1D
:1025100020B13E487844543800F04EFB3348224600
:102520001023002100F006FB002806D0384878442C
:10253000BDE81040563800F03FBB10BD2B482DE9D8
:10254000F041006D2D4E20F00104304603F026FBD3
:10255000244D4C35284603F021FB2248FFF742FA70
:10256000284603F03BFB284603F025FB1E4D4C3567
:10257000284603F013FB1C48FFF734FA284603F003
:102580002DFB284603F017FB184D4C35284603F069
:1025900005FB1648FFF726FA284603F01FFB2846DE
:1025A00003F009FB14E0206D20F0010504F14C005C
:1025B000074603F0F3FA2046FFF714FA384603F013
:1025C0000DFB384603F0F7FA2046FEF7A8FC2C4630
:1025D000002CE8D1304603F001FB084803F0EBFA89
:1025E000BDE8F0810001002054010020A801002076
:1025F000080000200C000020100000200400002033
:10260000720000003C7B0000770000002B7B000084
:10261000047B00002DE9F04116460C46054600F00B
:102620004BF8036893F80101012807D0FF2C12D85A
:10263000185D80B101202C70BDE8F081D3F807014E
:102640003246214603F20713C7182846BC46BDE8A8
:10265000F041002360474FF0FF30EDE710B500F088
:10266000B3FABDE8104000F0A2BA70477546FFF714
:1026700011FAAE4605006946534620F0070085462C
:1026800018B020B5FDF74AFEBDE820404FF0000627
:102690004FF000074FF000084FF0000BAC46ACE8DD
:1026A000C009ACE8C009ACE8C009ACE8C00921F039
:1026B00007018D467047000010B5FFF7EFF9001DC8
:1026C00010BD00BFBD76000003F040BA10B5FEF7A4
:1026D000A0FB0068BDE8104000F0A4BA70B50D463C
:1026E00001461446D36850692A4603F0CFFA002801
:1026F00007DA411C07D0E16820F0004041F4804136
:10270000E160281A70BD2046FFF7F4F84FF0FF3063
:1027100070BDC1680022026021F4805141F0400187
:1027200011F4C06FC16001D08260704702694168D6
:10273000891AC269891A816070472DE9F0470446F9
:10274000C06840F48000E060010312D520F400204E
:10275000E060810606D4E26A61688A4200D80A46CF
:10276000511A216040F40010E06094F82500BDE8A3
:10277000F08720F40010E060800602D52046FFF7C5
:1027800010F9E06842F281014FF0FF390140012960
:1027900003D02046FFF7AEF8B6E0216800260029F6
:1027A0000ADAC94340F480502160C4E902606068DD
:1027B000411C61600078DAE744F2400108420CD025
:1027C00020F4A04040F040002660E060216960688D
:1027D000401AE169401AA06096E0216991B9C003EE
:1027E00010D4E069FDF757FE2061B0B1E06840F415
:1027F000006010F4407FE06002D140F48070E0603F
:1028000020696060E068D4F814A0C1061AD5C0033E
:102810000ED52046FFF7A2F814E004F12400206151
:102820000120E061E06820F4407040F48060E6E759
:1028300021696068401AA1690144504603F037FAE3
:102840000028A6DBE068C0032AD56168E06A8842F8
:1028500000D808462169451AE069471B1BD020466D
:10286000D4F81880FFF77AF808EB05015046C4F851
:10287000188003F01CFA00288BDBE06840F400307D
:10288000E060000202D5A0692844A061E1692069E6
:10289000C91B45180DE02046FFF760F8E769F5E72A
:1028A00025696168D4E90607491BE562084465604B
:1028B000A061E06820F0100010F4C06FE06002D06A
:1028C000204600F0F5F9E06840F48050C4E9026069
:1028D000000205D52069E06260606FF0010046E704
:1028E000224639462846FFF7F9FE411C0CD029182C
:1028F000E16258B1401E2060681C6060E06840F4EE
:102900000030E060287832E7484630E765602046CE
:10291000FFF7FFFEF8E72DE9F04705460C46C868CB
:1029200020F4201040F48000C860800602D50846DC
:10293000FFF737F8E06841F282014FF0FF390140BC
:10294000022903D02046FEF7D5FFB5E000F4204170
:10295000B1F5004F0FD1C00306D56168E06A884227
:1029600000D80846606006E02069E0626060606947
:1029700003F04AF9A061A0680022EEB200280DDA47
:10298000E1688B050AD4C043A06041F49030226016
:10299000E0606068411C61600670A5E0E0689046F8
:1029A000226040F40050E060206968BB606903F079
:1029B00034F9012704F12405A0B1A08910F4407F67
:1029C00008D0E069FDF767FD206118B1E06840F4C8
:1029D000006016E0E7612561E06820F4407040F493
:1029E00080600EE0E069FDF756FD00282061F1D01F
:1029F000E06840F4006010F4407FE06002D140F4F1
:102A00008070E06020696060E06825696FF0010A0D
:102A1000C1051FD56168E06A884200D80846411B9D
:102A200004D022462846FEF76FFFF0BBE0680102A3
:102A300003D5E562C4E9015854E0691CE1626160B4
:102A4000E16940F48030491EC4E9021030462E701E
:102A5000BDE8F087010202D500F480320AE0606828
:102A6000411C61600670E0680A2E40F48030E0602E
:102A700006D00022E16A6068814203D90B4602E079
:102A80000122F7E70346A7895B1B7F0503D4E769AB
:102A90009F4200DDE2B1814200D80146E5620F1A93
:102AA000C4E90158002B09DD00E005E02246194683
:102AB0002846FEF729FF08B14846C9E747B1A06993
:102AC000E5626560C01BA061E06840F01000E06056
:102AD000E068000208D56168A069E562491B084406
:102AE0006560A0615046B3E73046B1E7CA68431C51
:102AF0000FD00D4B1A420CD1D3070AD081F8250014
:102B00004B680B6300238B6012F0C06F0B6003D027
:102B100004E04FF0FF30704742F00072034B1A4060
:102B2000034B1A43CA60704780200800BFFFDFFFD5
:102B3000001048002DE9F04704461E4690460D4619
:102B4000C7684C30814603F029F8B80714D07802E2
:102B500012D44046B8F5807F09D0B0F5007F06D08A
:102B6000B8F5806F08D1012604F1240506E0701E37
:102B70006FF07F41884201D3012409E02561E661BD
:102B80006560E06820F4706040EA0800E0600024BE
:102B9000484603F023F82046BDE8F08710B5044608
:102BA000AFF300802046BDE81040FDF7A2BB00282F
:102BB00001D000F031B8704710B500F0C1F8BDE8A1
:102BC0001040FFF7F4BF000010B5012805D0002128
:102BD00003A000F09BF8012010BD09A1F8E7000058
:102BE00053494752544D454D3A204F7574206F66F6
:102BF0002068656170206D656D6F7279000000005E
:102C00003A2048656170206D656D6F727920636F41
:102C1000727275707465640001491820ABBEFEE7DE
:102C20002600020010B50C3002F0C5FF10BD0000F8
:102C30002DE9F04114460D46074601F14C06304699
:102C400002F0ACFF094B7B44224629463846FEF78A
:102C500052FC0446287B000601D54FF0FF34304675
:102C600002F0BCFF2046BDE8F0810000936E00003A
:102C70002DE9F04114460F46064600F14C05284662
:102C800002F08CFF08487844A06108487844224646
:102C90003946E0613046FEF781FD0446284602F0E1
:102CA0009DFF2046BDE8F081FF69000033F7FFFF7C
:102CB0002DE9F04707461348814602F06FFF124C9A
:102CC00040F2022817E094F85000C00710D0BC4230
:102CD0000ED004F14C05284602F060FFE668284655
:102CE00002F07CFF38EA060002D12046FDF7B8FE6C
:102CF000206D20F00104002CE5D1484602F06EFF63
:102D0000BDE8F087040000200001002070B50546F2
:102D10000C460A2000E06D1C00F02CF835B1287834
:102D20000028F8D102E0641C00F024F814B12078E7
:102D30000028F8D1BDE870400A2000F01BB8000060
:102D400010B5014602A0FFF7E1FF012010BD000011
:102D500053494752545245443A205265646972655A
:102D600063743A2063616E2774206F70656E3A2039
:102D70000000000008B569468DF800000320ABBED6
:102D800008BD00002DE9FC4701F0BAFA04462020F6
:102D90008DF8040002F05EFEBE4DDFF8DC954FF4C6
:102DA000805100222846C8470DF1040877480122C7
:102DB00042F21073414601F0E0FE28464FF4805184
:102DC0000122C84705204FF4805100228DF80400ED
:102DD0002846C847B14E4146012242F2107330687E
:102DE00001F0CBFE0DF1030A3068012242F21073AC
:102DF000514601F02BFE28464FF480510122C8476E
:102E00001A4F1EE001F07CFA001BB84228D8284671
:102E10004FF48051002201F06EFA306841460122E1
:102E200042F2107301F0A9FE30685146012242F2CD
:102E3000107301F00BFE28464FF48051012201F07F
:102E40005AFA9DF80300C007DCD1A348016821F0BD
:102E500001010160016821F002010160002001E030
:102E60006FF0020002B0BDE8F08700BF20A10700AC
:102E70002DE9FE4FDFF8FC830546D8F8000040F04E
:102E80000100C8F80000D8F8000020F00200C8F8DF
:102E9000000001F035FA0446280A8DF80B508DF831
:102EA0000A00280C8DF8090020208DF8080002F097
:102EB000D1FDF84DDFF8C0A44FF480510022284620
:102EC000D0470DF10809F448042242F21073494634
:102ED00001F053FE28464FF480510122D0470520CF
:102EE0004FF4805100228DF808002846D047EB4E61
:102EF0004946012242F21073306801F03EFE0DF1A6
:102F0000070B3068012242F21073594601F09EFD12
:102F100028464FF480510122D04741F288371EE005
:102F200001F0EEF9001BB8422BD828464FF480512F
:102F3000002201F0E0F930684946012242F21073A4
:102F400001F01BFE30685946012242F2107301F075
:102F50007DFD28464FF48051012201F0CCF99DF807
:102F60000700C007DCD1D8F8000020F00100C8F845
:102F70000000D8F8000020F00200C8F8000000208F
:102F800001E06FF0020003B0BDE8F08F08040020FC
:102F90000820704700487047C89F000881B0B548B6
:102FA0000068009001B070470048704702020001BD
:102FB0002DE9FC4149F66610364C374E002201904F
:102FC0003348016821F001010160016821F002012C
:102FD000016020464FF48051B047304F01ADDFF81B
:102FE000C080022242F2107329463868C04720464A
:102FF0004FF480510122B04705204FF48051002248
:103000008DF804002046B04738682946012242F274
:103010001073C04738680DF10301012242F21073AA
:1030200001F014FD20464FF480510122B04790205A
:103030004FF48051002201902046B047386829465D
:10304000042242F21073C04738680DF101010222D8
:1030500042F2107301F0FAFC20464FF48051012235
:10306000B0479DF801109DF802200EA002F030FF3D
:103070009DF801009DF8021081F0160180F0EF002C
:10308000084318BF4FF0FF3002B0BDE8F08100BF29
:103090007002002000040240F742000820000020D7
:1030A0007B4B00083E3E3E696420697320202578F2
:1030B0002025780A00000000022884BF6FF003007A
:1030C00070476C48016821F001010160016821F03E
:1030D0000201016000207047700200202DE9F04FCE
:1030E00085B00546C0076FF0040040F0BF8000299E
:1030F00000F0BC805F4E3068C00740F0B2801446DC
:10310000002A00F0AC8001915BA02946224602F023
:10311000DFFE30686FF0FF0740F00100306030687C
:1031200020F00200306001F0EBF8064607F58077EA
:10313000AF42FBD96019DFF854820DF1100942F259
:10314000107B0DF10F0A0090781B8A4FA04288BFB8
:103150002046514C029002208DF813508DF810003B
:10316000280A8DF81200280C8DF8110002F072FC6C
:1031700038464FF48051002201F0BDF82046494600
:10318000042242F2107301F0F8FC00286CD102987E
:10319000019942F2107382B2204601F0EEFC002841
:1031A00062D1754B38464FF4805101221C46984736
:1031B00005204FF4805100228DF810003846A047BA
:1031C000D8F800004946012242F2107301F0D5FC04
:1031D000D8F800005146012242F2107301F036FC8B
:1031E00038464FF480510122A04720E001F088F8D2
:1031F000801B584538D838464FF48051002201F0E2
:103200007AF8D8F800004946012242F2107301F022
:10321000B4FCD8F800005146012242F2107301F0CC
:1032200015FC38464FF48051012201F064F89DF8F6
:103230000F00C007DAD1029A0099174C154405F522
:10324000807088424FF4807088BF481B019B0290B9
:10325000A9424FF00200134401933FF67DAF0020D6
:1032600004E06FF0010001E06FF0020005B0BDE87E
:10327000F08F00BF70020020464C4153483E3E3E56
:1032800057524954453A20307825582C2025642E31
:103290000A00000000040240080400202000002072
:1032A0002DE9FE430E460146032014460290080A0B
:1032B0008DF80B108DF80A00080C8DF8090026A077
:1032C00002F006FE002E40D02A4DDFF8AC904FF4FD
:1032D000805100222846C8472C4F0DF108080422CF
:1032E00042F210734146386801F047FC3868A2B2D8
:1032F000314642F2107301F0A9FB28464FF4805189
:103300000122C84705204FF4805100228DF80800A3
:103310002846C84738684146012242F2107301F03E
:103320002CFC38680DF10701012242F2107301F004
:103330008DFB28464FF480510122C8479DF80700B5
:10334000C00718BF6FF0010401E06FF004042046CD
:1033500003B0BDE8F08300BF464C4153483E3E3EBB
:10336000524541443A20307825582C2025642E0AB5
:103370000000000000040240F742000880B5034846
:10338000006801F01BFB012080BD00BF2000002071
:10339000FEE70000014800F02BBD00BF48030020FD
:1033A000014800F025BD00BFA803002001686FF0B0
:1033B0000F0240F2FF3352FA81F2994318235F2A39
:1033C000B2FBF3F203A388BF043181659A5CC26546
:1033D0000846704700061016000610167047704722
:1033E000C449097851B1F44AC0F3C621515CC0F315
:1033F000022021FA00F000F0010070470020704721
:1034000070B5BC4C264656F8185F00F087FA56E8AF
:10341000001F46E8000202B1F9E7A942F2D1A84232
:1034200028BF70BD04F1100151E8002F531C41E882
:10343000003404B1F8E770BDF8B514460D460646F1
:10344000FFF7CEFF98B13746C0F20807FFF7D8FF65
:103450000146EFF30580002808BFB7B22A4623468D
:1034600007F1407001B0BDE8F04000F0C7B801209E
:1034700001B0F0BD2DE9F047994692460F46064649
:10348000FFF7AEFF58B33446DDF82080C0F20804E1
:10349000FFF7B6FF0546EFF30580002808BFB4B27A
:1034A00094480130D0E84F1F4A1CC0E8432F03B1B5
:1034B000F8E74FF4E0203A46534600EA0146294631
:1034C000A01900F1807000F099F858B1074829461A
:1034D0004A4643463043BDE8F04700F08FB801202C
:1034E000BDE8F0870020BDE8F08700BF01000002C2
:1034F0002DE9FC4707460020002900F0778015469B
:10350000802A00F2738038460E46FFF769FFE0B16B
:103510003C46C0F20804FFF773FF8046EFF30580D6
:10352000002808BFBCB295B1082D15D8002031463F
:103530002A46CDE900006846FDF79BFB05F0070031
:1035400044EA004000F140704BE001204EE020468C
:1035500041460022002347E0EE480130D0E84F1FEB
:103560004A1CC0E8432F03B1F8E74FF4E02032686B
:10357000736800EA0147414644EA0700CDE90023A9
:1035800000F1807000F03AF8D8B14FF601700836BB
:103590000743184800EB052A083D092D13D334686A
:1035A000D6F804903846414622464B4600F026F8AD
:1035B0000836083DAAF5006A01370028EDD1CDE9AB
:1035C0000049002012E0002031462A46CDE90000E3
:1035D0006846FDF74EFB0848384040EA0A0040F0D4
:1035E0000070009A019B414600F008F802B0BDE867
:1035F000F08700BF00F8FFFFFF00FFFD2DE9F04F4F
:103600004FF0805791464FF00052DFF8D8E29A46CB
:103610008B466FF0070407EAD10702EA99023843A4
:1036200010434FF0804202EA530240EA0208B948D0
:1036300000F1040C013400F05180614651E8007F34
:10364000781C41E8000505B1F8E707F03F0007F4F2
:1036500070770EEB001648EA873706F10C0547F045
:10366000406255E8007FB90103D3BFF32F8F0027D5
:1036700006E007F00047174345E8007303B1F0E7A1
:103680007901D7D587F004422BF00041000102F008
:10369000004319444EF800102AF0004029F0004180
:1036A00018441944C6E9011055E8001F890103D2E6
:1036B000BFF32F8F002004E045E8002303B1F3E7B8
:1036C000012058B19348083050E8001F4A1C40E8D8
:1036D000002303B1F8E70120BDE8F08F8D480C30DE
:1036E00050E8001F4A1C40E8002303B1F8E700201F
:1036F000BDE8F08F80090020FE294FF0000398BF3D
:10370000FE2A27D82DE9F041DFF8CCE100234FF065
:10371000010C4FF0000817E00CFA08F5054210D034
:103720000D460CE003EBD50605F0070401351EF845
:1037300006700CFA04F427EA04040EF806409542D9
:10374000F0D908F101082033B8F1040FE4D10123C6
:10375000BDE8F04118467047FE294FF0000398BFBE
:10376000FE2A26D82DE9F041DFF86CE100234FF066
:10377000010C4FF0000816E00CFA08F505420FD0D6
:103780000D460BE003EBD50605F0070401351EF8E6
:1037900006700CFA04F43C430EF806409542F1D949
:1037A00008F101082033B8F1040FE5D10123BDE889
:1037B000F0411846704700BF000900202DE9F0478E
:1037C000DFF850A181460020884680218AF8000059
:1037D0004148FDF7B5FA414B18214FF0FF3241F255
:1037E00021064FF0FF3511E01C7885EA04256FF0C3
:1037F000070407E02FB286EA450001349742C8BFAC
:1038000068000546002CF5D1013901330029EBD1C0
:10381000DAF82000324988421ED1BAF80200A9B273
:1038200088421BD1DAF81C40601C002CCAF81C002E
:1038300019D02C49002007E00A181030D3685F0126
:1038400044BF23F04063D360B0F5806FF4D100F043
:103850006BF8064604BB15E0CAF820100120CAF830
:103860001C00AAF8025000204FF48061CAE9010050
:10387000CAF80C008AF801001A48FDF761FA00F056
:1038800053F8064600203146002E18BF4FF47A71D7
:10389000CAE90401CAF81800D6B1134C4846002101
:1038A000FE22A0470F20EF21EF22A0470420FE2197
:1038B000FE22A047FFF7A4FD0146DAF81C200B48C2
:1038C0000023FFF79BFEB8F1000F18BF00F010F8BF
:1038D0003046BDE8F08700BF00090020B09F000817
:1038E0006B27A5E1000500205937000800FF000301
:1038F0000848017861B980B501210170FFF780FDAA
:103900000146054800220023FFF778FEBDE880400D
:10391000012070478009002001FF00030148006872
:10392000704700BF041000E00548016841F0807155
:1039300001600448016841F0010101600120704705
:10394000FCED00E0001000E0014602480022FFF715
:1039500073BD00BF01F30100014602480022FFF7DA
:103960006BBD00BF05F3020001464FF47340002217
:10397000FFF762BD014602480022FFF75DBD00BFB0
:1039800003F30200014602480022FFF755BD00BFC5
:103990000DF5020001464FF471400022FFF74CBDC7
:1039A000014602480022FFF747BD00BF06F10100B3
:1039B000014602480022FFF73FBD00BF14F101009D
:1039C000024800210022FFF737BD00BF01F10100CE
:1039D000024800210022FFF72FBD00BF02F10200C4
:1039E000024800210022FFF727BD00BF07F10100B8
:1039F000024800210022FFF71FBD00BF08F10200AE
:103A0000E0B594460A460146024800936346FFF734
:103A100031FD8CBD01F002000A4601460148FFF766
:103A20000BBD00BF04F00200E0B513460A46014694
:103A3000002000900148FFF71DFD8CBD05F002003D
:103A4000E0B594460A460146024800936346FFF7F4
:103A500011FD8CBD03F00200E0B513460A46014695
:103A6000002000900148FFF705FD8CBD02F0020028
:103A7000E0B513460A460146002000904FF43C3062
:103A8000FFF7F8FC8CBD0000014602480022FFF75A
:103A9000D3BC00BF08F902000A4601460148FFF7FF
:103AA000CBBC00BF03FA02000A4601464FF47A403D
:103AB000FFF7C2BCE0B594460A46014602480093AF
:103AC0006346FFF7D7FC8CBD0CFA0100E0B5134646
:103AD0000A460146002000900148FFF7CBFC8CBD50
:103AE0000DFA0200014602480022FFF7A5BC00BF04
:103AF0000EFA02000A4601460148FFF79DBC00BFCE
:103B000009FA02000A4601460148FFF795BC00BFCA
:103B10000AFA0200E0B513460A460146002000906A
:103B20000148FFF7A7FC8CBD01FA01000A460146D7
:103B30000148FFF781BC00BF0BFA02000A460146AC
:103B40000148FFF779BC00BF10FA0200E0B59446C7
:103B50000A460146024800936346FFF78BFC8CBD82
:103B600006FA0100E0B513460A460146002000901F
:103B70000148FFF77FFC8CBD07FA020001460248AE
:103B80000022FFF759BC00BF08FA02000A460146AE
:103B90000148FFF751BC00BF0FFA02000A46014678
:103BA0000148FFF749BC00BF06F701000A4601467D
:103BB0000148FFF741BC00BF07F702000146024879
:103BC0000022FFF739BC00BF08F702000A46014691
:103BD0000148FFF731BC00BF09F702000A46014661
:103BE0000148FFF729BC00BF03F702000146024865
:103BF0000022FFF721BC00BF0EF70100014602487A
:103C00000022FFF719BC00BF0FF702000A46014669
:103C10004FF47740FFF710BC014602480022FFF73F
:103C20000BBC00BF01F70100014602480022FFF76C
:103C300003BC00BF0AF70200014602480022FFF75A
:103C4000FBBB00BF0BF701000A4601460148FFF726
:103C5000F3BB00BF0CF702000A4601460148FFF71C
:103C6000EBBB00BF06F801000A4601460148FFF71A
:103C7000E3BB00BF07F80200014602480022FFF73D
:103C8000DBBB00BF08F802000A4601460148FFF707
:103C9000D3BB00BF09F802000A4601460148FFF7FE
:103CA000CBBB00BF03F802000A4601464FF4784040
:103CB000FFF7C2BBE0B513460A460146002000905C
:103CC0000148FFF7D7FB8CBD01F80100014602480F
:103CD0000022FFF7B1BB00BF0AF80200014602480C
:103CE0000022FFF7A9BB00BF0BF801000A460146FE
:103CF0000148FFF7A1BB00BF0CF802000A460146CD
:103D00000148FFF799BB00BF16F203000B460146BE
:103D10000348002A0CBF1A462930FFF78DBB00BFAD
:103D200003F20200014602480022FFF785BB00BFF4
:103D30001CF202000A4601464FF47240FFF77CBBBA
:103D4000024800210022FFF777BB00BF1AF20100F2
:103D5000E0B594460A460146024800936346FFF7E1
:103D600089FB8CBD09F40200014602480022FFF7DE
:103D700063BB00BF08F40200014602480022FFF7BF
:103D80005BBB00BF06F20100014602480022FFF7BC
:103D900053BB00BF15F20200E0B513460A460146C8
:103DA000002000900148FFF765FB8CBD01F2010087
:103DB000014602480022FFF73FBB00BF18F2030094
:103DC000014602480022FFF737BB00BF19F202008C
:103DD0000A4601460148FFF72FBB00BF17F2030058
:103DE0000A4601460148FFF727BB00BF01F6020063
:103DF000F8B5044600200821009058480568D4E929
:103E000016603768814039420CD0226813685B071E
:103E100008D5136823F004031360B160616D41F0AD
:103E20000101616501218140394208D0226852694F
:103E3000120604D5B160616D41F002016165042193
:103E40008140394208D022681268920704D5B160D7
:103E5000616D41F00401616510218140394217D044
:103E600020680268120713D5B16002680168520326
:103E700006D4C9055EBF016821F00801016001E0B8
:103E8000080301D4216C00E0A16C09B120468847E9
:103E9000E16D202000FA01F23A423BD0206803682D
:103EA000DB0637D5B26094F835300268052B19D19E
:103EB00022F016020260426922F080024261226C06
:103EC0000AB9A26C1AB1026822F0080202603F200F
:103ED0008840B060012084F83500002084F8340068
:103EE000216D37E0016852030CD4C9050ED4016876
:103EF00021F010010160012084F83500002084F8D1
:103F0000340003E0080301D4616C00E0E16B09B107
:103F100020468847606D00B3606DC00719D0052149
:103F20004FF4165084F83510B5FBF0F021680A689C
:103F300022F001020A60009A01328242009202D805
:103F40000A68D207F7D1012084F83500002084F8F0
:103F50003400E16C09B120468847F8BD1C00002000
:103F60002DE9F041044600F0CBF9002C4FD0054676
:103F7000022084F83500002084F8340021680868A5
:103F800020F00100086005E000F0BAF9401B0528A8
:103F900040D821680868C007F6D10868394AD4E9D2
:103FA000013504F10C0800EA020C98E8C101D4E9DB
:103FB000072E43EA0C032B431843636A304338430C
:103FC000042B40EA080040EA020040EA0E0225D134
:103FD000D4E90BE042EA0E02BEF1000F40EA020013
:103FE000086051F8140FA26A20F0030040EA0200B2
:103FF00040F0040C19D0B8F5005F28D0B8F1000FDC
:1040000035D1022A36D0012A2BD09AB30DE00120F7
:10401000BDE8F08103252023032013E00A6051F856
:10402000140F20F0070040EA030C2046C1F800C03E
:10403000FFF7BCF9E16D3F220023012502FA01F1EF
:1040400081600020636584F83550BDE8F081032A63
:10405000EBD8012540230120DFE802F0020C020327
:10406000F0E7AEF1C070B0FA80F0400904E0032A36
:1040700004D3DAD1CEF300600028D6D00125402346
:104080000120DFE73F8010F02DE9F04F914A4FF01B
:10409000070A4FF000094FF0010C4FF0000800270D
:1040A00090428D4A08BF4FF0040A02444FEAB223FF
:1040B000042B38BF4FEAB22A884AA2F57E7B102F24
:1040C00008BFBDE8F08F0CFA07F20A4242D0BC08E4
:1040D00009F00C0E0F235BF824C003FA0EF60AFA5F
:1040E0000EF30CEA06059D4214D15BF82430B3436D
:1040F0004BF82430794B1E461B689343336073683A
:1041000093437360B3689343B360754B1E461B685B
:1041100093433360032306680F25D2434FF0010C0D
:1041200003FA08F39E43066009F01C0605FA06F63A
:104130006FF0030505EA570505442C6A24EA0606D4
:104140002E6286689E438660466832404260C2683E
:104150009A43C26009F1040908F102080137AEE789
:104160002DE9F84F5B4A4FF0070A4FF0010B4FF073
:1041700000084FF0000E9042574A08BF4FF0040A63
:1041800002444FEAB223042B38BF4FEAB22A00227E
:10419000102A08BFBDE8F88F0B680BFA02F633420D
:1041A00000F091804B6843F01004122C13D16FF093
:1041B00003040EF01C030F2704EA520507FA03FC60
:1041C00005442C6A24EA0C0C0C6904FA03F343EA54
:1041D0000C032B624B68032703F00305122B07FA2D
:1041E00008F4076805FA08F56FEA040C27EA0407E3
:1041F00047EA0507076013D80BFA03F414F0061F0B
:104200000ED08468CD6804EA0C0405FA08F52C4346
:104210008460C3F3001445689440B5432C43446064
:10422000C4688D68DB0004EA0C0705FA08F547EA64
:104230000507C76047D50023284C0EF00C050093F6
:104240005E4BA4461F461B6843F480433B603B68BB
:1042500003F48043009322F003032344214C009F86
:10426000A1461F590F24AC400AFA05F5A7432F4376
:1042700043F80970DCF800304D6843EA0607EC03A8
:1042800058BF23EA0607CCF80070AC03DCF8043012
:1042900043EA060758BF23EA0607CCF80470EC028D
:1042A000DCF8083043EA060758BF23EA06070C4B40
:1042B000CCF80870AD021C461B6843EA060758BFDD
:1042C00023EA0607276008F102080EF1040E013206
:1042D0005EE700BF001002400000FEBF003C01404E
:1042E0000C3C014008FCFFFF42690A408A4208BFBB
:1042F000090481617047002A08BF09048161704781
:1043000006480068704700BF0348044900780A68FF
:1043100010440860704700BF14000020041F0020F4
:1043200080B50B48016841F400710160016841F4F7
:1043300080610160016841F480710160032000F038
:104340008DF8002000F006F800F040F8002080BD55
:10435000003C0240B0B586B001461A20002200247D
:1043600000F05EF81A2000F04DF81448019401683E
:1043700041F4802101606946006800F480200190CA
:10438000019801A800F00AF900F02EF90E4D0C4931
:104390000C4B40F2E732B0FBF5F00138C1E90030D8
:1043A0000846C1E902420C6100F084FD08B1012019
:1043B00002E0034800F099FD06B0B0BD4438024069
:1043C000600400200048014040420F0082B00020FD
:1043D0000B4901904A6842F480424A604A6802F4FC
:1043E00080420192019A0090086840F08050086075
:1043F000086800F080500090009802B0704700BF3D
:1044000040380240002808DB00F01F01012240096B
:1044100002FA01F1014A42F82010704700E100E081
:1044200080B5144B1B68C3F3022CBCF1030E8CF057
:1044300007034FF0FF3C38BF4FF0000E042B28BF9E
:1044400004230CFA03F399430CFA0EF301FA0EF16C
:104450009A431143BDE8804001F066BB05494FF621
:10446000FF030A681A4060F30A22034810430860F9
:10447000704700BF0CED00E00000FA052DE9F041A7
:10448000002800F08380434B04468846D3F800049C
:1044900000F00F00884207D283F80084D3F80004AC
:1044A00000F00F00404571D12068810711D5410708
:1044B00042BF996841F4E0519960010742BF996891
:1044C00041F4604199609968A26821F0F0011143BC
:1044D0009960C0072AD06068811E022903D219683A
:1044E000890109D452E0012803D11968890303D452
:1044F0004CE01968890749D599681D4621F00301E8
:1045000008439860FFF7FCFE064641F28837A8682A
:1045100061682B4600F00C00B0EB810F06D0FFF76E
:10452000EFFE801BB842F2D9032430E0D3F8000438
:1045300000F00F00404507D983F80084D3F8000449
:1045400000F00F00404521D12068410705D599684A
:10455000E26821F4E05111439960000706D598689C
:10456000216920F4604040EAC10098601C4600F0D8
:104570004BF8A168084A0024C1F30311515CC840FC
:104580001E4908600020FFF7E5FE00E001242046F8
:10459000BDE8F081003802406C9F00080F220260E5
:1045A000174A136803F003034360136803F0F00332
:1045B0008360136803F4E053C3604FF4E053D2F810
:1045C00000C003EADC030361D2F8F80300F00F0037
:1045D0000860704709480A490A4A00680968C1F337
:1045E0008221515CC840704704480549054A00686B
:1045F0000968C1F34231515CC84070471C0000207B
:10460000083802407C9F000810B5134C606800F029
:104610000C00082804D0042814BF1048104810BD0E
:10462000226820680023400202F03F020C485CBF71
:1046300042F20040C0F2F4002168C1F38811A0FBEF
:104640000101FBF732FF21680222C1F3014102EBB5
:104650004101B0FBF1F010BD043802400024F40029
:1046600040787D012DE9FC41002800F005810446D9
:104670000078AF4EC0072FD0B06800F00C000428BF
:1046800023D0B06800F00C00082802D17068400206
:104690001BD46768B7F5803F07D03068B7F5A02F07
:1046A00040F00B8140F480203060306840F480306E
:1046B0003060FFF725FE0546306880030CD4FFF715
:1046C0001FFE401B6428F7D99DE03068800303D5A6
:1046D0006068002800F0D080207880072BD5B06873
:1046E00010F00C0F07D0B06800F00C00082809D1BA
:1046F0007068400206D43068800715D5E06801284C
:1047000012D0B9E0E1688B4800297ED00121016018
:10471000FFF7F6FD05463068800705D4FFF7F0FD8A
:10472000401B0228F7D96EE03068216920F0F800BC
:1047300040EAC10030602078000721D5606978B177
:104740007C480121C0F8801EFFF7DAFD0546706F36
:10475000800715D4FFF7D4FD401B0228F7D952E09B
:1047600074480021C0F8801EFFF7CAFD0546706F2F
:10477000800705D5FFF7C4FD401B0228F7D942E0AA
:104780002078400770D5306C4FF00008C0000CD482
:10479000CDF804804FF00108306C40F08050306458
:1047A000306C00F0805001900198634F3868C0056C
:1047B0000FD4386840F480703860FFF7A1FD0546DB
:1047C0003868C00505D4FFF79BFD401B0228F7D9C8
:1047D00019E0A768012F05D0306F052F25D140F0D3
:1047E00004003067306F40F001003067FFF788FD4C
:1047F000054641F28837306F80072ED4FFF780FDE1
:10480000401BB842F7D9032037E000210160FFF7D1
:1048100077FD0546306880077FF58DAFFFF770FDA7
:10482000411B03200229F5D927E020F00100306761
:10483000306F20F004003067FFF762FD0546002F5F
:10484000D7D141F28837306F800706D5FFF758FD82
:10485000411B0320B942F6D90FE0B8F1000F1EBF8B
:10486000306C20F080503064A769002F5DD0B068B4
:1048700000F00C00082803D1012002B0BDE8F0814F
:104880002C49002088460866FFF73AFD0546022FAE
:1048900009D13068800128D5FFF732FD411B032084
:1048A0000229F6D9E9E7306880013ED5FFF728FDF7
:1048B000411B03200329F6D3DFE720F4803030606A
:1048C000306820F480203060FFF71AFD0546002F85
:1048D0007FF4F2AE306880037FF5FEAEFFF710FD87
:1048E000411B03206429F5D9C7E704F11C078FCFCA
:1048F0000843D90340EA82104FF6FF72914340EA21
:104900000760A1F58031084370600120C8F860009D
:10491000FFF7F6FC04463068800106D4FFF7F0FC90
:10492000011B03200229F6D9A7E70020A5E700BF55
:1049300000380240000047420070004070B5C8B324
:10494000002605464FF0000C866290F8510030B901
:10495000284685F8506000F043F8D5F828C00221B9
:1049600085F8511029680A6822F040020A60D5E9EA
:104970000123D5E903041A4310436A692043104315
:10498000AA6902F400731843EB6918432B6A1843B1
:1049900040EA0C000860042000EA12406A6A1043F2
:1049A0004860C86920F40060C86101206E6585F820
:1049B000510000E00126304670BD0000016821482A
:1049C000814218BF7047054900F5E6300A6822F4B5
:1049D00080420A604FF46041FFF756BB4038024006
:1049E00010B586B0044601A81421FCF7A9F9216886
:1049F0001448814224D10021134A00F5E630009189
:104A0000136943F480431361136903F480430093F3
:104A1000009B0091136843F002031360126802F0D8
:104A200002020092009A052205920322CDE90312A8
:104A3000022102914FF46041019101A9FFF790FB1F
:104A400006B010BD00380040303802402DE9F84370
:104A5000044640681D4617460E46B0F5827F02D1D7
:104A6000A06800287AD094F85000012801D10220D3
:104A70007EE04FF0010984F85090FFF741FC80463A
:104A800094F85100012862D10120002E60D0002F3F
:104A90005ED0042084F8510000206065E787A78776
:104AA000A663A0862063C4E91000E0866E1CA1689E
:104AB0002068B1F5004F02BF016821F48041016018
:104AC000016849065EBF016841F040010160E0688D
:104AD000A0B92CE020688168C90707D1FFF710FC56
:104AE00066B1A0EB0800A84208D344E0C068A16BFF
:104AF00021F8020BA163E08F0138E087E08F0028E6
:104B0000E8D117E020688168C90707D1FFF7F8FBF3
:104B10006EB1A0EB0800A84209D32CE0007BA16B8A
:104B20000870A06B0130A063E08F0138E087E08F50
:104B30000028E7D120462946424600F0BBFC08B1D8
:104B400020206065606D002818BF012000E0022071
:104B5000002184F8501084F8519009E00420314677
:104B600032463B4684F851002046009500F0B6F8E6
:104B700001B0BDE8F0830320EAE72DE9F8430446DD
:104B800090F85000012801D10220A4E04FF0010963
:104B90001D4616460F4684F85090FFF7B1FB80463D
:104BA00094F85100012854D10120002F00F08E808C
:104BB000002E00F08B80032084F8510000206065F7
:104BC000E686A6862763A087A063C4E91000E08775
:104BD000A1682068B1F5004F02BF016841F480412F
:104BE0000160016849065EBF016841F04001016053
:104BF0006268711EE368B1FA81F1B2FA82F2490982
:104C0000B3F5006F4FEA521241EA020123D131B1EC
:104C100037F8021BC1602763E08E0138E0866E1C06
:104C200013E020688168890707D4FFF769FB66B144
:104C3000A0EB0800A84208D347E0216B31F8022B13
:104C4000C2602163E08E0138E086E08E0028E8D162
:104C500024E002203AE039B139780173206B013049
:104C60002063E08E0138E0866E1C14E020688168C5
:104C7000890707D4FFF744FB6EB1A0EB0800A842F8
:104C800009D322E0216B09780173206B0130206386
:104C9000E08E0138E086E08E0028E7D120462946E4
:104CA000424600F031FC08B120206065A06838B9A8
:104CB000002000902068C1680091806800900098F2
:104CC000606D002818BF012000E00320002184F857
:104CD000501084F8519001B0BDE8F0832DE9F843FD
:104CE000044690F85000012801D10220C7E00120BD
:104CF0001E4615460F4684F85000FFF701FB94F856
:104D00005110814601296BD10120002F00F0B180A4
:104D1000002D00F0AE80002E00F0AB8094F8510022
:104D2000DDF8208004281CBF052084F851000020F5
:104D30006065E687A563A6872763C4E91000A68699
:104D4000E6862068016849065EBF016841F04001BF
:104D500001606268711EE368B1FA81F1B2FA82F211
:104D60004909B3F5006F4FEA521241EA020145D1F9
:104D700031B137F8021BC1602763E08E0138E0864D
:104D8000012608F10105E08E10B9E08F002879D0E6
:104D90002068816889070CD5E18E012E09D141B1C7
:104DA000216B002631F8022BC2602163E18E0139AC
:104DB000E1868168C9070AD0E18F41B1C068A16B63
:104DC000012621F8020BA163E08F0138E087FFF78D
:104DD00097FA002DD7D0A0EB09004045D3D347E088
:104DE0006068B0F5827F07D10220042941D1A16813
:104DF00000293FF489AF3CE002203AE039B139782C
:104E00000173206B01302063E08E0138E0860126BB
:104E100008F10105E08E08B9E08F98B32068816839
:104E200089070ED5E18E012E0BD151B1216B0026E1
:104E300009780173216B206801312163E18E01390A
:104E4000E1868168C9070BD0E18F49B1C068A16BC9
:104E500001260870A06B0130A063E08F0138E08765
:104E6000FFF74EFA002DD5D0A0EB09004045D1D375
:104E70000320002184F85010012184F8511001B062
:104E8000BDE8F083204641464A4600F03DFB18B19C
:104E9000202060650120ECE7A16800200029E8D10E
:104EA00000902168CA680092896800910099E0E743
:104EB00070477047B0B110B5044690F83D0028B96E
:104EC000002084F83C00204600F00EF80220211D4E
:104ED00084F83D00206800F025FC012084F83D00A6
:104EE000002010BD0120704770470068C16841F084
:104EF0000101C160816801F0070106291EBF016838
:104F000041F00101016000207047704710B5044670
:104F100000680169890744BFC1685FEA817138D4BC
:104F20000169490744BFC1685FEA41713DD4016925
:104F3000090744BFC1685FEA017143D40169C9062A
:104F400044BFC1685FEAC16148D40169C9071CBF99
:104F5000C1685FEAC1714ED10169090644BFC168E9
:104F60005FEA01614FD40169490644BFC1685FEA45
:104F7000416150D40169890646BFC1685FEA816119
:104F800010BD6FF0200101612046BDE81040FFF721
:104F900090BF6FF0020101610121217780698007D4
:104FA00041D02046FFF7B1FF43E06FF004010161FB
:104FB00002212177806910F4407F3ED02046FFF720
:104FC000A4FF40E06FF00801016104212177C0696E
:104FD00080073CD02046FFF798FF3EE06FF01001BD
:104FE000016108212177C06910F4407F39D0204643
:104FF000FFF78BFF3BE06FF001010161204600F0FD
:105000003DF82068A8E76FF0800101612046FFF7B6
:105010004FFF2068A7E76FF040010161204600F0D4
:1050200037F82068A6E7204600F025F8204600F073
:1050300023F800202077206872E7204600F01BF854
:10504000204600F019F80020207720686FE72046FE
:1050500000F011F8204600F00FF8002020772068BB
:105060006CE7204600F007F8204600F005F8002025
:105070002077206869E7704770470000006803499F
:10508000884208BFFFF740B9704700BF00480140A1
:10509000704750B310B5044690F8390028B9002085
:1050A00084F83800204600F023F8242084F83900E2
:1050B0002068C16821F40051C160204600F0D2FB95
:1050C0002068016921F490410161416921F02A01C0
:1050D0004161C16841F40051C16000202021E063BA
:1050E00084F8391084F83A1010BD01207047000090
:1050F0002DE9F04F87B0044602A81421FBF720FEEB
:1051000021689A4881425ED10027754900F57440B4
:1051100001974A6942F010024A614A6902F010029E
:105120000192019A01970A6842F002020A60096836
:1051300001F00201019101990721069103210591D6
:105140000121049102210391C021029102A9FFF7DC
:1051500007F81F481D4D4FF4003A4FF000694FF417
:105160008068C5E908A7C5E9000983462846C5E95E
:105170000277C5E90487C5E90677FEF7F1FE08B1B5
:10518000FEF72DF9134E0BF1780165634020C6E957
:1051900008A7C6E9001906F1080181E88101304637
:1051A000C6E90577F761AC63FEF7DAFE08B1FEF7F2
:1051B00016F92520002100222663B463FFF730F999
:1051C0002520FFF71FF907B0BDE8F08F4803002046
:1051D00040640240A8030020FEE70000E0B5002084
:1051E000002201903E48016841F4800101600021E5
:1051F000006800F48000019001983A20FFF710F950
:105200003A20FFF7FFF8462000210022FFF708F9B7
:105210004620BDE88C40FFF7F5B800BF2DE9F04F00
:1052200087B000242E48304F01224FF4005A4FF02F
:10523000010806940194016841F0040101600168CD
:1052400001F00401019101990194016841F002010A
:105250000160016801F00201019101990194016866
:1052600041F0010101604FF40051006800F00100BD
:10527000019001981B4800F5006583462846B84711
:105280000BF580664FF4806101223046B847304606
:105290004FF480510022B84758464FF41041012284
:1052A0004FF41049B847CDE90444CDE902A802AF54
:1052B000DFF838A028463946D0474FF4A05005946F
:1052C000CDE90384394602903046D04758463946E6
:1052D000CDE90444CDE90298D04707B0BDE8F08F8E
:1052E0003038024000000240F742000861410008E7
:1052F00080B50F4800230F4A0A214FF4827C4FF0FB
:10530000100EC0E90833C0E90A314FF40071C0E95A
:10531000002CC0E90233C0E90433C0E9061EFFF7E0
:105320000DFB002814BFBDE8804080BDFEF757B8D4
:10533000080400200038004010B50B480B4C4FF417
:10534000E13300210C22C0E90043C0E90211C0E9A9
:105350000412C0E90611FFF79CFE002814BFBDE847
:10536000104010BDFEF73BB8A00400200010014023
:10537000FEE710B500F1280151E8002F12B9BFF384
:105380002F8F04E0531E41E8003404B1F4E782B1EA
:105390002C3001210AE0821CD2E84F3FC2E8441FB2
:1053A00004B1F9E71A0608BF10BD083000680028EC
:1053B000F1D1002010BD10B584465CF8303F8BB1B0
:1053C000CA784FF0000E05E01C46DB7893420ED2FF
:1053D0006368A646002BF7D10022C1E9012E00F137
:1053E0002C0208E00022C1E90122C16209E0C1E902
:1053F000014E04F108021160BEF1000F18BF0EF15A
:10540000040CCCF80010283050E8001F4A1C40E87B
:10541000002303B1F8E710BDD1E90123002A0EBF34
:10542000C36293608B68191D002B08BF00F1300127
:105430000A60704770470000014903F040BC00BF9C
:105440001003002019480068704700BF1848017811
:10545000012905D10021017004484FF080610160ED
:105460001248016841F001010160704704ED00E05D
:105470004FF0FF307047000040B192490968B1FB1E
:10548000F0F0411E0020B0EB116F02D04FF0FF3062
:105490007047054AFF231370044A062313605160C6
:1054A000034990600870704723ED00E010E000E0D1
:1054B0007402002010B50446406894460A46B0F5D0
:1054C000827F0ED1A068B0F5004F02D0B0F5806F9A
:1054D0000AD12168B0F5806F0B6823F040030B60A0
:1054E00002D12046012101E020468021634600F0E0
:1054F00035F800280FBF0020606D40F02000606587
:1055000018BF032010BD00001CB504466D481346AB
:105510000A4611490068B0FBF1F04FF47A71484334
:1055200001906068B0F5827F0AD12046802100F0AA
:1055300015F870B1606D40F020006065032009E04F
:10554000019830B101980138019020688068000608
:10555000F6D4002002B010BD00366E012DE9F041F6
:10556000984616460F460446551C20688068384009
:10557000B8421CBF0020BDE8F081002DF5D0FEF739
:10558000BFFEA0EB0800B042EFD32068416821F0D5
:10559000E00141606168B1F5827F0AD1A168B1F58F
:1055A000004F02D0B1F5806F03D1016821F04001B6
:1055B0000160A16AB1F5005F07D1016821F40051D3
:1055C0000160016841F400510160002084F850003E
:1055D000012084F851000320BDE8F08170B592B03D
:1055E00006AC1421201DFBF7ABFB00251A48022650
:1055F0000195016841F080510160006800F0805021
:105600000190019801951548016841F440410160FD
:10561000006800F44040019001980420119064203B
:1056200010960F9008200E901020CDE90C650A907E
:105630000120099020460696FFF714F84FF4805099
:105640000595032104900F20CDE90265019001A882
:10565000FEF714FF12B070BD4038024000700040E9
:105660001548416801F00C021449082A03D0042AA5
:1056700008BF134915E0026802235202104A58BFBE
:105680000A46016801F03F01B2FBF1F10268C2F382
:10569000881251430268C2F3014203EB4202B1FB9C
:1056A000F2F1084A084B11604068C0F30310185C1F
:1056B00021FA00F010607047043802400024F40022
:1056C00040787D011C0000206C9F000810B50E483A
:1056D0000F4CD0F8801041F47001C0F880100B49D5
:1056E0000A6842F001020A6000228A600B682340C7
:1056F0000B60084B4B600B6823F480230B60CA607F
:105700004FF00061016010BD08ED00E0003802407C
:10571000FFFFF6FE103000240148FFF7F7BB00BF83
:105720006004002010B50368184AB0F1804F13D010
:10573000174CA04210D0174CA0420DD0164CA042DE
:105740000AD0164CA0420BD0154CA04208D0154CE4
:10575000A04205D0904207D14C6823F07003234348
:10576000CC6823F4407323434C6923F080039042B8
:1057700043EA040303608B68C3620B68836204BF5F
:10578000096911630121416110BD00BF00000140A2
:105790000004004000080040000C004000480140A8
:1057A000004001400044014010B5930712D400F1BD
:1057B0002803D00718D153E8000F084203D1BFF3E4
:1057C0002F8F002005E020EA010243E8002404B105
:1057D000F1E710BD806AD20700EA010315D1002B62
:1057E00018BF10BD002010BD53E8000F00EA0102F1
:1057F0008A4203D0BFF32F8F002005E020EA010288
:1058000043E8002404B1EFE710BD8B4218BF00202D
:1058100010BD000080B5124A4FF0000E02F1440C9A
:10582000624606E01A6991420BD3891A03F10C0211
:105830009E461368002BF5D10022C0E902E2016107
:1058400006E0C0E902E3016198601A69511A196122
:10585000BEF1000F18BF0EF10C0CCCF8000080BD9B
:10586000240000202DE9F0470446006849F20C6549
:105870000169E26821F4405111430161A168D4E952
:105880000423E769C6681143AE43B7F5004F41EA08
:10589000030141EA070141EA0601C1604169A269C9
:1058A00021F4407141EA020141614A4940F48060BB
:1058B0003FD188420CBFDFF820A1DFF820A1D047FC
:1058C000D4F804908046D04767680646D0476168A0
:1058D00019257F00684306FB05F34900B3FBF7F386
:1058E000B0FBF1F06421B0FBF1F202FB1102181AD7
:1058F0004FEA49031044322202EBC0004FF4F87221
:10590000B0FBF1F002EA400008FB05F2B2FBF3F253
:10591000B2FBF1F100EB0116D04761686843490022
:10592000B0FBF1F7D04761686843072203234900C1
:105930003CE0884214BFDFF8A4A0DFF89CA0D04769
:10594000D4F804908046D04767680646D04761681F
:105950001925BF00684306FB05F38900B3FBF7F385
:10596000B0FBF1F06421B0FBF1F202FB1102181A56
:105970004FEA89031044322202EB001008FB05F2C3
:10598000B0FBF1F0B2FBF3F200F0F000B2FBF1F18A
:1059900000EB0116D047616868438900B0FBF1F75E
:1059A000D047616868430F2204238900B0FBF1F0FF
:1059B000391A6427B0FBF7F505FB17000844216886
:1059C00098403230B0FBF7F0104030438860BDE8BB
:1059D000F08700BF00140140E9450008D5450008E4
:1059E00010B5134CEFF3108072B660680189D0E9EE
:1059F0000023526B12685268891A418188B20021D3
:105A000019540CA000F064FA606841680DA000F021
:105A10005FFA60688169884760684069006801F0E2
:105A200069FA6068006800684168006862B610BD85
:105A3000680200202A2A2A2A2D2D2D2A2A2A2A0AFB
:105A4000000000004953523E3E3E2025730A0000EC
:105A5000FEE700002DE9FC4706208DF80700FEF761
:105A60004FFC2D4DDFF8B4A004464FF480510022C6
:105A70002846D0470DF107092948012242F2107348
:105A800042F210784946FFF778F828464FF48051E3
:105A90000122D04705204FF4805100228DF80700E5
:105AA0002846D0471F4E4946012242F21073306803
:105AB000FFF763F80DF106073068012242F2107318
:105AC0003946FEF7C3FF28464FF480510122D047E4
:105AD00018E0FEF715FC001B404519D83068494610
