:020000040800F2
:10000000C0110020E5020008DB2500089524000847
:10001000D925000873150008992900080000000080
:10002000000000000000000000000000DF250008C4
:10003000EB15000800000000DD250008E1250008A0
:10004000FF020008FF020008FF020008FF0200088C
:10005000FF020008FF020008FF020008FF0200087C
:10006000FF020008FF020008FF020008FF0200086C
:10007000FF020008FF020008FF020008FF0200085C
:10008000FF020008FF020008FF0200080000000055
:10009000000000000000000000000000FF02000857
:1000A000FF020008FF020008B5260008FF02000852
:1000B000FF020008FF020008FF020008FF0200081C
:1000C000FF020008FF020008FF020008FF0200080C
:1000D000FF02000859290008FF0200080000000084
:1000E000FF020008FF020008FF02000800000000F5
:1000F000000000000000000000000000FF020008F7
:1001000000000000FF020008FF020008FF020008D4
:1001100000000000000000000000000000000000DF
:10012000FF020008FF02000875150008FF02000822
:10013000FF020008000000000000000000000000B6
:10014000000000000000000000000000FF020008A6
:10015000FF020008FF02000881150008FF020008E6
:10016000FF020008FF02000800000000000000007D
:10017000000000000000000000000000000000007F
:1001800000000000FF020008000000000000000066
:10019000FF020008FF02000800F002F800F092F8E9
:1001A0000AA090E8000C82448344AAF10107DA45D2
:1001B00001D100F087F8AFF2090EBAE80F0013F092
:1001C000010F18BFFB1A43F0010318476832000003
:1001D00088320000103A24BF78C878C1FAD8520794
:1001E00024BF30C830C144BF04680C6070470000B1
:1001F0000023002400250026103A28BF78C1FBD830
:10020000520728BF30C148BF0B6070476E2900F00D
:10021000E381702900F02D83662903F07C80652935
:1002200003F07980672903F07680612903F07580F7
:1002300003681B0A28BF41F08001692900F0908102
:10024000642900F08D81752900F08A816F2900F002
:10025000BB82782900F0F982E92900F05582E4296F
:1002600000F05282F52900F04F82EF2900F0B882A9
:10027000F82900F0F8820368DB0928BF41F080010B
:10028000632900F0F987732900F0FE87E32901F064
:100290000980F32901F00E80002070471FB503F09C
:1002A0002DF801F05DF804000020002103F010F8A3
:1002B000401C60600020002102F0F4FFE0601FBDE0
:1002C00010B510BD01F01EF81146FFF7E7FF02F070
:1002D000CFFB01F0FBF803B4FFF7F2FF03BC01F022
:1002E00041F900000948804709480047FEE7FEE75A
:1002F000FEE7FEE7FEE7FEE7FEE7FEE7FEE7FEE7D6
:1003000004480549054A064B704700006926000865
:1003100099010008C0050020C0110020C00900207C
:10032000C009002053EA020C00F069802DE9F04B6F
:100330004FF00006002B1FBFB3FA83F503FA05F454
:1003400024FA05F65E4012BF1643B2FA82F502FAAD
:1003500005F4C5F120051EBF22FA05FC44EA0C0491
:10036000203556EA044C4FEA144418BF641C4FF081
:1003700000084FF00009904271EB030C39D30029BB
:1003800019BFB1FA81F701FA07F6B0FA80F700FA5F
:1003900007F6C7F120071EBF20FA07FC46EA0C0645
:1003A0002037B6FBF4FCA7EB0507103F07F01F0B47
:1003B000CBF120062CFA06F60CFA0BFB44BFB34631
:1003C0000026202FA4BF5E464FF0000B5BEA060C10
:1003D00008BF4FF0010B19EB0B0948EB0608ABFB0C
:1003E000027C06FB02CC0BFB03CCC01B71EB0C01A7
:1003F000C1E70B46024641464846BDE8F08B13B5BF
:100400004FF000004FF00001AFF30080BDE81C404A
:10041000704700007CB51D4616460C00009001D0C8
:100420002044401E074B7B442A46694601903046D3
:1004300000F0EBF805461CB10020694600F0F8F822
:1004400028467CBD110200004FF0000200B51346A3
:1004500094469646203922BFA0E80C50A0E80C50E4
:10046000B1F12001BFF4F7AF090728BFA0E80C5095
:1004700048BF0CC05DF804EB890028BF40F8042B8E
:1004800008BF704748BF20F8022B11F0804F18BFFB
:1004900000F8012B704770477047704770B50446ED
:1004A00085690068C10601D5302600E02026C00716
:1004B00007D070BDD4E9012130469047206A401C26
:1004C00020626D1EF6D570BD70B504468569007852
:1004D000C00707D170BDD4E9012120209047206AD0
:1004E000401C20626D1EF6D570BD09684A0501D515
:1004F00040B27047C905FCD500B2704709684A058B
:1005000001D5C0B27047C905FCD580B2704770B53F
:100510000C460546012A05D02878800600D5EA69F0
:10052000002302E0012305E05B1C934202D2E05C61
:100530000028F9D1A869E618C01AA861286A1844E9
:1005400028622846FFF7AAFF04E0D5E9012114F844
:10055000010B9047B442F8D32846FFF7B5FF70BDB2
:100560002DE9F0410646002410687529314616A58C
:1005700010D0FFF7BAFF002802DA404213A507E0C7
:1005800031688A0701D512A502E0490704D511A5F3
:10059000012401E0FFF7B2FF00210A2206F124073F
:1005A00009E0B0FBF2FCB0FBF2F302FB1C003030C0
:1005B00078541846491C0028F3D123462A46304671
:1005C000BDE8F04100F069BA000000002D00000015
:1005D0002B0000002000000011680268006A53052B
:1005E00001D508700AE0D30501D5088006E013069E
:1005F00003D5C217C1E9000200E00860012070477E
:1006000001694A1C02610878704700B58FB0CDE9D6
:1006100001310021059105497944CDE903101146C6
:10062000684600F031F90FB000BD0000E5FFFFFFA4
:100630000A6802F8010B0A607047D1E900239A4268
:1006400002D2531C0B601070704700002DE9FF5F51
:1006500015468A460446DFF8AC80F8440027D8E9FE
:1006600000103E46CDE9001010E03AF816106A4638
:1006700002A800F023FE411C07D02178890603D58B
:10068000E269391891420DD80744761C207880061B
:1006900002D5E069B84205DDAE42E6DB3AF8160065
:1006A0000028E2D1A069C01BA0612046FFF7F6FE3A
:1006B000D8E90010CDE90010002017E03AF8181032
:1006C0006A4602A800F0FAFDB0F1FF3F81460BD068
:1006D00000250DF1080B05E0D4E901211BF8050008
:1006E00090476D1C4D45F7D308F10100B04280469C
:1006F000E4DB206A384420622046FFF7E5FEBDE8CF
:10070000FF9F0000C22C00002DE9F0418046D21D61
:1007100022F007020025D2E90002F52915A614D01F
:10072000011E72F1000106DA0023D0EB030063EB37
:10073000020211A608E0D8F800108B0701D50FA619
:1007400002E0490701D50EA601251146002408F153
:10075000240704E000F05CF930323A55641C50EA9A
:100760000102F7D12B46324621464046BDE8F04112
:1007700000F093B9000000002D0000002B000000E5
:100780002000000030B4002100F1240408E002F051
:100790000705D208303542EA4372DB086554491C2C
:1007A00052EA0305F3D10468002310A2250708D5F7
:1007B00004F020040C4304D0C46901230CA2641E7D
:1007C000C46130BC00F069B910B504462146106818
:1007D000FFF794FE02462046BDE810400023D1E713
:1007E000D21D22F00701D1E90023CBE70000000071
:1007F00030000000F0B40D460188090502D5214CF7
:100800007C4402E01F4C7C440E34002100F124069D
:1008100008E002F00F071209E75D42EA03721B09C4
:100820007754491C52EA0307F3D1027800231207D8
:1008300004D5702D06D009B1022311342246F0BC34
:1008400000F02BB901231034F8E770B504460D46CB
:1008500021461068FFF752FE024629462046BDE8B1
:1008600070400023C6E7D21D22F00703D3E900231E
:10087000C0E70368126843F0200303600823C361E4
:100880000023B7E7242B00002DE9F05F89460446DA
:100890004FF0000ADFF874B1FB44C0F820A02046F6
:1008A000E1688847002874D0252806D0D4E90121C2
:1008B0009047206A401C2062F1E700265F462046F0
:1008C000E16888472028054607DB312D05D27819D5
:1008D00010F8200C08B10643F1E7B00701D526F067
:1008E0000406C4F81CA00027C4F818A02A2D09D0BB
:1008F000284602F0CFFC38B304EB8708303DC8F837
:10090000185019E059F8041B204604EB8702916146
:10091000E1688847012F054618D1E069002820DAF0
:1009200026F020061DE0D8F8180000EB800005EB4B
:1009300040003038C8F818002046E168884705466E
:1009400002F0A8FC0028EED1012F0AD02E2D08D1EC
:100950002046E16888477F1C0546022F46F02006A6
:10096000C4DBA069002803DA404246F00106A0611A
:10097000F00701D026F010066C2D0BD0682D09D0A1
:100980004C2D39D06A2D35D0742D35D07A2D33D0F9
:1009900016E038E0E1682F4620468847B842054611
:1009A00009D16C2F26D04FF48060E16806432046C1
:1009B0008847054604E06C2F1AD04FF48070064338
:1009C0000DB3A5F14100192802D8203546F4006680
:1009D0004A462946204626604E46FFF717FC80B15E
:1009E00001280BD0F61D26F0070000F1080956E794
:1009F0004020E4E78020D8E70020D6E706F104098C
:100A00004DE7284652E7206ABDE8F09FB42A00006F
:100A100030B5B0F10A0271F100034FEA900E4EEAD0
:100A2000817EB0EB0E0061EB91014FEA101E4EEAA1
:100A3000017E10EB0E0041EB11114FEA102E4EEA31
:100A4000016E10EB0E0041EB11214FEA104E4EEA01
:100A5000014E10EB0E0041EB1141401841F1000135
:100A60004FEAD00040EA41704FEAD1014FEA8104D9
:100A700044EA907410EB800544EB01046D1944EBDB
:100A80000404521BA3414FF0000348BF0A3200D5B3
:100A900030BD401C41F1000130BD2DE9F0470D464D
:100AA00099469246044600F124080168880604D558
:100AB000E06921F01001216000E00120A84201DD81
:100AC000471B00E00027A1697A1902EB0900081A08
:100AD000A0612078C00602D42046FFF7DFFC002684
:100AE00008E0D4E901211AF806009047206A401C6A
:100AF000761C20624E45F4DB2078C0060AD52046DD
:100B0000FFF7CCFC06E0D4E9012130209047206AB1
:100B1000401C2062381EA7F10107F4DC07E0D4E98D
:100B2000012118F805009047206A401C2062281E09
:100B3000A5F10105F3DC2046FFF7C6FC207800068E
:100B400002D50220BDE8F0870120FBE72DE9FF4F29
:100B50000C461E464FF0FF378BB0D2E90001DDF89E
:100B600060800A908A46C1F30A5505B93D460021C6
:100B700008464FF00000BAF1000F00F4400005DA1B
:100B800000EB80004FF4400101EA50004FEA905919
:100B9000B9F1010F00DDB9460A9850EA4A000ED0BB
:100BA00044F61050A5F2FF3545432F14B8F1000F5D
:100BB0001ED07542291E1EDDC9F100021CE0B8F1ED
:100BC000010F4FF0000001D0302103E0F24305E0B7
:100BD0002154401CB042FBDB30460022002121544E
:100BE0000B99C1F80880C1E900200FB0BDE8F08F73
:100BF000BD1B6D1CDEE74A4600DA694206A800F01C
:100C0000F3FB06AB93E8070003AB83E8070050460D
:100C10000A9901F05FFF8DE80700A0F500501F382A
:100C200000900398002D0ADD42F21F014A46084455
:100C3000002303A90390684602F0C8F909E0A0F573
:100C400000504A461F38002303A90390684602F06B
:100C5000D2F98DE807000004000C03D04FF0FF30FC
:100C6000410800E01046B8F1000F03D000220092C6
:100C700015461EE0751E05D4FFF7CAFE30326255D8
:100C80006D1EF9D5B3460122084302D000227F1C15
:100C900004E02078302801D100227F1E002A099725
:100CA00084D01DE0112D07DAFFF7B2FE3032625515
:100CB0006D1C50EA0102F5D1084302D00098C8B17A
:100CC0000EE00021681E05E0235C625C6354225440
:100CD000401E491C8142F7DBAB46A81B401E099011
:100CE000002004F80B000B98099AC0F80880C0E9AE
:100CF000002B7AE711264FF0000857E72DE9F04F57
:100D000088460446D21D22F0070191B0D1E90001C6
:100D1000CDE90A0102F0A6FA02460B98C00F01D0F5
:100D20002D2007E02068810701D52B2002E020213B
:100D300001EAC000032A099001D0072A05DB034617
:100D40004146204600F010FB0BE12078800601D5DB
:100D5000E06900E00620B8F1650F814606D0B8F1E1
:100D6000660F18D0B8F1670F70D131E00020B9F1EB
:100D7000110F009001DB112301E009F101030AAA20
:100D800001A90CA8FFF7E2FEDDE90C70002609F1CD
:100D90000105834647E001204B4600904FF0004795
:100DA0000AAA01A90CA8FFF7D1FEDDE90DB00C9944
:100DB0005D46002610B909F101000D18B9EB0500D8
:100DC00003D4C0F1FF3609F10105A5EB09002BE0C2
:100DD000B9F1010F01DA4FF001090020B9F1110F4B
:100DE0000090484601DD112300E003460AAA01A94C
:100DF0000CA8FFF7ABFEDDE90C704D4600268346DC
:100E0000207800070AD4AB4500DA5D4601A8012D21
:100E100004DD411911F8011C302907D04F4502DAD1
:100E200017F1040F04DA012082460FE06D1EEEE791
:100E3000002F02DCED1B3E4403E0781CA84200DDDD
:100E40007D1CB81B00F1010A4FF000472078000715
:100E500003D4AA4501DB4FF0FF3A0021B7F1004F60
:100E60000DF143088DF8431024D002202B23002FCE
:100E700001DA7F422D230A21021EA0F1010000DCCD
:100E80005FB197FBF1FC97FBF1F201FB1C7C17466D
:100E90000CF1300C08F801CDEEE7A8F10100037069
:100EA0002188090501D5452100E06521A0F101084F
:100EB00000F8011C09980FA9A1EB0807FF1D00B15C
:100EC0000120411901EBEA70A1693844081A401E5B
:100ED000A0612078C00602D42046FFF7DFFA099807
:100EE00028B1D4E901219047206A401C2062207873
:100EF000C00622D52046FFF7D1FA1EE0002E04DB03
:100F0000B34502DD01A8805D00E03020D4E9012175
:100F10009047206A401C2062761CAAF101005FEA1B
:100F2000000A0AD100F01CFAC0680168405CD4E9EC
:100F300001219047206A401C2062281EA5F101056E
:100F4000DCDC07E0D4E9012118F8010B9047206AA6
:100F5000401C2062381EA7F10107F3DC2046FFF792
:100F6000B3FA032011B041E62DE9F04F04460D46D7
:100F7000D21D22F0070089B0D0E9009748463946D3
:100F800002F070F90246F80F01D02D2307E0206827
:100F9000810701D52B2302E0202101EAC0038DF84F
:100FA00020300BB1012000E00020032A824601D04E
:100FB000072A04DB2946204600F0D6F93FE12078D5
:100FC000800601D40D2500E0E569C7F30A560D2D12
:100FD00049DA00214FEA175B08464FF00000002F66
:100FE00000F4400007DA00EB80004FF4400100EB12
:100FF000D07001EA60008115012901DD4FF0FF3159
:1010000000224FEA850CBCF1180F06D31346ACF151
:1010100018004FF08052C24003E04FF4801323FACF
:101020000CF30CF10C0CBCF1200F04D3ACF1200C30
:1010300009FA0CF001E007FA0CF000294FF0004823
:1010400001DD18B90FE00ED140450CD319EB0209B0
:101050005F4121B9404502D19F4329EA0209BBEB18
:10106000175F00D0761C2088000502D57B487844A5
:1010700002E07A487844193808AA302302F80A3086
:10108000037C0AF10101002E0AF1020A53546A4658
:1010900002DC4FF0300101E04FF031014FF0010868
:1010A0008DF8001002D0A6F2FF3603E059EA47019E
:1010B00000D06B4E002D02DC2178090704D54FF0DB
:1010C00002082E218DF80110C44600210BE0C7F361
:1010D00003433F01C35C491C6D1E02F8083005291B
:1010E00008F1010801DA002DF1DC00210CE000EB31
:1010F0001973491C1B786D1E082902F808304FEA45
:10110000091908F1010801DA002DF0DC21688B06CD
:1011100002D516E0A8F10108E04505DD02EB080361
:1011200013F8013C302BF5D0B8F1000F09DD02EBCC
:10113000080313F8013C2E2B03D1090701D4A8F1B1
:101140000108002D05DD3E2102F808106D1E08F192
:101150000108407C002E02F8080008F1010804DABA
:101160002D20764202F8080002E02B2002F8080049
:101170000A214FF47A70864208F101080BDB96FBD6
:10118000F0F3303302F8083096FBF0F308F1010871
:1011900000FB136601E0642E0CDB642096FBF0F389
:1011A000303302F8083096FBF0F308F1010800FB39
:1011B000136601E00A2E06DB96FBF1F0303002F8F0
:1011C000080008F1010896FBF1F001FB10603030D7
:1011D00002F80800A16908F1010808EB050202EB1A
:1011E0000A00081AA0612078C00602D42046FFF742
:1011F00055F9216A08AE01EB0A00206204E0D4E947
:10120000012116F8010B9047BAF1010AF7D22078B4
:10121000C00602D52046FFF741F96E4609E016F8F0
:10122000010B3E280FD0D4E901219047206A401CD1
:101230002062B8F10108F2D22046FFF745F909B063
:101240000320BDE8F08F206A2844206203E0D4E93F
:101250000121302090476D1EEBD3F8E702230000F8
:1012600002FCFFFF10B5436913B1AFF3008001E04A
:10127000FFF74DF9012010BD127800F124010A702A
:1012800000224A700122EDE711684FF0FF32E9E7D2
:1012900010B5436913B1AFF3008001E0FFF7D6F951
:1012A000012010BD128800F1240182840022C28432
:1012B0000122EDE711684FF0FF32E9E72DE9F04137
:1012C00016460C46054600F043F8036893F8010102
:1012D000012807D0FF2C12D8185D80B101202C7096
:1012E000BDE8F081D3F807013246214603F2071327
:1012F000C7182846BC46BDE8F041002360474FF0C0
:10130000FF30EDE7754600F0EBF8AE4605006946A4
:10131000534620F00700854618B020B5FEF7F0FFD1
:10132000BDE820404FF000064FF000074FF00008E6
:101330004FF0000BAC46ACE8C009ACE8C009ACE823
:10134000C009ACE8C00921F007018D4670470000D4
:1013500010B500F005F8001D10BD00BF751F00009E
:1013600000487047300000202DE9F0411F46044638
:1013700003260168072A01F4006004DB08B116A502
:1013800005E016A503E008B115A500E015A521F0BC
:1013900010002060A069C01EA0610FB1401EA061B6
:1013A0002046FFF77BF84FB1D4E90121384690473A
:1013B000206A401C2062C01C206206E0206AFAE716
:1013C000D4E9012115F8010B9047761EF8D220468A
:1013D000FFF77AF8BDE8F0814E414E006E616E0075
:1013E000494E4600696E66002DE9F0478146164673
:1013F0008AB0354878440DC88DE80D0032487844ED
:10140000801C03AC0DC884E80D0041F69B300844F5
:10141000372190FBF1F290FBF1F5A5F1800501FB7E
:1014200012041B3C02D56442012000E00020DFF8DA
:1014300098A080460027FA44AAF1BE0A0EE0E00711
:101440000AD03246684607EB470101230AEB8101C7
:1014500001F0D1FD8DE8070064107F1C002CEED157
:10146000194F7F44AE3F19E0E80715D007EB041091
:101470000DF1180A90E80E008AE80E00C068F042EC
:1014800001D1981908903246012306A903A801F05A
:10149000B2FD03AB83E807006D10641C002DE3D19F
:1014A0004FF0010332466946B8F1000F03A802D09D
:1014B00001F08CFD01E001F09EFDC9E90001C9F8D1
:1014C00008200AB0BDE8F0870C20000010B50446E3
:1014D000AFF300802046BDE81040FEF7FCBE0000E0
:1014E000004870471000002030B44FF0013C50F825
:1014F000042B51F8043BCCFA52F4D51A20D1FCB994
:1015000050F8042B51F8043BCCFA52F4D51A17D1F9
:10151000B4B950F8042B51F8043BCCFA52F4D51A64
:101520000ED16CB950F8042B51F8043BCCFA52F4AC
:10153000D51A05D1002CDAD030BC4FF0000070472E
:1015400029BAB1FA81F111F01801D1F120008440DB
:10155000F2D1CA40CB4012F0FF0213F0FF0330BCBF
:10156000D01A704701491820ABBEFEE726000200E2
:101570007047FEE7014800F03BB800BF780000204C
:10158000014800F035B800BFD800002001686FF0B6
:101590000F0240F2FF3352FA81F2994318235F2A77
:1015A000B2FBF3F203A388BF043181659A5CC26584
:1015B00008467047000610160006101680B5D0F8D1
:1015C00000C0DCF800E02EF4802ECCF800E0CCF86F
:1015D000043080684028084608BF1046CCF8080050
:1015E00008BF0A46CCF80C2080BD70477047000049
:1015F000F8B5044600200821009058480568D4E951
:1016000016603768814039420CD0226813685B0746
:1016100008D5136823F004031360B160616D41F0D5
:101620000101616501218140394208D02268526977
:10163000120604D5B160616D41F0020161650421BB
:101640008140394208D022681268920704D5B160FF
:10165000616D41F00401616510218140394217D06C
:1016600020680268120713D5B1600268016852034E
:1016700006D4C9055EBF016821F00801016001E0E0
:10168000080301D4216C00E0A16C09B12046884711
:10169000E16D202000FA01F23A423BD02068036855
:1016A000DB0637D5B26094F835300268052B19D1C6
:1016B00022F016020260426922F080024261226C2E
:1016C0000AB9A26C1AB1026822F0080202603F2037
:1016D0008840B060012084F83500002084F8340090
:1016E000216D37E0016852030CD4C9050ED401689E
:1016F00021F010010160012084F83500002084F8F9
:10170000340003E0080301D4616C00E0E16B09B12F
:1017100020468847606D00B3606DC00719D0052171
:101720004FF4165084F83510B5FBF0F021680A68C4
:1017300022F001020A60009A01328242009202D82D
:101740000A68D207F7D1012084F83500002084F818
:101750003400E16C09B120468847F8BD080000203C
:101760002DE9F041044600F0A5F9002C4FD00546C4
:10177000022084F83500002084F8340021680868CD
:1017800020F00100086005E000F094F9401B0528F6
:1017900040D821680868C007F6D10868394AD4E9FA
:1017A000013504F10C0800EA020C98E8C101D4E903
:1017B000072E43EA0C032B431843636A3043384334
:1017C000042B40EA080040EA020040EA0E0225D15C
:1017D000D4E90BE042EA0E02BEF1000F40EA02003B
:1017E000086051F8140FA26A20F0030040EA0200DA
:1017F00040F0040C19D0B8F5005F28D0B8F1000F04
:1018000035D1022A36D0012A2BD09AB30DE001201F
:10181000BDE8F08103252023032013E00A6051F87E
:10182000140F20F0070040EA030C2046C1F800C066
:10183000FFF7ACFEE16D3F220023012502FA01F122
:1018400081600020636584F83550BDE8F081032A8B
:10185000EBD8012540230120DFE802F0020C02034F
:10186000F0E7AEF1C070B0FA80F0400904E0032A5E
:1018700004D3DAD1CEF300600028D6D0012540236E
:101880000120DFE73F8010F0B0B5044690F8340047
:1018900001282CD00120A56D84F8340094F835007F
:1018A000012821D1022084F83500002060652046FF
:1018B000FFF784FEE06D3F2101FA00F0A860206888
:1018C000016841F016010160416941F08001416108
:1018D000216C19B1016841F008010160016841F013
:1018E000010101600020B0BD002084F83400022016
:1018F000B0BD0000B0B5044600F0DCF80546734802
:10190000611C007818BF044400F0D4F8401BA042CA
:10191000FAD3B0BD2DE9F84F5B4A4FF0070A4FF0FC
:10192000010B4FF000084FF0000E9042574A08BFDD
:101930004FF0040A02444FEAB223042B38BF4FEAA7
:10194000B22A0022102A08BFBDE8F88F0B680BFAF4
:1019500002F6334200F091804B6843F01004122CE1
:1019600013D16FF003040EF01C030F2704EA520595
:1019700007FA03FC05442C6A24EA0C0C0C6904FAEF
:1019800003F343EA0C032B624B68032703F00305C0
:10199000122B07FA08F4076805FA08F56FEA040C39
:1019A00027EA040747EA0507076013D80BFA03F490
:1019B00014F0061F0ED08468CD6804EA0C0405FA02
:1019C00008F52C438460C3F3001445689440B54384
:1019D0002C434460C4688D68DB0004EA0C0705FAF8
:1019E00008F547EA0507C76047D50023284C0EF0E5
:1019F0000C0500935E4BA4461F461B6843F48043CE
:101A00003B603B6803F48043009322F003032344CC
:101A1000214C009FA1461F590F24AC400AFA05F53E
:101A2000A7432F4343F80970DCF800304D6843EAC0
:101A30000607EC0358BF23EA0607CCF80070AC0396
:101A4000DCF8043043EA060758BF23EA0607CCF85F
:101A50000470EC02DCF8083043EA060758BF23EABA
:101A600006070C4BCCF80870AD021C461B6843EA15
:101A7000060758BF23EA0607276008F102080EF19F
:101A8000040E01325EE700BF001002400000FEBFFE
:101A9000003C01400C3C014008FCFFFF42690A4049
:101AA0008A4208BF090481617047002A08BF0904FF
:101AB0008161704706480068704700BF03480449C9
:101AC00000780A6810440860704700BF00000020DA
:101AD000BC05002080B50B48016841F4007101602D
:101AE000016841F480610160016841F48071016026
:101AF000032000F08DF8002000F006F800F040F818
:101B0000002080BD003C0240B0B586B001461A20DE
:101B10000022002400F05EF81A2000F04DF814486E
:101B20000194016841F4802101606946006800F475
:101B300080200190019801A800F00AF900F02EF928
:101B40000E4D0C490C4B40F2E732B0FBF5F001387A
:101B5000C1E900300846C1E902420C6100F0CAFA4E
:101B600008B1012002E0034800F0DFFA06B0B0BD82
:101B700044380240380100200048014040420F0034
:101B800082B000200B4901904A6842F480424A60CA
:101B90004A6802F480420192019A0090086840F07D
:101BA00080500860086800F080500090009802B0F3
:101BB000704700BF40380240002808DB00F01F01DA
:101BC0000122400902FA01F1014A42F8201070474F
:101BD00000E100E080B5144B1B68C3F3022CBCF19C
:101BE000030E8CF007034FF0FF3C38BF4FF0000EA0
:101BF000042B28BF04230CFA03F399430CFA0EF3C9
:101C000001FA0EF19A431143BDE8804000F0C6BED0
:101C100005494FF6FF030A681A4060F30A22034899
:101C200010430860704700BF0CED00E00000FA05AB
:101C30002DE9F041002800F08380434B044688469C
:101C4000D3F8000400F00F00884207D283F8008424
:101C5000D3F8000400F00F00404571D120688107DF
:101C600011D5410742BF996841F4E05199600107DD
:101C700042BF996841F4604199609968A26821F077
:101C8000F00111439960C0072AD06068811E0229C3
:101C900003D21968890109D452E0012803D11968D7
:101CA000890303D44CE01968890749D599681D4612
:101CB00021F0030108439860FFF7FCFE064641F25D
:101CC0008837A86861682B4600F00C00B0EB810FE4
:101CD00006D0FFF7EFFE801BB842F2D9032430E0B4
:101CE000D3F8000400F00F00404507D983F80084C2
:101CF000D3F8000400F00F00404521D120684107CF
:101D000005D59968E26821F4E05111439960000714
:101D100006D59868216920F4604040EAC1009860C7
:101D20001C4600F04BF8A168084A0024C1F30311D7
:101D3000515CC8401E4908600020FFF7E5FE00E046
:101D400001242046BDE8F081003802401C34000820
:101D50000F220260174A136803F0030343601368FD
:101D600003F0F0038360136803F4E053C3604FF49F
:101D7000E053D2F800C003EADC030361D2F8F803B1
:101D800000F00F000860704709480A490A4A0068D5
:101D90000968C1F38221515CC84070470448054975
:101DA000054A00680968C1F34231515CC840704778
:101DB00008000020083802402C34000810B5134CED
:101DC000606800F00C00082804D0042814BF1048F4
:101DD000104810BD226820680023400202F03F0234
:101DE0000C485CBF42F20040C0F2F4002168C1F32D
:101DF0008811A0FB0101FEF795FA21680222C1F3C8
:101E0000014102EB4101B0FBF1F010BD043802408A
:101E10000024F40040787D012DE9FC41002800F009
:101E2000058104460078AF4EC0072FD0B06800F09F
:101E30000C00042823D0B06800F00C00082802D160
:101E4000706840021BD46768B7F5803F07D03068E0
:101E5000B7F5A02F40F00B8140F48020306030684F
:101E600040F480303060FFF725FE0546306880037F
:101E70000CD4FFF71FFE401B6428F7D99DE03068A3
:101E8000800303D56068002800F0D08020788007A8
:101E90002BD5B06810F00C0F07D0B06800F00C0024
:101EA000082809D17068400206D43068800715D52B
:101EB000E068012812D0B9E0E1688B4800297ED0A3
:101EC00001210160FFF7F6FD05463068800705D463
:101ED000FFF7F0FD401B0228F7D96EE0306821695A
:101EE00020F0F80040EAC10030602078000721D5DA
:101EF000606978B17C480121C0F8801EFFF7DAFDE7
:101F00000546706F800715D4FFF7D4FD401B0228EB
:101F1000F7D952E074480021C0F8801EFFF7CAFDCF
:101F20000546706F800705D5FFF7C4FD401B0228EA
:101F3000F7D942E02078400770D5306C4FF00008A8
:101F4000C0000CD4CDF804804FF00108306C40F094
:101F500080503064306C00F0805001900198634FE5
:101F60003868C0050FD4386840F480703860FFF7D7
:101F7000A1FD05463868C00505D4FFF79BFD401B51
:101F80000228F7D919E0A768012F05D0306F052F77
:101F900025D140F004003067306F40F00100306719
:101FA000FFF788FD054641F28837306F80072ED451
:101FB000FFF780FD401BB842F7D9032037E000212E
:101FC0000160FFF777FD0546306880077FF58DAF2C
:101FD000FFF770FD411B03200229F5D927E020F00F
:101FE00001003067306F20F004003067FFF762FDBA
:101FF0000546002FD7D141F28837306F800706D5CC
:10200000FFF758FD411B0320B942F6D90FE0B8F1A4
:10201000000F1EBF306C20F080503064A769002F85
:102020005DD0B06800F00C00082803D1012002B098
:10203000BDE8F0812C49002088460866FFF73AFD8C
:102040000546022F09D13068800128D5FFF732FDFF
:10205000411B03200229F6D9E9E7306880013ED50B
:10206000FFF728FD411B03200329F6D3DFE720F407
:1020700080303060306820F480203060FFF71AFD37
:102080000546002F7FF4F2AE306880037FF5FEAE88
:10209000FFF710FD411B03206429F5D9C7E704F1C0
:1020A0001C078FCF0843D90340EA82104FF6FF7216
:1020B000914340EA0760A1F5803108437060012038
:1020C000C8F86000FFF7F6FC04463068800106D4CB
:1020D000FFF7F0FC011B03200229F6D9A7E7002037
:1020E000A5E700BF003802400000474200700040F2
:1020F00070477047B0B110B5044690F83D0028B95C
:10210000002084F83C00204600F00EF80220211D3B
:1021100084F83D00206800F0D3FA012084F83D00E7
:10212000002010BD0120704770470068C16841F071
:102130000101C160816801F0070106291EBF016825
:1021400041F00101016000207047704710B504465E
:1021500000680169890744BFC1685FEA817138D4AA
:102160000169490744BFC1685FEA41713DD4016913
:10217000090744BFC1685FEA017143D40169C90618
:1021800044BFC1685FEAC16148D40169C9071CBF87
:10219000C1685FEAC1714ED10169090644BFC168D7
:1021A0005FEA01614FD40169490644BFC1685FEA33
:1021B000416150D40169890646BFC1685FEA816107
:1021C00010BD6FF0200101612046BDE81040FFF70F
:1021D00090BF6FF0020101610121217780698007C2
:1021E00041D02046FFF7B1FF43E06FF004010161E9
:1021F00002212177806910F4407F3ED02046FFF70E
:10220000A4FF40E06FF00801016104212177C0695B
:1022100080073CD02046FFF798FF3EE06FF01001AA
:10222000016108212177C06910F4407F39D0204630
:10223000FFF78BFF3BE06FF001010161204600F0EA
:102240003DF82068A8E76FF0800101612046FFF7A4
:102250004FFF2068A7E76FF040010161204600F0C2
:1022600037F82068A6E7204600F025F8204600F061
:1022700023F800202077206872E7204600F01BF842
:10228000204600F019F80020207720686FE72046EC
:1022900000F011F8204600F00FF8002020772068A9
:1022A0006CE7204600F007F8204600F005F8002013
:1022B0002077206869E7704770470000006803498D
:1022C000884208BFFFF7FABB704700BF00480140D3
:1022D0007047704750B310B5044690F8390028B9DC
:1022E000002084F83800204600F022F8242084F8EA
:1022F00039002068C16821F40051C160204600F017
:102300006DFA2068016921F490410161416921F071
:102310002A014161C16841F40051C16000202021BF
:10232000E06384F8391084F83A1010BD012070473A
:102330002DE9F04786B0044601A81421FEF784F881
:102340002168A44881425DD10027924900F574407C
:1023500000974A6942F010024A614A6902F010028D
:102360000092009A00970A6842F002020A60096827
:1023700001F00201009100990721059103210491C8
:102380000121039102210291C021019101A9FFF7CE
:10239000C1FA1F481D4D4FF000694FF480681421A9
:1023A000C5E90009824605F11400C5E90277C5F8C0
:1023B0001080FEF749F82846FFF7D2F908B1FFF779
:1023C00015F9144E0AF1780165634020C6E9001939
:1023D00006F1080181E8810106F114001421AC63C3
:1023E000FEF732F83046FFF7BBF908B1FFF7FEF809
:1023F0002520002100222663B463FFF7EBFB252094
:10240000FFF7DAFB06B0BDE8F08700BF78000020D8
:1024100040640240D8000020B0B5054690F839006D
:10242000202806D139B113462AB195F83800012881
:1024300003D1022423E0012421E000240120EB84C5
:10244000104ADFF844C0EC63AB84296285F8380099
:10245000212085F83900286BC0E913240B4AC0E914
:102460000F2C2A680432FFF70FFA28686FF040013A
:10247000016085F83840416941F0800141612046A2
:10248000B0BD00BF45270008BD27000899270008F8
:1024900070477047FEE70000E0B500200022019081
:1024A0003C48016841F4800101600021006800F4AB
:1024B0008000019001983A20FFF78CFB3A20FFF74B
:1024C0007BFB462000210022FFF784FB4620BDE86D
:1024D0008C40FFF771BB00BF2DE9F04F87B000249F
:1024E0002C482E4F01224FF4005A4FF00108069459
:1024F0000194016841F004010160016801F00401E8
:10250000019101990194016841F0020101600168A3
:1025100001F00201019101990194016841F001016A
:1025200001604FF40051006800F001000190019833
:10253000194800F5006581462846B84709F58066C8
:102540004FF4806101224FF4806B3046B847484613
:102550004FF410410122B847CDE90444CDE902A867
:1025600002AFDFF83CA028463946D047304639460E
:10257000CDE90444CDE902B8D0474FF410400594AA
:10258000CDE90384394602904846D04707B0BDE8FC
:10259000F08F00BF3038024000000240AB1A000844
:1025A0001519000810B5FA480A4C4FF4E133002120
:1025B0000C22C0E90043C0E90211C0E90412C0E9DD
:1025C0000611FFF787FE002814BFBDE8104010BDBC
:1025D000FFF70CB800100140FEE7704770477047E6
:1025E0007047000070B592B006AC1421201DFDF7B5
:1025F0002BFF00251A4802260195016841F0805101
:102600000160006800F08050019001980195154824
:10261000016841F440410160006800F440400190CD
:10262000019804201190642010960F9008200E90BD
:102630001020CDE90C650A900120099020460696ED
:10264000FFF7EAFB4FF480500595032104900F201B
:10265000CDE90265019001A8FFF7EAFA12B070BD5A
:10266000403802400070004010B50E480F4CD0F8C2
:10267000801041F47001C0F880100B490A6842F0E4
:1026800001020A6000228A600B6823400B60084B3D
:102690004B600B6823F480230B60CA604FF000612D
:1026A000016010BD08ED00E000380240FFFFF6FEBB
:1026B000103000240148FFF749BD00BF3801002059
:1026C00010B50368184AB0F1804F13D0174CA042E0
:1026D00010D0174CA0420DD0164CA0420AD0164C78
:1026E000A0420BD0154CA04208D0154CA04205D0FA
:1026F000904207D14C6823F070032343CC6823F445
:10270000407323434C6923F08003904243EA04035F
:1027100003608B68C3620B68836204BF096911633D
:102720000121416110BD00BF0000014000040040D4
:1027300000080040000C00400048014000400140FB
:102740000044014010B5846B2068416994F8392039
:10275000212A0BD111F0800108D00021E184C16849
:1027600021F0C001C160202184F83910406994F83B
:102770003A10222907D110F0400004D00020E08553
:10278000204600F01EF8E06B40F01000E0632046A9
:10279000BDE81040FFF79DBD0168806B0968C90561
:1027A00048BFFFF775BE0021C18401684A6922F065
:1027B00080024A61202180F839107047806BFFF752
:1027C00068BE0168CA6822F49072CA604A6922F041
:1027D00001024A61202180F83A1070472DE9F04744
:1027E0000446006849F20C650169E26821F4405131
:1027F00011430161A168D4E90423E769C668114364
:10280000AE43B7F5004F41EA030141EA070141EA4F
:102810000601C1604169A26921F4407141EA0201E7
:1028200041614A4940F480603FD188420CBFDFF8E3
:1028300020A1DFF820A1D047D4F804908046D047EB
:1028400067680646D047616819257F00684306FB24
:1028500005F34900B3FBF7F3B0FBF1F06421B0FBE3
:10286000F1F202FB1102181A4FEA49031044322216
:1028700002EBC0004FF4F872B0FBF1F002EA400046
:1028800008FB05F2B2FBF3F2B2FBF1F100EB01162B
:10289000D047616868434900B0FBF1F7D0476168F1
:1028A00068430722032349003CE0884214BFDFF855
:1028B000A4A0DFF89CA0D047D4F804908046D0476D
:1028C00067680646D04761681925BF00684306FB64
:1028D00005F38900B3FBF7F3B0FBF1F06421B0FB23
:1028E000F1F202FB1102181A4FEA89031044322256
:1028F00002EB001008FB05F2B0FBF1F0B2FBF3F2C3
:1029000000F0F000B2FBF1F100EB0116D047616876
:1029100068438900B0FBF1F7D047616868430F2234
:1029200004238900B0FBF1F0391A6427B0FBF7F5F6
:1029300005FB17000844216898403230B0FBF7F0DF
:10294000104030438860BDE8F08700BF00140140AC
:102950009D1D0008891D000880B5EFF3108072B638
:10296000DFF860C10B4A0023534801680968416BD6
:1029700009684968C1F500710CF801300123C2E90A
:1029800000314FF4007100F03DF862B680BD00BF29
:102990007801002070000020FEE7000010B5074C11
:1029A00000F00F03044AB0F1FF3F2344C8BF83186F
:1029B0000801187010BD00BF00E400E014ED00E055
:1029C00083B0B8B5044605A80EC005A80090142031
:1029D000FEF790FF094D009B4FF4007122462846F8
:1029E000FDF718FD064982B2088033482946FFF7F3
:1029F00013FDBDE8B84003B0704700BFBA01002026
:102A0000B8010020C0B5D0F834C0DCF800301A6836
:102A100022F001021A60DCF858E01A6822F48022E1
:102A20001A6059603F220068011D99602549D960EC
:102A3000DCF85C1002FA01F1CEF80810196841F0D8
:102A400010011960196841F001011960002100911D
:102A500001680091416800910099C16841F010013E
:102A6000C160416941F040014161002001B080BD79
:102A7000FFF730F8FFF7B6FDFFF72EFDFFF70CFD6F
:102A8000FFF790FD0C484FF40071FFF7BBFF0B4CB4
:102A90000B4FDFF830800CA6002520464FF4005184
:102AA000FEF7FCFF38680028F7D030464146FFF7B4
:102AB00087FF3D60F1E700BF780100200008024079
:102AC00070000020BA0300206D61696E3E3E3E201A
:102AD00025730A005FEA400C08BF91F0000F4FEA2F
:102AE0008C234FEAC12243EA51514FEA1C5018BFD0
:102AF00000F5F0404FEA300018BF41F000415FEAB6
:102B00006C5C00F02980BCF1FF3F08BF40F08040C2
:102B10007047130C06BF12044FF0100C4FF0000C5E
:102B2000130E04BF12020CF1080C130F04BF1201A4
:102B30000CF1040C930F04BF92000CF1020CD30FA4
:102B400004BF52000CF1010C11464FF00002A0F13D
:102B50001F00A0EB0C00704711F0004F08BF70473A
:102B600031F000413FF4D5AF0B0C06BF09044FF024
:102B7000100C4FF0000C0B0E04BF09020CF1080CF6
:102B80000B0F04BF09010CF1040C8B0F04BF89006B
:102B90000CF1020CCB0F04BF49000CF1010CCCF17D
:102BA000200322FA03F341EA030102FA0CF2A0EB3C
:102BB0000C0000F10100704723F07F4720F07F4CAC
:102BC00080EA030000F00040ACEB070303F57C5300
:102BD00003F1FF032DE9804909B44FEA144324EAC5
:102BE00003484FEA154B25EA0B4E0FF2042606EB7D
:102BF00013273E7803FB0667C7F5000707FB06F6B9
:102C00004FEAD64606F102064FEA543707FB066C38
:102C1000CCF1005C4FEA1C472CEA074C0CFB06F594
:102C200007FB06F404EB15464FEA961649085FEADF
:102C3000320234BF00204FF000404FEAD13706FB8C
:102C400007FC4FEA1C4C0CFB0BF7D21B03FB0CF7E9
:102C500061EB07010CFB0EF7B0EB074072EB17427C
:102C60000CFB08F734BFA2EB0742B2EB074261EB63
:102C700017414FEA0C444FEA910706FB07FC4FEA65
:102C80001C4C0CFB0BF7B0EBC74072EB573203FB4D
:102C90000CF734BFA2EBC742B2EBC74261EB57312E
:102CA0000CFB0EF7B0EBC70072EB57720CFB08F78A
:102CB00034BFA2EBC702B2EBC70261EB57714FEA18
:102CC000816141EA92114FEA826242EA90124FEA30
:102CD000806004EBCC04039F4FEAD13706FB07FC6E
:102CE0004FEA1C4C0CFB0BF7D21B03FB0CF761EB00
:102CF00007010CFB0EF7B0EB074072EB17420CFB21
:102D000008F734BFA2EB0742B2EB074261EB174171
:102D10004FEA8C5504EB9C244FEA910706FB07FC15
:102D20004FEA1C4C0CFB0BF7B0EBC74072EB573271
:102D300003FB0CF734BFA2EBC742B2EBC74261EB17
:102D400057310CFB0EF7B0EBC70072EB57720CFB60
:102D500008F734BFA2EBC702B2EBC70261EB5771B1
:102D60004FEA816141EA92114FEA826242EA90128F
:102D70004FEA806015EB4C2544F100044FEAD1374F
:102D800006FB07FC4FEA1C4C0CFB0BF7D21B03FBAA
:102D90000CF761EB07010CFB0EF7B0EB074072EB91
:102DA00017420CFB08F734BFA2EB0742B2EB074215
:102DB00061EB17414FEA813141EA92414FEA823299
:102DC00042EA90424FEA80304FEA0C7615EB1C1530
:102DD00044F1000448EA03434EEA0B484FF0000E6A
:102DE000B2EB080C71EB030724BF624639464EEB89
:102DF0000E0E4FF0000B0018524149414BEB0B0BEC
:102E0000B2EB080C71EB03077BF1000B24BF6246A9
:102E100039464EEB0E0E4FF0000B0018524149415F
:102E20004BEB0B0BB2EB080C71EB03077BF1000BC8
:102E300024BF624639464EEB0E0E51EA020718BF18
:102E400046F0010616EB0E7655F1000254F1000132
:102E500003D5BDE88901BDE80088BDE88901BDE86A
:102E60000048B619524141EB0101A3F1010370473B
:102E700080807F7E7D7C7B7A7978777676757473B7
:102E8000727171706F6E6E6D6C6C6B6A6A69686876
:102E9000676666656464636362616160605F5F5E0C
:102EA0005E5D5D5C5C5B5B5A5A5959585857575682
:102EB00056555555545453535252525151505050E7
:102EC0004F4F4F4E4E4D4D4D4C4C4C4B4B4B4A4A39
:102ED0004A4949494848484747474746464645457D
:102EE00045444444444343434342424242414141B6
:102EF0009C46002B30D477002BD04FEA37071CB507
:102F000003B44FF010004FF01001BAF1000F06D0DB
:102F1000BCF1000FDCBF40F0080040F008014FF0AA
:102F200000000FBCBDE810400BF1010BBBF1010F1D
:102F300008BF5FEA170722BF12F1010211F1010178
:102F40004FF0004143F1000300F0004043EA00006D
:102F50007047F9D35708D0E746EA06464FEA1646C7
:102F600013F1400F1FDD13F1200FDFBF16430A4698
:102F7000002120335B42BED0C3F1200746EA06465B
:102F80004FEA164602FA07F746EA070622FA03F264
:102F9000C3F1200701FA07F742EA070221FA03F119
:102FA0004FF00003A7E746EA020646EA06464FEA64
:102FB000164646EA0106BCBF46EA0646360C4FF006
:102FC00000034FF000024FF0000194E72DE9804C20
:102FD00070B49A46934691E8380007C831EA400C2D
:102FE00048BF34EA430C03D5FFF7E6FDFFF780FF47
:102FF000F0BCBDE8008C2DE9804C70B49A46934635
:1030000091E8380007C810F0804F08BF13F0804FD8
:1030100003D100F005F8FFF76BFFF0BCBDE8008CB2
:1030200020F07F4723F07F4C80EA030000F000404F
:1030300007EB0C03A3F57C53A3F1FE0392F0000F02
:1030400000F0B38095F0000F00F077802DE9014982
:103050004FEA114021EA00484FEA144624EA0647A5
:1030600000FB06FC08FB06F607FB08F818EB064811
:103070004CEB164C00FB07F718EB07484CEB1740DE
:103080004FEA124B22EA0B4E4FEA154625EA064755
:103090000BFB06FC0EFB06F607FB0EFE1EEB064EB8
:1030A0004CEB164C0BFB07F71EEB074E4CEB174B8C
:1030B00018EB0B0840F1000018EB0E0B58EB000862
:1030C00040F100008F1A4FF000014FF000063CBFA6
:1030D000C943661B14BFB5EB040C00213CBFC943B8
:1030E000F61B4FEA174427EA04454FEA1C472CEA2F
:1030F000074C04FB076205FB07F70CFB05F616EB14
:10310000074642EB174204FB0CFC16EB0C4642EB65
:103110001C421BEB060658EB020241414EEA8E0EA2
:1031200046EA9E0601D5BDE80189B619524141EB38
:103130000101A3F10103BDE801894FEA144524EA26
:1031400005464FEA114721EA074C05FB07F406FB49
:1031500007F70CFB06F111EB074144EB174405FBA5
:103160000CFC11EB0C4144EB1C444FEA124722EAE1
:10317000074C05FB07F206FB07F70CFB06F616EB00
:10318000074642EB174205FB0CFC16EB0C4642EBE4
:103190001C456A1854F1000148BF7047B6195241E6
:1031A00041EB0101A3F10103704795F0000F37D007
:1031B0004FEA114221EA02464FEA144724EA074C3B
:1031C00002FB07F106FB07F70CFB06F414EB0744C0
:1031D00041EB174102FB0CFC14EB0C4441EB1C418E
:1031E0004FEA154725EA074C02FB07F506FB07F7F0
:1031F0000CFB06F616EB074645EB174502FB0CFCED
:1032000016EB0C4645EB1C42121951F1000148BF68
:103210007047B619524141EB0101A3F10103704718
:103220004FEA144524EA05464FEA114721EA074CC4
:1032300005FB07F106FB07F70CFB06F212EB074252
:1032400041EB174105FB0CFC12EB0C4251EB1C410E
:103250004FF0000648BF7047921841EB0101A3F1FF
:103260000103704703B401984100009850EAC1205F
:1032700018BF04204A0D18BF40F0010040F2FF7251
:10328000B2EB515F08BF40F00200012808BF0520E3
:1032900002B0704730380A2801D201207047002060
:1032A0007047000010B500290AD00878002807D020
:1032B00005487844FEF718F9002801D0002010BD19
:1032C0000248784410BD0000A20100009A010000ED
:1032D00010B500290AD00878002807D0054878449E
:1032E000FEF702F9002801D0002010BD0248784402
:1032F00010BD0000920100008A010000F1EE100AEA
:103300004FF6FF71C0F2C03120EA010040F040707A
:10331000E1EE100A7047FDF7F1BCFDF725BE000095
:103320000000000000000000303132333435363701
:1033300038394142434445464030580030313233F9
:1033400034353637383961626364656640307800F9
:10335000040000080000000000000002000100005E
:103360001030313233343536373839616263646551
:10337000667870003031323334353637383941426F
:10338000434445465850000002400000000000A0A1
:103390000000000005400000000000C80000000020
:1033A0000C4000000000409C00000000194000009C
:1033B0000020BCBE0000000034400000BFC91B8ECE
:1033C00000000004B5400000504BCFD06607E2CFAC
:1033D000010000006C4100003E8251AADFEEA734DC
:1033E00001000000D9420000DCB5A0E23A301F978E
:1033F000FFFFFFFFB4450000FD25A0C8E9A3C14FB2
:10340000FFFFFFFFFF3F0000000000800000000002
:10341000FF3F0000000000800000000000000000EE
:103420000000000001020304060708090000000074
:103430000102030480350008000000201000000095
:10344000D40100089035000810000020B0110000E1
:10345000F00100081C00000043000000F8FFFFFF1F
:103460000C0000000E0000000F0000002E00000005
:103470001001000043000000F8FFFFFF0040404043
:103480004040404040404141414141404040404037
:1034900040404040404040404040404040050202E3
:1034A00002020202020202020202020202202020A2
:1034B00020202020202020020202020202029090FE
:1034C00090909090101010101010101010101010FC
:1034D0001010101010101010020202020202888850
:1034E000888888880808080808080808080808085C
:1034F0000808080808080808020202024000000044
:1035000000000000000000000000000000000000BB
:1035100000000000000000000000000000000000AB
:10352000000000000000000000000000000000009B
:10353000000000000000000000000000000000008B
:10354000000000000000000000000000000000007B
:10355000000000000000000000000000000000006B
:10356000000000000000000000000000000000005B
:10357000000000000000000000000000000000004B
:1035800001000000100000000024F4000000000012
:040000050800019955
:00000001FF
