:020000040800F2
:10000000D0060020390200082F0E00082B0D000832
:100010002D0E00082F040008DD100008000000006D
:10002000000000000000000000000000330E000887
:100030003104000800000000310E0008350E0008F1
:10004000530200085302000853020008530200083C
:10005000530200085302000853020008530200082C
:10006000530200085302000853020008530200081C
:10007000530200085302000853020008530200080C
:100080005302000853020008530200080000000059
:100090000000000000000000000000005302000803
:1000A00053020008530200085302000853020008DC
:1000B00053020008530200085302000853020008CC
:1000C00053020008530200085302000853020008BC
:1000D0005302000853020008530200080000000009
:1000E00053020008530200085302000800000000F9
:1000F00000000000000000000000000053020008A3
:1001000000000000530200085302000853020008D8
:1001100000000000000000000000000000000000DF
:10012000530200085302000853020008530200085B
:100130005302000800000000000000000000000062
:100140000000000000000000000000005302000852
:10015000530200085302000853020008530200082B
:1001600053020008530200080000000000000000D5
:10017000000000000000000000000000000000007F
:100180000000000053020008000000000000000012
:10019000530200085302000800F002F800F03CF897
:1001A0000AA090E8000C82448344AAF10107DA45D2
:1001B00001D100F031F8AFF2090EBAE80F0013F0E8
:1001C000010F18BFFB1A43F001031847EC0F0000A2
:1001D0000C100000103A24BF78C878C1FAD8520732
:1001E00024BF30C830C144BF04680C6070470000B1
:1001F0000023002400250026103A28BF78C1FBD830
:10020000520728BF30C148BF0B6070471FB500F0D0
:10021000B9FF1FBD10B510BD00F0CFF81146FFF7B4
:10022000F5FF00F08DFF00F0EDF803B4FFF7F2FFEB
:1002300003BC00F0F5F80000094880470948004772
:10024000FEE7FEE7FEE7FEE7FEE7FEE7FEE7FEE786
:10025000FEE7FEE704480549054A064B70470000E3
:10026000BD0E000899010008D0000020D006002033
:10027000D0020020D002002053EA020C00F0698076
:100280002DE9F04B4FF00006002B1FBFB3FA83F5AA
:1002900003FA05F424FA05F65E4012BF1643B2FADB
:1002A00082F502FA05F4C5F120051EBF22FA05FC0D
:1002B00044EA0C04203556EA044C4FEA144418BFB3
:1002C000641C4FF000084FF00009904271EB030CE2
:1002D00039D3002919BFB1FA81F701FA07F6B0FA4C
:1002E00080F700FA07F6C7F120071EBF20FA07FCC7
:1002F00046EA0C062037B6FBF4FCA7EB0507103FD7
:1003000007F01F0BCBF120062CFA06F60CFA0BFBBC
:1003100044BFB3460026202FA4BF5E464FF0000B1B
:100320005BEA060C08BF4FF0010B19EB0B0948EB19
:100330000608ABFB027C06FB02CC0BFB03CCC01B0C
:1003400071EB0C01C1E70B46024641464846BDE849
:10035000F08B13B54FF000004FF00001AFF30080B9
:10036000BDE81C4070474FF0000200B513469446AC
:100370009646203922BFA0E80C50A0E80C50B1F1FD
:100380002001BFF4F7AF090728BFA0E80C5048BF11
:100390000CC05DF804EB890028BF40F8042B08BFAF
:1003A000704748BF20F8022B11F0804F18BF00F8AB
:1003B000012B7047704770477047754600F02CF866
:1003C000AE4605006946534620F00700854618B042
:1003D00020B5FFF73FFFBDE820404FF000064FF08B
:1003E00000074FF000084FF0000BAC46ACE8C00926
:1003F000ACE8C009ACE8C009ACE8C00921F00701CD
:100400008D46704710B50446AFF300802046BDE826
:100410001040FFF70ABF0000004870472800002086
:1004200001491820ABBEFEE7260002007047FEE738
:1004300070477047B0B5044600F0D8F805468D48BF
:10044000611C007818BF044400F0D0F8401BA042A3
:10045000FAD3B0BD2DE9F84F5B4A4FF0070A4FF0D1
:10046000010B4FF000084FF0000E9042574A08BFB2
:100470004FF0040A02444FEAB223042B38BF4FEA7C
:10048000B22A0022102A08BFBDE8F88F0B680BFAC9
:1004900002F6334200F091804B6843F01004122CB6
:1004A00013D16FF003040EF01C030F2704EA52056A
:1004B00007FA03FC05442C6A24EA0C0C0C6904FAC4
:1004C00003F343EA0C032B624B68032703F0030595
:1004D000122B07FA08F4076805FA08F56FEA040C0E
:1004E00027EA040747EA0507076013D80BFA03F465
:1004F00014F0061F0ED08468CD6804EA0C0405FAD7
:1005000008F52C438460C3F3001445689440B54358
:100510002C434460C4688D68DB0004EA0C0705FACC
:1005200008F547EA0507C76047D50023284C0EF0B9
:100530000C050093284BA4461F461B6843F48043D8
:100540003B603B6803F48043009322F003032344A1
:10055000224C009FA1461F590F24AC400AFA05F512
:10056000A7432F4343F80970DCF800304D6843EA95
:100570000607EC0358BF23EA0607CCF80070AC036B
:10058000DCF8043043EA060758BF23EA0607CCF834
:100590000470EC02DCF8083043EA060758BF23EA8F
:1005A00006070C4BCCF80870AD021C461B6843EAEA
:1005B000060758BF23EA0607276008F102080EF174
:1005C000040E01325EE700BF001002400000FEBFD3
:1005D000003C01400C3C01404438024008FCFFFF55
:1005E000002A08BF090481617047000005480068BF
:1005F000704700BF1F48034900780A68104408602C
:10060000704700BFC800002080B50B48016841F466
:1006100000710160016841F480610160016841F48A
:1006200080710160032000F061F8002000F006F8FE
:1006300000F022F8002080BD003C024070B50D4E55
:1006400004464FF47A713078B1FBF0F081490968C3
:10065000B1FBF0F000F09EFA01250F2C08D838B954
:100660004FF0FF3021460022002500F021F8746091
:10067000284670BD1800002082B000200B49019070
:100680004A6842F480424A604A6802F48042019219
:10069000019A0090086840F080500860086800F0F7
:1006A00080500090009802B0704700BF4038024070
:1006B00080B5144B1B68C3F3022CBCF1030E8CF005
:1006C00007034FF0FF3C38BF4FF0000E042B28BF4C
:1006D00004230CFA03F399430CFA0EF301FA0EF11A
:1006E0009A431143BDE8804000F0FABC05494FF63B
:1006F000FF030A681A4060F30A22034810430860A7
:10070000704700BF0CED00E00000FA052DE9F04154
:10071000002800F08380434B04468846D3F8000449
:1007200000F00F00884207D283F80084D3F8000459
:1007300000F00F00404571D12068810711D54107B5
:1007400042BF996841F4E0519960010742BF99683E
:1007500041F4604199609968A26821F0F001114369
:100760009960C0072AD06068811E022903D21968E7
:10077000890109D452E0012803D11968890303D4FF
:100780004CE01968890749D599681D4621F0030195
:1007900008439860FFF72AFF064641F28837A868A9
:1007A00061682B4600F00C00B0EB810F06D0FFF71C
:1007B0001DFF801BB842F2D9032430E0D3F80004B7
:1007C00000F00F00404507D983F80084D3F80004F7
:1007D00000F00F00404521D12068410705D59968F8
:1007E000E26821F4E05111439960000706D598684A
:1007F000216920F4604040EAC10098601C4600F086
:100800002FF8A168084A0024C1F30311515CC840C5
:10081000104908600020FFF711FF00E00124204686
:10082000BDE8F081003802409E11000809480A49DD
:100830000A4A00680968C1F38221515CC8407047C8
:1008400004480549054A00680968C1F34231515C12
:10085000C84070472000002008380240AE11000850
:1008600010B5134C606800F00C00082804D0042870
:1008700014BF1048104810BD2268206800234002B1
:1008800002F03F020C485CBF42F20040C0F2F400AC
:100890002168C1F38811A0FB0101FFF7EDFC21687D
:1008A0000222C1F3014102EB4101B0FBF1F010BDA6
:1008B000043802400024F40040787D012DE9FC4119
:1008C000002800F0058104460078AF4EC0072FD005
:1008D000B06800F00C00042823D0B06800F00C00D1
:1008E000082802D1706840021BD46768B7F5803FC2
:1008F00007D03068B7F5A02F40F00B8140F480207E
:100900003060306840F480303060FFF76FFE05469D
:10091000306880030CD4FFF769FE401B6428F7D9C8
:100920009DE03068800303D56068002800F0D08027
:10093000207880072BD5B06810F00C0F07D0B06876
:1009400000F00C00082809D17068400206D4306815
:10095000800715D5E068012812D0B9E0E1688B481E
:1009600000297ED001210160FFF740FE0546306876
:10097000800705D4FFF73AFE401B0228F7D96EE046
:100980003068216920F0F80040EAC100306020782A
:10099000000721D5606978B17C480121C0F8801E2C
:1009A000FFF724FE0546706F800715D4FFF71EFE83
:1009B000401B0228F7D952E074480021C0F8801E7D
:1009C000FFF714FE0546706F800705D5FFF70EFE92
:1009D000401B0228F7D942E02078400770D5306CE0
:1009E0004FF00008C0000CD4CDF804804FF001088F
:1009F000306C40F080503064306C00F080500190DA
:100A00000198634F3868C0050FD4386840F480708F
:100A10003860FFF7EBFD05463868C00505D4FFF7E1
:100A2000E5FD401B0228F7D919E0A768012F05D082
:100A3000306F052F25D140F004003067306F40F053
:100A400001003067FFF7D2FD054641F28837306F6D
:100A500080072ED4FFF7CAFD401BB842F7D9032008
:100A600037E000210160FFF7C1FD054630688007CF
:100A70007FF58DAFFFF7BAFD411B03200229F5D9A1
:100A800027E020F001003067306F20F0040030676D
:100A9000FFF7ACFD0546002FD7D141F28837306F04
:100AA000800706D5FFF7A2FD411B0320B942F6D906
:100AB0000FE0B8F1000F1EBF306C20F080503064A2
:100AC000A769002F5DD0B06800F00C00082803D1A2
:100AD000012002B0BDE8F0812C490020884608665C
:100AE000FFF784FD0546022F09D13068800128D523
:100AF000FFF77CFD411B03200229F6D9E9E73068A6
:100B000080013ED5FFF772FD411B03200329F6D378
:100B1000DFE720F480303060306820F480203060DF
:100B2000FFF764FD0546002F7FF4F2AE30688003C6
:100B30007FF5FEAEFFF75AFD411B03206429F5D96E
:100B4000C7E704F11C078FCF0843D90340EA82109E
:100B50004FF6FF72914340EA0760A1F580310843E8
:100B600070600120C8F86000FFF740FD044630685F
:100B7000800106D4FFF73AFD011B03200229F6D9B4
:100B8000A7E70020A5E700BF003802400000474269
:100B900000700040411E0020B0EB116F1CBF01200F
:100BA0007047044AF023516003490B70072190609D
:100BB0001160704710E000E023ED00E050B310B585
:100BC000044690F8390028B9002084F838002046FF
:100BD00000F022F8242084F839002068C16821F44C
:100BE0000051C160204600F08FF92068016921F4AE
:100BF00090410161416921F02A014161C16841F4DC
:100C00000051C16000202021E06384F8391084F88D
:100C10003A1010BD0120704710B586B0044601A8F7
:100C20001421FFF7A0FB21687F48814224D10021D5
:100C30006D4A00F574400091536943F0100353610D
:100C4000536903F010030093009B0091116841F079
:100C500002011160116801F0020100910099072161
:100C60000591032104910121039102210291C021E8
:100C7000019101A9FFF7EEFB06B010BD2DE9F0418F
:100C8000044690F8390020280AD10E460120002998
:100C900049D01746002A46D094F83800012802D1DE
:100CA0000220BDE8F08100201D46E063012084F8A9
:100CB0003800212084F83900FFF798FC8046E7844B
:100CC000A7841DE0E08C802142462B460138E08459
:100CD0002046A76800F0D6F9B7F5805F0BD1C8B9F8
:100CE000318820686FF35F2141602069002814BFBC
:100CF0000136023604E068B9206816F8011B41602D
:100D0000E08C0028DED12046402142462B4600F0F0
:100D1000B9F910B10320BDE8F0810020202184F84A
:100D2000380084F83910BDE8F081FEE72DE9F04F76
:100D300087B000242C482E4F00224FF4005906940F
:100D40000194016841F004010160016801F00401AF
:100D5000019101990194016841F00201016001686B
:100D600001F00201019101990194016841F0010132
:100D700001604FF40051006800F0010001900198FB
:100D80001A4800F5006580462846B84708F5806691
:100D90004FF4806100224FF4806A3046B8474046E5
:100DA0004FF410410022B8474FF0010BCDE9044445
:100DB00002AF2846CDE9029BDFF838903946C84794
:100DC00030463946CDE90444CDE902ABC8474FF47B
:100DD00010400594CDE903B4394602904046C84717
:100DE00007B0BDE8F08F00BF30380240000002407D
:100DF000E10500085504000810B5DF480A4C4FF41F
:100E0000E13300210C22C0E90043C0E90211C0E92E
:100E10000412C0E90611FFF7D1FE002814BFBDE897
:100E2000104010BDFFF705BB00100140FEE7704702
:100E300070477047FFF7DEBB70B592B006AC142167
:100E4000201DFFF790FA00251A4802260195016837
:100E500041F080510160006800F0805001900198DD
:100E600001951548016841F440410160006800F4B3
:100E700040400190019804201190642010960F903A
:100E800008200E901020CDE90C650A9001200990F1
:100E900020460696FFF712FD4FF48050059503217A
:100EA00004900F20CDE90265019001A8FFF72EFC08
:100EB00012B070BD403802400070004010B50E48BE
:100EC0000F4CD0F8801041F47001C0F880100B492D
:100ED0000A6842F001020A6000228A600B6823401F
:100EE0000B60084B4B600B6823F480230B60CA60D7
:100EF0004FF00061016010BD08ED00E000380240D5
:100F0000FFFFF6FE103000242DE9F047044600688C
:100F100049F20C650169E26821F440511143016115
:100F2000A168D4E90423E769C6681143AE43B7F565
:100F3000004F41EA030141EA070141EA0601C160AD
:100F40004169A26921F4407141EA020141614A49C3
:100F500040F480603FD188420CBFDFF820A1DFF869
:100F600020A1D047D4F804908046D0476768064651
:100F7000D047616819257F00684306FB05F34900E7
:100F8000B3FBF7F3B0FBF1F06421B0FBF1F202FB2D
:100F90001102181A4FEA49031044322202EBC00032
:100FA0004FF4F872B0FBF1F002EA400008FB05F2E2
:100FB000B2FBF3F2B2FBF1F100EB0116D04761682E
:100FC00068434900B0FBF1F7D047616868430722E6
:100FD000032349003CE0884214BFDFF8A4A0DFF8F7
:100FE0009CA0D047D4F804908046D0476768064656
:100FF000D04761681925BF00684306FB05F38900E7
:10100000B3FBF7F3B0FBF1F06421B0FBF1F202FBAC
:101010001102181A4FEA89031044322202EB001021
:1010200008FB05F2B0FBF1F0B2FBF3F200F0F000C8
:10103000B2FBF1F100EB0116D0476168684389000B
:10104000B0FBF1F7D047616868430F2204238900A1
:10105000B0FBF1F0391A6427B0FBF7F505FB170078
:101060000844216898403230B0FBF7F0104030431C
:101070008860BDE8F08700BF001401404108000807
:101080002D0800082DE9F0411D4690460F46044604
:101090005E1C206801683940B94204BF0020BDE8E9
:1010A000F081002EF5D035B1FFF7A0FAA0EB0800D3
:1010B000A842EED92068C16821F4D071C1604169AD
:1010C00021F0010141612020002184F8390084F8D9
:1010D000381084F83A000320BDE8F081FEE70000F4
:1010E00010B5074C00F00F03044AB0F1FF3F234452
:1010F000C8BF83180801187010BD00BF00E400E0ED
:1011000014ED00E0F8B50D4E04460025042D08BF8F
:10111000F8BD00270BE006EB870036F81710BD423C
:10112000806814BF00220122FFF75AFA0137042F0A
:10113000F1D12046FFF77EF90135E7E700000020F6
:10114000FFF762FAFFF778FEFFF7F0FDFFF754FEB6
:1011500009480AA1052240F2E733FFF78FFD3C243E
:101160000225A0B2FFF7CEFF013DFAD10534B4F558
:10117000FA7FC8BF3C24F3E78800002068656C6CE8
:101180006F000000F1EE100A4FF6FF71C0F2C0319F
:1011900020EA010040F04070E1EE100A70470000C4
:1011A0000000000000000102030406070809000017
:1011B0000000010203040000D81100080000002014
:1011C00028000000D40100080012000828000020B8
:1011D000A8060000F00100080020008000100004B4
:1011E00000080240000002400000024000040240EB
:1011F00001000000100000000024F40000000000C6
:040000050800019955
:00000001FF
