:020000040800F2
:1000000060E0002021030008D1440008D93E000828
:100010000D44000877280008D54C000800000000B7
:100020000000000000000000000000006103000864
:10003000A928000800000000F903000809040008CE
:100040003B0300083B0300083B0300083B03000898
:100050003B0300083B0300083B0300083B03000888
:100060003B0300083B0300083B0300083B03000878
:100070003B0300083B0300083B0300083B03000868
:100080003B0300083B0300083B030008000000009E
:100090000000000000000000000000003B0300081A
:1000A0003B0300083B030008C54900083B03000868
:1000B0003B0300083B0300083B0300083B03000828
:1000C0003B0300083B0300083B0300083B03000818
:1000D0003B0300083B0300088D4C000800000000B3
:1000E0003B0300083B0300083B030008000000003E
:1000F0000000000000000000000000003B030008BA
:10010000000000003B0300083B0300083B0300081D
:1001100000000000000000000000000000000000DF
:100120003B0300083B0300083B0300083B030008B7
:100130003B03000800000000000000000000000079
:100140000000000000000000000000003B03000869
:100150003B0300083B0300083B0300083B03000887
:100160003B0300083B030008000000000000000003
:10017000000000000000000000000000000000007F
:10018000000000003B030008000000000000000029
:100190003B0300083B03000800F002F800F0ACF855
:1001A0000AA090E8000C82448344AAF10107DA45D2
:1001B00001D100F0A1F8AFF2090EBAE80F0013F078
:1001C000010F18BFFB1A43F00103184754560100F2
:1001D000745601000A4410F8014B14F00F0508BFD3
:1001E00010F8015B240908BF10F8014B6D1E05D003
:1001F00010F8013B6D1E01F8013BF9D1641E03D0DC
:10020000641E01F8015BFBD19142E4D3704700000A
:100210000023002400250026103A28BF78C1FBD80F
:10022000520728BF30C148BF0B6070476E2900F0ED
:100230001B86702900F06587662910F0BC8465294B
:1002400010F0B984672910F0B684612910F0B584E4
:1002500003681B0A28BF41F08001692900F0C885A6
:10026000642900F0C585752900F0C2856F2900F06A
:10027000F386782900F03187E92900F08D86E4299A
:1002800000F08A86F52900F08786EF2900F0F086D5
:10029000F82900F030870368DB0928BF41F08001AE
:1002A000632901F0CF85732901F0D485E32901F09A
:1002B000DF85F32901F0E485002070471FB510F0B9
:1002C0006DFC9DE8030000F0BDFC02F0F7F80400AF
:1002D0000020002110F04CFC401C60600020002138
:1002E00010F030FCE06001F0ABFF1FBD10B502F074
:1002F0001FF802F0EAF810BD02F0B2F8114603B49C
:1003000005F078FB03BCFFF7D9FF05F0A1FF02F071
:10031000CBF903B4FFF7EAFF03BC02F003FA0000D5
:100320000948804709480047FEE7FEE7FEE7FEE789
:10033000FEE7FEE7FEE7FEE7FEE7FEE704480549C5
:10034000054A064B704700007949000899010008EA
:1003500060DA002060E0002060DC002060DC00202B
:100360001EF0040F0CBFEFF30880EFF309808169E2
:1003700011F8021C91BB01B590E80F10E047BDE8F1
:1003800000508CE80300244B93E80600914208BF1C
:10039000704741B91EF0100F10D12049086820F0B5
:1003A000010008600AE02CE9F00F1EF0100F08BFF2
:1003B0002CED108AC1F838C081F822E01A6092F85A
:1003C0002210906B61F0FF0E1EF0100F08BFB0EC12
:1003D000108AB0E8F00F80F309887047104A13685C
:1003E0009942FAD801B552F821C00FC8E047BDE8DC
:1003F0000050CCF80000704701B506F0E5FABDE802
:100400000140EFF3098CBEE701B506F09FFDBDE8A2
:100410000140EFF3098CB6E7F404002034EF00E06C
:100420002C5601080844401E491E88437047082185
:10043000001DF7E72DE9F04117460E460446FFF789
:10044000F6FFA042054633D9002F1CBF06F10C0071
:1004500005F0A5FA30467468F4B12168A94217D3B3
:1004600005F1080291423CBF6168416007D36268B0
:1004700061194A602268521B0A6041602560002FA2
:100480001CBF06F10C0005F0AAFA201DBDE8F081A2
:1004900020466468002CE0D12946304600F0BEFBBF
:1004A0000028D7D1002F1CBF06F10C0005F097FAE9
:1004B0000020BDE8F08110B5044600F0A6FB0168FD
:1004C0002046BDE810400122B4E753EA020C00F0D8
:1004D00069802DE9F04B4FF00006002B1FBFB3FAE7
:1004E00083F503FA05F424FA05F65E4012BF1643BD
:1004F000B2FA82F502FA05F4C5F120051EBF22FA10
:1005000005FC44EA0C04203556EA044C4FEA144436
:1005100018BF641C4FF000084FF00009904271EBC7
:10052000030C39D3002919BFB1FA81F701FA07F694
:10053000B0FA80F700FA07F6C7F120071EBF20FACD
:1005400007FC46EA0C062037B6FBF4FCA7EB0507D0
:10055000103F07F01F0BCBF120062CFA06F60CFA21
:100560000BFB44BFB3460026202FA4BF5E464FF0CE
:10057000000B5BEA060C08BF4FF0010B19EB0B09EF
:1005800048EB0608ABFB027C06FB02CC0BFB03CC62
:10059000C01B71EB0C01C1E70B46024641464846C1
:1005A000BDE8F08B13B54FF000004FF00001AFF342
:1005B0000080BDE81C4070477CB51D4616460C0007
:1005C000009001D02044401E074B7B442A466946D8
:1005D0000190304600F061FC05461CB100206946E0
:1005E00000F06EFC28467CBDFD0800000FB400B58D
:1005F0008DB010A9099000910B904FF0FF300A9038
:1006000000200C90064878440690064878446A46D4
:1006100007900F9909A800F049FE0DB05DF814FB92
:10062000C30C0000DB0C00002DE9FF5F4FF0000859
:100630009946144646469169D2E901A7DDF838B0DB
:1006400001988847054659EA0B0005D009E0A169E1
:100650000198761C88470546216A28468847002865
:10066000F5D1681C03D05FEACA7005D015E04FF0E1
:10067000FF3004B0BDE8F09F2068011D2160D0F874
:1006800000800AE05FEACA7001D108F8015BA16945
:10069000761C01987F1E88470546002F1ADD681CCE
:1006A00018D0B9F1000F0DD0E81705EBD06042115A
:1006B00020F01F0059F822102A1A01209040014210
:1006C000E0D107E0BBF1000FDCD12846216A884762
:1006D0000028D7D0E16901988847BBF1000F07D106
:1006E000002E05DD5FEACA7002D1002188F80010F3
:1006F000A068B84203DDBBF1000F03D017B16FF063
:100700000100B6E73046B4E72DE9F04704464FF064
:1007100000094FF0FF37C568D4E90486A80707D061
:10072000204600F0A3FE304605F066F9002802DA04
:100730003846BDE8F087280502D5404600F0EBFAC0
:100740004C21204600F0F7F9206D20F001002065D3
:100750004846EEE770B505460A4E304605F01FF9EB
:1007600005F14C04204605F01AF92846FFF7CCFFA6
:100770000546204605F033F9304605F030F92846A5
:1007800070BD0000E00100202DE9F04716468846C4
:10079000814602F14C07384605F001F93046FFF773
:1007A000B3FF18F8010B61280AD0722802D077280D
:1007B0003FD102E00125002405E00225042402E0E7
:1007C000082448F2020518F8010B2B2806D06228ED
:1007D00009D018F8010C74280AD00BE045F0030585
:1007E00044F00204EFE745F0040544F00104EAE7B1
:1007F00044F010044846214605F018F9411C18D071
:100800000021316171604FF40071F560F161706138
:10081000200704D530460222002100F077FD306D1C
:1008200040F001003065384605F0D9F83046BDE8A3
:10083000F0870026F7E72DE9F04115460E460746FA
:10084000204C204605F0ABF82A4631463846FFF7E3
:100850009BFF0546204605F0C2F82846BDE8F0811A
:100860002DE9F0410E468046164D284605F097F8D2
:10087000154C206DC10704D0410804D020F00104BC
:10088000F7E7224612E05420FFF715FE070017D0C5
:10089000206D47F00101084354212065384600F0DF
:1008A0004AF907F14C0005F08AF83A4631464046CD
:1008B000FFF76AFF0446284605F091F82046CDE789
:1008C0000024F8E7E00100207C07002040EA010353
:1008D000024630B59B0710D14FF0013400E008C24A
:1008E00008C91D1B9D4315EAC41FF8D013F0FF0172
:1008F00002F8011B0DD01B0AF8E711F8013B002B91
:1009000002F8013B05D011F8013B002B02F8013B36
:10091000F3D130BD10B5431C02E010F8011B71B1DA
:100920008107FAD14FF0013202C88C1A8C4314EAC5
:10093000C211F9D0C01A0A0603D0C01E10BDC01AD9
:1009400010BD0A0401D0801E10BD0902FCD0401E5B
:1009500010BD032A40F2308010F0030C00F0158027
:1009600011F8013BBCF1020F624498BF11F801CBB2
:1009700000F8013B38BF11F8013BA2F1040298BF17
:1009800000F801CB38BF00F8013B11F0030300F081
:100990006B80083AC0F0088051F8043B083A51F8DF
:1009A00004CBA0E80810F5E7121D5CBF51F8043B2A
:1009B00040F8043BAFF30080D20724BF11F8013B9D
:1009C00011F801CB48BF11F8012B24BF00F8013BFF
:1009D00000F801CB48BF00F8012B7047431A28BF2D
:1009E0009A427FF6B6AF10441144032A40F22680A3
:1009F00010F0030F1EBF11F8013D521E00F8013D1B
:100A000010F0030F7FF4F6AF11F0030300F08585BB
:100A1000083AC0F00B8051F8043D083A51F804CD73
:100A200040F8043D40F804CDFFF7F3BF121D5CBF52
:100A300051F8043D40F8043DAFF30080D20724BFD5
:100A400011F8013D11F801CD48BF11F8012C24BF68
:100A500000F8013D00F801CD48BF00F8012C7047B7
:100A600001B5FFF776FF01BD10B5203AC0F00B804D
:100A7000B1E81850A0E81850B1E81850A0E8185094
:100A8000203ABFF4F5AF5FEA027C24BFB1E818500A
:100A9000A0E8185044BF18C918C0BDE810405FEA6C
:100AA000827C24BF51F8043B40F8043B08BF7047E8
:100AB000D20728BF31F8023B48BF11F8012B28BFED
:100AC00020F8023B48BF00F8012B704701B501F048
:100AD000FF03114643EA032242EA024200F00BF808
:100AE00001BD02F0FF0343EA032242EA024200F0A2
:100AF00002B84FF000020429C0F0128010F0030C7D
:100B000000F01B80CCF1040CBCF1020F18BF00F800
:100B1000012BA8BF20F8022BA1EB0C0100F00DB8AF
:100B20005FEAC17C24BF00F8012B00F8012B48BF0D
:100B300000F8012B70474FF0000200B513469446B1
:100B40009646203922BFA0E80C50A0E80C50B1F125
:100B50002001BFF4F7AF090728BFA0E80C5048BF39
:100B60000CC05DF804EB890028BF40F8042B08BFD7
:100B7000704748BF20F8022B11F0804F18BF00F8D3
:100B8000012B70470000000030B44FF0013C50F8DA
:100B9000042B51F8043BCCFA52F4D51A20D1FCB9FD
:100BA00050F8042B51F8043BCCFA52F4D51A17D163
:100BB000B4B950F8042B51F8043BCCFA52F4D51ACE
:100BC0000ED16CB950F8042B51F8043BCCFA52F416
:100BD000D51A05D1002CDAD030BC4FF00000704798
:100BE00029BAB1FA81F111F01801D1F12000844045
:100BF000F2D1CA40CB4012F0FF0213F0FF0330BC29
:100C0000D01A704770477047704710B500F0B0FCBD
:100C1000083010BD704770477047704738B50446BC
:100C20000A4600206946AFF30080002808BF38BD9F
:100C300002460099204600F0A6FC012038BD0120A4
:100C400001F006BCF8B5AFF30080054600200C4665
:100C5000102000BF0646A819A0420DD932466946A9
:100C60000020AFF30080070008BF01F0F1FB0098FF
:100C7000A04218BF0546C419FFF7C7FF0560074625
:100C8000F01D20F007004619284600F00AF8B4428B
:100C900008BFF8BDA21B31463868BDE8F84000F037
:100CA00072BC00210160C0E901100C3004F087BE65
:100CB0001020704770B516460D46041F002808BF67
:100CC00070BD002E1CBF05F10C0004F068FE2B4621
:100CD0005868002818BFA04238BF0346F8D31968E7
:100CE000CA18A24218BF5C6003D122681C46114496
:100CF000196021680A19824218BF606004D14268F5
:100D00006260006808442060002E1CBF05F10C00E2
:100D100004F065FE70BD10B50446FFF776FF01686C
:100D20002046BDE810400122C4E770B5044685693D
:100D30000068C10601D5302600E02026C00707D094
:100D400070BDD4E9012130469047206A401C2062E2
:100D50006D1EF6D570BD70B5044685690078C00774
:100D600007D170BDD4E9012120209047206A401CA2
:100D700020626D1EF6D570BD09684A0501D540B2E6
:100D80007047C905FCD500B2704709684A0501D50E
:100D9000C0B27047C905FCD580B2704770B50C462B
:100DA0000546012A05D02878800600D5EA69002387
:100DB00002E0012305E05B1C934202D2E05C0028C4
:100DC000F9D1A869E618C01AA861286A18442862EF
:100DD0002846FFF7AAFF04E0D5E9012114F8010B2A
:100DE0009047B442F8D32846FFF7B5FF70BD000026
:100DF0002DE9F0410646002410687529314616A5F4
:100E000010D0FFF7B9FF002802DA404213A507E02F
:100E100031688A0701D512A502E0490704D511A55A
:100E2000012401E0FFF7B1FF00210A2206F12407A7
:100E300009E0B0FBF2FCB0FBF2F302FB1C00303027
:100E400078541846491C0028F3D123462A463046D8
:100E5000BDE8F04100F007BC000000002D000000DC
:100E60002B0000002000000011680268006A530592
:100E700001D508700AE0D30501D5088006E0130605
:100E800003D5C217C1E9000200E0086001207047E5
:100E900001694A1C02610878704700B58FB0CDE93E
:100EA00001310021059105497944CDE9031011462E
:100EB000684600F031F90FB000BD0000E5FFFFFF0C
:100EC0000A6802F8010B0A607047D1E900239A42D0
:100ED00002D2531C0B601070704700002DE9FF5FB9
:100EE00015468A460446DFF8AC80F8440027D8E966
:100EF00000103E46CDE9001010E03AF816106A46A0
:100F000002A801F081FA411C07D02178890603D597
:100F1000E269391891420DD80744761C2078800682
:100F200002D5E069B84205DDAE42E6DB3AF81600CC
:100F30000028E2D1A069C01BA0612046FFF7F5FEA2
:100F4000D8E90010CDE90010002017E03AF8181099
:100F50006A4602A801F058FAB0F1FF3F81460BD073
:100F600000250DF1080B05E0D4E901211BF805006F
:100F700090476D1C4D45F7D308F10100B042804603
:100F8000E4DB206A384420622046FFF7E4FEBDE837
:100F9000FF9F0000A24401002DE9F0418046D21DD0
:100FA00022F007020025D2E90002F52915A614D087
:100FB000011E72F1000106DA0023D0EB030063EB9F
:100FC000020211A608E0D8F800108B0701D50FA681
:100FD00002E0490701D50EA601251146002408F1BB
:100FE000240704E000F0F1FA30323A55641C50EA6C
:100FF0000102F7D12B46324621464046BDE8F0417A
:1010000000F031BB000000002D0000002B000000AC
:101010002000000030B4002100F1240408E002F0B8
:101020000705D208303542EA4372DB086554491C93
:1010300052EA0305F3D10468002310A2250708D55E
:1010400004F020040C4304D0C46901230CA2641EE4
:10105000C46130BC00F007BB10B5044621461068DF
:10106000FFF793FE02462046BDE810400023D1E77B
:10107000D21D22F00701D1E90023CBE700000000D8
:1010800030000000F0B40D460188090502D5214C5E
:101090007C4402E01F4C7C440E34002100F1240605
:1010A00008E002F00F071209E75D42EA03721B092C
:1010B0007754491C52EA0307F3D102780023120740
:1010C00004D5702D06D009B1022311342246F0BC9C
:1010D00000F0C9BA01231034F8E770B504460D4694
:1010E00021461068FFF751FE024629462046BDE81A
:1010F00070400023C6E7D21D22F00703D3E9002386
:10110000C0E70368126843F0200303600823C3614B
:101110000023B7E7044301002DE9F05F8946044648
:101120004FF0000ADFF874B1FB44C0F820A020465D
:10113000E1688847002874D0252806D0D4E9012129
:101140009047206A401C2062F1E700265F46204657
:10115000E16888472028054607DB312D05D278193C
:1011600010F8200C08B10643F1E7B00701D526F0CE
:101170000406C4F81CA00027C4F818A02A2D09D022
:1011800028460EF0BDFC38B304EB8708303DC8F8A4
:10119000185019E059F8041B204604EB87029161AE
:1011A000E1688847012F054618D1E069002820DA58
:1011B00026F020061DE0D8F8180000EB800005EBB3
:1011C00040003038C8F818002046E16888470546D6
:1011D0000EF096FC0028EED1012F0AD02E2D08D15A
:1011E0002046E16888477F1C0546022F46F020060E
:1011F000C4DBA069002803DA404246F00106A06182
:10120000F00701D026F010066C2D0BD0682D09D008
:101210004C2D39D06A2D35D0742D35D07A2D33D060
:1012200016E038E0E1682F4620468847B842054678
:1012300009D16C2F26D04FF48060E1680643204628
:101240008847054604E06C2F1AD04FF4807006439F
:101250000DB3A5F14100192802D8203546F40066E7
:101260004A462946204626604E46FEF7DFFF80B1FB
:1012700001280BD0F61D26F0070000F1080956E7FB
:101280004020E4E78020D8E70020D6E706F10409F3
:101290004DE7284652E7206ABDE8F09F94420100DE
:1012A000026811441378016018467047D1600549FF
:1012B0007944516104497944116200211161114658
:1012C00000F0E2BDEDFFFFFF9B030000426842B16A
:1012D000016811F8013B23B1521EC0E90012184603
:1012E00070470121C160881E704742685AB1C368C7
:1012F000016843B983688B4205D0491E521CC0E97E
:101300000012002070474FF0FF3070472DE9F04188
:10131000044616460D464769007B80072ED03846A6
:1013200004F07CFB50BB3EB3012E02D0022E25D12F
:1013300004E0204600F062FF05441DE0384604F05A
:1013400064FBE168002841F01001E16005DA204605
:1013500000F058F80120BDE8F081C9030BD56268A0
:10136000E16A914200D81146A26911442269891AA2
:10137000814200DD08460544002D01DA0220EAE73B
:10138000E16A6068E268814206D29103E06203D5B7
:1013900022F4003141F01002A6690027AE4213DCAE
:1013A000E16A814201D90B4600E0034603EB060CDB
:1013B0002369ACEB030CAC4506DD814201D98C46B8
:1013C00000E084469C4505D1A760276042F02000DC
:1013D000A5620DE0AD1BE669AE1B8142A66000D997
:1013E0000846C01A281A20605819606022F02000B0
:1013F00003490840E060002084F84870ABE7000033
:10140000BFCFD7FFC16821F4001141F08001C16056
:1014100000218160016070472DE9F0478146144644
:101420000E464FF0FF383248D5685769054209D05B
:101430003846A16904F02AFB002811DB2C48C04380
:101440000540E5602B4632464946384604F028FB05
:10145000A16920F00042B21A11440028A16103D012
:101460002046FFF7CFFF4046BDE8F08770B5044641
:101470000569C06A6168884200D80846E16821F4BD
:101480002011E160C90312D5A84208D02246411BB1
:101490002846FFF7C1FF10B14FF0FF3070BD0020AC
:1014A000E562C4E90150E06820F48030E06000208B
:1014B00070BD10B50446C06820F02000E060A16A4D
:1014C000A06988420DD02046FFF7D0FFE06820F4E5
:1014D000405040F01000E060A06AA0612069E06226
:1014E000606044F24001E0688843E06010BD0000A5
:1014F00010000200431A28BF9A427FF6B5AA104492
:10150000114410F0030F1EBF11F8013D521E00F8E8
:10151000013D10F0030F7FF4F6AF103AC0F00A80DF
:1015200010B531E9185020E91850103ABFF4F9AF5E
:10153000BDE81040530724BF31E9081020E9081026
:1015400044BF51F8043D40F8043D12F0030F08BFBA
:101550007047D20728BF31F8023D48BF11F8012C6F
:1015600028BF20F8023D48BF00F8012C704700005A
:101570000048704778080020801A0844401E491E21
:1015800088431044704770B5144605468C4643683E
:10159000002B18BF634538BF1846F8D302681044C3
:1015A000604508D06646604604220821FFF7E4FF44
:1015B000811B8446641A2946CCF80040BDE870407F
:1015C00000220CF10400FFF775BB30B5B0F10A0240
:1015D00071F100034FEA900E4EEA817EB0EB0E00EF
:1015E00061EB91014FEA101E4EEA017E10EB0E00F6
:1015F00041EB11114FEA102E4EEA016E10EB0E0076
:1016000041EB11214FEA104E4EEA014E10EB0E0055
:1016100041EB1141401841F100014FEAD00040EA8E
:1016200041704FEAD1014FEA810444EA907410EB13
:10163000800544EB01046D1944EB0404521BA341E3
:101640004FF0000348BF0A3200D530BD401C41F1C5
:10165000000130BD10B5044600F028FF0068005DB1
:1016600000F0010010BD2DE9F0470D469946924665
:10167000044600F124080168880604D5E06921F0D9
:101680001001216000E00120A84201DD471B00E0BD
:101690000027A1697A1902EB0900081AA0612078D5
:1016A000C00602D42046FFF740FB002608E0D4E93C
:1016B00001211AF806009047206A401C761C20621F
:1016C0004E45F4DB2078C0060AD52046FFF72DFBF7
:1016D00006E0D4E9012130209047206A401C2062B6
:1016E000381EA7F10107F4DC07E0D4E9012118F85E
:1016F00005009047206A401C2062281EA5F10105C4
:10170000F3DC2046FFF727FB2078000602D50220F5
:10171000BDE8F0870120FBE72DE9FF4F0C461E4690
:101720004FF0FF378BB0D2E90001DDF860800A90FE
:101730008A46C1F30A5505B93D46002108464FF0D7
:101740000000BAF1000F00F4400005DA00EB800061
:101750004FF4400101EA50004FEA9059B9F1010FEE
:1017600000DDB9460A9850EA4A000ED044F61050FF
:10177000A5F2FF3545432F14B8F1000F1ED0754276
:10178000291E1EDDC9F100021CE0B8F1010F4FF067
:10179000000001D0302103E0F24305E02154401C59
:1017A000B042FBDB30460022002121540B99C1F8E6
:1017B0000880C1E900200FB0BDE8F08FBD1B6D1C93
:1017C000DEE74A4600DA694206A800F0C7FE06AB2B
:1017D00093E8070003AB83E8070050460A9906F038
:1017E00097FC8DE80700A0F500501F380090039883
:1017F000002D0ADD42F21F014A460844002303A9D6
:101800000390684606F000FF09E0A0F500504A4644
:101810001F38002303A90390684606F00AFF8DE8ED
:1018200007000004000C03D04FF0FF30410800E037
:101830001046B8F1000F03D00022009215461EE0BA
:10184000751E05D4FFF7C1FE303262556D1EF9D505
:10185000B3460122084302D000227F1C04E0207816
:10186000302801D100227F1E002A099784D01DE074
:10187000112D07DAFFF7A9FE303262556D1C50EAD0
:101880000102F5D1084302D00098C8B10EE0002152
:10189000681E05E0235C625C63542254401E491CB0
:1018A0008142F7DBAB46A81B401E0990002004F8DC
:1018B0000B000B98099AC0F80880C0E9002B7AE762
:1018C00011264FF0000857E72DE9F04F88460446EF
:1018D000D21D22F0070191B0D1E90001CDE90A0142
:1018E0000DF08EFF02460B98C00F01D02D2007E0AF
:1018F0002068810701D52B2002E0202101EAC000E9
:10190000032A099001D0072A05DB034641462046F9
:1019100000F0E4FD0BE12078800601D5E06900E0ED
:101920000620B8F1650F814606D0B8F1660F18D0D1
:10193000B8F1670F70D131E00020B9F1110F0090BC
:1019400001DB112301E009F101030AAA01A90CA896
:10195000FFF7E2FEDDE90C70002609F10105834680
:1019600047E001204B4600904FF000470AAA01A92A
:101970000CA8FFF7D1FEDDE90DB00C995D460026FD
:1019800010B909F101000D18B9EB050003D4C0F13D
:10199000FF3609F10105A5EB09002BE0B9F1010FB4
:1019A00001DA4FF001090020B9F1110F009048460B
:1019B00001DD112300E003460AAA01A90CA8FFF7E4
:1019C000ABFEDDE90C704D4600268346207800070B
:1019D0000AD4AB4500DA5D4601A8012D04DD4119AA
:1019E00011F8011C302907D04F4502DA17F1040F16
:1019F00004DA012082460FE06D1EEEE7002F02DCC4
:101A0000ED1B3E4403E0781CA84200DD7D1CB81BA2
:101A100000F1010A4FF000472078000703D4AA45DF
:101A200001DB4FF0FF3A0021B7F1004F0DF1430801
:101A30008DF8431024D002202B23002F01DA7F429F
:101A40002D230A21021EA0F1010000DC5FB197FBEB
:101A5000F1FC97FBF1F201FB1C7C17460CF1300CFA
:101A600008F801CDEEE7A8F101000370218809050F
:101A700001D5452100E06521A0F1010800F8011C15
:101A800009980FA9A1EB0807FF1D00B1012041191A
:101A900001EBEA70A1693844081A401EA061207861
:101AA000C00602D42046FFF740F9099828B1D4E9CE
:101AB00001219047206A401C20622078C00622D570
:101AC0002046FFF732F91EE0002E04DBB34502DDAD
:101AD00001A8805D00E03020D4E901219047206A10
:101AE000401C2062761CAAF101005FEA000A0AD1BC
:101AF00000F0E4FCC0680168405CD4E90121904733
:101B0000206A401C2062281EA5F10105DCDC07E0EC
:101B1000D4E9012118F8010B9047206A401C20628B
:101B2000381EA7F10107F3DC2046FFF714F9032064
:101B300011B041E62DE9F04F04460D46D21D22F0CA
:101B4000070089B0D0E90097484639460DF058FEA5
:101B50000246F80F01D02D2307E02068810701D548
:101B60002B2302E0202101EAC0038DF820300BB1C5
:101B7000012000E00020032A824601D0072A04DB6E
:101B80002946204600F0AAFC3FE12078800601D4D7
:101B90000D2500E0E569C7F30A560D2D49DA00214D
:101BA0004FEA175B08464FF00000002F00F440009A
:101BB00007DA00EB80004FF4400100EBD07001EA3F
:101BC00060008115012901DD4FF0FF3100224FEA4D
:101BD000850CBCF1180F06D31346ACF118004FF07A
:101BE0008052C24003E04FF4801323FA0CF30CF14F
:101BF0000C0CBCF1200F04D3ACF1200C09FA0CF052
:101C000001E007FA0CF000294FF0004801DD18B997
:101C10000FE00ED140450CD319EB02095F4121B909
:101C2000404502D19F4329EA0209BBEB175F00D070
:101C3000761C2088000502D57B48784402E07A486B
:101C40007844193808AA302302F80A30037C0AF1D4
:101C50000101002E0AF1020A53546A4602DC4FF0D9
:101C6000300101E04FF031014FF001088DF8001014
:101C700002D0A6F2FF3603E059EA470100D06B4ECE
:101C8000002D02DC2178090704D54FF002082E212F
:101C90008DF80110C44600210BE0C7F303433F0158
:101CA000C35C491C6D1E02F80830052908F10108C3
:101CB00001DA002DF1DC00210CE000EB1973491C66
:101CC0001B786D1E082902F808304FEA091908F13F
:101CD000010801DA002DF0DC21688B0602D516E040
:101CE000A8F10108E04505DD02EB080313F8013C0B
:101CF000302BF5D0B8F1000F09DD02EB080313F823
:101D0000013C2E2B03D1090701D4A8F10108002DB5
:101D100005DD3E2102F808106D1E08F10108407C27
:101D2000002E02F8080008F1010804DA2D2076429E
:101D300002F8080002E02B2002F808000A214FF404
:101D40007A70864208F101080BDB96FBF0F3303322
:101D500002F8083096FBF0F308F1010800FB136667
:101D600001E0642E0CDB642096FBF0F3303302F8C4
:101D7000083096FBF0F308F1010800FB136601E060
:101D80000A2E06DB96FBF1F0303002F8080008F16D
:101D9000010896FBF1F001FB1060303002F80800FA
:101DA000A16908F1010808EB050202EB0A00081A14
:101DB000A0612078C00602D42046FEF7B6FF216A53
:101DC00008AE01EB0A00206204E0D4E9012116F814
:101DD000010B9047BAF1010AF7D22078C00602D56C
:101DE0002046FEF7A2FF6E4609E016F8010B3E28DA
:101DF0000FD0D4E901219047206A401C2062B8F13D
:101E00000108F2D22046FEF7A6FF09B00320BDE884
:101E1000F08F206A2844206203E0D4E901213020B9
:101E200090476D1EEBD3F8E7A637010002FCFFFFD9
:101E300010B5436913B1AFF3008001E0FEF7AEFFC8
:101E4000012010BD127800F124010A7000224A70AE
:101E50000122EDE711684FF0FF32E9E710B5436961
:101E600013B1AFF3008001E0FFF738F8012010BD97
:101E7000128800F1240182840022C2840122EDE74D
:101E800011684FF0FF32E9E72DE9F34F4FF0000AF8
:101E90000C4656468DB001200C9001F10C000B90C1
:101EA00062690B9801219047051E2DD0252D2CD05D
:101EB000216A8847C0B162690B9801219047216A65
:101EC00088470028F7D16269411E0B98904700E0CF
:101ED000761CA1690D988847216A88470028F7D1A8
:101EE000E1690D988847DBE7A1690D988847A8420A
:101EF000074601D1761CD3E7E1690D9888477F1C1E
:101F000002D1BAF1000F6FD06BE162690B98002724
:101F10003D46394690472A2804D162690B98012131
:101F200090470125DFF8D08262690B980121904724
:101F3000A0F130010A290AD24745E5DC07EB870109
:101F400000EB4107303FDFD445F01005ECE7E90630
:101F500001D46FF000476C280AD04C2814D06828B0
:101F600015D06A280DD074281CD07A281AD01DE00C
:101F700062690B98012190476C2802D045F0040556
:101F800014E045F002050DE045F020050AE0626925
:101F90000B9801219047682802D045F0080505E01C
:101FA00045F4006562690B9801219047C4E9015727
:101FB00065283DD019DC58287AD00CDC452837D06C
:101FC00004DC252826D041289ED131E046282FD098
:101FD000472899D12CE05B2877D0612828D0632846
:101FE0007CD0642823D15AE0F6E06F2848D008DC82
:101FF00066281DD067281BD0692821D06E2816D1ED
:1020000027E0702845D0732868D0752847D07828F5
:102010000DD14DE0A1690D988847252805463FF46C
:1020200069AFE1690D9888476D1C3FF46AAFD8E04D
:102030000D9923466A466FF00100AFF30080C5E0BA
:1020400045F0400023464FF000026060A80736D4F8
:102050003EE0E8077FF447AF2068011D216000687B
:10206000290501D506701BE7290701D5068017E76A
:10207000A90703D5F117C0E9006111E706600FE772
:1020800045F0400023464FF008026060A80716D4D0
:102090001EE040F60E0125EA0100606016E045F002
:1020A000400023464FF00A026060A80707D40FE003
:1020B00045F040006060A80708D5234610220D991E
:1020C0006FF00100AFF3008080E007E010222346AC
:1020D0000D996FF00100AFF3008077E04FF0000939
:1020E00063284F46C8464B46CB4602D05B2806D0F5
:1020F00038E0E80601D40120A060012732E06269DF
:10210000D4F80CB00B98012190475E2807D14FF00E
:10211000010949466269D4F80CB00B9890472169CF
:1021200039B900210A4603AB43F82120491C08298C
:10213000FADBD8B3216949B308F1010862690B9849
:10214000012190475D28F4D1B9F1000F09D000209A
:1021500003A951F82020D24341F82020401C082830
:10216000F7DB03AB2069002820794FEA40701ED0CE
:102170005B462246CDF80080CDE901970D990028F5
:102180006FF0010020DAAFF300801FE0C11703AA4F
:1021900000EBD1614B1121F01F0102EB8302411AC8
:1021A00013680120884003431360C7E719E00D99C5
:1021B000224600286FF00100009702DAAFF300809A
:1021C00004E0FEF731FA01E0AFF3008000280ADAFC
:1021D000401C06D10C9820B14FF0FF300FB0BDE885
:1021E000F08F5046FAE7E90701D10AF1010A0644E7
:1021F00000200C9054E60000CCCCCC0C10B501466D
:10220000C268900703D0900607D5886A0AE000F0FC
:102210005AF901210160881E10BD8B694868184475
:102220000B69C01A91F848301BB191F84910401A57
:1022300010BD1103FCD50028FADD401E10BD0000C2
:1022400010B565485421FEF776FC64485421FEF72A
:1022500072FC63485421FEF76EFC62485E49624A94
:10226000624B01605D4810605D4A1A60431C0B655B
:10227000511C01650120106557484C3003F09FFB4D
:1022800056484C3003F09BFB55484C3003F097FB0D
:10229000574803F094FB58484F4A56A17844FEF73C
:1022A000CAFA20B9544878440A3800F00BFA544866
:1022B0004A4A52A17844FEF7BEFA20B95048784401
:1022C0000A3800F0FFF94F48454A4CA17844FEF720
:1022D000B2FA20B94B4878440A3800F0F3F94023A9
:1022E0003D48DC000021224600F0AAF920B1424816
:1022F0007844543800F0E6F938482246402300215B
:1023000000F09EF920B13E487844543800F0DAF9E4
:10231000334822461023002100F092F9002806D00D
:1023200038487844BDE81040563800F0CBB910BDAD
:102330002B482DE9F041006D2D4E20F00104304670
:1023400003F02DFB244D4C35284603F028FB224892
:10235000FEF7DAF9284603F042FB284603F02CFB8F
:102360001E4D4C35284603F01AFB1C48FEF7CCF9ED
:10237000284603F034FB284603F01EFB184D4C356D
:10238000284603F00CFB1648FEF7BEF9284603F07A
:1023900026FB284603F010FB14E0206D20F0010519
:1023A00004F14C00074603F0FAFA2046FEF7ACF9B8
:1023B000384603F014FB384603F0FEFA2046FEF7D9
:1023C000AAFC2C46002CE8D1304603F008FB084854
:1023D00003F0F2FABDE8F0817C070020D00700206E
:1023E00024080020E4010020E8010020EC01002086
:1023F000E001002072000000483301007700000077
:1024000037330100103301002DE9F04116460C4628
:10241000054600F04BF8036893F80101012807D046
:10242000FF2C12D8185D80B101202C70BDE8F0811E
:10243000D3F807013246214603F20713C71828468E
:10244000BC46BDE8F041002360474FF0FF30EDE7A8
:1024500010B500F03FF9BDE8104000F02EB970470C
:102460007546FFF785F8AE4605006946534620F0ED
:102470000700854618B020B5FDF760FFBDE8204095
:102480004FF000064FF000074FF000084FF0000B30
:10249000AC46ACE8C009ACE8C009ACE8C009ACE89F
:1024A000C00921F007018D467047000010B500F00B
:1024B00005F8001D10BD00BFB9E6000010B5FFF71C
:1024C00057F8203010BD03F035BA10B5FEF79DFB6C
:1024D0000068BDE8104000F02BB900002DE9F04184
:1024E0001F46044603260168072A01F4006004DB46
:1024F00008B116A505E016A503E008B115A500E092
:1025000015A521F010002060A069C01EA0610FB1C8
:10251000401EA0612046FEF708FC4FB1D4E901211E
:1025200038469047206A401C2062C01C206206E0AA
:10253000206AFAE7D4E9012115F8010B9047761ECD
:10254000F8D22046FEF707FCBDE8F0814E414E0070
:102550006E616E00494E4600696E66002DE9F047D7
:10256000814616468AB0354878440DC88DE80D007E
:1025700032487844801C03AC0DC884E80D0041F655
:102580009B300844372190FBF1F290FBF1F5A5F167
:10259000800501FB12041B3C02D56442012000E0CF
:1025A0000020DFF898A080460027FA44AAF1BE0A6E
:1025B0000EE0E0070AD03246684607EB47010123E8
:1025C0000AEB810106F035F88DE8070064107F1CE6
:1025D000002CEED1194F7F44AE3F19E0E80715D02B
:1025E00007EB04100DF1180A90E80E008AE80E00BF
:1025F000C068F04201D1981908903246012306A91B
:1026000003A806F016F803AB83E807006D10641CFE
:10261000002DE3D14FF0010332466946B8F1000FB7
:1026200003A802D005F0F0FF01E006F002F8C9E9C6
:102630000001C9F808200AB0BDE8F087082F0100A2
:102640002DE9F04704461E4690460D46C7684C30BB
:10265000814603F0A4F9B80714D0780212D440469A
:10266000B8F5807F09D0B0F5007F06D0B8F5806F4F
:1026700008D1012604F1240506E0701E6FF07F41A9
:10268000884201D3012409E02561E6616560E068C4
:1026900020F4706040EA0800E0600024484603F03F
:1026A0009EF92046BDE8F08710B50446AFF30080E0
:1026B0002046BDE81040FDF72CBE002801D000F0F8
:1026C00031B8704710B500F051F8BDE81040FFF781
:1026D000F4BF000010B5012805D0002103A000F0D0
:1026E0002CF8012010BD09A1F8E70000534947521A
:1026F000544D454D3A204F7574206F6620686561D2
:1027000070206D656D6F7279000000003A20486599
:102710006170206D656D6F727920636F7272757074
:102720007465640001491820ABBEFEE72600020074
:1027300010B50C3003F040F910BD70B505460C46DD
:102740000A2000E06D1C00F02BF835B12878002835
:10275000F8D102E0641C00F023F814B120780028BE
:10276000F8D1BDE870400A2000F01AB810B5014653
:1027700002A0FFF7E2FF012010BD000053494752BD
:10278000545245443A2052656469726563743A2034
:1027900063616E2774206F70656E3A200000000040
:1027A00008B569468DF800000320ABBE08BD80B5B2
:1027B00002F092FA002080BDB0B50B4D04460A210C
:1027C0002868B0FBF1F101EB8101A0EB410119B9DF
:1027D00006A003F0F9FB286801302860204602F0CB
:1027E000A1FA0020B0BD00BF0CC100202E000000E7
:1027F00000207047004870477055010881B00C48B0
:102800000068009001B07047004870470202000164
:1028100080B50748016821F001010160016821F0DD
:102820000201016002F0BCFA80F00100404280BD6C
:10283000FC0800206FF00301032838BF0021084680
:10284000704770B514460D46064606E015F8010BB4
:10285000314602F0FBFB0136013C002CF6D1002092
:1028600070BD80B503460846194602F0F9FA00200B
:1028700080BD00207047FEE701686FF00F0240F254
:10288000FF3352FA81F2994318235F2AB2FBF3F225
:1028900003A388BF043181659A5CC265084670470E
:1028A00000061016000610167047704710B5930703
:1028B00012D400F10C03D00718D153E8000F0842DE
:1028C00003D1BFF32F8F002005E020EA010243E887
:1028D000002404B1F1E710BDC068D20700EA01038B
:1028E00015D1002B18BF10BD002010BD53E8000FFC
:1028F00000EA01028A4203D0BFF32F8F002005E0D7
:1029000020EA010243E8002404B1EFE710BD8B4246
:1029100018BF002010BD7047704770477047704760
:1029200070477047704770477047704770477047EF
:1029300070477047704770477047704770477047DF
:1029400070477047704770477047704770477047CF
:1029500070477047704770477047704770477047BF
:1029600070477047704770477047704770477047AF
:10297000704770477047704770477047704770479F
:10298000704770477047704770477047704770478F
:10299000704770477047704770477047704770477F
:1029A00070477047704770477047000006F0F2FCB0
:1029B0000D4801210122002307F036FA642107F0B7
:1029C00002FB6FF07F4007F096F9022007F0EEF966
:1029D000064807F0ADF906A006F08CFB06F00EFCE9
:1029E00000F020F8FAE700BF85590008843201089A
:1029F000546869732069730A54696E7920426F7252
:102A00006400000080B505484FF4004106F05AF913
:102A10000348BDE8804007F079B900BF04110020E9
:102A2000D4120108012003F02FBC04F0CDBB03F049
:102A30007BBC704710B5002003F0C2FD084C20603D
:102A4000002003F03DFC606010BD00BF04484FF063
:102A5000FF31006803F07ABD0148006803F0CEBD85
:102A6000F408002070B110B50446407920B9002068
:102A70002071204600F008F802206071012060718A
:102A8000002010BD0120704701680A48A0F50362CC
:102A9000914218BF704781B000210091016841F454
:102AA00080510160006800F480500090009801B0EF
:102AB000704700BF303802402DE9F041044600F075
:102AC00073F9002C4FD00546022084F83500002011
:102AD00084F834002168086820F00100086005E0EF
:102AE00000F062F9401B052840D821680868C0073B
:102AF000F6D10868394AD4E9013504F10C0800EA36
:102B0000020C98E8C101D4E9072E43EA0C032B43D9
:102B10001843636A30433843042B40EA080040EA14
:102B2000020040EA0E0225D1D4E90BE042EA0E028F
:102B3000BEF1000F40EA0200086051F8140FA26ACB
:102B400020F0030040EA020040F0040C19D0B8F570
:102B5000005F28D0B8F1000F35D1022A36D0012A03
:102B60002BD09AB30DE00120BDE8F081032520238E
:102B7000032013E00A6051F8140F20F0070040EA28
:102B8000030C2046C1F800C0FFF776FEE16D3F223E
:102B90000023012502FA01F181600020636584F8B9
:102BA0003550BDE8F081032AEBD8012540230120F0
:102BB000DFE802F0020C0203F0E7AEF1C070B0FAF9
:102BC00080F0400904E0032A04D3DAD1CEF3006098
:102BD0000028D6D0012540230120DFE73F8010F0F8
:102BE000B0B5044600F0E0F805460548611C0078E1
:102BF00018BF044400F0D8F8401BA042FAD3B0BD7F
:102C0000F00100202DE9F84F5B4A4FF0070A4FF022
:102C1000010B4FF000084FF0000E9042574A08BFDA
:102C20004FF0040A02444FEAB223042B38BF4FEAA4
:102C3000B22A0022102A08BFBDE8F88F0B680BFAF1
:102C400002F6334200F091804B6843F01004122CDE
:102C500013D16FF003040EF01C030F2704EA520592
:102C600007FA03FC05442C6A24EA0C0C0C6904FAEC
:102C700003F343EA0C032B624B68032703F00305BD
:102C8000122B07FA08F4076805FA08F56FEA040C36
:102C900027EA040747EA0507076013D80BFA03F48D
:102CA00014F0061F0ED08468CD6804EA0C0405FAFF
:102CB00008F52C438460C3F3001445689440B54381
:102CC0002C434460C4688D68DB0004EA0C0705FAF5
:102CD00008F547EA0507C76047D50023284C0EF0E2
:102CE0000C050093284BA4461F461B6843F4804301
:102CF0003B603B6803F48043009322F003032344CA
:102D0000224C009FA1461F590F24AC400AFA05F53A
:102D1000A7432F4343F80970DCF800304D6843EABD
:102D20000607EC0358BF23EA0607CCF80070AC0393
:102D3000DCF8043043EA060758BF23EA0607CCF85C
:102D40000470EC02DCF8083043EA060758BF23EAB7
:102D500006070C4BCCF80870AD021C461B6843EA12
:102D6000060758BF23EA0607276008F102080EF19C
:102D7000040E01325EE700BF001002400000FEBFFB
:102D8000003C01400C3C01404438024008FCFFFF7D
:102D900042690A408A4208BF090481617047002ADB
:102DA00008BF090481617047C7480068704700BFC9
:102DB000B0B520B3044690F83D0028B9002084F84F
:102DC0003C00204600F03EF9242084F83D002068B5
:102DD000016821F00101016000F0D2FA4C494D4B2D
:102DE00000224D4D88424FF0000138BF012198422A
:102DF00038BF01226368AB4238BF0A460AB10120DE
:102E0000B0BDDC49B0FBF1F221684D6825F03F050B
:102E100015434D600D6A25F03F0C404DAB4213D871
:102E20000132013842EA0C020A625A004CF6FF7382
:102E3000B0FBF2F001306FF31F30042898BF04207C
:102E4000CA6922EA030C3AE04FF49675A0F1010E2C
:102E50006A434FF47A75B2FBF5F24CF6FF75013216
:102E600042EA0C020A62CA6922EA050CA26842B16F
:102E7000192004255843BEFBF0F0013065F31F30E4
:102E800006E003EB4300BEFBF0F001306FF31F30B0
:102E9000000509D052B1192004225843BEFBF0F0BE
:102EA000013062F31F3008E0012008E003EB43002B
:102EB000BEFBF0F001306FF31F3040F4004040EAF9
:102EC0000C00C8610868D4E9072320F0C000104353
:102ED00048F2FF321843086088689043D4E903231E
:102EE000184310438860C868D4E9052320F0FF0028
:102EF00010431843C860086840F0010008600020D3
:102F00002021206484F83D10206384F83E00B0BD89
:102F100080841E0000093D00A1860100A0860100FA
:102F20002DE9FE43994616460F460446FFF73CFF3F
:102F3000054694F83D0020280BD140492046012247
:102F40001923009501F05BF818B994F83C000128AA
:102F500003D1022003B0BDE8F0830DF1280801225F
:102F600098E8030184F83C2022681368DB0702BF5D
:102F7000136843F001031360136823F400631360C4
:102F800021224B4684F83D20402284F83E20002236
:102F90002264618560622A493246608DE162394669
:102FA00020852046CDE9008500F0B0FF08B1012062
:102FB000D0E7208D22E0204641462A4601F0A5F8C0
:102FC00020BB616A2268084610F8013B1361606209
:102FD000238D581E20850604678DA7F1010767859C
:102FE000576918BF17F0040708D0487802311061FC
:102FF000981E20856162618D013961850004DAD1F6
:10300000204641462A4600F0D3FF40B1206C0428F8
:10301000CDD12068016841F400710160C7E72068E4
:10302000016841F400710160202084F83D00002017
:1030300084F83C0084F83E008CE700BF02001000DA
:103040000000FFFFB0B586B0044601A81421FDF7CB
:1030500072FD21681548814225D10025144C00F5E8
:10306000D8300095216841F002012160216801F00B
:10307000020100910099042105910321049101218D
:103080000391122102914FF44071019101A9FFF7C0
:10309000B9FD0095206940F400102061206900F41A
:1030A00000100090009806B0B0BD00BF0054004072
:1030B000303802400348044900780A681044086028
:1030C000704700BFF001002034DA002080B50B48C3
:1030D000016841F400710160016841F480610160A0
:1030E000016841F480710160032000F08DF8002038
:1030F00000F006F800F040F8002080BD003C0240DF
:10310000B0B586B001461A200022002400F05EF817
:103110001A2000F04DF814480194016841F4802110
:1031200001606946006800F480200190019801A8C0
:1031300000F00AF900F02EF90E4D0C490C4B40F24C
:10314000E732B0FBF5F00138C1E900300846C1E9CB
:1031500002420C6100F0C1FC08B1012002E003480A
:1031600000F0D6FC06B0B0BD4438024014C40020C4
:103170000048014040420F0082B000200B490190FE
:103180004A6842F480424A604A6802F480420192EE
:10319000019A0090086840F080500860086800F0CC
:1031A00080500090009802B0704700BF4038024045
:1031B000002808DB00F01F010122400902FA01F19A
:1031C000014A42F82010704700E100E080B5144B3E
:1031D0001B68C3F3022CBCF1030E8CF007034FF005
:1031E000FF3C38BF4FF0000E042B28BF04230CFA1D
:1031F00003F399430CFA0EF301FA0EF19A431143CB
:10320000BDE8804002F084BB05494FF6FF030A6821
:103210001A4060F30A22034810430860704700BF59
:103220000CED00E00000FA052DE9F041002800F067
:103230008380434B04468846D3F8000400F00F0017
:10324000884207D283F80084D3F8000400F00F000E
:10325000404571D12068810711D5410742BF996867
:1032600041F4E0519960010742BF996841F460411F
:1032700099609968A26821F0F00111439960C00734
:103280002AD06068811E022903D21968890109D4F5
:1032900052E0012803D11968890303D44CE019686E
:1032A000890749D599681D4621F0030108439860B4
:1032B000FFF77AFD064641F28837A86861682B4619
:1032C00000F00C00B0EB810F06D0FFF76DFD801B06
:1032D000B842F2D9032430E0D3F8000400F00F0024
:1032E000404507D983F80084D3F8000400F00F00AC
:1032F000404521D12068410705D59968E26821F44D
:10330000E05111439960000706D59868216920F4BF
:10331000604040EAC10098601C4600F04BF8A1688C
:10332000084A0024C1F30311515CC8401E490860DB
:103330000020FFF7E5FE00E001242046BDE8F08113
:10334000003802402C5501080F220260174A13680A
:1033500003F003034360136803F0F0038360136812
:1033600003F4E053C3604FF4E053D2F800C003EA23
:10337000DC030361D2F8F80300F00F000860704727
:1033800009480A490A4A00680968C1F38221515C68
:10339000C840704704480549054A00680968C1F3F8
:1033A0004231515CC8407047F801002008380240A3
:1033B0003C55010810B5134C606800F00C0008285B
:1033C00004D0042814BF1048104810BD226820689B
:1033D0000023400202F03F020C485CBF42F2004072
:1033E000C0F2F4002168C1F38811A0FB0101FDF7D0
:1033F0006CF821680222C1F3014102EB4101B0FBEC
:10340000F1F010BD043802400024F40040787D0142
:103410002DE9FC41002800F0058104460078AF4EFC
:10342000C0072FD0B06800F00C00042823D0B0688B
:1034300000F00C00082802D1706840021BD46768B5
:10344000B7F5803F07D03068B7F5A02F40F00B816B
:1034500040F480203060306840F480303060FFF706
:10346000A3FC0546306880030CD4FFF79DFC401B8D
:103470006428F7D99DE03068800303D56068002890
:1034800000F0D080207880072BD5B06810F00C0FAA
:1034900007D0B06800F00C00082809D1706840021D
:1034A00006D43068800715D5E068012812D0B9E04D
:1034B000E1688B4800297ED001210160FFF774FC90
:1034C00005463068800705D4FFF76EFC401B0228D4
:1034D000F7D96EE03068216920F0F80040EAC100B9
:1034E00030602078000721D5606978B17C480121DF
:1034F000C0F8801EFFF758FC0546706F800715D492
:10350000FFF752FC401B0228F7D952E07448002113
:10351000C0F8801EFFF748FC0546706F800705D590
:10352000FFF742FC401B0228F7D942E02078400711
:1035300070D5306C4FF00008C0000CD4CDF804807A
:103540004FF00108306C40F080503064306C00F077
:10355000805001900198634F3868C0050FD43868D7
:1035600040F480703860FFF71FFC05463868C005DE
:1035700005D4FFF719FC401B0228F7D919E0A7680A
:10358000012F05D0306F052F25D140F004003067A2
:10359000306F40F001003067FFF706FC054641F24E
:1035A0008837306F80072ED4FFF7FEFB401BB842F0
:1035B000F7D9032037E000210160FFF7F5FB05464E
:1035C000306880077FF58DAFFFF7EEFB411B0320CE
:1035D0000229F5D927E020F001003067306F20F094
:1035E00004003067FFF7E0FB0546002FD7D141F21A
:1035F0008837306F800706D5FFF7D6FB411B0320C5
:10360000B942F6D90FE0B8F1000F1EBF306C20F0C0
:1036100080503064A769002F5DD0B06800F00C00C6
:10362000082803D1012002B0BDE8F0812C49002018
:1036300088460866FFF7B8FB0546022F09D13068B7
:10364000800128D5FFF7B0FB411B03200229F6D9E2
:10365000E9E7306880013ED5FFF7A6FB411B032058
:103660000329F6D3DFE720F480303060306820F49F
:1036700080203060FFF798FB0546002F7FF4F2AE04
:10368000306880037FF5FEAEFFF78EFB411B032001
:103690006429F5D9C7E704F11C078FCF0843D90384
:1036A00040EA82104FF6FF72914340EA0760A1F5AD
:1036B0008031084370600120C8F86000FFF774FB98
:1036C00004463068800106D4FFF76EFB011B03201F
:1036D0000229F6D9A7E70020A5E700BF003802407D
:1036E000000047420070004070B5C8B30026054690
:1036F0004FF0000C866290F8510030B9284685F8EA
:10370000506000F031F8D5F828C0022185F851103A
:1037100029680A6822F040020A60D5E90123D5E948
:1037200003041A4310436A6920431043AA6902F450
:1037300000731843EB6918432B6A184340EA0C00E6
:103740000860042000EA12406A6A10434860C869B1
:1037500020F40060C86101206E6585F8510000E02A
:103760000126304670BD000010B586B0044601A8A1
:103770001421FDF7E0F921681448814224D1002189
:10378000134A00F5E6300091136943F48043136156
:10379000136903F480430093009B0091136843F086
:1037A00002031360126802F002020092009A0522DE
:1037B00005920322CDE90312022102914FF46041E8
:1037C000019101A9FFF71EFA06B010BD00380040B4
:1037D000303802402DE9F843044640681D4617463C
:1037E0000E46B0F5827F02D1A06800287AD094F806
:1037F0005000012801D102207EE04FF0010984F839
:103800005090FFF7D1FA804694F85100012862D118
:103810000120002E60D0002F5ED0042084F85100DB
:1038200000206065E787A787A663A0862063C4E9B8
:103830001000E0866E1CA1682068B1F5004F02BF41
:10384000016821F480410160016849065EBF01689A
:1038500041F040010160E068A0B92CE02068816877
:10386000C90707D1FFF7A0FA66B1A0EB0800A8428C
:1038700008D344E0C068A16B21F8020BA163E08F7C
:103880000138E087E08F0028E8D117E020688168E0
:10389000C90707D1FFF788FA6EB1A0EB0800A8426C
:1038A00009D32CE0007BA16B0870A06B0130A063F2
:1038B000E08F0138E087E08F0028E7D120462946D5
:1038C000424600F04BFF08B120206065606D002883
:1038D00018BF012000E00220002184F8501084F875
:1038E000519009E00420314632463B4684F85100AD
:1038F0002046009500F005F801B0BDE8F0830320F4
:10390000EAE72DE9F843044690F85000012801D178
:103910000220C7E001201E4615460F4684F85000DD
:10392000FFF742FA94F85110814601296BD101202A
:10393000002F00F0B180002D00F0AE80002E00F0CE
:10394000AB8094F85100DDF8208004281CBF0520CE
:1039500084F8510000206065E687A563A687276389
:10396000C4E91000A686E6862068016849065EBFA5
:10397000016841F0400101606268711EE368B1FABC
:1039800081F1B2FA82F24909B3F5006F4FEA52129F
:1039900041EA020145D131B137F8021BC16027630A
:1039A000E08E0138E086012608F10105E08E10B9AD
:1039B000E08F002879D02068816889070CD5E18ED6
:1039C000012E09D141B1216B002631F8022BC260D2
:1039D0002163E18E0139E1868168C9070AD0E18F50
:1039E00041B1C068A16B012621F8020BA163E08FF1
:1039F0000138E087FFF7D8F9002DD7D0A0EB0900F8
:103A00004045D3D347E06068B0F5827F07D10220FC
:103A1000042941D1A16800293FF489AF3CE002208C
:103A20003AE039B139780173206B01302063E08EC0
:103A30000138E086012608F10105E08E08B9E08F23
:103A400098B32068816889070ED5E18E012E0BD1CD
:103A500051B1216B002609780173216B2068013177
:103A60002163E18E0139E1868168C9070BD0E18FBE
:103A700049B1C068A16B01260870A06B0130A0633A
:103A8000E08F0138E087FFF78FF9002DD5D0A0EB4C
:103A900009004045D1D30320002184F850100121B2
:103AA00084F8511001B0BDE8F083204641464A46F3
:103AB00000F07EFE18B1202060650120ECE7A168CF
:103AC00000200029E8D100902168CA680092896826
:103AD00000910099E0E770477047B0B110B5044617
:103AE00090F83D0028B9002084F83C00204600F002
:103AF0000EF80220211D84F83D00206800F068FFC8
:103B0000012084F83D00002010BD0120704770475F
:103B10000068C16841F00101C160816801F00701DE
:103B200006291EBF016841F00101016000207047B5
:103B3000704710B5044600680169890744BFC16831
:103B40005FEA817138D40169490744BFC1685FEAFF
:103B500041713DD40169090744BFC1685FEA017141
:103B600043D40169C90644BFC1685FEAC16148D452
:103B70000169C9071CBFC1685FEAC1714ED1016903
:103B8000090644BFC1685FEA01614FD40169490673
:103B900044BFC1685FEA416150D40169890646BFEC
:103BA000C1685FEA816110BD6FF0200101612046AC
:103BB000BDE81040FFF790BF6FF0020101610121E5
:103BC00021778069800741D02046FFF7B1FF43E0AD
:103BD0006FF00401016102212177806910F4407FB8
:103BE0003ED02046FFF7A4FF40E06FF008010161DE
:103BF00004212177C06980073CD02046FFF798FF59
:103C00003EE06FF01001016108212177C06910F4D6
:103C1000407F39D02046FFF78BFF3BE06FF001017A
:103C20000161204600F03CF82068A8E76FF08001B1
:103C300001612046FFF74FFF2068A7E76FF04001C2
:103C40000161204600F036F82068A6E7204600F023
:103C500025F8204600F023F800202077206872E73E
:103C6000204600F01BF8204600F019F800202077CD
:103C700020686FE7204600F011F8204600F00FF8AA
:103C80000020207720686CE7204600F007F82046E7
:103C900000F005F800202077206869E7704770473A
:103CA00000680349884208BFFFF704BA704700BFA5
:103CB00000480140704750B310B5044690F83900F1
:103CC00028B9002084F83800204600F023F824208A
:103CD00084F839002068C16821F40051C160204691
:103CE00000F016FF2068016921F4904101614169EB
:103CF00021F02A014161C16841F40051C1600020F6
:103D00002021E06384F8391084F83A1010BD0120B6
:103D1000704700002DE9F04786B0044601A8142141
:103D2000FCF709FF20686349884263D062498842F2
:103D300040F0BC80002761480097416941F01001C4
:103D40004161416901F010010091009900970168FB
:103D500041F00201016001A9006800F0020000903A
:103D60000098072005900320049001200390022072
:103D70000290C0200190524800F58060FEF742FF9B
:103D80005149534D4FF0006940204FF480688A46F6
:103D900001F58661C5E9001905F1080181E8810195
:103DA00005F114001421FCF7C6FE2846FEF784FE38
:103DB00008B1FEF77AFD474E0AF56E7025631421AF
:103DC000C6E9000906F11400C6E90277C6F81080BA
:103DD000AC63FCF7B0FE3046FEF76EFE08B1FEF7AE
:103DE00064FD2520002100226663B463FFF7EEF92D
:103DF000252059E0002731480097016941F400313E
:103E00000161016901F40031009100990097016896
:103E100041F00101016001A9006800F0010000907B
:103E200000980720059003200490012003900220B1
:103E300002900C2001902248FEF7E4FE2249214D19
:103E40004FF0006940204FF480688A461831C5E978
:103E5000001905F1080181E8810105F11400142120
:103E6000FCF769FE2846FEF727FE08B1FEF71DFDA8
:103E7000164E1421256306F11400C6E900A9C6E90F
:103E80000277C6F81080AC63FCF755FE3046FEF7AB
:103E900013FE08B1FEF709FD26200021002266630B
:103EA000B463FFF793F92620FFF782F906B0BDE867
:103EB000F08700BF0044004000100140303802404D
:103EC0000000024008C3002088600240A8C2002011
:103ED00048C20020E8C10020FEE702685169490598
:103EE0004FF000010FD56FF480635361202201630E
:103EF00080F83D2080F83E1080F83C10016C41F0C5
:103F00000401016401210846704700002DE9FE43C9
:103F1000044600680F460A9D0B9E99469046002273
:103F200001682B4641F48071016020464FF0011179
:103F3000009600F064F850B9206807F0FE012A46A8
:103F4000334601611949204600F094F818B1012068
:103F500003B0BDE8F083002032460290206841693A
:103F600002912946806902900298204600F0CDF81F
:103F700040B1206C0428EAD12068016841F4007146
:103F80000160E4E7B9F1010F0AD020684FEA182177
:103F9000324601612046294600F0B7F80028E8D1F2
:103FA00020685FFA88F101610020D1E7020001007A
:103FB000F8B515460E4604464F1C20684069400778
:103FC0001AD42046FFF789FFA0B9002FF5D0FEF7DD
:103FD000EBFE16B1401BB042EFD900202021206338
:103FE00084F83D1084F83E0084F83C00206C40F0DA
:103FF00020002064012000E0002001B0F0BD2DE988
:10400000F047DDF820909A46164680468FB201F4BC
:104010007F045D1C1820B4F5803F08BF1420D8F839
:10402000001008583840C01BB0FA80F04009B04278
:104030001CBF0020BDE8F087002DEBD0FEF7B4FEDA
:10404000BAF1000F03D0A0EB09005045E2D90020DF
:104050002021C8F8300088F83D1088F83E0088F824
:104060003C00D8F8400040F02000C8F84000012093
:10407000BDE8F0872DE9F8439846164681468FB291
:1040800001F47F05541CD9F80000B5F5803F0CBF42
:10409000416981693940B9421AD04169490519D449
:1040A000002CF0D0FEF780FE1EB1A0EB0800B0425D
:1040B000E9D900202021C9F8300089F83D1089F89D
:1040C0003E0089F83C00D9F8400040F0200016E09E
:1040D000002017E0016841F4007101606FF4806115
:1040E000416100202021C9F8300089F83D1089F88D
:1040F0003E0089F83C00D9F8400040F00400C9F8BF
:104100004000012001B0BDE8F083F8B515460E4629
:1041100004464F1C2068406900061AD42046FFF769
:10412000DCFEA0B9002FF5D0FEF73EFE16B1401B15
:10413000B042EFD900202021206384F83D1084F89C
:104140003E0084F83C00206C40F0200020640120F8
:1041500000E0002001B0F0BD10B50748074A00217B
:10416000002403F043F806490028086008BF4FF018
:10417000FF34204610BD00BFAD290008BC55010822
:104180000011002080B5104810490022002304F0DF
:1041900015FF07F03BF858B100204021802207F0BE
:1041A000ADFA002040218022BDE8804007F0BCBA73
:1041B00000208021402207F0A1FA00208021402227
:1041C000BDE8804007F0B0BA88550108C80B010867
:1041D0000020704780B5064806490160FEF742FCA2
:1041E000002814BFBDE8804080BDFEF75EBB00BF65
:1041F000E0C1002000300240BCB500204149184C0D
:1042000001900A6842F480020A600A6802F480029F
:104210000192019A00900868002240F400100860A2
:104220000868002100F40010009000981020A047BA
:104230000C4D1020A847112000210022A04711207A
:10424000A8473A2000210022A0473A20A84746204C
:1042500000210022A04746202946BDE8BC4008476F
:10426000CD310008B13100082DE9F04387B00027B7
:104270002448254C002248F602460697019701681B
:1042800041F080010160016801F080010191019914
:104290000197016841F001010160016801F001012D
:1042A000019101990197016841F00201016048F60E
:1042B0000241006800F00200019001982046FEF7DC
:1042C0006EFD04F580654FF4805101224FF4805853
:1042D0004FF001092846FEF762FDCDE90477CDE9EC
:1042E000026902AE20463146FEF78CFC2846314674
:1042F000CDE90477CDE90289FEF784FC07B0BDE87B
:10430000F08300BF303802400000024010B50C4876
:104310000C4B0D4C00224FF480410262C0E9004377
:10432000C0E90222C0E90412C0E90622FEF740FDFE
:10433000002814BFBDE8104010BDFEF7B6BA00BF9C
:1043400068C30020801A06000054004080B50E4863
:104350000E4A4FF4827100234FF4007CC0E9002123
:104360000A21C0E90233C0E90433C0E906C3C0E949
:104370000833C0E90A31FFF7B7F9002814BFBDE8D8
:10438000804080BDFEF791BABCC3002000380040D9
:1043900010B50B480B4C4FF4E13300210C22C0E95F
:1043A0000043C0E90211C0E90412C0E90611FFF799
:1043B00082FC002814BFBDE8104010BDFEF775BA9E
:1043C00054C400200010014010B50B480B4C4FF4B2
:1043D000E13300210C22C0E90043C0E90211C0E929
:1043E0000412C0E90611FFF766FC002814BFBDE8FF
:1043F000104010BDFEF759BA94C40020004400409C
:104400009F484FF4405102F0A6B900BFFEE710B537
:1044100000F1280151E8002F12B9BFF32F8F04E0FB
:10442000531E41E8003404B1F4E782B12C3001217D
:104430000AE0821CD2E84F3FC2E8441F04B1F9E70A
:104440001A0608BF10BD083000680028F1D100200E
:1044500010BD10B584465CF8303F8BB1CA784FF080
:10446000000E05E01C46DB7893420ED26368A64638
:10447000002BF7D10022C1E9012E00F12C0208E047
:104480000022C1E90122C16209E0C1E9014E04F143
:1044900008021160BEF1000F18BF0EF1040CCCF839
:1044A0000010283050E8001F4A1C40E8002303B1E8
:1044B000F8E710BDD1E90123002A0EBFC362936063
:1044C0008B68191D002B08BF00F130010A6070478E
:1044D0007047000001490BF0D4BC00BFA8C1002008
:1044E0002DE9F84FDFF8A0B17D4F4FF0000800250F
:1044F0004FF000090024B9F1080F08BFBDE8F88F9C
:10450000A9F150005FFA80FA5046D84700200026F3
:10451000D8471020D84721E0B8682844805D01289A
:104520001AD14CB95046D84706F00F00D847F0B220
:1045300000091030D847012438682844805D00F015
:10454000EFFDD7E9000128442944805D8855B8680B
:10455000284400F8068000E000240136802EDBD1DC
:10456000803509F10109C6E7002000F001B800001C
:10457000F8B5454E04460025E8B2072888BFF8BDC7
:10458000A5F15000C0B2B04700200027B04710206E
:10459000B04703E0204600F0C3FD013778B20028A1
:1045A000F8DA0135E8E700BF4D4AC0B21268C1F33E
:1045B000C70301F0070102EBC312105C012202FAEB
:1045C00001F1084018BF0120704700BF70B52C4CA6
:1045D0002C4D4FF4806100222046A847404E4FF4F6
:1045E0008061002230602046A847706020464FF46A
:1045F00080610022A8474FF480610122B060FCF77F
:1046000070FA6420FEF7ECFA1F4CAE20A047202081
:10461000A0471020A047B020A047C820A0470020F6
:10462000A0471020A0474020A0478120A047FF209E
:10463000A047A120A047A620A047A820A0473F2030
:10464000A047A420A047D320A0470020A047D52002
:10465000A047F020A047D920A0472220A047DA2079
:10466000A0471220A047DB20A0472020A0478D2094
:10467000A0471420A047AF202146BDE8704008475E
:10468000089100207B660008FD50000810B5DFF897
:1046900050C0002ADCF80040C1F3C70301F0070155
:1046A00004EBC31454FA80FEC0B2245C03D00D4A5C
:1046B000515C214302E00C4A515C21408EF800100D
:1046C000DCF8042002EBC312125C914208BF10BD5B
:1046D000DCF80810012201EBC3110A5410BD00BF21
:1046E000E8080020FF550108F7550108194800683F
:1046F000704700BF18480178012905D100210170D9
:1047000004484FF0806101601248016841F00101E6
:104710000160704704ED00E04FF0FF30704700008B
:1047200040B193490968B1FBF0F0411E0020B0EBA5
:10473000116F02D04FF0FF307047054AFF2313700E
:10474000044A062313605160034990600870704763
:1047500023ED00E010E000E008C1002010B50446A1
:10476000406894460A46B0F5827F0ED1A068B0F545
:10477000004F02D0B0F5806F0AD12168B0F5806F8C
:104780000B6823F040030B6002D12046012101E0B9
:1047900020468021634600F035F800280FBF002036
:1047A000606D40F02000606518BF032010BD000060
:1047B0001CB504466E4813460A4611490068B0FB12
:1047C000F1F04FF47A71484301906068B0F5827F50
:1047D0000AD12046802100F015F870B1606D40F0DC
:1047E00020006065032009E0019830B1019801388C
:1047F0000190206880680006F6D4002002B010BD49
:1048000000366E012DE9F041984616460F460446E3
:10481000551C206880683840B8421CBF0020BDE8A5
:10482000F081002DF5D0FEF7BFFAA0EB0800B042F2
:10483000EFD32068416821F0E00141606168B1F583
:10484000827F0AD1A168B1F5004F02D0B1F5806F27
:1048500003D1016821F040010160A16AB1F5005F58
:1048600007D1016821F400510160016841F4005151
:104870000160002084F85000012084F851000320DA
:10488000BDE8F081B0B592B000241E480225CDE904
:104890000A44CDE908440194016841F08051016067
:1048A000006800F08050019001980194164801685A
:1048B00041F440410160006800F4404001900198DB
:1048C00004201190602010950F900C200E904FF452
:1048D0008000CDE90C504FF4A020079001200690F5
:1048E00006A8FEF795FD4FF480500594032104902F
:1048F0000F20CDE90254019001A8FEF795FC12B0FB
:10490000B0BD00BF4038024000700040154841680B
:1049100001F00C021449082A03D0042A08BF1349E5
:1049200015E0026802235202104A58BF0A46016885
:1049300001F03F01B2FBF1F10268C2F3881251436A
:104940000268C2F3014203EB4202B1FBF2F1084AF2
:10495000084B11604068C0F30310185C21FA00F0A6
:1049600010607047043802400024F40040787D0154
:10497000F80100202C55010810B50E480F4CD0F856
:10498000801041F47001C0F880100B490A6842F0B1
:1049900001020A6000228A600B6823400B60084B0A
:1049A0004B600B6823F480230B60CA604FF00061FA
:1049B000016010BD08ED00E000380240FFFFF6FE88
:1049C000103000240148FFF7B4B800BF14C4002021
:1049D00010B50368184AB0F1804F13D0174CA042AD
:1049E00010D0174CA0420DD0164CA0420AD0164C45
:1049F000A0420BD0154CA04208D0154CA04205D0C7
:104A0000904207D14C6823F070032343CC6823F411
:104A1000407323434C6923F08003904243EA04032C
:104A200003608B68C3620B68836204BF096911630A
:104A30000121416110BD00BF0000014000040040A1
:104A400000080040000C00400048014000400140C8
:104A50000044014010B5930712D400F12803D00799
:104A600018D153E8000F084203D1BFF32F8F002065
:104A700005E020EA010243E8002404B1F1E710BD9B
:104A8000806AD20700EA010315D1002B18BF10BDC0
:104A9000002010BD53E8000F00EA01028A4203D053
:104AA000BFF32F8F002005E020EA010243E8002435
:104AB00004B1EFE710BD8B4218BF002010BD00000D
:104AC00080B5124A4FF0000E02F1440C624606E037
:104AD0001A6991420BD3891A03F10C029E4613689E
:104AE000002BF5D10022C0E902E2016106E0C0E935
:104AF00002E3016198601A69511A1961BEF1000F51
:104B000018BF0EF10C0CCCF8000080BDE0040020B2
:104B10002DE9F0470446006849F20C650169E26836
:104B200021F4405111430161A168D4E90423E769EC
:104B3000C6681143AE43B7F5004F41EA030141EAAD
:104B4000070141EA0601C1604169A26921F440718F
:104B500041EA020141614A4940F480603FD1884204
:104B60000CBFDFF820A1DFF820A1D047D4F80490D3
:104B70008046D04767680646D047616819257F00A0
:104B8000684306FB05F34900B3FBF7F3B0FBF1F014
:104B90006421B0FBF1F202FB1102181A4FEA49033B
:104BA0001044322202EBC0004FF4F872B0FBF1F077
:104BB00002EA400008FB05F2B2FBF3F2B2FBF1F1AE
:104BC00000EB0116D047616868434900B0FBF1F77C
:104BD000D047616868430722032349003CE08842CC
:104BE00014BFDFF8A4A0DFF89CA0D047D4F804904D
:104BF0008046D04767680646D04761681925BF00E0
:104C0000684306FB05F38900B3FBF7F3B0FBF1F053
:104C10006421B0FBF1F202FB1102181A4FEA89037A
:104C20001044322202EB001008FB05F2B0FBF1F059
:104C3000B2FBF3F200F0F000B2FBF1F100EB011671
:104C4000D047616868438900B0FBF1F7D0476168DD
:104C500068430F2204238900B0FBF1F0391A64275E
:104C6000B0FBF7F505FB1700084421689840323087
:104C7000B0FBF7F0104030438860BDE8F08700BF1C
:104C800000140140953300088133000810B5104C22
:104C9000EFF3108072B60023606801680A6812683A
:104CA000496B028909684968511A418189B2426891
:104CB00053548169884760684069006802F030FA9F
:104CC0006068006800684168006862B610BD00BF97
:104CD000E0080020FEE7000070B5DB4D01E001F0C8
:104CE000CCFA95F827000128F9D0012085F8270093
:104CF00000F0ECF9D34C4FF48051002200262046FE
:104D0000FEF74DF8C72000F067F920464FF48051B8
:104D10000122FEF744F800F073F901F0AEFA85F8CD
:104D2000276070BD2DE9F041E64E054601E001F037
:104D3000A4FA96F827000128F9D0012086F8270068
:104D400000F05EF9376900F0C1F9EB4C4FF4805187
:104D500000224FF000082046FEF721F8202000F046
:104D60003BF930787D43092802D3280E00F034F94E
:104D7000D54FC5F30740B847C5F30720B847E8B299
:104D8000B84720464FF480510122FEF708F800F0A2
:104D900037F901F072FA86F82780BDE8F08100BF8C
:104DA000F8B5C84D012085F8270001E001F065FA4B
:104DB000FDF7FAFF6328F9D900F092F82649002799
:104DC00011FA80F2092A0CD84FF480600A21DFE83A
:104DD00002F0050A0D10131619201C2302200121D0
:104DE0001AE0002433E00420022115E0082003210A
:104DF00012E0102004210FE0202005210CE04020CB
:104E0000062109E08020072106E04FF40070092107
:104E100002E04FF4807008214FF480732970010183
:104E20004FF480524FF4803406026B818301C5E950
:104E30000362C5E90514C5E9070300F0A7F8074EAA
:104E400001200124B0470220B0470320B04785F875
:104E50002770204601B0F0BDEFBFFFFF214F0008D3
:104E60002DE9F047974E15460F46814601E001F0C7
:104E700004FA96F827000128F9D001204FF4805158
:104E800000224FF0000886F827009B488246FDF775
:104E900086FF0B2000F0A0F83078092802D3380EE6
:104EA00000F09AF8884CC7F30740A047C7F30720E3
:104EB000A047F8B2A0470020A0475048AAB24946F0
:104EC0004FF4FA63FEF786FC50464FF480510122FE
:104ED000FDF765FF01F0D1F986F82780BDE8F0877E
:104EE000F8B5854C4FF4805100222046FDF757FF5E
:104EF000754F9F20B847A520B8470546A520B8475D
:104F00000646A520B847074620464FF480510122A7
:104F1000FDF745FF300240EA0540384401B0F0BDDE
:104F2000B0B5754C05464FF4805100222046FDF780
:104F300036FF022D0CD0012D15D1052000F04CF8C4
:104F4000A52000F049F805465E4880F8245014E09A
:104F5000352000F041F8A52000F03EF805465948FC
:104F600080F8255009E0152000F036F8A52000F063
:104F700033F80546534880F8265020464FF48051B8
:104F80000122FDF70CFF2846B0BD00BFF8B55A4C12
:104F90004FF48051002200252046FDF700FF4B20F2
:104FA00000F01AF803E0A52000F016F80135042DF2
:104FB000F9D3444E002505E0A520771900F00CF840
:104FC00078700135082DF7D120464FF48051012229
:104FD000BDE8F840FDF7E3BEE0B58DF807000A2014
:104FE0000DF107010DF10602012300900348FEF7C1
:104FF00088FC9DF8060002B080BD00BFBCC3002045
:10500000B0B501F03AF93C4C4FF4805100222046F3
:10501000FDF7C5FE0520FFF7DFFF2A4DA520FFF7AE
:10502000DBFF85F8240001F028F995F82400C0077B
:10503000F4D120464FF480510122BDE8B040FDF785
:10504000AEBE00BF0004024038DA00202DE9F8436C
:105050001C4F0D46044601E001F00FF997F82700B8
:105060000128F9D0012087F82700FFF7C9FF00F0D9
:105070002DF821484FF4805100224FF0000881465E
:10508000FDF78DFE0220FFF7A7FF3878092802D32D
:10509000280EFFF7A1FF0C4EC5F30740B047C5F33C
:1050A0000720B047E8B2B0472046B04748464FF423
:1050B00080510122FDF773FEFFF7A2FF87F82780DA
:1050C000BDE8F88338DA0020D94F000810B50A4C43
:1050D0004FF4805100222046FDF761FE0620FFF7C5
:1050E0007BFF20464FF480510122FDF758FEBDE8BA
:1050F000104001F0C2B800BF00040240F8B58DF8BE
:105100000F00642001210DF10F020123CDE90021E0
:1051100002900C4878210022FDF702FF8FBD00BFEE
:10512000F8B58DF80F00642001210DF10F02012365
:10513000CDE900210290034878214022FDF7F0FEDE
:105140008FBD00BF68C300202DE9F04F89B00890E3
:1051500013988B46159F92460593411E072900F22E
:105160009380CDF80CA0DFE811F00800B100A10297
:105170006F01A102A102A102290216980021584440
:1051800004907CE0179801EB0A0B06970791D0F882
:105190000480DFF89C050068007C10F0030046D016
:1051A000069D169FDDE90446022829D0089800696B
:1051B00080688047069CDDF85880DDE90456824609
:1051C0008020217820FA08F008420CD0089F294658
:1051D0005A46384600F0FAFA80EA0A033846294669
:1051E0005A4600F042FB08F101000135082808BFCB
:1051F0000134B0F1080818BF8046013EE0D137E025
:1052000080202978F840084205D0089821465A465F
:10521000434600F02AFB781C0134082808BF0135FA
:10522000B0F1080718BF0746013EE9D120E0179802
:105230000DF11009169ED0F800A099E830024F46F3
:10524000802043465A4617F8011BF040084208BF29
:1052500053460898214600F008FB701C0134B0F159
:10526000080618BF0646082808BFB946013DE6D122
:105270000799069F1498DDF80CA007440131129895
:105280008142FFF67FAF11E2102800F0F481202860
:1052900040F00C824FF0000814E0059D08EB0A0472
:1052A000002609E057F8263008980BEB0601224645
:1052B00000F0DBFA0136013D012DF3DA149808F114
:1052C0000108074412988045E7DBEFE116980022B9
:1052D00058440190B3E002EB0A0097F800B006973B
:1052E00002920790DFF848040068007C00F0030099
:1052F00002284DD0002840F09B801798DDF81490CC
:10530000019C169E002806984F462546B0468246C8
:10531000049020D04FEA4801C022062022FA01F171
:10532000A0EB4800079A01EA0B0121FA00F0179957
:1053300051F820300898294600F097FA08F1010842
:105340000135B8F1040F04BF1AF801BF4FF000088F
:10535000013FDFD16CE07100C022062022FA01F18A
:10536000A0EB4600079A01EA0B0121FA00F3089826
:10537000214600F07AFA01360134042E04D1049853
:10538000002610F801BF0490B9F10109E3D14FE004
:10539000394617983E46059F019CDDF858A00491B8
:1053A0000028B8462546D14622D04FEA4901C022FE
:1053B000062022FA01F1A0EB490001EA0B0131FAC3
:1053C00000F007D01799079A51F82030089829461D
:1053D00000F04BFA09F101090135B9F1040F04BFDE
:1053E00016F801BF4FF00009B8F10108DDD11FE048
:1053F0004FEA4A01C022062022FA01F1A0EB4A003E
:1054000001EA0B0131FA00F304D00898079A21460B
:1054100000F02BFA0AF1010A0134BAF1040F05D1A8
:1054200004984FF0000A10F801BF0490013FDFD14B
:10543000029A069F1498DDF80CA0074401321298D6
:105440008242FFF648AF31E116980021584401909E
:10545000AFE001EB0A0097F80090069702910790E1
:10546000B3480068007C00F0030002284FD00028F9
:1054700040F09A801798DDF814B0019C169E002821
:1054800006985F462546B0460490039022D04FEA26
:105490008801F022042022FA01F1A0EB8800079A8B
:1054A00001EA090121FA00F0179951F82030089813
:1054B000294600F0DAF908F101080135B8F1020FC8
:1054C00005D104984FF0000810F8019F0490013FA7
:1054D000DDD169E0B100F022042022FA01F1A0EB55
:1054E0008600079A01EA090121FA00F3089821468B
:1054F00000F0BBF901360134022E04D103980026D6
:1055000010F8019F0390BBF1010BE3D14CE0179819
:10551000019C169E04970397002805982546B346DC
:105520008046074624D04FEA8B01F022042022FA5D
:1055300001F1A0EB8B0001EA090131FA00F007D07C
:105540001799079A51F820300898294600F08DF9EC
:105550000BF1010B0135BBF1020F05D104984FF09F
:10556000000B10F8019F0490B8F10108DBD11BE09B
:10557000B100F022042022FA01F1A0EB860001EA3A
:10558000090131FA00F304D00898079A214600F087
:105590006CF901360134022E04D10398002610F86C
:1055A000019F0390013FE3D10299069F149807449D
:1055B000013112988142FFF64CAF77E0DFF870813D
:1055C0004FF0000953E0D8F8000009EB0A05007C11
:1055D00000F00300022815D0002844D117980024B9
:1055E00028B3059E0BE0385D179A0BEB040152F8C7
:1055F000203008982A4600F038F90134013E012E87
:10560000F1DA30E017980026F8B1059C0CE0B85D9F
:1056100040B1179A0BEB060152F8203008982A4641
:1056200000F023F90136013C012CF0DA1BE0059E65
:1056300008E03B5D08980BEB04012A4600F015F9E1
:105640000134013E012EF4DA0DE0059C09E0BB5D5A
:105650002BB108980BEB06012A4600F006F901363B
:10566000013C012CF3DA149809F10109074412985E
:105670008145A8DB1AE04FF0000814E0059D08EB17
:105680000A04002609E037F8163008980BEB0601EB
:10569000224600F0EAF80136013D012DF3DA1498B4
:1056A00008F10108074412988045E7DB09B0BDE81E
:1056B000F08F00BFE0B5009200F008F88CBDE0B5B7
:1056C00000930B4600F002F88CBD00002DE9F04776
:1056D000074617488846DDF820A01C461546006896
:1056E000017CC90703D1C06BD0F800901BE0554581
:1056F000C8BFBDE8F087464605E0384631462A4631
:1057000000F0F1F80136A642F7DD0135EFE7464635
:1057100006E0384631462A464B4600F0A6F80136E8
:10572000A642F6DD01355545F1DDBDE8F08700BF45
:105730001C0000200248012918BF0020704700BF4C
:10574000E8320108093907290CD80A48DFE801F0D6
:105750000B0406080A100C0E0C4870470A487047E4
:105760000848704700207047044870470248704757
:1057700003487047AB580008415800082D580008EE
:1057800037580008ED57000875580008CF58000832
:105790004A1E0D2A15D881680020DFE802F00A0CA5
:1057A0000E1012121215070808070707704701208C
:1057B00070474868704788687047C86870470869CC
:1057C00070474FF0FF3070478869704780B588B2E6
:1057D00091B2FEF7E9FE80BD806800220A608289EE
:1057E000013A8A80008A0138C8807047B0B5044603
:1057F00000F008F80546A06901210022FEF7E8FC48
:105800002843B0BDB0B50446806858B91C2003F0E9
:1058100087FAA060054620698068804706F086F810
:10582000A861A068B0FA80F04009B0BD8069062187
:105830000022FEF7CDBC806905210022FEF7C8BC1E
:10584000E0B50023CDE900238DF804106A46042159
:105850008069FEF7BDFC8CBDE0B5CDE900126A465B
:1058600003218069FEF7B4FC8CBD88B291B2DAB234
:10587000FEF70CBF7CB50446002016460D46CDE968
:1058800000002046FFF7BEFFA06868B1C0E90156DE
:105890006A464169002908BF29464161CDE90056A1
:1058A000A0690721FEF794FC7CBDBCB5044600202E
:1058B0000D4601902046FFF7A5FFA06830B10560B6
:1058C000019501AA0221A069FEF782FCBCBD70B55A
:1058D00015460C460646FFF795FFB06810B1C0E9C3
:1058E0000345446170BDF8B514460D460646FFF702
:1058F0006DFF074630698068804780EA07033046BD
:105900002946224601B0BDE8F040FFF7AEBF0000D7
:1059100010B5074C00F00F03044AB0F1FF3F2344D9
:10592000C8BF83180801187010BD00BF00E400E074
:1059300014ED00E010B501F07BFCA0B1002401F0F3
:1059400043FC01460D4805E050F824206AB18A4224
:105950000DD00134032CF7D9042C08D104200424E1
:1059600000F068FE03E0042401E040F8241004493C
:1059700004EB440001EB401010BD00BF18D500201F
:1059800028D5002010B504464068012818BF10BD76
:10599000FEF7A6FDA068BDE8104004F0F8BA10B507
:1059A000044601F045FC30B120684FF0FF31BDE8FE
:1059B000104000F0CBBD10BD006800F0E5BD10B593
:1059C0000446002000F0FCFD0028206001D00120EA
:1059D00010BD0520214600F02DFE002010BD10B5A1
:1059E000044601F025FC20B12068BDE8104000F01D
:1059F00005BE10BD00F0BCBC48F20101411A0329EC
:105A000034BF002009F014BF704748F20101411A69
:105A1000032934BF002009F03DBF704748F201015F
:105A2000411A0020032938BF0120704710B5C8B1C2
:105A3000044600783A2818D111492046FBF7A4F80B
:105A4000C0B110492046FBF79FF8B0B10E4920467F
:105A5000FBF79AF84FF0FF31002808BF48F2030126
:105A6000084610BD4FF0FF3010BD2046BDE8104085
:105A700009F042BF48F2010010BD48F2020010BD1B
:105A8000E8550108EF550108E055010848F2010208
:105A9000821A032A34BF4FF0FF3009F075BF7047F8
:105AA00048F20103C31A032B28BF09F0A5BF02A0C7
:105AB00050F82300704700BFFFFFFFFF0000000009
:105AC00000000000FEF748FB0A4C0B4E0BA52046D9
:105AD0000221FDF75DF930684FF0FF3101F0BEFAA9
